{
  "address": "0x8536Ef02029B5a028791Bc70908cbE0145BE99A3",
  "abi": [
    {
      "anonymous": false,
      "inputs": [
        {
          "indexed": true,
          "internalType": "address",
          "name": "account",
          "type": "address"
        },
        {
          "components": [
            {
              "internalType": "int256",
              "name": "tradingPnl",
              "type": "int256"
            },
            {
              "internalType": "int256",
              "name": "stakingPnl",
              "type": "int256"
            },
            {
              "internalType": "int256",
              "name": "insurancePnl",
              "type": "int256"
            }
          ],
          "indexed": false,
          "internalType": "struct StripsViewImpl.AccountValueParams",
          "name": "params",
          "type": "tuple"
        }
      ],
      "name": "LogAccountValue",
      "type": "event"
    },
    {
      "anonymous": false,
      "inputs": [
        {
          "indexed": true,
          "internalType": "address",
          "name": "account",
          "type": "address"
        },
        {
          "indexed": true,
          "internalType": "address",
          "name": "market",
          "type": "address"
        },
        {
          "components": [
            {
              "internalType": "int256",
              "name": "marketPrice",
              "type": "int256"
            },
            {
              "internalType": "int256",
              "name": "oraclePrice",
              "type": "int256"
            },
            {
              "internalType": "int256",
              "name": "tradersTotalPnl",
              "type": "int256"
            },
            {
              "internalType": "int256",
              "name": "uniLpPrice",
              "type": "int256"
            },
            {
              "internalType": "bool",
              "name": "ammIsLong",
              "type": "bool"
            },
            {
              "internalType": "int256",
              "name": "ammTradingPnl",
              "type": "int256"
            },
            {
              "internalType": "int256",
              "name": "ammFundingPnl",
              "type": "int256"
            },
            {
              "internalType": "int256",
              "name": "ammTotalPnl",
              "type": "int256"
            },
            {
              "internalType": "int256",
              "name": "ammNotional",
              "type": "int256"
            },
            {
              "internalType": "int256",
              "name": "ammInitialPrice",
              "type": "int256"
            },
            {
              "internalType": "int256",
              "name": "ammEntryPrice",
              "type": "int256"
            },
            {
              "internalType": "int256",
              "name": "ammTradingLiquidity",
              "type": "int256"
            },
            {
              "internalType": "int256",
              "name": "ammStakingLiquidity",
              "type": "int256"
            },
            {
              "internalType": "int256",
              "name": "ammTotalLiquidity",
              "type": "int256"
            },
            {
              "internalType": "bool",
              "name": "isLong",
              "type": "bool"
            },
            {
              "internalType": "int256",
              "name": "tradingPnl",
              "type": "int256"
            },
            {
              "internalType": "int256",
              "name": "fundingPnl",
              "type": "int256"
            },
            {
              "internalType": "int256",
              "name": "totalPnl",
              "type": "int256"
            },
            {
              "internalType": "int256",
              "name": "marginRatio",
              "type": "int256"
            },
            {
              "internalType": "int256",
              "name": "collateral",
              "type": "int256"
            },
            {
              "internalType": "int256",
              "name": "notional",
              "type": "int256"
            },
            {
              "internalType": "int256",
              "name": "initialPrice",
              "type": "int256"
            },
            {
              "internalType": "int256",
              "name": "entryPrice",
              "type": "int256"
            },
            {
              "internalType": "int256",
              "name": "slpTradingPnl",
              "type": "int256"
            },
            {
              "internalType": "int256",
              "name": "slpStakingPnl",
              "type": "int256"
            },
            {
              "internalType": "int256",
              "name": "slpTradingCummulativePnl",
              "type": "int256"
            },
            {
              "internalType": "int256",
              "name": "slpStakingCummulativePnl",
              "type": "int256"
            },
            {
              "internalType": "int256",
              "name": "slpTradingPnlGrowth",
              "type": "int256"
            },
            {
              "internalType": "int256",
              "name": "slpStakingPnlGrowth",
              "type": "int256"
            },
            {
              "internalType": "int256",
              "name": "slpTotalSupply",
              "type": "int256"
            },
            {
              "internalType": "int256",
              "name": "stakerInitialStakingPnl",
              "type": "int256"
            },
            {
              "internalType": "int256",
              "name": "stakerInitialTradingPnl",
              "type": "int256"
            },
            {
              "internalType": "uint256",
              "name": "stakerInitialBlockNum",
              "type": "uint256"
            },
            {
              "internalType": "int256",
              "name": "stakerUnrealizedStakingProfit",
              "type": "int256"
            },
            {
              "internalType": "int256",
              "name": "stakerUnrealizedTradingProfit",
              "type": "int256"
            },
            {
              "internalType": "int256",
              "name": "tradingRewardsTotal",
              "type": "int256"
            },
            {
              "internalType": "int256",
              "name": "stakingRewardsTotal",
              "type": "int256"
            }
          ],
          "indexed": false,
          "internalType": "struct IStripsEvents.CheckParams",
          "name": "params",
          "type": "tuple"
        }
      ],
      "name": "LogCheckData",
      "type": "event"
    },
    {
      "inputs": [
        {
          "internalType": "address",
          "name": "_asset",
          "type": "address"
        },
        {
          "internalType": "int256",
          "name": "strpPrice",
          "type": "int256"
        },
        {
          "internalType": "int256",
          "name": "lpPrice",
          "type": "int256"
        }
      ],
      "name": "apy",
      "outputs": [
        {
          "internalType": "int256",
          "name": "",
          "type": "int256"
        }
      ],
      "stateMutability": "view",
      "type": "function"
    }
  ],
  "transactionHash": "0x2d8fb98b05bc08ee12d456af975774ee41d83222167b7041bd83da432c104b1e",
  "args": [],
  "solcInputHash": "ca517d14ec61818cef65e189431947b4",
  "bytecode": "0x6144b061003a600b82828239805160001a60731461002d57634e487b7160e01b600052600060045260246000fd5b30600052607381538281f3fe73000000000000000000000000000000000000000030146080604052600436106100be5760003560e01c8063a53cd2c91161007b578063a53cd2c914610173578063bae54d2d14610186578063c25f9bf3146101a6578063d1573be5146101b9578063ed3a07d7146101cc578063fa427c66146101df57600080fd5b8063309efe79146100c35780633b4820e9146100ec5780633f6002141461010c5780638abc81e01461011f57806390459b691461013f5780639091676114610160575b600080fd5b6100d66100d1366004613c8e565b6101f2565b6040516100e39190614121565b60405180910390f35b6100ff6100fa366004613c76565b610d5d565b6040516100e39190614055565b6100ff61011a366004613cbd565b610ee3565b61013261012d366004613c8e565b611060565b6040516100e391906140cc565b61015261014d366004613a0f565b611068565b6040519081526020016100e3565b6100ff61016e366004613cbd565b6114b8565b610152610181366004613d01565b611a01565b610199610194366004613c8e565b611a6c565b6040516100e3919061410e565b6100ff6101b4366004613c76565b612864565b6100ff6101c7366004613cbd565b6129a9565b6100ff6101da366004613d42565b612cbd565b6100ff6101ed366004613cbd565b612e1b565b604080518082019091526060808252602082015260008360010180548060200260200160405190810160405280929190818152602001828054801561026057602002820191906000526020600020905b81546001600160a01b03168152600190910190602001808311610242575b5050505050905060008151116102915760405162461bcd60e51b8152600401610288906140a8565b60405180910390fd5b6040805160c081018252600080825260208201819052918101829052606081018290526080810182905260a081019190915281516102d09060016141c0565b6001600160401b038111156102f557634e487b7160e01b600052604160045260246000fd5b60405190808252806020026020018201604052801561032e57816020015b61031b613846565b8152602001906001900390816103135790505b50835281516001600160401b0381111561035857634e487b7160e01b600052604160045260246000fd5b60405190808252806020026020018201604052801561039157816020015b61037e6138a6565b8152602001906001900390816103765790505b5060208085019190915260008083526040808401919091526016870154815163a5da91ff60e01b815291516001600160a01b039091169263a5da91ff9260048082019391829003018186803b1580156103e957600080fd5b505afa1580156103fd573d6000803e3d6000fd5b505050506040513d601f19601f820116820180604052508101906104219190613a5d565b6060820152601685015460408051634c6afee560e11b815290516001600160a01b03909216916398d5fdca91600480820192602092909190829003018186803b15801561046d57600080fd5b505afa158015610481573d6000803e3d6000fd5b505050506040513d601f19601f820116820180604052508101906104a59190613a5d565b608082015260005b8251811015610aa1578281815181106104d657634e487b7160e01b600052603260045260246000fd5b60200260200101518460000151828151811061050257634e487b7160e01b600052603260045260246000fd5b6020908102919091018101516001600160a01b039092169101526010860154845180518390811061054357634e487b7160e01b600052603260045260246000fd5b602002602001015161010001818152505082818151811061057457634e487b7160e01b600052603260045260246000fd5b60200260200101516001600160a01b031663bd9a548b6040518163ffffffff1660e01b8152600401604080518083038186803b1580156105b357600080fd5b505afa1580156105c7573d6000803e3d6000fd5b505050506040513d601f19601f820116820180604052508101906105eb9190613a75565b855180518490811061060d57634e487b7160e01b600052603260045260246000fd5b60200260200101516060018660000151848151811061063c57634e487b7160e01b600052603260045260246000fd5b60200260200101516080018281525082815250505082818151811061067157634e487b7160e01b600052603260045260246000fd5b60200260200101516001600160a01b0316638ec812ee6040518163ffffffff1660e01b815260040160206040518083038186803b1580156106b157600080fd5b505afa1580156106c5573d6000803e3d6000fd5b505050506040513d601f19601f820116820180604052508101906106e99190613a5d565b845180518390811061070b57634e487b7160e01b600052603260045260246000fd5b602002602001015160a001818152505082818151811061073b57634e487b7160e01b600052603260045260246000fd5b60200260200101516001600160a01b0316630910a5106040518163ffffffff1660e01b815260040160206040518083038186803b15801561077b57600080fd5b505afa15801561078f573d6000803e3d6000fd5b505050506040513d601f19601f820116820180604052508101906107b39190613a5d565b84518051839081106107d557634e487b7160e01b600052603260045260246000fd5b602002602001015160c001818152505061081f83828151811061080857634e487b7160e01b600052603260045260246000fd5b602002602001015183606001518460800151611068565b845180518390811061084157634e487b7160e01b600052603260045260246000fd5b602002602001015160e001818152505060008460000151828151811061087757634e487b7160e01b600052603260045260246000fd5b6020026020010151600001901515908115158152505060006108cb8483815181106108b257634e487b7160e01b600052603260045260246000fd5b602002602001015187896131579092919063ffffffff16565b600d81015490915060ff61010090910416151560011415610a74576000806109258987868151811061090d57634e487b7160e01b600052603260045260246000fd5b60200260200101518561091e613185565b600061319f565b91509150818560a001818152505061096f8987868151811061095757634e487b7160e01b600052603260045260246000fd5b602002602001015185610968613185565b6001613260565b91506040518060a0016040528087868151811061099c57634e487b7160e01b600052603260045260246000fd5b6020908102919091018101516001600160a01b0316825281810185905260a0808901516040808501919091526060808501879052815160c081018352600d8a015460ff808216151583526101008204811615158388015262010000909104161515928101929092526006890154908201526005880154608082810191909152600289015492820192909252920191909152880151865187610a3c82614416565b60ff1660ff1681525060ff1681518110610a6657634e487b7160e01b600052603260045260246000fd5b602002602001018190525050505b600183604001818151610a8791906141d8565b60ff16905250819050610a99816143fb565b9150506104ad565b5060128501548351604083015181516001600160a01b039093169260ff909116908110610ade57634e487b7160e01b600052603260045260246000fd5b6020908102919091018101516001600160a01b0392831690820152601287015460408051634039aa6760e11b81529051919093169263807354ce926004808301939192829003018186803b158015610b3557600080fd5b505afa158015610b49573d6000803e3d6000fd5b505050506040513d601f19601f82011682018060405250810190610b6d91906139f3565b8360000151826040015160ff1681518110610b9857634e487b7160e01b600052603260045260246000fd5b6020908102919091018101516001600160a01b039283166040918201526012880154815162910a5160e41b81529151931692630910a51092600480840193919291829003018186803b158015610bed57600080fd5b505afa158015610c01573d6000803e3d6000fd5b505050506040513d601f19601f82011682018060405250810190610c259190613a5d565b8360000151826040015160ff1681518110610c5057634e487b7160e01b600052603260045260246000fd5b602002602001015160c001818152505060018360000151826040015160ff1681518110610c8d57634e487b7160e01b600052603260045260246000fd5b60209081029190910101519015159052601085015483516040830151815160ff909116908110610ccd57634e487b7160e01b600052603260045260246000fd5b60209081029190910101516101000152601285015460608201516080830151610d00926001600160a01b03169190611068565b8360000151826040015160ff1681518110610d2b57634e487b7160e01b600052603260045260246000fd5b602002602001015160e0018181525050600181604001818151610d4e91906141d8565b60ff1690525091949350505050565b60018101546060906000906001600160401b03811115610d8d57634e487b7160e01b600052604160045260246000fd5b604051908082528060200260200182016040528015610dd257816020015b6040805180820190915260008082526020820152815260200190600190039081610dab5790505b50905060005b6001840154811015610eba576000846001018281548110610e0957634e487b7160e01b600052603260045260246000fd5b60009182526020808320909101546001600160a01b031680835260028801909152604090912054845191925060ff1690849084908110610e5957634e487b7160e01b600052603260045260246000fd5b6020908102919091010151901515905282518190849084908110610e8d57634e487b7160e01b600052603260045260246000fd5b6020908102919091018101516001600160a01b039092169101525080610eb2816143fb565b915050610dd8565b5080604051602001610ecc9190613fb7565b604051602081830303815290604052915050919050565b6060600082806020019051810190610efb9190613bbc565b80516020820151919250600091610f13918791613282565b9050610f1d6138a6565b82516001600160a01b031681526040805160c081018252600d84015460ff8082161515835261010082048116151560208401526201000090910416151591810191909152600683015460608201526005830154608080830191909152600284015460a08301528201528251610f9e90879084610f97613185565b60016132f6565b602084015250508251610fb69087908461091e613185565b60608301526040808301919091525161104590829060200181516001600160a01b03168152602080830151818301526040808401518184015260608085015181850152608094850151805115158686015292830151151560a08086019190915291830151151560c085015282015160e08401529281015161010083015291909101516101208201526101400190565b60405160208183030381529060405293505050505b92915050565b61105a61391a565b600080846001600160a01b031663817b1cd26040518163ffffffff1660e01b815260040160206040518083038186803b1580156110a457600080fd5b505afa1580156110b8573d6000803e3d6000fd5b505050506040513d601f19601f820116820180604052508101906110dc9190613a5d565b9050600081158015906110ee57508415155b1561120f576000866001600160a01b0316639015dcc96040518163ffffffff1660e01b815260040160206040518083038186803b15801561112e57600080fd5b505afa158015611142573d6000803e3d6000fd5b505050506040513d601f19601f8201168201806040525081019061116691906139f3565b6001600160a01b031663fb748f476040518163ffffffff1660e01b815260040160206040518083038186803b15801561119e57600080fd5b505afa1580156111b2573d6000803e3d6000fd5b505050506040513d601f19601f820116820180604052508101906111d69190613a5d565b905061120b6111e584876135c6565b6112056111f2848a6135c6565b6111ff6301e133806135d4565b906135c6565b906135e8565b9150505b856001600160a01b031663c6be23716040518163ffffffff1660e01b815260040160206040518083038186803b15801561124857600080fd5b505afa15801561125c573d6000803e3d6000fd5b505050506040513d601f19601f820116820180604052508101906112809190613a43565b1561128e5791506114b19050565b600080876001600160a01b031663807354ce6040518163ffffffff1660e01b815260040160206040518083038186803b1580156112ca57600080fd5b505afa1580156112de573d6000803e3d6000fd5b505050506040513d601f19601f8201168201806040525081019061130291906139f3565b6001600160a01b031663f0588acc6040518163ffffffff1660e01b8152600401604080518083038186803b15801561133957600080fd5b505afa15801561134d573d6000803e3d6000fd5b505050506040513d601f19601f820116820180604052508101906113719190613a75565b915091506000886001600160a01b031663bc49abd86040518163ffffffff1660e01b815260040160206040518083038186803b1580156113b057600080fd5b505afa1580156113c4573d6000803e3d6000fd5b505050506040513d601f19601f820116820180604052508101906113e89190613a5d565b90506000808a6001600160a01b0316630910a5106040518163ffffffff1660e01b815260040160206040518083038186803b15801561142657600080fd5b505afa15801561143a573d6000803e3d6000fd5b505050506040513d601f19601f8201168201806040525081019061145e9190613a5d565b9050801561149d5761149a61148182611477878d6135c6565b611205908961417f565b6111ff61148d866135d4565b6112056301e133806135d4565b91505b6114a7828761417f565b9750505050505050505b9392505050565b60606000828060200190518101906114d09190613b01565b80519091506001600160a01b031661151a5760405162461bcd60e51b815260206004820152600d60248201526c15d493d391d7d050d0d3d55395609a1b6044820152606401610288565b6040805180820182526000808252602080830182905284516001600160a01b0316835260018801805485518184028101840190965280865293949293909183018282801561159157602002820191906000526020600020905b81546001600160a01b03168152600190910190602001808311611573575b5050505050905060008151116115b95760405162461bcd60e51b8152600401610288906140a8565b8560120160009054906101000a90046001600160a01b03166001600160a01b031663c52aa2cf6040518163ffffffff1660e01b815260040160206040518083038186803b15801561160957600080fd5b505afa15801561161d573d6000803e3d6000fd5b505050506040513d601f19601f820116820180604052508101906116419190613a43565b1561175957601286015460408051639015dcc960e01b815290516000926001600160a01b031691639015dcc9916004808301926020929190829003018186803b15801561168d57600080fd5b505afa1580156116a1573d6000803e3d6000fd5b505050506040513d601f19601f820116820180604052508101906116c591906139f3565b84516040516319beeebf60e31b81526001600160a01b03918216600482015291925082169063cdf775f89060240160206040518083038186803b15801561170b57600080fd5b505afa15801561171f573d6000803e3d6000fd5b505050506040513d601f19601f820116820180604052508101906117439190613a5d565b83602001818151611754919061417f565b905250505b60005b81518110156119d65781818151811061178557634e487b7160e01b600052603260045260246000fd5b60200260200101516001600160a01b031663c52aa2cf6040518163ffffffff1660e01b815260040160206040518083038186803b1580156117c557600080fd5b505afa1580156117d9573d6000803e3d6000fd5b505050506040513d601f19601f820116820180604052508101906117fd9190613a43565b611806576119c4565b600082828151811061182857634e487b7160e01b600052603260045260246000fd5b60200260200101516001600160a01b0316639015dcc96040518163ffffffff1660e01b815260040160206040518083038186803b15801561186857600080fd5b505afa15801561187c573d6000803e3d6000fd5b505050506040513d601f19601f820116820180604052508101906118a091906139f3565b85516040516304d608d360e11b81526001600160a01b0391821660048201529192508216906309ac11a69060240160206040518083038186803b1580156118e657600080fd5b505afa1580156118fa573d6000803e3d6000fd5b505050506040513d601f19601f8201168201806040525081019061191e9190613a5d565b8460200181815161192f919061417f565b90525084516040516319beeebf60e31b81526001600160a01b0391821660048201529082169063cdf775f89060240160206040518083038186803b15801561197657600080fd5b505afa15801561198a573d6000803e3d6000fd5b505050506040513d601f19601f820116820180604052508101906119ae9190613a5d565b846020018181516119bf919061417f565b905250505b806119ce816143fb565b91505061175c565b506040805183516001600160a01b031660208083019190915284015191810191909152606001611045565b600080611a0f858585613282565b90506000611a28868684611a21613185565b6000613260565b9050816005015481611a4e88600b016005015485600601546135c690919063ffffffff16565b611a5891906143a5565b611a6291906143a5565b9695505050505050565b6040805180820190915260608082526020820152600083600101805480602002602001604051908101604052809291908181526020018280548015611ada57602002820191906000526020600020905b81546001600160a01b03168152600190910190602001808311611abc575b505050505090506000815111611b025760405162461bcd60e51b8152600401610288906140a8565b6040805160c081018252600080825260208201819052918101829052606081018290526080810182905260a08101919091528151611b419060016141c0565b6001600160401b03811115611b6657634e487b7160e01b600052604160045260246000fd5b604051908082528060200260200182016040528015611b9f57816020015b611b8c613846565b815260200190600190039081611b845790505b5083528151611baf9060016141c0565b6001600160401b03811115611bd457634e487b7160e01b600052604160045260246000fd5b604051908082528060200260200182016040528015611c1957816020015b6040805180820190915260008082526020820152815260200190600190039081611bf25790505b5060208085019190915260008282018190526040808401919091526016870154815163a5da91ff60e01b815291516001600160a01b039091169263a5da91ff9260048082019391829003018186803b158015611c7457600080fd5b505afa158015611c88573d6000803e3d6000fd5b505050506040513d601f19601f82011682018060405250810190611cac9190613a5d565b6060820152601685015460408051634c6afee560e11b815290516001600160a01b03909216916398d5fdca91600480820192602092909190829003018186803b158015611cf857600080fd5b505afa158015611d0c573d6000803e3d6000fd5b505050506040513d601f19601f82011682018060405250810190611d309190613a5d565b608082015260005b82518110156123dc57828181518110611d6157634e487b7160e01b600052603260045260246000fd5b602002602001015184600001518281518110611d8d57634e487b7160e01b600052603260045260246000fd5b6020908102919091018101516001600160a01b0390921691015260108601548451805183908110611dce57634e487b7160e01b600052603260045260246000fd5b6020026020010151610100018181525050828181518110611dff57634e487b7160e01b600052603260045260246000fd5b60200260200101516001600160a01b031663bd9a548b6040518163ffffffff1660e01b8152600401604080518083038186803b158015611e3e57600080fd5b505afa158015611e52573d6000803e3d6000fd5b505050506040513d601f19601f82011682018060405250810190611e769190613a75565b8551805184908110611e9857634e487b7160e01b600052603260045260246000fd5b602002602001015160600186600001518481518110611ec757634e487b7160e01b600052603260045260246000fd5b602002602001015160800182815250828152505050828181518110611efc57634e487b7160e01b600052603260045260246000fd5b60200260200101516001600160a01b0316638ec812ee6040518163ffffffff1660e01b815260040160206040518083038186803b158015611f3c57600080fd5b505afa158015611f50573d6000803e3d6000fd5b505050506040513d601f19601f82011682018060405250810190611f749190613a5d565b8451805183908110611f9657634e487b7160e01b600052603260045260246000fd5b602002602001015160a0018181525050828181518110611fc657634e487b7160e01b600052603260045260246000fd5b60200260200101516001600160a01b0316630910a5106040518163ffffffff1660e01b815260040160206040518083038186803b15801561200657600080fd5b505afa15801561201a573d6000803e3d6000fd5b505050506040513d601f19601f8201168201806040525081019061203e9190613a5d565b845180518390811061206057634e487b7160e01b600052603260045260246000fd5b602002602001015160c001818152505060008460000151828151811061209657634e487b7160e01b600052603260045260246000fd5b6020908102919091010151901515905282516120cc9084908390811061080857634e487b7160e01b600052603260045260246000fd5b84518051839081106120ee57634e487b7160e01b600052603260045260246000fd5b602002602001015160e0018181525050600083828151811061212057634e487b7160e01b600052603260045260246000fd5b60200260200101516001600160a01b031663807354ce6040518163ffffffff1660e01b815260040160206040518083038186803b15801561216057600080fd5b505afa158015612174573d6000803e3d6000fd5b505050506040513d601f19601f8201168201806040525081019061219891906139f3565b905080856000015183815181106121bf57634e487b7160e01b600052603260045260246000fd5b60209081029190910101516001600160a01b03918216604091820152516370a0823160e01b815287821660048201526000918316906370a082319060240160206040518083038186803b15801561221557600080fd5b505afa158015612229573d6000803e3d6000fd5b505050506040513d601f19601f8201168201806040525081019061224d9190613a5d565b905080156123ad57604051620c409760e51b81526001600160a01b038881166004830152602482018390526000919084169063018812e0906044016101206040518083038186803b1580156122a157600080fd5b505afa1580156122b5573d6000803e3d6000fd5b505050506040513d601f19601f820116820180604052508101906122d99190613bfc565b90508584815181106122fb57634e487b7160e01b600052603260045260246000fd5b60200260200101518760200151866020015160ff168151811061232e57634e487b7160e01b600052603260045260246000fd5b6020026020010151600001906001600160a01b031690816001600160a01b0316815250508060a001518760200151866020015160ff168151811061238257634e487b7160e01b600052603260045260246000fd5b602002602001015160200181815250506001856020018181516123a591906141d8565b60ff16905250505b6001846040018181516123c091906141d8565b60ff169052508291506123d49050816143fb565b915050611d38565b50601285015460408051634039aa6760e11b815290516000926001600160a01b03169163807354ce916004808301926020929190829003018186803b15801561242457600080fd5b505afa158015612438573d6000803e3d6000fd5b505050506040513d601f19601f8201168201806040525081019061245c91906139f3565b60128701548551604085015181519394506001600160a01b0390921692909160ff1690811061249b57634e487b7160e01b600052603260045260246000fd5b6020026020010151602001906001600160a01b031690816001600160a01b031681525050808460000151836040015160ff16815181106124eb57634e487b7160e01b600052603260045260246000fd5b6020908102919091018101516001600160a01b039283166040918201526012890154815162910a5160e41b81529151931692630910a51092600480840193919291829003018186803b15801561254057600080fd5b505afa158015612554573d6000803e3d6000fd5b505050506040513d601f19601f820116820180604052508101906125789190613a5d565b8460000151836040015160ff16815181106125a357634e487b7160e01b600052603260045260246000fd5b602002602001015160c001818152505060018460000151836040015160ff16815181106125e057634e487b7160e01b600052603260045260246000fd5b60209081029190910101519015159052601086015484516040840151815160ff90911690811061262057634e487b7160e01b600052603260045260246000fd5b60209081029190910101516101000152601286015460608301516080840151612653926001600160a01b03169190611068565b8460000151836040015160ff168151811061267e57634e487b7160e01b600052603260045260246000fd5b602090810291909101015160e001526040516370a0823160e01b81526001600160a01b038681166004830152600091908316906370a082319060240160206040518083038186803b1580156126d257600080fd5b505afa1580156126e6573d6000803e3d6000fd5b505050506040513d601f19601f8201168201806040525081019061270a9190613a5d565b9050801561285a57604051620c409760e51b81526001600160a01b038781166004830152602482018390526000919084169063018812e0906044016101206040518083038186803b15801561275e57600080fd5b505afa158015612772573d6000803e3d6000fd5b505050506040513d601f19601f820116820180604052508101906127969190613bfc565b90508760120160009054906101000a90046001600160a01b03168660200151856020015160ff16815181106127db57634e487b7160e01b600052603260045260246000fd5b6020026020010151600001906001600160a01b031690816001600160a01b0316815250508060a001518660200151856020015160ff168151811061282f57634e487b7160e01b600052603260045260246000fd5b6020026020010151602001818152505060018460200181815161285291906141d8565b60ff16905250505b5050505092915050565b60098101546060906000906001600160401b0381111561289457634e487b7160e01b600052604160045260246000fd5b6040519080825280602002602001820160405280156128d957816020015b60408051808201909152600080825260208201528152602001906001900390816128b25790505b50905060005b60098401548110156129975783600a01600085600901838154811061291457634e487b7160e01b600052603260045260246000fd5b60009182526020808320909101546001600160a01b0316835282810193909352604091820190208151808301909252805460ff16151582526001015491810191909152825183908390811061297957634e487b7160e01b600052603260045260246000fd5b6020026020010181905250808061298f906143fb565b9150506128df565b5080604051602001610ecc9190614011565b60606000828060200190518101906129c19190613b4b565b9050612a1460405180610100016040528060006001600160a01b03168152602001600081526020016000815260200160008152602001600081526020016000815260200160008152602001600081525090565b81516001600160a01b03908116825282516040805163bd9a548b60e01b81528151929093169263bd9a548b9260048083019392829003018186803b158015612a5b57600080fd5b505afa158015612a6f573d6000803e3d6000fd5b505050506040513d601f19601f82011682018060405250810190612a939190613a75565b60408084019190915260208084019290925283519184015160608501519151631b80518160e31b81526001600160a01b039093169263dc028c0892612ae692916004019182521515602082015260400190565b60206040518083038186803b158015612afe57600080fd5b505afa158015612b12573d6000803e3d6000fd5b505050506040513d601f19601f82011682018060405250810190612b369190613a5d565b60808201819052602083015160009182918291612b54918a91613606565b925092509250612b85612b656136f5565b612b7090606e614322565b82612b7b858761417f565b6111ff919061417f565b606085015260208401516080850151612ba491906112059082906143a5565b60a0850181905260001315612bcb576000198460a001818151612bc79190614322565b9052505b601088015460c085015260208401516080850151600091612bff9161120590612bf490836143a5565b60208a0151906135c6565b6060870151909150612c1a57612c1760001982614322565b90505b612c328660200151828860400151611205919061417f565b60e0860152604051612ca090869060200181516001600160a01b031681526020808301519082015260408083015190820152606080830151908201526080808301519082015260a0828101519082015260c0808301519082015260e091820151918101919091526101000190565b604051602081830303815290604052965050505050505092915050565b6060600082516005811115612ce257634e487b7160e01b600052602160045260246000fd5b1415612cf857612cf183612864565b905061105a565b600182516005811115612d1b57634e487b7160e01b600052602160045260246000fd5b1415612d2a57612cf183610d5d565b600282516005811115612d4d57634e487b7160e01b600052602160045260246000fd5b1415612d6157612cf18383602001516129a9565b600382516005811115612d8457634e487b7160e01b600052602160045260246000fd5b1415612d9857612cf1838360200151610ee3565b600482516005811115612dbb57634e487b7160e01b600052602160045260246000fd5b1415612dcf57612cf1838360200151612e1b565b600582516005811115612df257634e487b7160e01b600052602160045260246000fd5b1415612e0657612cf18383602001516114b8565b5060408051602081019091526000815261105a565b6060600082806020019051810190612e339190613a98565b905060008160400151138015612e545750612e4c613185565b816040015113155b612e8e5760405162461bcd60e51b815260206004820152600b60248201526a57524f4e475f524154494f60a81b6044820152606401610288565b612ed76040518060e0016040528060006001600160a01b031681526020016000815260200160008152602001600081526020016000815260200160008152602001600081525090565b81516001600160a01b031681526010850154602080830191909152825190830151600091612f0791889190613282565b9050612f1f868460000151838660400151600061319f565b606084015260408301526006810154612f36613185565b846040015114612f53576040840151612f509082906135c6565b90505b600084600001516001600160a01b0316639d1b464a6040518163ffffffff1660e01b815260040160206040518083038186803b158015612f9257600080fd5b505afa158015612fa6573d6000803e3d6000fd5b505050506040513d601f19601f82011682018060405250810190612fca9190613a5d565b85519091506001600160a01b031663dc028c08612fe88460006143a5565b600d86015460405160e084901b6001600160e01b0319168152600481019290925260ff161515602482015260440160206040518083038186803b15801561302e57600080fd5b505afa158015613042573d6000803e3d6000fd5b505050506040513d601f19601f820116820180604052508101906130669190613a5d565b60c0850181905261307e9082906112059082906143a5565b60a08501819052600013156130a5576000198460a0018181516130a19190614322565b9052505b60008060006130b98b868960c00151613606565b91945092509050806130cb838561417f565b6130d5919061417f565b608088015260405161313890889060200181516001600160a01b031681526020808301519082015260408083015190820152606080830151908201526080808301519082015260a0828101519082015260c0918201519181019190915260e00190565b6040516020818303038152906040529850505050505050505092915050565b6001600160a01b03808216600090815260058501602090815260408083209386168352929052209392505050565b600061319a670de0b6b3a76400006001614322565b905090565b6000806131af8787878787613260565b91506131b9613185565b8414156131df576131d88560060154838760050154611205919061417f565b9050613256565b60006131f58888886131ef613185565b88613260565b905061325261321b86613206613185565b61321091906143a5565b6006890154906135c6565b848361323e89613229613185565b61323391906143a5565b60058c0154906135c6565b613248919061417f565b61120591906143a5565b9150505b9550959350505050565b60008060008061327389898989896132f6565b9b9a5050505050505050505050565b6001600160a01b0380821660009081526005850160209081526040808320938616835292905220600d81015460ff6101009091041615156001146114b15760405162461bcd60e51b815260206004820152600b60248201526a2727afa827a9a4aa24a7a760a91b6044820152606401610288565b600080600061332f6040518060a00160405280600015158152602001600081526020016000815260200160008152602001600081525090565b600d87015460ff16151581526002870154602082015260068701546060820152600c8701546080820152613361613185565b861461339057606081015161337690876135c6565b6060820152608081015161338a90876135c6565b60808201525b60006001861515141561341557886001600160a01b0316639d1b464a6040518163ffffffff1660e01b815260040160206040518083038186803b1580156133d657600080fd5b505afa1580156133ea573d6000803e3d6000fd5b505050506040513d601f19601f8201168201806040525081019061340e9190613a5d565b90506134b0565b886001600160a01b031663dc028c088360600151600061343591906143a5565b845160405160e084901b6001600160e01b031916815260048101929092521515602482015260440160206040518083038186803b15801561347557600080fd5b505afa158015613489573d6000803e3d6000fd5b505050506040513d601f19601f820116820180604052508101906134ad9190613a5d565b90505b6134d2816112058460200151846134c791906143a5565b6060860151906135c6565b935060008860070154426134e691906143e4565b905060008113156135755760006135018b8b60080154613709565b9050600061351e6135156301e133806135d4565b611205856135d4565b905061354561353a8287602001516135c690919063ffffffff16565b6060870151906135c6565b61356661355b613554866135d4565b85906135c6565b6060880151906135c6565b61357091906143a5565b975050505b6080830151613584908761417f565b83519096501561359f57613598858761417f565b93506135b8565b856135ab8660006143a5565b6135b591906143a5565b93505b505050955095509592505050565b60006114b1838360126137f9565b600061105a670de0b6b3a764000083614322565b600081600114156135fa57508161105a565b6114b183836012613820565b6011830154600090819081908490811215613622575060118601545b600061363961362f6136f5565b6111ff848a6135c6565b600b890154600c8a01549192509060008183613653613185565b61365d91906143a5565b61366791906143a5565b9050613671613185565b8161367c848661417f565b613686919061417f565b13156136c35760405162461bcd60e51b815260206004820152600c60248201526b4645455f53554d5f47545f3160a01b6044820152606401610288565b6136cd83856135c6565b97506136d982856135c6565b95506136e581856135c6565b9650505050505093509350939050565b600061319a662386f26fc100006001614322565b6000826001600160a01b0316634dde1fb16040518163ffffffff1660e01b815260040160206040518083038186803b15801561374457600080fd5b505afa158015613758573d6000803e3d6000fd5b505050506040513d601f19601f8201168201806040525081019061377c91906139f3565b6001600160a01b031663796ba96c836040518263ffffffff1660e01b81526004016137a991815260200190565b60206040518083038186803b1580156137c157600080fd5b505afa1580156137d5573d6000803e3d6000fd5b505050506040513d601f19601f820116820180604052508101906114b19190613a5d565b600061380482613836565b61380e8486614322565b61381891906141fd565b949350505050565b60008261382c83613836565b61380e9086614322565b600061105a60ff8316600a61427a565b60405180610120016040528060001515815260200160006001600160a01b0316815260200160006001600160a01b031681526020016000815260200160008152602001600081526020016000815260200160008152602001600081525090565b6040518060a0016040528060006001600160a01b031681526020016000815260200160008152602001600081526020016139156040518060c001604052806000151581526020016000151581526020016000151581526020016000815260200160008152602001600081525090565b905290565b604080516080810182526060918101828152828201929092529081908152602001613915604051806040016040528060608152602001606081525090565b8051801515811461396857600080fd5b919050565b600082601f83011261397d578081fd5b81356001600160401b03808211156139975761399761444c565b604051601f8301601f19908116603f011681019082821181831017156139bf576139bf61444c565b816040528381528660208588010111156139d7578485fd5b8360208701602083013792830160200193909352509392505050565b600060208284031215613a04578081fd5b81516114b181614462565b600080600060608486031215613a23578182fd5b8335613a2e81614462565b95602085013595506040909401359392505050565b600060208284031215613a54578081fd5b6114b182613958565b600060208284031215613a6e578081fd5b5051919050565b60008060408385031215613a87578182fd5b505080516020909101519092909150565b600060608284031215613aa9578081fd5b604051606081018181106001600160401b0382111715613acb57613acb61444c565b6040528251613ad981614462565b81526020830151613ae981614462565b60208201526040928301519281019290925250919050565b600060208284031215613b12578081fd5b604051602081018181106001600160401b0382111715613b3457613b3461444c565b6040528251613b4281614462565b81529392505050565b600060808284031215613b5c578081fd5b604051608081018181106001600160401b0382111715613b7e57613b7e61444c565b6040528251613b8c81614462565b808252506020830151602082015260408301516040820152613bb060608401613958565b60608201529392505050565b600060408284031215613bcd578081fd5b613bd5614134565b8251613be081614462565b81526020830151613bf081614462565b60208201529392505050565b60006101208284031215613c0e578081fd5b613c1661415c565b825181526020830151602082015260408301516040820152606083015160608201526080830151608082015260a083015160a082015260c083015160c082015260e083015160e08201526101008084015181830152508091505092915050565b600060208284031215613c87578081fd5b5035919050565b60008060408385031215613ca0578182fd5b823591506020830135613cb281614462565b809150509250929050565b60008060408385031215613ccf578182fd5b8235915060208301356001600160401b03811115613ceb578182fd5b613cf78582860161396d565b9150509250929050565b600080600060608486031215613d15578081fd5b833592506020840135613d2781614462565b91506040840135613d3781614462565b809150509250925092565b60008060408385031215613d54578182fd5b8235915060208301356001600160401b0380821115613d71578283fd5b9084019060408287031215613d84578283fd5b613d8c614134565b823560068110613d9a578485fd5b8152602083013582811115613dad578485fd5b613db98882860161396d565b6020830152508093505050509250929050565b6000815180845260208085019450808401835b83811015613e6c578151805115158852838101516001600160a01b031684890152604080820151613e1a828b01826001600160a01b03169052565b5050606081810151908901526080808201519089015260a0808201519089015260c0808201519089015260e0808201519089015261010090810151908801526101209096019590820190600101613ddf565b509495945050505050565b600060408251818552613e8c82860182613dcc565b602085810151878303888301528051808452908201935090918591908301905b80831015613ede57845180516001600160a01b0316835284015184830152938301936001929092019190850190613eac565b50979650505050505050565b600060408251818552613eff82860182613dcc565b602085810151878303888301528051808452908201935090918591908301905b80831015613ede57845180516001600160a01b03168352848101518584015286810151878401526060808201519084015260809081015190613f9e81850183805115158252602081015115156020830152604081015115156040830152606081015160608301526080810151608083015260a081015160a08301525050565b5050610140820191508385019450600183019250613f1f565b602080825282518282018190526000919060409081850190868401855b828110156140045781518051151585528601516001600160a01b0316868501529284019290850190600101613fd4565b5091979650505050505050565b602080825282518282018190526000919060409081850190868401855b8281101561400457815180511515855286015186850152928401929085019060010161402e565b6000602080835283518082850152825b8181101561408157858101830151858201604001528201614065565b818111156140925783604083870101525b50601f01601f1916929092016040019392505050565b6020808252600a90820152694e4f5f4d41524b45545360b01b604082015260600190565b6020815260008251604060208401526140e86060840182613eea565b90506020840151601f198483030160408501526141058282613e77565b95945050505050565b6020815260006114b16020830184613e77565b6020815260006114b16020830184613eea565b604080519081016001600160401b03811182821017156141565761415661444c565b60405290565b60405161012081016001600160401b03811182821017156141565761415661444c565b600080821280156001600160ff1b03849003851316156141a1576141a1614436565b600160ff1b83900384128116156141ba576141ba614436565b50500190565b600082198211156141d3576141d3614436565b500190565b600060ff821660ff84168060ff038211156141f5576141f5614436565b019392505050565b60008261421857634e487b7160e01b81526012600452602481fd5b600160ff1b82146000198414161561423257614232614436565b500590565b600181815b8085111561427257816000190482111561425857614258614436565b8085161561426557918102915b93841c939080029061423c565b509250929050565b60006114b183836000826142905750600161105a565b8161429d5750600061105a565b81600181146142b357600281146142bd576142d9565b600191505061105a565b60ff8411156142ce576142ce614436565b50506001821b61105a565b5060208310610133831016604e8410600b84101617156142fc575081810a61105a565b6143068383614237565b806000190482111561431a5761431a614436565b029392505050565b60006001600160ff1b038184138284138082168684048611161561434857614348614436565b600160ff1b8487128281168783058912161561436657614366614436565b85871292508782058712848416161561438157614381614436565b8785058712818416161561439757614397614436565b505050929093029392505050565b60008083128015600160ff1b8501841216156143c3576143c3614436565b6001600160ff1b03840183138116156143de576143de614436565b50500390565b6000828210156143f6576143f6614436565b500390565b600060001982141561440f5761440f614436565b5060010190565b600060ff821660ff81141561442d5761442d614436565b60010192915050565b634e487b7160e01b600052601160045260246000fd5b634e487b7160e01b600052604160045260246000fd5b6001600160a01b038116811461447757600080fd5b5056fea264697066735822122031eaf8e28047bf9bf27d516506b652e0c811fbb038de9210b0c8678e61ae933464736f6c63430008040033",
  "devdoc": {
    "kind": "dev",
    "methods": {},
    "version": 1
  },
  "userdoc": {
    "kind": "user",
    "methods": {},
    "version": 1
  },
  "storageLayout": {
    "storage": [],
    "types": null
  }
}