{
  "_format": "hh-sol-artifact-1",
  "contractName": "AssetOracle",
  "sourceName": "contracts/oracle/AssetOracle.sol",
  "abi": [
    {
      "inputs": [
        {
          "internalType": "address",
          "name": "_stripsProxy",
          "type": "address"
        },
        {
          "internalType": "address",
          "name": "_keeper",
          "type": "address"
        }
      ],
      "stateMutability": "nonpayable",
      "type": "constructor"
    },
    {
      "inputs": [
        {
          "internalType": "uint256",
          "name": "fromIndex",
          "type": "uint256"
        }
      ],
      "name": "calcOracleAverage",
      "outputs": [
        {
          "internalType": "int256",
          "name": "",
          "type": "int256"
        }
      ],
      "stateMutability": "view",
      "type": "function"
    },
    {
      "inputs": [
        {
          "internalType": "bytes",
          "name": "",
          "type": "bytes"
        }
      ],
      "name": "checkUpkeep",
      "outputs": [
        {
          "internalType": "bool",
          "name": "upkeepNeeded",
          "type": "bool"
        },
        {
          "internalType": "bytes",
          "name": "",
          "type": "bytes"
        }
      ],
      "stateMutability": "view",
      "type": "function"
    },
    {
      "inputs": [
        {
          "internalType": "uint256",
          "name": "",
          "type": "uint256"
        }
      ],
      "name": "cumulativeOracleAvg",
      "outputs": [
        {
          "internalType": "int256",
          "name": "",
          "type": "int256"
        }
      ],
      "stateMutability": "view",
      "type": "function"
    },
    {
      "inputs": [],
      "name": "getPrice",
      "outputs": [
        {
          "internalType": "int256",
          "name": "",
          "type": "int256"
        }
      ],
      "stateMutability": "view",
      "type": "function"
    },
    {
      "inputs": [],
      "name": "keeper",
      "outputs": [
        {
          "internalType": "address",
          "name": "",
          "type": "address"
        }
      ],
      "stateMutability": "view",
      "type": "function"
    },
    {
      "inputs": [],
      "name": "lastApr",
      "outputs": [
        {
          "internalType": "int256",
          "name": "",
          "type": "int256"
        }
      ],
      "stateMutability": "view",
      "type": "function"
    },
    {
      "inputs": [],
      "name": "lastBlockNumUpdate",
      "outputs": [
        {
          "internalType": "uint256",
          "name": "",
          "type": "uint256"
        }
      ],
      "stateMutability": "view",
      "type": "function"
    },
    {
      "inputs": [],
      "name": "lastCumulativeIndex",
      "outputs": [
        {
          "internalType": "uint256",
          "name": "",
          "type": "uint256"
        }
      ],
      "stateMutability": "view",
      "type": "function"
    },
    {
      "inputs": [],
      "name": "lastTimeStamp",
      "outputs": [
        {
          "internalType": "uint256",
          "name": "",
          "type": "uint256"
        }
      ],
      "stateMutability": "view",
      "type": "function"
    },
    {
      "inputs": [
        {
          "internalType": "bytes",
          "name": "_data",
          "type": "bytes"
        }
      ],
      "name": "performUpkeep",
      "outputs": [],
      "stateMutability": "nonpayable",
      "type": "function"
    },
    {
      "inputs": [],
      "name": "stripsProxy",
      "outputs": [
        {
          "internalType": "address",
          "name": "",
          "type": "address"
        }
      ],
      "stateMutability": "view",
      "type": "function"
    }
  ],
  "bytecode": "0x60806040523480156200001157600080fd5b5060405162001189380380620011898339818101604052810190620000379190620001b5565b600073ffffffffffffffffffffffffffffffffffffffff168173ffffffffffffffffffffffffffffffffffffffff161415620000aa576040517f08c379a0000000000000000000000000000000000000000000000000000000008152600401620000a19062000266565b60405180910390fd5b620000c0826200018b60201b620006141760201c565b62000102576040517f08c379a0000000000000000000000000000000000000000000000000000000008152600401620000f99062000244565b60405180910390fd5b816000806101000a81548173ffffffffffffffffffffffffffffffffffffffff021916908373ffffffffffffffffffffffffffffffffffffffff16021790555080600160006101000a81548173ffffffffffffffffffffffffffffffffffffffff021916908373ffffffffffffffffffffffffffffffffffffffff160217905550505062000339565b600080823b905060008111915050919050565b600081519050620001af816200031f565b92915050565b60008060408385031215620001c957600080fd5b6000620001d9858286016200019e565b9250506020620001ec858286016200019e565b9150509250929050565b60006200020560158362000288565b91506200021282620002cd565b602082019050919050565b60006200022c600d8362000288565b91506200023982620002f6565b602082019050919050565b600060208201905081810360008301526200025f81620001f6565b9050919050565b6000602082019050818103600083015262000281816200021d565b9050919050565b600082825260208201905092915050565b6000620002a682620002ad565b9050919050565b600073ffffffffffffffffffffffffffffffffffffffff82169050919050565b7f5354524950535f4e4f545f415f434f4e54524143540000000000000000000000600082015250565b7f42524f4b454e5f4b454550455200000000000000000000000000000000000000600082015250565b6200032a8162000299565b81146200033657600080fd5b50565b610e4080620003496000396000f3fe608060405234801561001057600080fd5b50600436106100a95760003560e01c806379c0e9ed1161007157806379c0e9ed1461017957806398d5fdca14610197578063a637c4f5146101b5578063aced1661146101d3578063db4bd7f2146101f1578063f815c4ff1461020f576100a9565b80630baaac1a146100ae5780633f3b3b27146100de5780634585e33b146100fc5780636e04ff0d14610118578063796ba96c14610149575b600080fd5b6100c860048036038101906100c391906107d0565b61022d565b6040516100d59190610945565b60405180910390f35b6100e6610251565b6040516100f391906109e0565b60405180910390f35b61011660048036038101906101119190610762565b610257565b005b610132600480360381019061012d9190610762565b610353565b604051610140929190610915565b60405180910390f35b610163600480360381019061015e91906107d0565b610376565b6040516101709190610945565b60405180910390f35b610181610569565b60405161018e91906109e0565b60405180910390f35b61019f61056f565b6040516101ac9190610945565b60405180910390f35b6101bd6105be565b6040516101ca91906108fa565b60405180910390f35b6101db6105e2565b6040516101e891906108fa565b60405180910390f35b6101f9610608565b60405161020691906109e0565b60405180910390f35b61021761060e565b6040516102249190610945565b60405180910390f35b6006818154811061023d57600080fd5b906000526020600020016000915090505481565b60025481565b600160009054906101000a900473ffffffffffffffffffffffffffffffffffffffff1673ffffffffffffffffffffffffffffffffffffffff163373ffffffffffffffffffffffffffffffffffffffff16146102e7576040517f08c379a00000000000000000000000000000000000000000000000000000000081526004016102de90610960565b60405180910390fd5b600254421161032b576040517f08c379a0000000000000000000000000000000000000000000000000000000008152600401610322906109c0565b60405180910390fd5b42600281905550818181019061034191906107a7565b60038190555061034f610627565b5050565b6000606060025442111561036a576001915061036f565b600091505b9250929050565b60008060025414156103bd576040517f08c379a00000000000000000000000000000000000000000000000000000000081526004016103b4906109a0565b60405180910390fd5b600060045411610402576040517f08c379a00000000000000000000000000000000000000000000000000000000081526004016103f990610980565b60405180910390fd5b6000600660016004546104159190610c10565b8154811061044c577f4e487b7100000000000000000000000000000000000000000000000000000000600052603260045260246000fd5b906000526020600020015490506000836004546104699190610c10565b905060008114156104ec5760018411156104e257600660028561048c9190610c10565b815481106104c3577f4e487b7100000000000000000000000000000000000000000000000000000000600052603260045260246000fd5b9060005260206000200154826104d99190610b7c565b92505050610564565b8192505050610564565b600084146105535760066001856105039190610c10565b8154811061053a577f4e487b7100000000000000000000000000000000000000000000000000000000600052603260045260246000fd5b9060005260206000200154826105509190610b7c565b91505b808261055f9190610b12565b925050505b919050565b60055481565b60008060025414156105b6576040517f08c379a00000000000000000000000000000000000000000000000000000000081526004016105ad906109a0565b60405180910390fd5b600354905090565b60008054906101000a900473ffffffffffffffffffffffffffffffffffffffff1681565b600160009054906101000a900473ffffffffffffffffffffffffffffffffffffffff1681565b60045481565b60035481565b600080823b905060008111915050919050565b60006301e1338060035461063b9190610b12565b90506000600454146106a857600660016004546106589190610c10565b8154811061068f577f4e487b7100000000000000000000000000000000000000000000000000000000600052603260045260246000fd5b9060005260206000200154816106a59190610a28565b90505b60068190806001815401808255809150506001900390600052602060002001600090919091909150556001600460008282546106e49190610abc565b9250508190555050565b60008083601f84011261070057600080fd5b8235905067ffffffffffffffff81111561071957600080fd5b60208301915083600182028301111561073157600080fd5b9250929050565b60008135905061074781610ddc565b92915050565b60008135905061075c81610df3565b92915050565b6000806020838503121561077557600080fd5b600083013567ffffffffffffffff81111561078f57600080fd5b61079b858286016106ee565b92509250509250929050565b6000602082840312156107b957600080fd5b60006107c784828501610738565b91505092915050565b6000602082840312156107e257600080fd5b60006107f08482850161074d565b91505092915050565b61080281610c44565b82525050565b61081181610c56565b82525050565b6000610822826109fb565b61082c8185610a06565b935061083c818560208601610c96565b61084581610d27565b840191505092915050565b61085981610c62565b82525050565b600061086c600c83610a17565b915061087782610d38565b602082019050919050565b600061088f601483610a17565b915061089a82610d61565b602082019050919050565b60006108b2600a83610a17565b91506108bd82610d8a565b602082019050919050565b60006108d5600e83610a17565b91506108e082610db3565b602082019050919050565b6108f481610c8c565b82525050565b600060208201905061090f60008301846107f9565b92915050565b600060408201905061092a6000830185610808565b818103602083015261093c8184610817565b90509392505050565b600060208201905061095a6000830184610850565b92915050565b600060208201905081810360008301526109798161085f565b9050919050565b6000602082019050818103600083015261099981610882565b9050919050565b600060208201905081810360008301526109b9816108a5565b9050919050565b600060208201905081810360008301526109d9816108c8565b9050919050565b60006020820190506109f560008301846108eb565b92915050565b600081519050919050565b600082825260208201905092915050565b600082825260208201905092915050565b6000610a3382610c62565b9150610a3e83610c62565b9250817f7fffffffffffffffffffffffffffffffffffffffffffffffffffffffffffffff03831360008312151615610a7957610a78610cc9565b5b817f8000000000000000000000000000000000000000000000000000000000000000038312600083121615610ab157610ab0610cc9565b5b828201905092915050565b6000610ac782610c8c565b9150610ad283610c8c565b9250827fffffffffffffffffffffffffffffffffffffffffffffffffffffffffffffffff03821115610b0757610b06610cc9565b5b828201905092915050565b6000610b1d82610c62565b9150610b2883610c62565b925082610b3857610b37610cf8565b5b600160000383147f800000000000000000000000000000000000000000000000000000000000000083141615610b7157610b70610cc9565b5b828205905092915050565b6000610b8782610c62565b9150610b9283610c62565b9250827f800000000000000000000000000000000000000000000000000000000000000001821260008412151615610bcd57610bcc610cc9565b5b827f7fffffffffffffffffffffffffffffffffffffffffffffffffffffffffffffff018213600084121615610c0557610c04610cc9565b5b828203905092915050565b6000610c1b82610c8c565b9150610c2683610c8c565b925082821015610c3957610c38610cc9565b5b828203905092915050565b6000610c4f82610c6c565b9050919050565b60008115159050919050565b6000819050919050565b600073ffffffffffffffffffffffffffffffffffffffff82169050919050565b6000819050919050565b60005b83811015610cb4578082015181840152602081019050610c99565b83811115610cc3576000848401525b50505050565b7f4e487b7100000000000000000000000000000000000000000000000000000000600052601160045260246000fd5b7f4e487b7100000000000000000000000000000000000000000000000000000000600052601260045260246000fd5b6000601f19601f8301169050919050565b7f4e4f545f415f4b45455045520000000000000000000000000000000000000000600082015250565b7f4f5241434c455f4e455645525f55504441544544000000000000000000000000600082015250565b7f4e4f545f41435449564500000000000000000000000000000000000000000000600082015250565b7f4e4f5f4e4545445f555044415445000000000000000000000000000000000000600082015250565b610de581610c62565b8114610df057600080fd5b50565b610dfc81610c8c565b8114610e0757600080fd5b5056fea264697066735822122016d2ff8f32faa91e5e41fa7498137111b7a3f84afe724007798f56317b2ab6d064736f6c63430008040033",
  "linkReferences": {},
  "deployedLinkReferences": {}
}