{
  "_format": "hh-sol-artifact-1",
  "contractName": "AssetOracle",
  "sourceName": "contracts/oracle/AssetOracle.sol",
  "abi": [
    {
      "inputs": [
        {
          "internalType": "address",
          "name": "_stripsProxy",
          "type": "address"
        },
        {
          "internalType": "address",
          "name": "_keeper",
          "type": "address"
        }
      ],
      "stateMutability": "nonpayable",
      "type": "constructor"
    },
    {
      "inputs": [
        {
          "internalType": "uint256",
          "name": "fromIndex",
          "type": "uint256"
        }
      ],
      "name": "calcOracleAverage",
      "outputs": [
        {
          "internalType": "int256",
          "name": "",
          "type": "int256"
        }
      ],
      "stateMutability": "view",
      "type": "function"
    },
    {
      "inputs": [
        {
          "internalType": "address",
          "name": "_keeper",
          "type": "address"
        }
      ],
      "name": "changeKeeper",
      "outputs": [],
      "stateMutability": "nonpayable",
      "type": "function"
    },
    {
      "inputs": [
        {
          "internalType": "bytes",
          "name": "",
          "type": "bytes"
        }
      ],
      "name": "checkUpkeep",
      "outputs": [
        {
          "internalType": "bool",
          "name": "upkeepNeeded",
          "type": "bool"
        },
        {
          "internalType": "bytes",
          "name": "",
          "type": "bytes"
        }
      ],
      "stateMutability": "view",
      "type": "function"
    },
    {
      "inputs": [
        {
          "internalType": "uint256",
          "name": "",
          "type": "uint256"
        }
      ],
      "name": "cumulativeOracleAvg",
      "outputs": [
        {
          "internalType": "int256",
          "name": "",
          "type": "int256"
        }
      ],
      "stateMutability": "view",
      "type": "function"
    },
    {
      "inputs": [],
      "name": "getPrice",
      "outputs": [
        {
          "internalType": "int256",
          "name": "",
          "type": "int256"
        }
      ],
      "stateMutability": "view",
      "type": "function"
    },
    {
      "inputs": [],
      "name": "keeper",
      "outputs": [
        {
          "internalType": "address",
          "name": "",
          "type": "address"
        }
      ],
      "stateMutability": "view",
      "type": "function"
    },
    {
      "inputs": [],
      "name": "lastApr",
      "outputs": [
        {
          "internalType": "int256",
          "name": "",
          "type": "int256"
        }
      ],
      "stateMutability": "view",
      "type": "function"
    },
    {
      "inputs": [],
      "name": "lastBlockNumUpdate",
      "outputs": [
        {
          "internalType": "uint256",
          "name": "",
          "type": "uint256"
        }
      ],
      "stateMutability": "view",
      "type": "function"
    },
    {
      "inputs": [],
      "name": "lastCumulativeIndex",
      "outputs": [
        {
          "internalType": "uint256",
          "name": "",
          "type": "uint256"
        }
      ],
      "stateMutability": "view",
      "type": "function"
    },
    {
      "inputs": [],
      "name": "lastTimeStamp",
      "outputs": [
        {
          "internalType": "uint256",
          "name": "",
          "type": "uint256"
        }
      ],
      "stateMutability": "view",
      "type": "function"
    },
    {
      "inputs": [
        {
          "internalType": "bytes",
          "name": "_data",
          "type": "bytes"
        }
      ],
      "name": "performUpkeep",
      "outputs": [],
      "stateMutability": "nonpayable",
      "type": "function"
    },
    {
      "inputs": [],
      "name": "stripsProxy",
      "outputs": [
        {
          "internalType": "address",
          "name": "",
          "type": "address"
        }
      ],
      "stateMutability": "view",
      "type": "function"
    }
  ],
  "bytecode": "0x608060405234801561001057600080fd5b5060405161094b38038061094b83398101604081905261002f9161012c565b6001600160a01b03811661007a5760405162461bcd60e51b815260206004820152600d60248201526c212927a5a2a72fa5a2a2a822a960991b60448201526064015b60405180910390fd5b61008d8261010a60201b6104d91760201c565b6100d95760405162461bcd60e51b815260206004820152601560248201527f5354524950535f4e4f545f415f434f4e545241435400000000000000000000006044820152606401610071565b600080546001600160a01b039384166001600160a01b0319918216179091556001805492909316911617905561015e565b3b151590565b80516001600160a01b038116811461012757600080fd5b919050565b6000806040838503121561013e578182fd5b61014783610110565b915061015560208401610110565b90509250929050565b6107de8061016d6000396000f3fe608060405234801561001057600080fd5b50600436106100b45760003560e01c806379c0e9ed1161007157806379c0e9ed1461014457806398d5fdca1461014d578063a637c4f514610155578063aced166114610180578063db4bd7f214610193578063f815c4ff1461019c57600080fd5b806309779838146100b95780630baaac1a146100ce5780633f3b3b27146100f45780634585e33b146100fd5780636e04ff0d14610110578063796ba96c14610131575b600080fd5b6100cc6100c7366004610599565b6101a5565b005b6100e16100dc366004610634565b610215565b6040519081526020015b60405180910390f35b6100e160025481565b6100cc61010b3660046105c7565b610236565b61012361011e3660046105c7565b6102e0565b6040516100eb92919061064c565b6100e161013f366004610634565b610303565b6100e160055481565b6100e1610490565b600054610168906001600160a01b031681565b6040516001600160a01b0390911681526020016100eb565b600154610168906001600160a01b031681565b6100e160045481565b6100e160035481565b6001546001600160a01b031633146101f35760405162461bcd60e51b815260206004820152600c60248201526b2727aa2fa0afa5a2a2a822a960a11b60448201526064015b60405180910390fd5b600180546001600160a01b0319166001600160a01b0392909216919091179055565b6006818154811061022557600080fd5b600091825260209091200154905081565b6001546001600160a01b0316331461027f5760405162461bcd60e51b815260206004820152600c60248201526b2727aa2fa0afa5a2a2a822a960a11b60448201526064016101ea565b60025442116102c15760405162461bcd60e51b815260206004820152600e60248201526d4e4f5f4e4545445f55504441544560901b60448201526064016101ea565b426002556102d181830183610634565b6003556102dc6104df565b5050565b600060606002544211156102f757600191506102fc565b600091505b9250929050565b6000600254600014156103455760405162461bcd60e51b815260206004820152600a6024820152694e4f545f41435449564560b01b60448201526064016101ea565b60006004541161038e5760405162461bcd60e51b815260206004820152601460248201527313d49050d31157d39155915497d554111055115160621b60448201526064016101ea565b6000600660016004546103a1919061077b565b815481106103bf57634e487b7160e01b600052603260045260246000fd5b906000526020600020015490506000836004546103dc919061077b565b90508061043c5760018411156104355760066103f960028661077b565b8154811061041757634e487b7160e01b600052603260045260246000fd5b90600052602060002001548261042d919061073c565b949350505050565b5092915050565b831561048657600661044f60018661077b565b8154811061046d57634e487b7160e01b600052603260045260246000fd5b906000526020600020015482610483919061073c565b91505b61042d8183610702565b6000600254600014156104d25760405162461bcd60e51b815260206004820152600a6024820152694e4f545f41435449564560b01b60448201526064016101ea565b5060035490565b3b151590565b60006301e133806003546104f39190610702565b90506004546000146105475760066001600454610510919061077b565b8154811061052e57634e487b7160e01b600052603260045260246000fd5b90600052602060002001548161054491906106a9565b90505b600680546001818101835560009283527ff652222313e28459528d920b65115c16c04f3efc82aaedc97be59f3f377c0d3f90910183905560048054919290916105919084906106ea565b909155505050565b6000602082840312156105aa578081fd5b81356001600160a01b03811681146105c0578182fd5b9392505050565b600080602083850312156105d9578081fd5b823567ffffffffffffffff808211156105f0578283fd5b818501915085601f830112610603578283fd5b813581811115610611578384fd5b866020828501011115610622578384fd5b60209290920196919550909350505050565b600060208284031215610645578081fd5b5035919050565b8215158152600060206040818401528351806040850152825b8181101561068157858101830151858201606001528201610665565b818111156106925783606083870101525b50601f01601f191692909201606001949350505050565b600080821280156001600160ff1b03849003851316156106cb576106cb610792565b600160ff1b83900384128116156106e4576106e4610792565b50500190565b600082198211156106fd576106fd610792565b500190565b60008261071d57634e487b7160e01b81526012600452602481fd5b600160ff1b82146000198414161561073757610737610792565b500590565b60008083128015600160ff1b85018412161561075a5761075a610792565b6001600160ff1b038401831381161561077557610775610792565b50500390565b60008282101561078d5761078d610792565b500390565b634e487b7160e01b600052601160045260246000fdfea2646970667358221220234d654707d8f843d6e7074befbfde67389dd2570803e811ad7e3c970c571c0e64736f6c63430008040033",
  "linkReferences": {},
  "deployedLinkReferences": {}
}