{
  "_format": "hh-sol-artifact-1",
  "contractName": "InsuranceFund",
  "sourceName": "contracts/strips/pools/InsuranceFund.sol",
  "abi": [
    {
      "anonymous": false,
      "inputs": [
        {
          "indexed": true,
          "internalType": "address",
          "name": "asset",
          "type": "address"
        },
        {
          "indexed": true,
          "internalType": "address",
          "name": "changer",
          "type": "address"
        },
        {
          "indexed": true,
          "internalType": "string",
          "name": "action",
          "type": "string"
        },
        {
          "indexed": false,
          "internalType": "int256",
          "name": "totalLiquidity",
          "type": "int256"
        },
        {
          "indexed": false,
          "internalType": "int256",
          "name": "currentStakedPnl",
          "type": "int256"
        },
        {
          "indexed": false,
          "internalType": "int256",
          "name": "stakerInitialStakedPnl",
          "type": "int256"
        },
        {
          "indexed": false,
          "internalType": "int256",
          "name": "stakerTotalCollateral",
          "type": "int256"
        }
      ],
      "name": "LiquidityChanged",
      "type": "event"
    },
    {
      "anonymous": false,
      "inputs": [
        {
          "indexed": true,
          "internalType": "address",
          "name": "asset",
          "type": "address"
        },
        {
          "indexed": true,
          "internalType": "address",
          "name": "changer",
          "type": "address"
        },
        {
          "indexed": false,
          "internalType": "bool",
          "name": "isStake",
          "type": "bool"
        },
        {
          "indexed": false,
          "internalType": "int256",
          "name": "burnedSlp",
          "type": "int256"
        },
        {
          "indexed": false,
          "internalType": "int256",
          "name": "unstakeLp",
          "type": "int256"
        },
        {
          "indexed": false,
          "internalType": "int256",
          "name": "unstakeUsdc",
          "type": "int256"
        },
        {
          "indexed": false,
          "internalType": "int256",
          "name": "lp_fee",
          "type": "int256"
        },
        {
          "indexed": false,
          "internalType": "int256",
          "name": "usdc_fee",
          "type": "int256"
        }
      ],
      "name": "LogStakeChanged",
      "type": "event"
    },
    {
      "anonymous": false,
      "inputs": [
        {
          "indexed": true,
          "internalType": "address",
          "name": "asset",
          "type": "address"
        },
        {
          "indexed": true,
          "internalType": "address",
          "name": "staker",
          "type": "address"
        },
        {
          "indexed": false,
          "internalType": "int256",
          "name": "slpAmount",
          "type": "int256"
        },
        {
          "indexed": false,
          "internalType": "int256",
          "name": "stakingProfit",
          "type": "int256"
        },
        {
          "indexed": false,
          "internalType": "int256",
          "name": "tradingProfit",
          "type": "int256"
        }
      ],
      "name": "LogUnstake",
      "type": "event"
    },
    {
      "anonymous": false,
      "inputs": [
        {
          "indexed": true,
          "internalType": "bytes32",
          "name": "role",
          "type": "bytes32"
        },
        {
          "indexed": true,
          "internalType": "bytes32",
          "name": "previousAdminRole",
          "type": "bytes32"
        },
        {
          "indexed": true,
          "internalType": "bytes32",
          "name": "newAdminRole",
          "type": "bytes32"
        }
      ],
      "name": "RoleAdminChanged",
      "type": "event"
    },
    {
      "anonymous": false,
      "inputs": [
        {
          "indexed": true,
          "internalType": "bytes32",
          "name": "role",
          "type": "bytes32"
        },
        {
          "indexed": true,
          "internalType": "address",
          "name": "account",
          "type": "address"
        },
        {
          "indexed": true,
          "internalType": "address",
          "name": "sender",
          "type": "address"
        }
      ],
      "name": "RoleGranted",
      "type": "event"
    },
    {
      "anonymous": false,
      "inputs": [
        {
          "indexed": true,
          "internalType": "bytes32",
          "name": "role",
          "type": "bytes32"
        },
        {
          "indexed": true,
          "internalType": "address",
          "name": "account",
          "type": "address"
        },
        {
          "indexed": true,
          "internalType": "address",
          "name": "sender",
          "type": "address"
        }
      ],
      "name": "RoleRevoked",
      "type": "event"
    },
    {
      "anonymous": false,
      "inputs": [
        {
          "indexed": true,
          "internalType": "address",
          "name": "asset",
          "type": "address"
        },
        {
          "indexed": true,
          "internalType": "address",
          "name": "token",
          "type": "address"
        }
      ],
      "name": "TokenAdded",
      "type": "event"
    },
    {
      "inputs": [],
      "name": "DEFAULT_ADMIN_ROLE",
      "outputs": [
        {
          "internalType": "bytes32",
          "name": "",
          "type": "bytes32"
        }
      ],
      "stateMutability": "view",
      "type": "function"
    },
    {
      "inputs": [],
      "name": "OWNER_ROLE",
      "outputs": [
        {
          "internalType": "bytes32",
          "name": "",
          "type": "bytes32"
        }
      ],
      "stateMutability": "view",
      "type": "function"
    },
    {
      "inputs": [],
      "name": "STRIPS_ROLE",
      "outputs": [
        {
          "internalType": "bytes32",
          "name": "",
          "type": "bytes32"
        }
      ],
      "stateMutability": "view",
      "type": "function"
    },
    {
      "inputs": [
        {
          "internalType": "contract IERC20",
          "name": "_token",
          "type": "address"
        },
        {
          "internalType": "int256",
          "name": "_amount",
          "type": "int256"
        }
      ],
      "name": "approveStrips",
      "outputs": [],
      "stateMutability": "nonpayable",
      "type": "function"
    },
    {
      "inputs": [
        {
          "internalType": "address",
          "name": "_newDao",
          "type": "address"
        }
      ],
      "name": "changeDao",
      "outputs": [],
      "stateMutability": "nonpayable",
      "type": "function"
    },
    {
      "inputs": [
        {
          "internalType": "int256",
          "name": "amount",
          "type": "int256"
        }
      ],
      "name": "changeStakingPnl",
      "outputs": [],
      "stateMutability": "nonpayable",
      "type": "function"
    },
    {
      "inputs": [
        {
          "internalType": "address",
          "name": "_router",
          "type": "address"
        }
      ],
      "name": "changeSushiRouter",
      "outputs": [],
      "stateMutability": "nonpayable",
      "type": "function"
    },
    {
      "inputs": [
        {
          "internalType": "int256",
          "name": "amount",
          "type": "int256"
        }
      ],
      "name": "changeTradingPnl",
      "outputs": [],
      "stateMutability": "nonpayable",
      "type": "function"
    },
    {
      "inputs": [
        {
          "components": [
            {
              "internalType": "uint256",
              "name": "periodLength",
              "type": "uint256"
            },
            {
              "internalType": "uint256",
              "name": "washTime",
              "type": "uint256"
            },
            {
              "internalType": "contract IERC20",
              "name": "slpToken",
              "type": "address"
            },
            {
              "internalType": "contract IERC20",
              "name": "strpToken",
              "type": "address"
            },
            {
              "internalType": "address",
              "name": "stripsProxy",
              "type": "address"
            },
            {
              "internalType": "address",
              "name": "dao",
              "type": "address"
            },
            {
              "internalType": "address",
              "name": "admin",
              "type": "address"
            },
            {
              "internalType": "int256",
              "name": "rewardTotalPerSecTrader",
              "type": "int256"
            },
            {
              "internalType": "int256",
              "name": "rewardTotalPerSecStaker",
              "type": "int256"
            }
          ],
          "internalType": "struct IRewarder.InitParams",
          "name": "_params",
          "type": "tuple"
        }
      ],
      "name": "createRewarder",
      "outputs": [],
      "stateMutability": "nonpayable",
      "type": "function"
    },
    {
      "inputs": [
        {
          "components": [
            {
              "internalType": "address",
              "name": "stripsProxy",
              "type": "address"
            },
            {
              "internalType": "address",
              "name": "pairOracle",
              "type": "address"
            },
            {
              "internalType": "address",
              "name": "tradingToken",
              "type": "address"
            },
            {
              "internalType": "address",
              "name": "stakingToken",
              "type": "address"
            },
            {
              "internalType": "int256",
              "name": "penaltyPeriod",
              "type": "int256"
            },
            {
              "internalType": "int256",
              "name": "penaltyFee",
              "type": "int256"
            }
          ],
          "internalType": "struct IStripsLpToken.TokenParams",
          "name": "_params",
          "type": "tuple"
        }
      ],
      "name": "createSLP",
      "outputs": [],
      "stateMutability": "nonpayable",
      "type": "function"
    },
    {
      "inputs": [],
      "name": "createdAt",
      "outputs": [
        {
          "internalType": "uint256",
          "name": "",
          "type": "uint256"
        }
      ],
      "stateMutability": "view",
      "type": "function"
    },
    {
      "inputs": [],
      "name": "dao",
      "outputs": [
        {
          "internalType": "address",
          "name": "",
          "type": "address"
        }
      ],
      "stateMutability": "view",
      "type": "function"
    },
    {
      "inputs": [
        {
          "internalType": "int256",
          "name": "amount",
          "type": "int256"
        }
      ],
      "name": "ensureFunds",
      "outputs": [],
      "stateMutability": "nonpayable",
      "type": "function"
    },
    {
      "inputs": [],
      "name": "externalLiquidityChanged",
      "outputs": [],
      "stateMutability": "nonpayable",
      "type": "function"
    },
    {
      "inputs": [],
      "name": "getLiquidity",
      "outputs": [
        {
          "internalType": "int256",
          "name": "",
          "type": "int256"
        }
      ],
      "stateMutability": "view",
      "type": "function"
    },
    {
      "inputs": [],
      "name": "getPartedLiquidity",
      "outputs": [
        {
          "internalType": "int256",
          "name": "usdcLiquidity",
          "type": "int256"
        },
        {
          "internalType": "int256",
          "name": "lpLiquidity",
          "type": "int256"
        }
      ],
      "stateMutability": "view",
      "type": "function"
    },
    {
      "inputs": [],
      "name": "getRewarder",
      "outputs": [
        {
          "internalType": "address",
          "name": "",
          "type": "address"
        }
      ],
      "stateMutability": "view",
      "type": "function"
    },
    {
      "inputs": [
        {
          "internalType": "bytes32",
          "name": "role",
          "type": "bytes32"
        }
      ],
      "name": "getRoleAdmin",
      "outputs": [
        {
          "internalType": "bytes32",
          "name": "",
          "type": "bytes32"
        }
      ],
      "stateMutability": "view",
      "type": "function"
    },
    {
      "inputs": [],
      "name": "getSlpToken",
      "outputs": [
        {
          "internalType": "address",
          "name": "",
          "type": "address"
        }
      ],
      "stateMutability": "view",
      "type": "function"
    },
    {
      "inputs": [],
      "name": "getStakingToken",
      "outputs": [
        {
          "internalType": "address",
          "name": "",
          "type": "address"
        }
      ],
      "stateMutability": "view",
      "type": "function"
    },
    {
      "inputs": [],
      "name": "getStrips",
      "outputs": [
        {
          "internalType": "address",
          "name": "",
          "type": "address"
        }
      ],
      "stateMutability": "view",
      "type": "function"
    },
    {
      "inputs": [],
      "name": "getStrp",
      "outputs": [
        {
          "internalType": "address",
          "name": "",
          "type": "address"
        }
      ],
      "stateMutability": "view",
      "type": "function"
    },
    {
      "inputs": [],
      "name": "getSushiRouter",
      "outputs": [
        {
          "internalType": "address",
          "name": "",
          "type": "address"
        }
      ],
      "stateMutability": "view",
      "type": "function"
    },
    {
      "inputs": [],
      "name": "getTradingToken",
      "outputs": [
        {
          "internalType": "address",
          "name": "",
          "type": "address"
        }
      ],
      "stateMutability": "view",
      "type": "function"
    },
    {
      "inputs": [
        {
          "internalType": "bytes32",
          "name": "role",
          "type": "bytes32"
        },
        {
          "internalType": "address",
          "name": "account",
          "type": "address"
        }
      ],
      "name": "grantRole",
      "outputs": [],
      "stateMutability": "nonpayable",
      "type": "function"
    },
    {
      "inputs": [
        {
          "internalType": "bytes32",
          "name": "role",
          "type": "bytes32"
        },
        {
          "internalType": "address",
          "name": "account",
          "type": "address"
        }
      ],
      "name": "hasRole",
      "outputs": [
        {
          "internalType": "bool",
          "name": "",
          "type": "bool"
        }
      ],
      "stateMutability": "view",
      "type": "function"
    },
    {
      "inputs": [
        {
          "internalType": "contract IStrips",
          "name": "_stripsProxy",
          "type": "address"
        },
        {
          "internalType": "contract IUniswapV2Pair",
          "name": "_stakingToken",
          "type": "address"
        },
        {
          "internalType": "contract IERC20",
          "name": "_tradingToken",
          "type": "address"
        },
        {
          "internalType": "contract IERC20",
          "name": "_strpToken",
          "type": "address"
        },
        {
          "internalType": "contract IUniswapLpOracle",
          "name": "_pairOracle",
          "type": "address"
        },
        {
          "internalType": "address",
          "name": "_sushiRouter",
          "type": "address"
        },
        {
          "internalType": "address",
          "name": "_dao",
          "type": "address"
        }
      ],
      "name": "initialize",
      "outputs": [],
      "stateMutability": "nonpayable",
      "type": "function"
    },
    {
      "inputs": [],
      "name": "isInsurance",
      "outputs": [
        {
          "internalType": "bool",
          "name": "",
          "type": "bool"
        }
      ],
      "stateMutability": "view",
      "type": "function"
    },
    {
      "inputs": [],
      "name": "isRewardable",
      "outputs": [
        {
          "internalType": "bool",
          "name": "",
          "type": "bool"
        }
      ],
      "stateMutability": "view",
      "type": "function"
    },
    {
      "inputs": [],
      "name": "isSuspended",
      "outputs": [
        {
          "internalType": "bool",
          "name": "",
          "type": "bool"
        }
      ],
      "stateMutability": "view",
      "type": "function"
    },
    {
      "inputs": [],
      "name": "liveTime",
      "outputs": [
        {
          "internalType": "uint256",
          "name": "",
          "type": "uint256"
        }
      ],
      "stateMutability": "view",
      "type": "function"
    },
    {
      "inputs": [],
      "name": "pairOracle",
      "outputs": [
        {
          "internalType": "contract IUniswapLpOracle",
          "name": "",
          "type": "address"
        }
      ],
      "stateMutability": "view",
      "type": "function"
    },
    {
      "inputs": [
        {
          "internalType": "bytes32",
          "name": "role",
          "type": "bytes32"
        },
        {
          "internalType": "address",
          "name": "account",
          "type": "address"
        }
      ],
      "name": "renounceRole",
      "outputs": [],
      "stateMutability": "nonpayable",
      "type": "function"
    },
    {
      "inputs": [
        {
          "internalType": "bytes32",
          "name": "role",
          "type": "bytes32"
        },
        {
          "internalType": "address",
          "name": "account",
          "type": "address"
        }
      ],
      "name": "revokeRole",
      "outputs": [],
      "stateMutability": "nonpayable",
      "type": "function"
    },
    {
      "inputs": [],
      "name": "rewarder",
      "outputs": [
        {
          "internalType": "contract IRewarder",
          "name": "",
          "type": "address"
        }
      ],
      "stateMutability": "view",
      "type": "function"
    },
    {
      "inputs": [],
      "name": "slpToken",
      "outputs": [
        {
          "internalType": "contract IStripsLpToken",
          "name": "",
          "type": "address"
        }
      ],
      "stateMutability": "view",
      "type": "function"
    },
    {
      "inputs": [
        {
          "internalType": "int256",
          "name": "amount",
          "type": "int256"
        }
      ],
      "name": "stake",
      "outputs": [],
      "stateMutability": "nonpayable",
      "type": "function"
    },
    {
      "inputs": [],
      "name": "stakingToken",
      "outputs": [
        {
          "internalType": "contract IUniswapV2Pair",
          "name": "",
          "type": "address"
        }
      ],
      "stateMutability": "view",
      "type": "function"
    },
    {
      "inputs": [],
      "name": "stripsProxy",
      "outputs": [
        {
          "internalType": "contract IStrips",
          "name": "",
          "type": "address"
        }
      ],
      "stateMutability": "view",
      "type": "function"
    },
    {
      "inputs": [],
      "name": "strpToken",
      "outputs": [
        {
          "internalType": "contract IERC20",
          "name": "",
          "type": "address"
        }
      ],
      "stateMutability": "view",
      "type": "function"
    },
    {
      "inputs": [
        {
          "internalType": "bytes4",
          "name": "interfaceId",
          "type": "bytes4"
        }
      ],
      "name": "supportsInterface",
      "outputs": [
        {
          "internalType": "bool",
          "name": "",
          "type": "bool"
        }
      ],
      "stateMutability": "view",
      "type": "function"
    },
    {
      "inputs": [],
      "name": "sushiRouter",
      "outputs": [
        {
          "internalType": "address",
          "name": "",
          "type": "address"
        }
      ],
      "stateMutability": "view",
      "type": "function"
    },
    {
      "inputs": [
        {
          "internalType": "bool",
          "name": "_suspend",
          "type": "bool"
        }
      ],
      "name": "suspendChange",
      "outputs": [],
      "stateMutability": "nonpayable",
      "type": "function"
    },
    {
      "inputs": [],
      "name": "totalStaked",
      "outputs": [
        {
          "internalType": "int256",
          "name": "",
          "type": "int256"
        }
      ],
      "stateMutability": "view",
      "type": "function"
    },
    {
      "inputs": [],
      "name": "tradingToken",
      "outputs": [
        {
          "internalType": "contract IERC20",
          "name": "",
          "type": "address"
        }
      ],
      "stateMutability": "view",
      "type": "function"
    },
    {
      "inputs": [
        {
          "internalType": "int256",
          "name": "amount",
          "type": "int256"
        }
      ],
      "name": "unstake",
      "outputs": [],
      "stateMutability": "nonpayable",
      "type": "function"
    },
    {
      "inputs": [
        {
          "internalType": "address",
          "name": "_to",
          "type": "address"
        },
        {
          "internalType": "int256",
          "name": "_amount",
          "type": "int256"
        }
      ],
      "name": "withdraw",
      "outputs": [],
      "stateMutability": "nonpayable",
      "type": "function"
    }
  ],
  "bytecode": "0x608060405234801561001057600080fd5b506125fd806100206000396000f3fe608060405234801561001057600080fd5b50600436106102955760003560e01c806379ea9dd411610167578063badf44d9116100ce578063d547741f11610087578063d547741f14610591578063d8826fec146105a4578063dcc3e06e146105b7578063e58378bb146105ca578063e5f4a5d4146105df578063e71acffe146105f257600080fd5b8063badf44d914610549578063bc49abd81461055c578063c52aa2cf14610564578063c6be237114610564578063ca4fa4951461056b578063cf09e0d01461058857600080fd5b806393e106011161012057806393e10601146104e65780639f9106d1146104f7578063a217fddf14610508578063a31ab6f214610510578063a637c4f514610523578063b1b9a7c51461053657600080fd5b806379ea9dd4146104855780637da7d3f114610496578063807354ce146104a9578063817b1cd2146104ba5780639015dcc9146104c257806391d14854146104d357600080fd5b8063358764761161020b5780636d13582c116101c45780636d13582c1461041e5780637003075e1461043157806372667cdb1461044657806372f702f31461045757806377b71df01461046a57806378cff5761461047d57600080fd5b806335876476146103ae57806336568abe146103c1578063367d13d0146103d45780634162169f146103e5578063538b5aa5146103f85780635690f64d1461040b57600080fd5b80631d1309351161025d5780631d1309351461032b5780631f3623231461033f578063207919fa14610352578063248a9ca3146103655780632ad8a220146103885780632f2ff15d1461039b57600080fd5b806301ffc9a71461029a57806307ab47c9146102c25780630910a510146102ed5780630a2ce6d71461030357806312bffc8814610318575b600080fd5b6102ad6102a8366004611d8d565b610605565b60405190151581526020015b60405180910390f35b60d1546102d5906001600160a01b031681565b6040516001600160a01b0390911681526020016102b9565b6102f561063c565b6040519081526020016102b9565b610316610311366004611d46565b6107e2565b005b610316610326366004611f2b565b6108de565b60cb546102ad90600160a01b900460ff1681565b61031661034d366004611d46565b6109ec565b610316610360366004611cc7565b610ad3565b6102f5610373366004611d46565b60009081526065602052604090206001015490565b60d0546102d5906001600160a01b031681565b6103166103a9366004611d5e565b610b5d565b6103166103bc366004611de3565b610b88565b6103166103cf366004611d5e565b610da0565b60d0546001600160a01b03166102d5565b60ca546102d5906001600160a01b031681565b610316610406366004611e90565b610e1e565b610316610419366004611db5565b610f2c565b60cb546102d5906001600160a01b031681565b6102f56000805160206125a883398151915281565b60cb546001600160a01b03166102d5565b60cf546102d5906001600160a01b031681565b610316610478366004611d46565b610f9a565b610316611059565b60d2546001600160a01b03166102d5565b6103166104a4366004611ce3565b6110a2565b60d1546001600160a01b03166102d5565b6102f5611104565b60cc546001600160a01b03166102d5565b6102ad6104e1366004611d5e565b611113565b60cd546001600160a01b03166102d5565b60cf546001600160a01b03166102d5565b6102f5600081565b60d2546102d5906001600160a01b031681565b60cd546102d5906001600160a01b031681565b60ce546102d5906001600160a01b031681565b610316610557366004611d46565b61113e565b6102f56111e7565b60016102ad565b6105736111f7565b604080519283526020830191909152016102b9565b6102f560c95481565b61031661059f366004611d5e565b611212565b6103166105b2366004611cc7565b611238565b60cc546102d5906001600160a01b031681565b6102f560008051602061258883398151915281565b6103166105ed366004611d0e565b6112b5565b610316610600366004611d46565b6112ed565b60006001600160e01b03198216637965db0b60e01b148061063657506301ffc9a760e01b6001600160e01b03198316145b92915050565b60cf546040516370a0823160e01b815230600482015260009182916001600160a01b03909116906370a082319060240160206040518083038186803b15801561068457600080fd5b505afa158015610698573d6000803e3d6000fd5b505050506040513d601f19601f820116820180604052508101906106bc9190611e78565b60d0546040516370a0823160e01b81523060048201529192506000916001600160a01b03909116906370a082319060240160206040518083038186803b15801561070557600080fd5b505afa158015610719573d6000803e3d6000fd5b505050506040513d601f19601f8201168201806040525081019061073d9190611e78565b90506107cf60ce60009054906101000a90046001600160a01b03166001600160a01b03166398d5fdca6040518163ffffffff1660e01b815260040160206040518083038186803b15801561079057600080fd5b505afa1580156107a4573d6000803e3d6000fd5b505050506040513d601f19601f820116820180604052508101906107c89190611e78565b839061135f565b91506107db8183612291565b9250505090565b6002609754141561080e5760405162461bcd60e51b8152600401610805906120e3565b60405180910390fd5b600260975560cb54600160a01b900460ff16156108595760405162461bcd60e51b815260206004820152600960248201526814d554d4115391115160ba1b6044820152606401610805565b60d154604051632e5e0b6160e01b81526001600160a01b0390911660048201523360248201526044810182905273__$d66304e481bdf2800eccec9f89a098a24a$__90632e5e0b61906064015b60006040518083038186803b1580156108be57600080fd5b505af41580156108d2573d6000803e3d6000fd5b50506001609755505050565b6000805160206125888339815191526108f78133611374565b60d1546001600160a01b0316156109415760405162461bcd60e51b815260206004820152600e60248201526d131417d513d2d15397d1561254d560921b6044820152606401610805565b604051630e9f89fb60e41b815273__$c4fda02c71b4354d0125dbaa89864d6861$__9063e9f89fb0906109789085906004016121c9565b60206040518083038186803b15801561099057600080fd5b505af41580156109a4573d6000803e3d6000fd5b505050506040513d601f19601f820116820180604052508101906109c89190611dc7565b60d180546001600160a01b0319166001600160a01b03929092169190911790555050565b60026097541415610a0f5760405162461bcd60e51b8152600401610805906120e3565b60026097556000805160206125a8833981519152610a2d8133611374565b600082610a386113d8565b610a4291906124b1565b905060008112610a525750610aca565b60d154604051637e1c8e3560e01b81526001600160a01b0390911660048201526024810184905273__$d66304e481bdf2800eccec9f89a098a24a$__90637e1c8e359060440160006040518083038186803b158015610ab057600080fd5b505af4158015610ac4573d6000803e3d6000fd5b50505050505b50506001609755565b600080516020612588833981519152610aec8133611374565b813b610b3a5760405162461bcd60e51b815260206004820152601b60248201527f53555348495f524f555445525f4e4f545f415f434f4e545241435400000000006044820152606401610805565b5060cb80546001600160a01b0319166001600160a01b0392909216919091179055565b600082815260656020526040902060010154610b798133611374565b610b838383611455565b505050565b600054610100900460ff1680610ba1575060005460ff16155b610bbd5760405162461bcd60e51b815260040161080590612095565b600054610100900460ff16158015610bdf576000805461ffff19166101011790555b823b610c2d5760405162461bcd60e51b815260206004820152601b60248201527f53555348495f524f555445525f4e4f545f415f434f4e545241435400000000006044820152606401610805565b6001600160a01b038216610c6e5760405162461bcd60e51b81526020600482015260086024820152675a45524f5f44414f60c01b6044820152606401610805565b6001600160a01b038816610cb65760405162461bcd60e51b815260206004820152600f60248201526e2727afa9aa2924a829afa2a92927a960891b6044820152606401610805565b610cbe6114db565b610cc661155f565b60cf80546001600160a01b03199081166001600160a01b038a81169190911790925560d08054821689841617905560d28054821688841617905560ce8054821687841617905560cd805482168b841617905560cb80549091169185169190911790554260c955610d44600080516020612588833981519152336115be565b60cd54610d69906000805160206125a8833981519152906001600160a01b03166115be565b60ca80546001600160a01b0319166001600160a01b0384161790558015610d96576000805461ff00191690555b5050505050505050565b6001600160a01b0381163314610e105760405162461bcd60e51b815260206004820152602f60248201527f416363657373436f6e74726f6c3a2063616e206f6e6c792072656e6f756e636560448201526e103937b632b9903337b91039b2b63360891b6064820152608401610805565b610e1a82826115c8565b5050565b600080516020612588833981519152610e378133611374565b60cc546001600160a01b031615610e815760405162461bcd60e51b815260206004820152600e60248201526d149155d05491115497d1561254d560921b6044820152606401610805565b60405163bdf3bf1960e01b815273__$c4fda02c71b4354d0125dbaa89864d6861$__9063bdf3bf1990610eb890859060040161211a565b60206040518083038186803b158015610ed057600080fd5b505af4158015610ee4573d6000803e3d6000fd5b505050506040513d601f19601f82011682018060405250810190610f089190611dc7565b60cc80546001600160a01b0319166001600160a01b03929092169190911790555050565b6000805160206125a8833981519152610f458133611374565b60008213610f825760405162461bcd60e51b815260206004820152600a60248201526910905117d05353d5539560b21b6044820152606401610805565b60cd54610b839084906001600160a01b03168461162f565b60026097541415610fbd5760405162461bcd60e51b8152600401610805906120e3565b600260975560cb54600160a01b900460ff16156110085760405162461bcd60e51b815260206004820152600960248201526814d554d4115391115160ba1b6044820152606401610805565b60d15460405163dfbcd6db60e01b81526001600160a01b0390911660048201523360248201526044810182905273__$d66304e481bdf2800eccec9f89a098a24a$__9063dfbcd6db906064016108a6565b6002609754141561107c5760405162461bcd60e51b8152600401610805906120e3565b60026097556000805160206125a883398151915261109a8133611374565b506001609755565b600260975414156110c55760405162461bcd60e51b8152600401610805906120e3565b60026097556000805160206125a88339815191526110e38133611374565b60d0546110fa906001600160a01b03168484611786565b5050600160975550565b600061110e6117b6565b905090565b60009182526065602090815260408084206001600160a01b0393909316845291905290205460ff1690565b600260975414156111615760405162461bcd60e51b8152600401610805906120e3565b60026097556000805160206125a883398151915261117f8133611374565b60d15460405163badf44d960e01b8152600481018490526001600160a01b039091169063badf44d9906024015b600060405180830381600087803b1580156111c657600080fd5b505af11580156111da573d6000803e3d6000fd5b5050600160975550505050565b600060c9544261110e91906124f0565b6000806112026113d8565b915061120c6117b6565b90509091565b60008281526065602052604090206001015461122e8133611374565b610b8383836115c8565b6000805160206125888339815191526112518133611374565b6001600160a01b0382166112925760405162461bcd60e51b81526020600482015260086024820152675a45524f5f44414f60c01b6044820152606401610805565b5060ca80546001600160a01b0319166001600160a01b0392909216919091179055565b6000805160206125888339815191526112ce8133611374565b5060cb8054911515600160a01b0260ff60a01b19909216919091179055565b600260975414156113105760405162461bcd60e51b8152600401610805906120e3565b60026097556000805160206125a883398151915261132e8133611374565b60d15460405163738d67ff60e11b8152600481018490526001600160a01b039091169063e71acffe906024016111ac565b600061136d838360126117e7565b9392505050565b61137e8282611113565b610e1a57611396816001600160a01b0316601461180e565b6113a183602061180e565b6040516020016113b2929190611fed565b60408051601f198184030181529082905262461bcd60e51b825261080591600401612062565b60d0546040516370a0823160e01b81523060048201526000916001600160a01b0316906370a08231906024015b60206040518083038186803b15801561141d57600080fd5b505afa158015611431573d6000803e3d6000fd5b505050506040513d601f19601f8201168201806040525081019061110e9190611e78565b61145f8282611113565b610e1a5760008281526065602090815260408083206001600160a01b03851684529091529020805460ff191660011790556114973390565b6001600160a01b0316816001600160a01b0316837f2f8788117e7eff1d82e926ec794901d17c78024a50270940304540a733656f0d60405160405180910390a45050565b600054610100900460ff16806114f4575060005460ff16155b6115105760405162461bcd60e51b815260040161080590612095565b600054610100900460ff16158015611532576000805461ffff19166101011790555b61153a6119f0565b6115426119f0565b61154a6119f0565b801561155c576000805461ff00191690555b50565b600054610100900460ff1680611578575060005460ff16155b6115945760405162461bcd60e51b815260040161080590612095565b600054610100900460ff161580156115b6576000805461ffff19166101011790555b61154a611a5a565b610e1a8282611455565b6115d28282611113565b15610e1a5760008281526065602090815260408083206001600160a01b0385168085529252808320805460ff1916905551339285917ff6391f5c32d9c69d2a47ea670b442974b53935d1edc7fd64eb21e047a839171b9190a45050565b8015806116b85750604051636eb1769f60e11b81523060048201526001600160a01b03838116602483015284169063dd62ed3e9060440160206040518083038186803b15801561167e57600080fd5b505afa158015611692573d6000803e3d6000fd5b505050506040513d601f19601f820116820180604052508101906116b69190611e78565b155b6117235760405162461bcd60e51b815260206004820152603660248201527f5361666545524332303a20617070726f76652066726f6d206e6f6e2d7a65726f60448201527520746f206e6f6e2d7a65726f20616c6c6f77616e636560501b6064820152608401610805565b6040516001600160a01b038316602482015260448101829052610b8390849063095ea7b360e01b906064015b60408051601f198184030181529190526020810180516001600160e01b03166001600160e01b031990931692909217909152611aca565b6040516001600160a01b038316602482015260448101829052610b8390849063a9059cbb60e01b9060640161174f565b60cf546040516370a0823160e01b81523060048201526000916001600160a01b0316906370a0823190602401611405565b60006117f282611b9c565b6117fc848661240f565b61180691906122ea565b949350505050565b6060600061181d836002612492565b6118289060026122d2565b67ffffffffffffffff81111561184e57634e487b7160e01b600052604160045260246000fd5b6040519080825280601f01601f191660200182016040528015611878576020820181803683370190505b509050600360fc1b816000815181106118a157634e487b7160e01b600052603260045260246000fd5b60200101906001600160f81b031916908160001a905350600f60fb1b816001815181106118de57634e487b7160e01b600052603260045260246000fd5b60200101906001600160f81b031916908160001a9053506000611902846002612492565b61190d9060016122d2565b90505b60018111156119a1576f181899199a1a9b1b9c1cb0b131b232b360811b85600f166010811061194f57634e487b7160e01b600052603260045260246000fd5b1a60f81b82828151811061197357634e487b7160e01b600052603260045260246000fd5b60200101906001600160f81b031916908160001a90535060049490941c9361199a81612537565b9050611910565b50831561136d5760405162461bcd60e51b815260206004820181905260248201527f537472696e67733a20686578206c656e67746820696e73756666696369656e746044820152606401610805565b600054610100900460ff1680611a09575060005460ff16155b611a255760405162461bcd60e51b815260040161080590612095565b600054610100900460ff1615801561154a576000805461ffff1916610101179055801561155c576000805461ff001916905550565b600054610100900460ff1680611a73575060005460ff16155b611a8f5760405162461bcd60e51b815260040161080590612095565b600054610100900460ff16158015611ab1576000805461ffff19166101011790555b6001609755801561155c576000805461ff001916905550565b6000611b1f826040518060400160405280602081526020017f5361666545524332303a206c6f772d6c6576656c2063616c6c206661696c6564815250856001600160a01b0316611bac9092919063ffffffff16565b805190915015610b835780806020019051810190611b3d9190611d2a565b610b835760405162461bcd60e51b815260206004820152602a60248201527f5361666545524332303a204552433230206f7065726174696f6e20646964206e6044820152691bdd081cdd58d8d9595960b21b6064820152608401610805565b600061063660ff8316600a612367565b6060611806848460008585843b611c055760405162461bcd60e51b815260206004820152601d60248201527f416464726573733a2063616c6c20746f206e6f6e2d636f6e74726163740000006044820152606401610805565b600080866001600160a01b03168587604051611c219190611fd1565b60006040518083038185875af1925050503d8060008114611c5e576040519150601f19603f3d011682016040523d82523d6000602084013e611c63565b606091505b5091509150611c73828286611c7e565b979650505050505050565b60608315611c8d57508161136d565b825115611c9d5782518084602001fd5b8160405162461bcd60e51b81526004016108059190612062565b8035611cc281612564565b919050565b600060208284031215611cd8578081fd5b813561136d81612564565b60008060408385031215611cf5578081fd5b8235611d0081612564565b946020939093013593505050565b600060208284031215611d1f578081fd5b813561136d81612579565b600060208284031215611d3b578081fd5b815161136d81612579565b600060208284031215611d57578081fd5b5035919050565b60008060408385031215611d70578182fd5b823591506020830135611d8281612564565b809150509250929050565b600060208284031215611d9e578081fd5b81356001600160e01b03198116811461136d578182fd5b60008060408385031215611cf5578182fd5b600060208284031215611dd8578081fd5b815161136d81612564565b600080600080600080600060e0888a031215611dfd578283fd5b8735611e0881612564565b96506020880135611e1881612564565b95506040880135611e2881612564565b94506060880135611e3881612564565b93506080880135611e4881612564565b925060a0880135611e5881612564565b915060c0880135611e6881612564565b8091505092959891949750929550565b600060208284031215611e89578081fd5b5051919050565b60006101208284031215611ea2578081fd5b611eaa612259565b8235815260208301356020820152611ec460408401611cb7565b6040820152611ed560608401611cb7565b6060820152611ee660808401611cb7565b6080820152611ef760a08401611cb7565b60a0820152611f0860c08401611cb7565b60c082015260e08381013590820152610100928301359281019290925250919050565b600060c08284031215611f3c578081fd5b60405160c0810181811067ffffffffffffffff82111715611f6b57634e487b7160e01b83526041600452602483fd5b6040528235611f7981612564565b81526020830135611f8981612564565b60208201526040830135611f9c81612564565b60408201526060830135611faf81612564565b60608201526080838101359082015260a0928301359281019290925250919050565b60008251611fe3818460208701612507565b9190910192915050565b7f416363657373436f6e74726f6c3a206163636f756e7420000000000000000000815260008351612025816017850160208801612507565b7001034b99036b4b9b9b4b733903937b6329607d1b6017918401918201528351612056816028840160208801612507565b01602801949350505050565b6020815260008251806020840152612081816040850160208701612507565b601f01601f19169190910160400192915050565b6020808252602e908201527f496e697469616c697a61626c653a20636f6e747261637420697320616c72656160408201526d191e481a5b9a5d1a585b1a5e995960921b606082015260800190565b6020808252601f908201527f5265656e7472616e637947756172643a207265656e7472616e742063616c6c00604082015260600190565b81518152602080830151908201526040808301516001600160a01b03169082015260608083015161012083019161215b908401826001600160a01b03169052565b50608083015161217660808401826001600160a01b03169052565b5060a083015161219160a08401826001600160a01b03169052565b5060c08301516121ac60c08401826001600160a01b03169052565b5060e083015160e083015261010080840151818401525092915050565b600061010060018060a01b03808551168452806020860151166020850152806040860151166040850152806060860151166060850152506080840151608084015260a084015160a08401528060c0840152600981840152506829a4a8102a37b5b2b760b91b6101208301526101408060e0840152611806818401600381526205349560ec1b602082015260400190565b604051610120810167ffffffffffffffff8111828210171561228b57634e487b7160e01b600052604160045260246000fd5b60405290565b600080821280156001600160ff1b03849003851316156122b3576122b361254e565b600160ff1b83900384128116156122cc576122cc61254e565b50500190565b600082198211156122e5576122e561254e565b500190565b60008261230557634e487b7160e01b81526012600452602481fd5b600160ff1b82146000198414161561231f5761231f61254e565b500590565b600181815b8085111561235f5781600019048211156123455761234561254e565b8085161561235257918102915b93841c9390800290612329565b509250929050565b600061136d838360008261237d57506001610636565b8161238a57506000610636565b81600181146123a057600281146123aa576123c6565b6001915050610636565b60ff8411156123bb576123bb61254e565b50506001821b610636565b5060208310610133831016604e8410600b84101617156123e9575081810a610636565b6123f38383612324565b80600019048211156124075761240761254e565b029392505050565b60006001600160ff1b03818413828413808216868404861116156124355761243561254e565b600160ff1b848712828116878305891216156124535761245361254e565b85871292508782058712848416161561246e5761246e61254e565b878505871281841616156124845761248461254e565b505050929093029392505050565b60008160001904831182151516156124ac576124ac61254e565b500290565b60008083128015600160ff1b8501841216156124cf576124cf61254e565b6001600160ff1b03840183138116156124ea576124ea61254e565b50500390565b6000828210156125025761250261254e565b500390565b60005b8381101561252257818101518382015260200161250a565b83811115612531576000848401525b50505050565b6000816125465761254661254e565b506000190190565b634e487b7160e01b600052601160045260246000fd5b6001600160a01b038116811461155c57600080fd5b801515811461155c57600080fdfeb19546dff01e856fb3f010c267a7b1c60363cf8a4664e21cc89c26224620214edfd026bd2d3fa1c600c8569d94bb4eed03cfafe0c37f74f3ca61c14b05898e31a2646970667358221220039a20c7f1069b7fbb5f56898d4d2b0ab3a18352176946586db0416ade9f154964736f6c63430008040033",
  "linkReferences": {
    "contracts/impl/SlpFactoryImpl.sol": {
      "SlpFactoryImpl": [
        {
          "length": 20,
          "start": 2416
        },
        {
          "length": 20,
          "start": 3760
        }
      ]
    },
    "contracts/impl/StakingImpl.sol": {
      "StakingImpl": [
        {
          "length": 20,
          "start": 2216
        },
        {
          "length": 20,
          "start": 2715
        },
        {
          "length": 20,
          "start": 4183
        }
      ]
    }
  },
  "deployedLinkReferences": {
    "contracts/impl/SlpFactoryImpl.sol": {
      "SlpFactoryImpl": [
        {
          "length": 20,
          "start": 2384
        },
        {
          "length": 20,
          "start": 3728
        }
      ]
    },
    "contracts/impl/StakingImpl.sol": {
      "StakingImpl": [
        {
          "length": 20,
          "start": 2184
        },
        {
          "length": 20,
          "start": 2683
        },
        {
          "length": 20,
          "start": 4151
        }
      ]
    }
  }
}