{
  "_format": "hh-sol-artifact-1",
  "contractName": "IrsMarket",
  "sourceName": "contracts/markets/IrsMarket.sol",
  "abi": [
    {
      "anonymous": false,
      "inputs": [
        {
          "indexed": true,
          "internalType": "address",
          "name": "asset",
          "type": "address"
        },
        {
          "indexed": true,
          "internalType": "address",
          "name": "changer",
          "type": "address"
        },
        {
          "indexed": true,
          "internalType": "string",
          "name": "action",
          "type": "string"
        },
        {
          "indexed": false,
          "internalType": "int256",
          "name": "totalLiquidity",
          "type": "int256"
        },
        {
          "indexed": false,
          "internalType": "int256",
          "name": "currentStakedPnl",
          "type": "int256"
        },
        {
          "indexed": false,
          "internalType": "int256",
          "name": "stakerInitialStakedPnl",
          "type": "int256"
        },
        {
          "indexed": false,
          "internalType": "int256",
          "name": "stakerTotalCollateral",
          "type": "int256"
        }
      ],
      "name": "LiquidityChanged",
      "type": "event"
    },
    {
      "anonymous": false,
      "inputs": [
        {
          "indexed": true,
          "internalType": "address",
          "name": "asset",
          "type": "address"
        },
        {
          "indexed": true,
          "internalType": "address",
          "name": "changer",
          "type": "address"
        },
        {
          "indexed": false,
          "internalType": "bool",
          "name": "isStake",
          "type": "bool"
        },
        {
          "indexed": false,
          "internalType": "int256",
          "name": "burnedSlp",
          "type": "int256"
        },
        {
          "indexed": false,
          "internalType": "int256",
          "name": "unstakeLp",
          "type": "int256"
        },
        {
          "indexed": false,
          "internalType": "int256",
          "name": "unstakeUsdc",
          "type": "int256"
        },
        {
          "indexed": false,
          "internalType": "int256",
          "name": "lp_fee",
          "type": "int256"
        },
        {
          "indexed": false,
          "internalType": "int256",
          "name": "usdc_fee",
          "type": "int256"
        }
      ],
      "name": "LogStakeChanged",
      "type": "event"
    },
    {
      "anonymous": false,
      "inputs": [
        {
          "indexed": true,
          "internalType": "address",
          "name": "asset",
          "type": "address"
        },
        {
          "indexed": true,
          "internalType": "address",
          "name": "staker",
          "type": "address"
        },
        {
          "indexed": false,
          "internalType": "int256",
          "name": "slpAmount",
          "type": "int256"
        },
        {
          "indexed": false,
          "internalType": "int256",
          "name": "stakingProfit",
          "type": "int256"
        },
        {
          "indexed": false,
          "internalType": "int256",
          "name": "tradingProfit",
          "type": "int256"
        }
      ],
      "name": "LogUnstake",
      "type": "event"
    },
    {
      "anonymous": false,
      "inputs": [
        {
          "indexed": true,
          "internalType": "bytes32",
          "name": "role",
          "type": "bytes32"
        },
        {
          "indexed": true,
          "internalType": "bytes32",
          "name": "previousAdminRole",
          "type": "bytes32"
        },
        {
          "indexed": true,
          "internalType": "bytes32",
          "name": "newAdminRole",
          "type": "bytes32"
        }
      ],
      "name": "RoleAdminChanged",
      "type": "event"
    },
    {
      "anonymous": false,
      "inputs": [
        {
          "indexed": true,
          "internalType": "bytes32",
          "name": "role",
          "type": "bytes32"
        },
        {
          "indexed": true,
          "internalType": "address",
          "name": "account",
          "type": "address"
        },
        {
          "indexed": true,
          "internalType": "address",
          "name": "sender",
          "type": "address"
        }
      ],
      "name": "RoleGranted",
      "type": "event"
    },
    {
      "anonymous": false,
      "inputs": [
        {
          "indexed": true,
          "internalType": "bytes32",
          "name": "role",
          "type": "bytes32"
        },
        {
          "indexed": true,
          "internalType": "address",
          "name": "account",
          "type": "address"
        },
        {
          "indexed": true,
          "internalType": "address",
          "name": "sender",
          "type": "address"
        }
      ],
      "name": "RoleRevoked",
      "type": "event"
    },
    {
      "anonymous": false,
      "inputs": [
        {
          "indexed": true,
          "internalType": "address",
          "name": "asset",
          "type": "address"
        },
        {
          "indexed": true,
          "internalType": "address",
          "name": "token",
          "type": "address"
        }
      ],
      "name": "TokenAdded",
      "type": "event"
    },
    {
      "inputs": [],
      "name": "DEFAULT_ADMIN_ROLE",
      "outputs": [
        {
          "internalType": "bytes32",
          "name": "",
          "type": "bytes32"
        }
      ],
      "stateMutability": "view",
      "type": "function"
    },
    {
      "inputs": [],
      "name": "OWNER_ROLE",
      "outputs": [
        {
          "internalType": "bytes32",
          "name": "",
          "type": "bytes32"
        }
      ],
      "stateMutability": "view",
      "type": "function"
    },
    {
      "inputs": [],
      "name": "STRIPS_ROLE",
      "outputs": [
        {
          "internalType": "bytes32",
          "name": "",
          "type": "bytes32"
        }
      ],
      "stateMutability": "view",
      "type": "function"
    },
    {
      "inputs": [
        {
          "internalType": "contract IERC20",
          "name": "_token",
          "type": "address"
        },
        {
          "internalType": "int256",
          "name": "_amount",
          "type": "int256"
        }
      ],
      "name": "approveStrips",
      "outputs": [],
      "stateMutability": "nonpayable",
      "type": "function"
    },
    {
      "inputs": [
        {
          "internalType": "address",
          "name": "_newDao",
          "type": "address"
        }
      ],
      "name": "changeDao",
      "outputs": [],
      "stateMutability": "nonpayable",
      "type": "function"
    },
    {
      "inputs": [
        {
          "internalType": "int256",
          "name": "amount",
          "type": "int256"
        }
      ],
      "name": "changeStakingPnl",
      "outputs": [],
      "stateMutability": "nonpayable",
      "type": "function"
    },
    {
      "inputs": [
        {
          "internalType": "address",
          "name": "_router",
          "type": "address"
        }
      ],
      "name": "changeSushiRouter",
      "outputs": [],
      "stateMutability": "nonpayable",
      "type": "function"
    },
    {
      "inputs": [
        {
          "internalType": "int256",
          "name": "amount",
          "type": "int256"
        }
      ],
      "name": "changeTradingPnl",
      "outputs": [],
      "stateMutability": "nonpayable",
      "type": "function"
    },
    {
      "inputs": [
        {
          "internalType": "bool",
          "name": "isLong",
          "type": "bool"
        },
        {
          "internalType": "int256",
          "name": "notional",
          "type": "int256"
        }
      ],
      "name": "closePosition",
      "outputs": [
        {
          "internalType": "int256",
          "name": "",
          "type": "int256"
        }
      ],
      "stateMutability": "nonpayable",
      "type": "function"
    },
    {
      "inputs": [
        {
          "components": [
            {
              "internalType": "uint256",
              "name": "periodLength",
              "type": "uint256"
            },
            {
              "internalType": "uint256",
              "name": "washTime",
              "type": "uint256"
            },
            {
              "internalType": "contract IERC20",
              "name": "slpToken",
              "type": "address"
            },
            {
              "internalType": "contract IERC20",
              "name": "strpToken",
              "type": "address"
            },
            {
              "internalType": "address",
              "name": "stripsProxy",
              "type": "address"
            },
            {
              "internalType": "address",
              "name": "dao",
              "type": "address"
            },
            {
              "internalType": "address",
              "name": "admin",
              "type": "address"
            },
            {
              "internalType": "int256",
              "name": "rewardTotalPerSecTrader",
              "type": "int256"
            },
            {
              "internalType": "int256",
              "name": "rewardTotalPerSecStaker",
              "type": "int256"
            }
          ],
          "internalType": "struct IRewarder.InitParams",
          "name": "_params",
          "type": "tuple"
        }
      ],
      "name": "createRewarder",
      "outputs": [],
      "stateMutability": "nonpayable",
      "type": "function"
    },
    {
      "inputs": [
        {
          "components": [
            {
              "internalType": "address",
              "name": "stripsProxy",
              "type": "address"
            },
            {
              "internalType": "address",
              "name": "pairOracle",
              "type": "address"
            },
            {
              "internalType": "address",
              "name": "tradingToken",
              "type": "address"
            },
            {
              "internalType": "address",
              "name": "stakingToken",
              "type": "address"
            },
            {
              "internalType": "int256",
              "name": "penaltyPeriod",
              "type": "int256"
            },
            {
              "internalType": "int256",
              "name": "penaltyFee",
              "type": "int256"
            }
          ],
          "internalType": "struct IStripsLpToken.TokenParams",
          "name": "_params",
          "type": "tuple"
        }
      ],
      "name": "createSLP",
      "outputs": [],
      "stateMutability": "nonpayable",
      "type": "function"
    },
    {
      "inputs": [],
      "name": "currentOracleIndex",
      "outputs": [
        {
          "internalType": "uint256",
          "name": "",
          "type": "uint256"
        }
      ],
      "stateMutability": "view",
      "type": "function"
    },
    {
      "inputs": [],
      "name": "currentPrice",
      "outputs": [
        {
          "internalType": "int256",
          "name": "",
          "type": "int256"
        }
      ],
      "stateMutability": "view",
      "type": "function"
    },
    {
      "inputs": [
        {
          "internalType": "int256",
          "name": "amount",
          "type": "int256"
        }
      ],
      "name": "ensureFunds",
      "outputs": [],
      "stateMutability": "nonpayable",
      "type": "function"
    },
    {
      "inputs": [],
      "name": "externalLiquidityChanged",
      "outputs": [],
      "stateMutability": "nonpayable",
      "type": "function"
    },
    {
      "inputs": [],
      "name": "getAssetOracle",
      "outputs": [
        {
          "internalType": "address",
          "name": "",
          "type": "address"
        }
      ],
      "stateMutability": "view",
      "type": "function"
    },
    {
      "inputs": [],
      "name": "getLiquidity",
      "outputs": [
        {
          "internalType": "int256",
          "name": "",
          "type": "int256"
        }
      ],
      "stateMutability": "view",
      "type": "function"
    },
    {
      "inputs": [],
      "name": "getLongs",
      "outputs": [
        {
          "internalType": "int256",
          "name": "",
          "type": "int256"
        }
      ],
      "stateMutability": "view",
      "type": "function"
    },
    {
      "inputs": [],
      "name": "getPairOracle",
      "outputs": [
        {
          "internalType": "address",
          "name": "",
          "type": "address"
        }
      ],
      "stateMutability": "view",
      "type": "function"
    },
    {
      "inputs": [],
      "name": "getPartedLiquidity",
      "outputs": [
        {
          "internalType": "int256",
          "name": "tradingLiquidity",
          "type": "int256"
        },
        {
          "internalType": "int256",
          "name": "stakingLiquidity",
          "type": "int256"
        }
      ],
      "stateMutability": "view",
      "type": "function"
    },
    {
      "inputs": [],
      "name": "getPrices",
      "outputs": [
        {
          "internalType": "int256",
          "name": "",
          "type": "int256"
        },
        {
          "internalType": "int256",
          "name": "",
          "type": "int256"
        }
      ],
      "stateMutability": "view",
      "type": "function"
    },
    {
      "inputs": [],
      "name": "getRewarder",
      "outputs": [
        {
          "internalType": "address",
          "name": "",
          "type": "address"
        }
      ],
      "stateMutability": "view",
      "type": "function"
    },
    {
      "inputs": [
        {
          "internalType": "bytes32",
          "name": "role",
          "type": "bytes32"
        }
      ],
      "name": "getRoleAdmin",
      "outputs": [
        {
          "internalType": "bytes32",
          "name": "",
          "type": "bytes32"
        }
      ],
      "stateMutability": "view",
      "type": "function"
    },
    {
      "inputs": [],
      "name": "getShorts",
      "outputs": [
        {
          "internalType": "int256",
          "name": "",
          "type": "int256"
        }
      ],
      "stateMutability": "view",
      "type": "function"
    },
    {
      "inputs": [],
      "name": "getSlpToken",
      "outputs": [
        {
          "internalType": "address",
          "name": "",
          "type": "address"
        }
      ],
      "stateMutability": "view",
      "type": "function"
    },
    {
      "inputs": [],
      "name": "getStakingToken",
      "outputs": [
        {
          "internalType": "address",
          "name": "",
          "type": "address"
        }
      ],
      "stateMutability": "view",
      "type": "function"
    },
    {
      "inputs": [],
      "name": "getStrips",
      "outputs": [
        {
          "internalType": "address",
          "name": "",
          "type": "address"
        }
      ],
      "stateMutability": "view",
      "type": "function"
    },
    {
      "inputs": [],
      "name": "getStrp",
      "outputs": [
        {
          "internalType": "address",
          "name": "",
          "type": "address"
        }
      ],
      "stateMutability": "view",
      "type": "function"
    },
    {
      "inputs": [],
      "name": "getSushiRouter",
      "outputs": [
        {
          "internalType": "address",
          "name": "",
          "type": "address"
        }
      ],
      "stateMutability": "view",
      "type": "function"
    },
    {
      "inputs": [],
      "name": "getTradingToken",
      "outputs": [
        {
          "internalType": "address",
          "name": "",
          "type": "address"
        }
      ],
      "stateMutability": "view",
      "type": "function"
    },
    {
      "inputs": [
        {
          "internalType": "bytes32",
          "name": "role",
          "type": "bytes32"
        },
        {
          "internalType": "address",
          "name": "account",
          "type": "address"
        }
      ],
      "name": "grantRole",
      "outputs": [],
      "stateMutability": "nonpayable",
      "type": "function"
    },
    {
      "inputs": [
        {
          "internalType": "bytes32",
          "name": "role",
          "type": "bytes32"
        },
        {
          "internalType": "address",
          "name": "account",
          "type": "address"
        }
      ],
      "name": "hasRole",
      "outputs": [
        {
          "internalType": "bool",
          "name": "",
          "type": "bool"
        }
      ],
      "stateMutability": "view",
      "type": "function"
    },
    {
      "inputs": [
        {
          "components": [
            {
              "internalType": "contract IStrips",
              "name": "stripsProxy",
              "type": "address"
            },
            {
              "internalType": "contract IAssetOracle",
              "name": "assetOracle",
              "type": "address"
            },
            {
              "internalType": "contract IUniswapLpOracle",
              "name": "pairOracle",
              "type": "address"
            },
            {
              "internalType": "int256",
              "name": "initialPrice",
              "type": "int256"
            },
            {
              "internalType": "int256",
              "name": "burningCoef",
              "type": "int256"
            },
            {
              "internalType": "contract IUniswapV2Pair",
              "name": "stakingToken",
              "type": "address"
            },
            {
              "internalType": "contract IERC20",
              "name": "tradingToken",
              "type": "address"
            },
            {
              "internalType": "contract IERC20",
              "name": "strpToken",
              "type": "address"
            }
          ],
          "internalType": "struct StorageMarketLib.InitParams",
          "name": "_params",
          "type": "tuple"
        },
        {
          "internalType": "address",
          "name": "_sushiRouter",
          "type": "address"
        },
        {
          "internalType": "address",
          "name": "_dao",
          "type": "address"
        }
      ],
      "name": "initialize",
      "outputs": [],
      "stateMutability": "nonpayable",
      "type": "function"
    },
    {
      "inputs": [],
      "name": "isRewardable",
      "outputs": [
        {
          "internalType": "bool",
          "name": "",
          "type": "bool"
        }
      ],
      "stateMutability": "view",
      "type": "function"
    },
    {
      "inputs": [],
      "name": "m_state",
      "outputs": [
        {
          "internalType": "address",
          "name": "dao",
          "type": "address"
        },
        {
          "components": [
            {
              "internalType": "contract IStrips",
              "name": "stripsProxy",
              "type": "address"
            },
            {
              "internalType": "contract IAssetOracle",
              "name": "assetOracle",
              "type": "address"
            },
            {
              "internalType": "contract IUniswapLpOracle",
              "name": "pairOracle",
              "type": "address"
            },
            {
              "internalType": "int256",
              "name": "initialPrice",
              "type": "int256"
            },
            {
              "internalType": "int256",
              "name": "burningCoef",
              "type": "int256"
            },
            {
              "internalType": "contract IUniswapV2Pair",
              "name": "stakingToken",
              "type": "address"
            },
            {
              "internalType": "contract IERC20",
              "name": "tradingToken",
              "type": "address"
            },
            {
              "internalType": "contract IERC20",
              "name": "strpToken",
              "type": "address"
            }
          ],
          "internalType": "struct StorageMarketLib.InitParams",
          "name": "params",
          "type": "tuple"
        },
        {
          "internalType": "contract IStripsLpToken",
          "name": "slpToken",
          "type": "address"
        },
        {
          "internalType": "contract IRewarder",
          "name": "rewarder",
          "type": "address"
        },
        {
          "internalType": "int256",
          "name": "totalLongs",
          "type": "int256"
        },
        {
          "internalType": "int256",
          "name": "totalShorts",
          "type": "int256"
        },
        {
          "internalType": "int256",
          "name": "demand",
          "type": "int256"
        },
        {
          "internalType": "int256",
          "name": "supply",
          "type": "int256"
        },
        {
          "internalType": "int256",
          "name": "ratio",
          "type": "int256"
        },
        {
          "internalType": "int256",
          "name": "_prevLiquidity",
          "type": "int256"
        },
        {
          "internalType": "bool",
          "name": "isSuspended",
          "type": "bool"
        },
        {
          "internalType": "address",
          "name": "sushiRouter",
          "type": "address"
        }
      ],
      "stateMutability": "view",
      "type": "function"
    },
    {
      "inputs": [],
      "name": "maxNotional",
      "outputs": [
        {
          "internalType": "int256",
          "name": "",
          "type": "int256"
        }
      ],
      "stateMutability": "view",
      "type": "function"
    },
    {
      "inputs": [
        {
          "internalType": "bool",
          "name": "isLong",
          "type": "bool"
        },
        {
          "internalType": "int256",
          "name": "notional",
          "type": "int256"
        }
      ],
      "name": "openPosition",
      "outputs": [
        {
          "internalType": "int256",
          "name": "",
          "type": "int256"
        }
      ],
      "stateMutability": "nonpayable",
      "type": "function"
    },
    {
      "inputs": [],
      "name": "oraclePrice",
      "outputs": [
        {
          "internalType": "int256",
          "name": "",
          "type": "int256"
        }
      ],
      "stateMutability": "view",
      "type": "function"
    },
    {
      "inputs": [
        {
          "internalType": "int256",
          "name": "notional",
          "type": "int256"
        },
        {
          "internalType": "bool",
          "name": "isLong",
          "type": "bool"
        }
      ],
      "name": "priceChange",
      "outputs": [
        {
          "internalType": "int256",
          "name": "",
          "type": "int256"
        }
      ],
      "stateMutability": "view",
      "type": "function"
    },
    {
      "inputs": [
        {
          "internalType": "bytes32",
          "name": "role",
          "type": "bytes32"
        },
        {
          "internalType": "address",
          "name": "account",
          "type": "address"
        }
      ],
      "name": "renounceRole",
      "outputs": [],
      "stateMutability": "nonpayable",
      "type": "function"
    },
    {
      "inputs": [
        {
          "internalType": "bytes32",
          "name": "role",
          "type": "bytes32"
        },
        {
          "internalType": "address",
          "name": "account",
          "type": "address"
        }
      ],
      "name": "revokeRole",
      "outputs": [],
      "stateMutability": "nonpayable",
      "type": "function"
    },
    {
      "inputs": [
        {
          "internalType": "int256",
          "name": "amount",
          "type": "int256"
        }
      ],
      "name": "stake",
      "outputs": [],
      "stateMutability": "nonpayable",
      "type": "function"
    },
    {
      "inputs": [
        {
          "internalType": "bytes4",
          "name": "interfaceId",
          "type": "bytes4"
        }
      ],
      "name": "supportsInterface",
      "outputs": [
        {
          "internalType": "bool",
          "name": "",
          "type": "bool"
        }
      ],
      "stateMutability": "view",
      "type": "function"
    },
    {
      "inputs": [
        {
          "internalType": "int256",
          "name": "amount",
          "type": "int256"
        }
      ],
      "name": "unstake",
      "outputs": [],
      "stateMutability": "nonpayable",
      "type": "function"
    }
  ],
  "bytecode": "0x608060405234801561001057600080fd5b5061615c80620000216000396000f3fe608060405234801561001057600080fd5b50600436106102745760003560e01c806378cff57611610151578063a217fddf116100c3578063d547741f11610087578063d547741f1461072a578063d8826fec14610746578063dc028c0814610762578063e2b99e6b14610792578063e58378bb146107b0578063e71acffe146107ce57610274565b8063a217fddf14610694578063badf44d9146106b2578063bd9a548b146106ce578063c52aa2cf146106ed578063ca4fa4951461070b57610274565b80638ec812ee116101155780638ec812ee146105ce5780639015dcc9146105ec57806391d148541461060a57806393e106011461063a5780639d1b464a146106585780639f9106d11461067657610274565b806378cff5761461054e57806379ea9dd4146105585780637a891c19146105765780637b6fc88314610594578063807354ce146105b057610274565b806336284eb0116101ea5780635690f64d116101ae5780635690f64d14610493578063668aa824146104af5780636f4d80e5146104cd5780637003075e146104f657806372667cdb1461051457806377b71df01461053257610274565b806336284eb0146103ef57806336568abe1461041f578063367d13d01461043b5780634dde1fb114610459578063538b5aa51461047757610274565b80631f3623231161023c5780631f3623231461031d578063207919fa1461033957806320d7b99714610355578063248a9ca3146103855780632f2ff15d146103b55780632f8dfa4c146103d157610274565b806301ffc9a7146102795780630910a510146102a95780630a2ce6d7146102c75780630f3bee3d146102e357806312bffc8814610301575b600080fd5b610293600480360381019061028e91906144f0565b6107ea565b6040516102a09190614f41565b60405180910390f35b6102b1610864565b6040516102be9190614fd7565b60405180910390f35b6102e160048036038101906102dc91906145a7565b610875565b005b6102eb610a4c565b6040516102f89190614e14565b60405180910390f35b61031b600480360381019061031691906146b1565b610a7b565b005b610337600480360381019061033291906145a7565b610c0f565b005b610353600480360381019061034e91906143fd565b610e40565b005b61036f600480360381019061036a919061444f565b610f02565b60405161037c9190614fd7565b60405180910390f35b61039f600480360381019061039a919061448b565b6111e9565b6040516103ac9190614f5c565b60405180910390f35b6103cf60048036038101906103ca91906144b4565b611209565b005b6103d9611232565b6040516103e69190614fd7565b60405180910390f35b6104096004803603810190610404919061444f565b61123e565b6040516104169190614fd7565b60405180910390f35b610439600480360381019061043491906144b4565b611484565b005b610443611507565b6040516104509190614e14565b60405180910390f35b610461611536565b60405161046e9190614e14565b60405180910390f35b610491600480360381019061048c9190614635565b611565565b005b6104ad60048036038101906104a89190614519565b6116f9565b005b6104b7611746565b6040516104c49190614fd7565b60405180910390f35b6104d5611757565b6040516104ed9c9b9a99989796959493929190614e58565b60405180910390f35b6104fe611a55565b60405161050b9190614f5c565b60405180910390f35b61051c611a79565b6040516105299190614e14565b60405180910390f35b61054c600480360381019061054791906145a7565b611aa5565b005b610556611c7c565b005b610560611d07565b60405161056d9190614e14565b60405180910390f35b61057e611d36565b60405161058b9190614fd7565b60405180910390f35b6105ae60048036038101906105a9919061465f565b611d42565b005b6105b8612231565b6040516105c59190614e14565b60405180910390f35b6105d661225d565b6040516105e39190614fd7565b60405180910390f35b6105f461226e565b6040516106019190614e14565b60405180910390f35b610624600480360381019061061f91906144b4565b61229a565b6040516106319190614f41565b60405180910390f35b610642612305565b60405161064f9190614e14565b60405180910390f35b610660612334565b60405161066d9190614fd7565b60405180910390f35b61067e612345565b60405161068b9190614e14565b60405180910390f35b61069c612374565b6040516106a99190614f5c565b60405180910390f35b6106cc60048036038101906106c791906145a7565b61237b565b005b6106d6612497565b6040516106e4929190614ff2565b60405180910390f35b6106f56124ac565b6040516107029190614f41565b60405180910390f35b6107136124b5565b604051610721929190614ff2565b60405180910390f35b610744600480360381019061073f91906144b4565b6124d4565b005b610760600480360381019061075b91906143fd565b6124fd565b005b61077c600480360381019061077791906145f9565b6125c9565b6040516107899190614fd7565b60405180910390f35b61079a6125f3565b6040516107a791906152fb565b60405180910390f35b6107b861269f565b6040516107c59190614f5c565b60405180910390f35b6107e860048036038101906107e391906145a7565b6126c3565b005b60007f7965db0b000000000000000000000000000000000000000000000000000000007bffffffffffffffffffffffffffffffffffffffffffffffffffffffff1916827bffffffffffffffffffffffffffffffffffffffffffffffffffffffff1916148061085d575061085c826127df565b5b9050919050565b60006108706000612849565b905090565b600260a95414156108bb576040517f08c379a00000000000000000000000000000000000000000000000000000000081526004016108b29061523d565b60405180910390fd5b600260a98190555060001515600060110160009054906101000a900460ff1615151461091c576040517f08c379a00000000000000000000000000000000000000000000000000000000081526004016109139061515d565b60405180910390fd5b600073ffffffffffffffffffffffffffffffffffffffff16600060090160009054906101000a900473ffffffffffffffffffffffffffffffffffffffff1673ffffffffffffffffffffffffffffffffffffffff1614156109b1576040517f08c379a00000000000000000000000000000000000000000000000000000000081526004016109a89061507d565b60405180910390fd5b73__$d66304e481bdf2800eccec9f89a098a24a$__632e5e0b61600060090160009054906101000a900473ffffffffffffffffffffffffffffffffffffffff1633846040518463ffffffff1660e01b8152600401610a1193929190614f77565b60006040518083038186803b158015610a2957600080fd5b505af4158015610a3d573d6000803e3d6000fd5b50505050600160a98190555050565b60008060010160020160009054906101000a900473ffffffffffffffffffffffffffffffffffffffff16905090565b7fb19546dff01e856fb3f010c267a7b1c60363cf8a4664e21cc89c26224620214e610aad81610aa8612899565b6128a1565b600073ffffffffffffffffffffffffffffffffffffffff16600060090160009054906101000a900473ffffffffffffffffffffffffffffffffffffffff1673ffffffffffffffffffffffffffffffffffffffff1614610b41576040517f08c379a0000000000000000000000000000000000000000000000000000000008152600401610b389061519d565b60405180910390fd5b73__$c4fda02c71b4354d0125dbaa89864d6861$__63e9f89fb0836040518263ffffffff1660e01b8152600401610b7891906152b9565b60206040518083038186803b158015610b9057600080fd5b505af4158015610ba4573d6000803e3d6000fd5b505050506040513d601f19601f82011682018060405250810190610bc8919061457e565b600060090160006101000a81548173ffffffffffffffffffffffffffffffffffffffff021916908373ffffffffffffffffffffffffffffffffffffffff1602179055505050565b600260a9541415610c55576040517f08c379a0000000000000000000000000000000000000000000000000000000008152600401610c4c9061523d565b60405180910390fd5b600260a98190555060001515600060110160009054906101000a900460ff16151514610cb6576040517f08c379a0000000000000000000000000000000000000000000000000000000008152600401610cad9061515d565b60405180910390fd5b600073ffffffffffffffffffffffffffffffffffffffff16600060090160009054906101000a900473ffffffffffffffffffffffffffffffffffffffff1673ffffffffffffffffffffffffffffffffffffffff161415610d4b576040517f08c379a0000000000000000000000000000000000000000000000000000000008152600401610d429061507d565b60405180910390fd5b7fdfd026bd2d3fa1c600c8569d94bb4eed03cfafe0c37f74f3ca61c14b05898e31610d7d81610d78612899565b6128a1565b600082610d8a600061293e565b610d9491906157bf565b905060008112610da45750610e34565b73__$d66304e481bdf2800eccec9f89a098a24a$__637e1c8e35600060090160009054906101000a900473ffffffffffffffffffffffffffffffffffffffff16856040518363ffffffff1660e01b8152600401610e02929190614fae565b60006040518083038186803b158015610e1a57600080fd5b505af4158015610e2e573d6000803e3d6000fd5b50505050505b50600160a98190555050565b7fb19546dff01e856fb3f010c267a7b1c60363cf8a4664e21cc89c26224620214e610e7281610e6d612899565b6128a1565b610e7b826129f7565b610eba576040517f08c379a0000000000000000000000000000000000000000000000000000000008152600401610eb1906150bd565b60405180910390fd5b81600060110160016101000a81548173ffffffffffffffffffffffffffffffffffffffff021916908373ffffffffffffffffffffffffffffffffffffffff1602179055505050565b6000600260a9541415610f4a576040517f08c379a0000000000000000000000000000000000000000000000000000000008152600401610f419061523d565b60405180910390fd5b600260a98190555060001515600060110160009054906101000a900460ff16151514610fab576040517f08c379a0000000000000000000000000000000000000000000000000000000008152600401610fa29061515d565b60405180910390fd5b600073ffffffffffffffffffffffffffffffffffffffff16600060090160009054906101000a900473ffffffffffffffffffffffffffffffffffffffff1673ffffffffffffffffffffffffffffffffffffffff161415611040576040517f08c379a00000000000000000000000000000000000000000000000000000000081526004016110379061507d565b60405180910390fd5b7fdfd026bd2d3fa1c600c8569d94bb4eed03cfafe0c37f74f3ca61c14b05898e316110728161106d612899565b6128a1565b600083136110b5576040517f08c379a00000000000000000000000000000000000000000000000000000000081526004016110ac906151bd565b60405180910390fd5b831561114657826000600b0160008282546110d091906157bf565b92505081905550600080600b0154121561111f576040517f08c379a00000000000000000000000000000000000000000000000000000000081526004016111169061505d565b60405180910390fd5b61114183600061112f91906157bf565b600080612a0a9092919063ffffffff16565b6111ce565b826000600c01600082825461115b91906157bf565b92505081905550600080600c015412156111aa576040517f08c379a00000000000000000000000000000000000000000000000000000000081526004016111a1906150fd565b60405180910390fd5b6111cd60008460006111bc91906157bf565b6000612a0a9092919063ffffffff16565b5b6111d86000612bde565b915050600160a98190555092915050565b600060776000838152602001908152602001600020600101549050919050565b611212826111e9565b6112238161121e612899565b6128a1565b61122d8383612c05565b505050565b600080600b0154905090565b6000600260a9541415611286576040517f08c379a000000000000000000000000000000000000000000000000000000000815260040161127d9061523d565b60405180910390fd5b600260a98190555060001515600060110160009054906101000a900460ff161515146112e7576040517f08c379a00000000000000000000000000000000000000000000000000000000081526004016112de9061515d565b60405180910390fd5b600073ffffffffffffffffffffffffffffffffffffffff16600060090160009054906101000a900473ffffffffffffffffffffffffffffffffffffffff1673ffffffffffffffffffffffffffffffffffffffff16141561137c576040517f08c379a00000000000000000000000000000000000000000000000000000000081526004016113739061507d565b60405180910390fd5b7fdfd026bd2d3fa1c600c8569d94bb4eed03cfafe0c37f74f3ca61c14b05898e316113ae816113a9612899565b6128a1565b600083136113f1576040517f08c379a00000000000000000000000000000000000000000000000000000000081526004016113e8906151bd565b60405180910390fd5b60011515841515141561143557826000600b0160008282546114139190615389565b9250508190555061143083600080612a0a9092919063ffffffff16565b611469565b826000600c01600082825461144a9190615389565b925050819055506114686000846000612a0a9092919063ffffffff16565b5b6114736000612bde565b915050600160a98190555092915050565b61148c612899565b73ffffffffffffffffffffffffffffffffffffffff168173ffffffffffffffffffffffffffffffffffffffff16146114f9576040517f08c379a00000000000000000000000000000000000000000000000000000000081526004016114f09061527d565b60405180910390fd5b6115038282612ce6565b5050565b60008060010160060160009054906101000a900473ffffffffffffffffffffffffffffffffffffffff16905090565b60008060010160010160009054906101000a900473ffffffffffffffffffffffffffffffffffffffff16905090565b7fb19546dff01e856fb3f010c267a7b1c60363cf8a4664e21cc89c26224620214e61159781611592612899565b6128a1565b600073ffffffffffffffffffffffffffffffffffffffff166000600a0160009054906101000a900473ffffffffffffffffffffffffffffffffffffffff1673ffffffffffffffffffffffffffffffffffffffff161461162b576040517f08c379a00000000000000000000000000000000000000000000000000000000081526004016116229061511d565b60405180910390fd5b73__$c4fda02c71b4354d0125dbaa89864d6861$__63bdf3bf19836040518263ffffffff1660e01b8152600401611662919061529d565b60206040518083038186803b15801561167a57600080fd5b505af415801561168e573d6000803e3d6000fd5b505050506040513d601f19601f820116820180604052508101906116b29190614555565b6000600a0160006101000a81548173ffffffffffffffffffffffffffffffffffffffff021916908373ffffffffffffffffffffffffffffffffffffffff1602179055505050565b7fdfd026bd2d3fa1c600c8569d94bb4eed03cfafe0c37f74f3ca61c14b05898e3161172b81611726612899565b6128a1565b61174183836000612dc89092919063ffffffff16565b505050565b60006117526000612e42565b905090565b60008060000160009054906101000a900473ffffffffffffffffffffffffffffffffffffffff169080600101604051806101000160405290816000820160009054906101000a900473ffffffffffffffffffffffffffffffffffffffff1673ffffffffffffffffffffffffffffffffffffffff1673ffffffffffffffffffffffffffffffffffffffff1681526020016001820160009054906101000a900473ffffffffffffffffffffffffffffffffffffffff1673ffffffffffffffffffffffffffffffffffffffff1673ffffffffffffffffffffffffffffffffffffffff1681526020016002820160009054906101000a900473ffffffffffffffffffffffffffffffffffffffff1673ffffffffffffffffffffffffffffffffffffffff1673ffffffffffffffffffffffffffffffffffffffff16815260200160038201548152602001600482015481526020016005820160009054906101000a900473ffffffffffffffffffffffffffffffffffffffff1673ffffffffffffffffffffffffffffffffffffffff1673ffffffffffffffffffffffffffffffffffffffff1681526020016006820160009054906101000a900473ffffffffffffffffffffffffffffffffffffffff1673ffffffffffffffffffffffffffffffffffffffff1673ffffffffffffffffffffffffffffffffffffffff1681526020016007820160009054906101000a900473ffffffffffffffffffffffffffffffffffffffff1673ffffffffffffffffffffffffffffffffffffffff1673ffffffffffffffffffffffffffffffffffffffff1681525050908060090160009054906101000a900473ffffffffffffffffffffffffffffffffffffffff169080600a0160009054906101000a900473ffffffffffffffffffffffffffffffffffffffff169080600b01549080600c01549080600d01549080600e01549080600f0154908060100154908060110160009054906101000a900460ff16908060110160019054906101000a900473ffffffffffffffffffffffffffffffffffffffff1690508c565b7fdfd026bd2d3fa1c600c8569d94bb4eed03cfafe0c37f74f3ca61c14b05898e3181565b60008060110160019054906101000a900473ffffffffffffffffffffffffffffffffffffffff16905090565b600260a9541415611aeb576040517f08c379a0000000000000000000000000000000000000000000000000000000008152600401611ae29061523d565b60405180910390fd5b600260a98190555060001515600060110160009054906101000a900460ff16151514611b4c576040517f08c379a0000000000000000000000000000000000000000000000000000000008152600401611b439061515d565b60405180910390fd5b600073ffffffffffffffffffffffffffffffffffffffff16600060090160009054906101000a900473ffffffffffffffffffffffffffffffffffffffff1673ffffffffffffffffffffffffffffffffffffffff161415611be1576040517f08c379a0000000000000000000000000000000000000000000000000000000008152600401611bd89061507d565b60405180910390fd5b73__$d66304e481bdf2800eccec9f89a098a24a$__63dfbcd6db600060090160009054906101000a900473ffffffffffffffffffffffffffffffffffffffff1633846040518463ffffffff1660e01b8152600401611c4193929190614f77565b60006040518083038186803b158015611c5957600080fd5b505af4158015611c6d573d6000803e3d6000fd5b50505050600160a98190555050565b600260a9541415611cc2576040517f08c379a0000000000000000000000000000000000000000000000000000000008152600401611cb99061523d565b60405180910390fd5b600260a9819055507fdfd026bd2d3fa1c600c8569d94bb4eed03cfafe0c37f74f3ca61c14b05898e31611cfc81611cf7612899565b6128a1565b50600160a981905550565b60008060010160070160009054906101000a900473ffffffffffffffffffffffffffffffffffffffff16905090565b600080600c0154905090565b601260019054906101000a900460ff1680611d6a5750601260009054906101000a900460ff16155b611da9576040517f08c379a0000000000000000000000000000000000000000000000000000000008152600401611da09061513d565b60405180910390fd5b6000601260019054906101000a900460ff161590508015611dfb576001601260016101000a81548160ff0219169083151502179055506001601260006101000a81548160ff0219169083151502179055505b611e04836129f7565b611e43576040517f08c379a0000000000000000000000000000000000000000000000000000000008152600401611e3a906150bd565b60405180910390fd5b600073ffffffffffffffffffffffffffffffffffffffff16846000015173ffffffffffffffffffffffffffffffffffffffff161415611eb7576040517f08c379a0000000000000000000000000000000000000000000000000000000008152600401611eae9061517d565b60405180910390fd5b600073ffffffffffffffffffffffffffffffffffffffff168273ffffffffffffffffffffffffffffffffffffffff161415611f27576040517f08c379a0000000000000000000000000000000000000000000000000000000008152600401611f1e9061509d565b60405180910390fd5b611f2f612ef0565b611f37612fe6565b816000800160006101000a81548173ffffffffffffffffffffffffffffffffffffffff021916908373ffffffffffffffffffffffffffffffffffffffff16021790555083600060010160008201518160000160006101000a81548173ffffffffffffffffffffffffffffffffffffffff021916908373ffffffffffffffffffffffffffffffffffffffff16021790555060208201518160010160006101000a81548173ffffffffffffffffffffffffffffffffffffffff021916908373ffffffffffffffffffffffffffffffffffffffff16021790555060408201518160020160006101000a81548173ffffffffffffffffffffffffffffffffffffffff021916908373ffffffffffffffffffffffffffffffffffffffff160217905550606082015181600301556080820151816004015560a08201518160050160006101000a81548173ffffffffffffffffffffffffffffffffffffffff021916908373ffffffffffffffffffffffffffffffffffffffff16021790555060c08201518160060160006101000a81548173ffffffffffffffffffffffffffffffffffffffff021916908373ffffffffffffffffffffffffffffffffffffffff16021790555060e08201518160070160006101000a81548173ffffffffffffffffffffffffffffffffffffffff021916908373ffffffffffffffffffffffffffffffffffffffff16021790555090505082600060110160016101000a81548173ffffffffffffffffffffffffffffffffffffffff021916908373ffffffffffffffffffffffffffffffffffffffff160217905550600080600f015414156121a45761219a6130cc565b6000600f01819055505b6121b16000801b336130e8565b6121db7fb19546dff01e856fb3f010c267a7b1c60363cf8a4664e21cc89c26224620214e336130e8565b6122097fdfd026bd2d3fa1c600c8569d94bb4eed03cfafe0c37f74f3ca61c14b05898e3185600001516130e8565b801561222b576000601260016101000a81548160ff0219169083151502179055505b50505050565b60008060090160009054906101000a900473ffffffffffffffffffffffffffffffffffffffff16905090565b600061226960006130f6565b905090565b600080600a0160009054906101000a900473ffffffffffffffffffffffffffffffffffffffff16905090565b60006077600084815260200190815260200160002060000160008373ffffffffffffffffffffffffffffffffffffffff1673ffffffffffffffffffffffffffffffffffffffff16815260200190815260200160002060009054906101000a900460ff16905092915050565b60008060010160000160009054906101000a900473ffffffffffffffffffffffffffffffffffffffff16905090565b60006123406000612bde565b905090565b60008060010160050160009054906101000a900473ffffffffffffffffffffffffffffffffffffffff16905090565b6000801b81565b600260a95414156123c1576040517f08c379a00000000000000000000000000000000000000000000000000000000081526004016123b89061523d565b60405180910390fd5b600260a9819055507fdfd026bd2d3fa1c600c8569d94bb4eed03cfafe0c37f74f3ca61c14b05898e316123fb816123f6612899565b6128a1565b600060090160009054906101000a900473ffffffffffffffffffffffffffffffffffffffff1673ffffffffffffffffffffffffffffffffffffffff1663badf44d9836040518263ffffffff1660e01b81526004016124599190614fd7565b600060405180830381600087803b15801561247357600080fd5b505af1158015612487573d6000803e3d6000fd5b5050505050600160a98190555050565b6000806124a46000613145565b915091509091565b60006001905090565b6000806124c2600061293e565b91506124ce60006131ff565b90509091565b6124dd826111e9565b6124ee816124e9612899565b6128a1565b6124f88383612ce6565b505050565b6000801b6125128161250d612899565b6128a1565b600073ffffffffffffffffffffffffffffffffffffffff168273ffffffffffffffffffffffffffffffffffffffff161415612582576040517f08c379a00000000000000000000000000000000000000000000000000000000081526004016125799061509d565b60405180910390fd5b816000800160006101000a81548173ffffffffffffffffffffffffffffffffffffffff021916908373ffffffffffffffffffffffffffffffffffffffff1602179055505050565b600081156125e1576125da836132b8565b90506125ed565b6125ea836132f6565b90505b92915050565b60008060010160010160009054906101000a900473ffffffffffffffffffffffffffffffffffffffff1673ffffffffffffffffffffffffffffffffffffffff1663db4bd7f26040518163ffffffff1660e01b815260040160206040518083038186803b15801561266257600080fd5b505afa158015612676573d6000803e3d6000fd5b505050506040513d601f19601f8201168201806040525081019061269a91906146da565b905090565b7fb19546dff01e856fb3f010c267a7b1c60363cf8a4664e21cc89c26224620214e81565b600260a9541415612709576040517f08c379a00000000000000000000000000000000000000000000000000000000081526004016127009061523d565b60405180910390fd5b600260a9819055507fdfd026bd2d3fa1c600c8569d94bb4eed03cfafe0c37f74f3ca61c14b05898e316127438161273e612899565b6128a1565b600060090160009054906101000a900473ffffffffffffffffffffffffffffffffffffffff1673ffffffffffffffffffffffffffffffffffffffff1663e71acffe836040518263ffffffff1660e01b81526004016127a19190614fd7565b600060405180830381600087803b1580156127bb57600080fd5b505af11580156127cf573d6000803e3d6000fd5b5050505050600160a98190555050565b60007f01ffc9a7000000000000000000000000000000000000000000000000000000007bffffffffffffffffffffffffffffffffffffffffffffffffffffffff1916827bffffffffffffffffffffffffffffffffffffffffffffffffffffffff1916149050919050565b600080612855836131ff565b90506000811461287d5761287a61286b84613335565b826133e390919063ffffffff16565b90505b6128868361293e565b816128919190615389565b915050919050565b600033905090565b6128ab828261229a565b61293a576128d08173ffffffffffffffffffffffffffffffffffffffff1660146133f9565b6128de8360001c60206133f9565b6040516020016128ef929190614dda565b6040516020818303038152906040526040517f08c379a0000000000000000000000000000000000000000000000000000000008152600401612931919061501b565b60405180910390fd5b5050565b60008160010160060160009054906101000a900473ffffffffffffffffffffffffffffffffffffffff1673ffffffffffffffffffffffffffffffffffffffff166370a08231306040518263ffffffff1660e01b81526004016129a09190614e14565b60206040518083038186803b1580156129b857600080fd5b505afa1580156129cc573d6000803e3d6000fd5b505050506040513d601f19601f820116820180604052508101906129f091906146da565b9050919050565b600080823b905060008111915050919050565b6000612a1584612849565b9050600084601001541415612a8257612a4d84600f0154612a346130cc565b612a3e9190615389565b826136f390919063ffffffff16565b84600e0181905550612a7084600f015485600e01546133e390919063ffffffff16565b84600d01819055508084601001819055505b6000846010015482612a9491906157bf565b9050612ad5612ac686600f0154612aa96130cc565b612ab39190615389565b87600f01546136f390919063ffffffff16565b826133e390919063ffffffff16565b84612ae09190615389565b85600d016000828254612af39190615389565b92505081905550612b2385600f0154612b0a6130cc565b612b149190615389565b826136f390919063ffffffff16565b83612b2e9190615389565b85600e016000828254612b419190615389565b92505081905550600085600d0154131580612b615750600085600e015413155b15612bab576001600014612baa576040517f08c379a0000000000000000000000000000000000000000000000000000000008152600401612ba19061515d565b60405180910390fd5b5b612bc685600e015486600d01546136f390919063ffffffff16565b85600f01819055508185601001819055505050505050565b6000612bfe82600f015483600101600301546133e390919063ffffffff16565b9050919050565b612c0f828261229a565b612ce25760016077600084815260200190815260200160002060000160008373ffffffffffffffffffffffffffffffffffffffff1673ffffffffffffffffffffffffffffffffffffffff16815260200190815260200160002060006101000a81548160ff021916908315150217905550612c87612899565b73ffffffffffffffffffffffffffffffffffffffff168173ffffffffffffffffffffffffffffffffffffffff16837f2f8788117e7eff1d82e926ec794901d17c78024a50270940304540a733656f0d60405160405180910390a45b5050565b612cf0828261229a565b15612dc45760006077600084815260200190815260200160002060000160008373ffffffffffffffffffffffffffffffffffffffff1673ffffffffffffffffffffffffffffffffffffffff16815260200190815260200160002060006101000a81548160ff021916908315150217905550612d69612899565b73ffffffffffffffffffffffffffffffffffffffff168173ffffffffffffffffffffffffffffffffffffffff16837ff6391f5c32d9c69d2a47ea670b442974b53935d1edc7fd64eb21e047a839171b60405160405180910390a45b5050565b60008113612e0b576040517f08c379a0000000000000000000000000000000000000000000000000000000008152600401612e02906151dd565b60405180910390fd5b612e3d828460010160000160009054906101000a900473ffffffffffffffffffffffffffffffffffffffff168361371b565b505050565b60008160010160010160009054906101000a900473ffffffffffffffffffffffffffffffffffffffff1673ffffffffffffffffffffffffffffffffffffffff166398d5fdca6040518163ffffffff1660e01b815260040160206040518083038186803b158015612eb157600080fd5b505afa158015612ec5573d6000803e3d6000fd5b505050506040513d601f19601f82011682018060405250810190612ee991906145d0565b9050919050565b601260019054906101000a900460ff1680612f185750601260009054906101000a900460ff16155b612f57576040517f08c379a0000000000000000000000000000000000000000000000000000000008152600401612f4e9061513d565b60405180910390fd5b6000601260019054906101000a900460ff161590508015612fa9576001601260016101000a81548160ff0219169083151502179055506001601260006101000a81548160ff0219169083151502179055505b612fb1613879565b612fb9613957565b612fc1613a35565b8015612fe3576000601260016101000a81548160ff0219169083151502179055505b50565b601260019054906101000a900460ff168061300e5750601260009054906101000a900460ff16155b61304d576040517f08c379a00000000000000000000000000000000000000000000000000000000081526004016130449061513d565b60405180910390fd5b6000601260019054906101000a900460ff16159050801561309f576001601260016101000a81548160ff0219169083151502179055506001601260006101000a81548160ff0219169083151502179055505b6130a7613b13565b80156130c9576000601260016101000a81548160ff0219169083151502179055505b50565b6000670de0b6b3a764000060016130e3919061564e565b905090565b6130f28282612c05565b5050565b60008061310283612849565b905060008113613116576000915050613140565b61313c613121613bf9565b600a61312d919061564e565b826133e390919063ffffffff16565b9150505b919050565b60008061315183612bde565b91508260010160010160009054906101000a900473ffffffffffffffffffffffffffffffffffffffff1673ffffffffffffffffffffffffffffffffffffffff166398d5fdca6040518163ffffffff1660e01b815260040160206040518083038186803b1580156131c057600080fd5b505afa1580156131d4573d6000803e3d6000fd5b505050506040513d601f19601f820116820180604052508101906131f891906145d0565b9050915091565b60008160010160050160009054906101000a900473ffffffffffffffffffffffffffffffffffffffff1673ffffffffffffffffffffffffffffffffffffffff166370a08231306040518263ffffffff1660e01b81526004016132619190614e14565b60206040518083038186803b15801561327957600080fd5b505afa15801561328d573d6000803e3d6000fd5b505050506040513d601f19601f820116820180604052508101906132b191906146da565b9050919050565b6000806132d183600080613c149092919063ffffffff16565b90506132ee816000600101600301546133e390919063ffffffff16565b915050919050565b6000806133106000846000613c149092919063ffffffff16565b905061332d816000600101600301546133e390919063ffffffff16565b915050919050565b60008160010160020160009054906101000a900473ffffffffffffffffffffffffffffffffffffffff1673ffffffffffffffffffffffffffffffffffffffff166398d5fdca6040518163ffffffff1660e01b815260040160206040518083038186803b1580156133a457600080fd5b505afa1580156133b8573d6000803e3d6000fd5b505050506040513d601f19601f820116820180604052508101906133dc91906145d0565b9050919050565b60006133f183836012613da8565b905092915050565b60606000600283600261340c9190615765565b613416919061541d565b67ffffffffffffffff811115613455577f4e487b7100000000000000000000000000000000000000000000000000000000600052604160045260246000fd5b6040519080825280601f01601f1916602001820160405280156134875781602001600182028036833780820191505090505b5090507f3000000000000000000000000000000000000000000000000000000000000000816000815181106134e5577f4e487b7100000000000000000000000000000000000000000000000000000000600052603260045260246000fd5b60200101907effffffffffffffffffffffffffffffffffffffffffffffffffffffffffffff1916908160001a9053507f78000000000000000000000000000000000000000000000000000000000000008160018151811061356f577f4e487b7100000000000000000000000000000000000000000000000000000000600052603260045260246000fd5b60200101907effffffffffffffffffffffffffffffffffffffffffffffffffffffffffffff1916908160001a905350600060018460026135af9190615765565b6135b9919061541d565b90505b60018111156136a5577f3031323334353637383961626364656600000000000000000000000000000000600f861660108110613621577f4e487b7100000000000000000000000000000000000000000000000000000000600052603260045260246000fd5b1a60f81b82828151811061365e577f4e487b7100000000000000000000000000000000000000000000000000000000600052603260045260246000fd5b60200101907effffffffffffffffffffffffffffffffffffffffffffffffffffffffffffff1916908160001a905350600485901c94508061369e90615a88565b90506135bc565b50600084146136e9576040517f08c379a00000000000000000000000000000000000000000000000000000000081526004016136e09061503d565b60405180910390fd5b8091505092915050565b6000600182141561370657829050613715565b61371283836012613dd2565b90505b92915050565b60008114806137b4575060008373ffffffffffffffffffffffffffffffffffffffff1663dd62ed3e30856040518363ffffffff1660e01b8152600401613762929190614e2f565b60206040518083038186803b15801561377a57600080fd5b505afa15801561378e573d6000803e3d6000fd5b505050506040513d601f19601f820116820180604052508101906137b291906146da565b145b6137f3576040517f08c379a00000000000000000000000000000000000000000000000000000000081526004016137ea9061525d565b60405180910390fd5b6138748363095ea7b360e01b8484604051602401613812929190614f18565b604051602081830303815290604052907bffffffffffffffffffffffffffffffffffffffffffffffffffffffff19166020820180517bffffffffffffffffffffffffffffffffffffffffffffffffffffffff8381831617835250505050613dfc565b505050565b601260019054906101000a900460ff16806138a15750601260009054906101000a900460ff16155b6138e0576040517f08c379a00000000000000000000000000000000000000000000000000000000081526004016138d79061513d565b60405180910390fd5b6000601260019054906101000a900460ff161590508015613932576001601260016101000a81548160ff0219169083151502179055506001601260006101000a81548160ff0219169083151502179055505b8015613954576000601260016101000a81548160ff0219169083151502179055505b50565b601260019054906101000a900460ff168061397f5750601260009054906101000a900460ff16155b6139be576040517f08c379a00000000000000000000000000000000000000000000000000000000081526004016139b59061513d565b60405180910390fd5b6000601260019054906101000a900460ff161590508015613a10576001601260016101000a81548160ff0219169083151502179055506001601260006101000a81548160ff0219169083151502179055505b8015613a32576000601260016101000a81548160ff0219169083151502179055505b50565b601260019054906101000a900460ff1680613a5d5750601260009054906101000a900460ff16155b613a9c576040517f08c379a0000000000000000000000000000000000000000000000000000000008152600401613a939061513d565b60405180910390fd5b6000601260019054906101000a900460ff161590508015613aee576001601260016101000a81548160ff0219169083151502179055506001601260006101000a81548160ff0219169083151502179055505b8015613b10576000601260016101000a81548160ff0219169083151502179055505b50565b601260019054906101000a900460ff1680613b3b5750601260009054906101000a900460ff16155b613b7a576040517f08c379a0000000000000000000000000000000000000000000000000000000008152600401613b719061513d565b60405180910390fd5b6000601260019054906101000a900460ff161590508015613bcc576001601260016101000a81548160ff0219169083151502179055506001601260006101000a81548160ff0219169083151502179055505b600160a9819055508015613bf6576000601260016101000a81548160ff0219169083151502179055505b50565b6000662386f26fc100006001613c0f919061564e565b905090565b60008084600f01549050600085600e01549050600086600d015490506000876010015490506000613c4489612849565b90506000821415613c8f57613c7485613c5b6130cc565b613c659190615389565b826136f390919063ffffffff16565b9350613c8985856133e390919063ffffffff16565b92508091505b60008282613c9d91906157bf565b9050613cd6613cc787613cae6130cc565b613cb89190615389565b886136f390919063ffffffff16565b826133e390919063ffffffff16565b89613ce19190615389565b84613cec9190615389565b9350613d1386613cfa6130cc565b613d049190615389565b826136f390919063ffffffff16565b88613d1e9190615389565b85613d299190615389565b9450600084131580613d3c575060008513155b15613d86576001600014613d85576040517f08c379a0000000000000000000000000000000000000000000000000000000008152600401613d7c9061515d565b60405180910390fd5b5b613d9985856136f390919063ffffffff16565b96505050505050509392505050565b6000613db382613ec3565b8385613dbf919061564e565b613dc99190615473565b90509392505050565b600082613dde83613ec3565b85613de9919061564e565b613df39190615473565b90509392505050565b6000613e5e826040518060400160405280602081526020017f5361666545524332303a206c6f772d6c6576656c2063616c6c206661696c65648152508573ffffffffffffffffffffffffffffffffffffffff16613edc9092919063ffffffff16565b9050600081511115613ebe5780806020019051810190613e7e9190614426565b613ebd576040517f08c379a0000000000000000000000000000000000000000000000000000000008152600401613eb49061521d565b60405180910390fd5b5b505050565b60008160ff16600a613ed59190615530565b9050919050565b6060613eeb8484600085613ef4565b90509392505050565b606082471015613f39576040517f08c379a0000000000000000000000000000000000000000000000000000000008152600401613f30906150dd565b60405180910390fd5b613f42856129f7565b613f81576040517f08c379a0000000000000000000000000000000000000000000000000000000008152600401613f78906151fd565b60405180910390fd5b6000808673ffffffffffffffffffffffffffffffffffffffff168587604051613faa9190614dc3565b60006040518083038185875af1925050503d8060008114613fe7576040519150601f19603f3d011682016040523d82523d6000602084013e613fec565b606091505b5091509150613ffc828286614008565b92505050949350505050565b6060831561401857829050614068565b60008351111561402b5782518084602001fd5b816040517f08c379a000000000000000000000000000000000000000000000000000000000815260040161405f919061501b565b60405180910390fd5b9392505050565b60008135905061407e81615ffb565b92915050565b60008135905061409381616012565b92915050565b6000815190506140a881616012565b92915050565b6000813590506140bd81616029565b92915050565b6000813590506140d281616040565b92915050565b6000813590506140e781616057565b92915050565b6000813590506140fc8161606e565b92915050565b60008151905061411181616085565b92915050565b6000815190506141268161609c565b92915050565b60008135905061413b816160b3565b92915050565b600081359050614150816160ca565b92915050565b600081359050614165816160e1565b92915050565b60008135905061417a816160f8565b92915050565b60008151905061418f816160f8565b92915050565b600061012082840312156141a857600080fd5b6141b3610120615316565b905060006141c3848285016143d3565b60008301525060206141d7848285016143d3565b60208301525060406141eb848285016140ed565b60408301525060606141ff848285016140ed565b60608301525060806142138482850161406f565b60808301525060a06142278482850161406f565b60a08301525060c061423b8482850161406f565b60c08301525060e061424f8482850161416b565b60e0830152506101006142648482850161416b565b6101008301525092915050565b6000610100828403121561428457600080fd5b61428f610100615316565b9050600061429f8482850161412c565b60008301525060206142b3848285016140d8565b60208301525060406142c784828501614141565b60408301525060606142db8482850161416b565b60608301525060806142ef8482850161416b565b60808301525060a061430384828501614156565b60a08301525060c0614317848285016140ed565b60c08301525060e061432b848285016140ed565b60e08301525092915050565b600060c0828403121561434957600080fd5b61435360c0615316565b905060006143638482850161406f565b60008301525060206143778482850161406f565b602083015250604061438b8482850161406f565b604083015250606061439f8482850161406f565b60608301525060806143b38482850161416b565b60808301525060a06143c78482850161416b565b60a08301525092915050565b6000813590506143e28161610f565b92915050565b6000815190506143f78161610f565b92915050565b60006020828403121561440f57600080fd5b600061441d8482850161406f565b91505092915050565b60006020828403121561443857600080fd5b600061444684828501614099565b91505092915050565b6000806040838503121561446257600080fd5b600061447085828601614084565b92505060206144818582860161416b565b9150509250929050565b60006020828403121561449d57600080fd5b60006144ab848285016140ae565b91505092915050565b600080604083850312156144c757600080fd5b60006144d5858286016140ae565b92505060206144e68582860161406f565b9150509250929050565b60006020828403121561450257600080fd5b6000614510848285016140c3565b91505092915050565b6000806040838503121561452c57600080fd5b600061453a858286016140ed565b925050602061454b8582860161416b565b9150509250929050565b60006020828403121561456757600080fd5b600061457584828501614102565b91505092915050565b60006020828403121561459057600080fd5b600061459e84828501614117565b91505092915050565b6000602082840312156145b957600080fd5b60006145c78482850161416b565b91505092915050565b6000602082840312156145e257600080fd5b60006145f084828501614180565b91505092915050565b6000806040838503121561460c57600080fd5b600061461a8582860161416b565b925050602061462b85828601614084565b9150509250929050565b6000610120828403121561464857600080fd5b600061465684828501614195565b91505092915050565b6000806000610140848603121561467557600080fd5b600061468386828701614271565b9350506101006146958682870161406f565b9250506101206146a78682870161406f565b9150509250925092565b600060c082840312156146c357600080fd5b60006146d184828501614337565b91505092915050565b6000602082840312156146ec57600080fd5b60006146fa848285016143e8565b91505092915050565b61470c81615853565b82525050565b61471b81615853565b82525050565b61472a81615853565b82525050565b61473981615865565b82525050565b61474881615871565b82525050565b60006147598261533b565b6147638185615351565b9350614773818560208601615a55565b80840191505092915050565b61478881615959565b82525050565b6147978161597d565b82525050565b6147a68161597d565b82525050565b6147b5816159a1565b82525050565b6147c4816159c5565b82525050565b6147d3816159c5565b82525050565b6147e2816159e9565b82525050565b6147f181615a0d565b82525050565b61480081615a31565b82525050565b61480f81615925565b82525050565b61481e81615925565b82525050565b61482d81615925565b82525050565b61483c81615925565b82525050565b600061484d82615346565b614857818561535c565b9350614867818560208601615a55565b61487081615b70565b840191505092915050565b600061488682615346565b614890818561537e565b93506148a0818560208601615a55565b80840191505092915050565b60006148b960208361535c565b91506148c482615b8e565b602082019050919050565b60006148dc600f8361535c565b91506148e782615bb7565b602082019050919050565b60006148ff600f8361535c565b915061490a82615be0565b602082019050919050565b600061492260088361535c565b915061492d82615c09565b602082019050919050565b6000614945601b8361535c565b915061495082615c32565b602082019050919050565b600061496860268361535c565b915061497382615c5b565b604082019050919050565b600061498b60108361535c565b915061499682615caa565b602082019050919050565b60006149ae600e8361535c565b91506149b982615cd3565b602082019050919050565b60006149d1602e8361535c565b91506149dc82615cfc565b604082019050919050565b60006149f460098361536d565b91506149ff82615d4b565b602082019050919050565b6000614a1760098361535c565b9150614a2282615d74565b602082019050919050565b6000614a3a600f8361535c565b9150614a4582615d9d565b602082019050919050565b6000614a5d600e8361535c565b9150614a6882615dc6565b602082019050919050565b6000614a80600d8361535c565b9150614a8b82615def565b602082019050919050565b6000614aa3600a8361535c565b9150614aae82615e18565b602082019050919050565b6000614ac6601d8361535c565b9150614ad182615e41565b602082019050919050565b6000614ae960178361537e565b9150614af482615e6a565b601782019050919050565b6000614b0c60038361536d565b9150614b1782615e93565b602082019050919050565b6000614b2f602a8361535c565b9150614b3a82615ebc565b604082019050919050565b6000614b52601f8361535c565b9150614b5d82615f0b565b602082019050919050565b6000614b7560368361535c565b9150614b8082615f34565b604082019050919050565b6000614b9860118361537e565b9150614ba382615f83565b601182019050919050565b6000614bbb602f8361535c565b9150614bc682615fac565b604082019050919050565b61012082016000820151614be86000850182614db4565b506020820151614bfb6020850182614db4565b506040820151614c0e604085018261479d565b506060820151614c21606085018261479d565b506080820151614c346080850182614721565b5060a0820151614c4760a0850182614721565b5060c0820151614c5a60c0850182614721565b5060e0820151614c6d60e0850182614833565b50610100820151614c82610100850182614833565b50505050565b61010082016000820151614c9f60008501826147d9565b506020820151614cb2602085018261477f565b506040820151614cc560408501826147e8565b506060820151614cd86060850182614806565b506080820151614ceb6080850182614806565b5060a0820151614cfe60a08501826147f7565b5060c0820151614d1160c085018261478e565b5060e0820151614d2460e085018261478e565b50505050565b60c082016000820151614d406000850182614721565b506020820151614d536020850182614721565b506040820151614d666040850182614721565b506060820151614d796060850182614721565b506080820151614d8c6080850182614833565b5060a0820151614d9f60a0850182614833565b50505050565b614dae8161594f565b82525050565b614dbd8161594f565b82525050565b6000614dcf828461474e565b915081905092915050565b6000614de582614adc565b9150614df1828561487b565b9150614dfc82614b8b565b9150614e08828461487b565b91508190509392505050565b6000602082019050614e296000830184614703565b92915050565b6000604082019050614e446000830185614703565b614e516020830184614703565b9392505050565b600061026082019050614e6e600083018f614703565b614e7b602083018e614c88565b614e8961012083018d6147bb565b614e9761014083018c6147ac565b614ea561016083018b614815565b614eb361018083018a614815565b614ec16101a0830189614815565b614ecf6101c0830188614815565b614edd6101e0830187614815565b614eeb610200830186614815565b614ef9610220830185614730565b614f07610240830184614703565b9d9c50505050505050505050505050565b6000604082019050614f2d6000830185614703565b614f3a6020830184614da5565b9392505050565b6000602082019050614f566000830184614730565b92915050565b6000602082019050614f71600083018461473f565b92915050565b6000606082019050614f8c60008301866147ca565b614f996020830185614712565b614fa66040830184614824565b949350505050565b6000604082019050614fc360008301856147ca565b614fd06020830184614824565b9392505050565b6000602082019050614fec6000830184614815565b92915050565b60006040820190506150076000830185614815565b6150146020830184614815565b9392505050565b600060208201905081810360008301526150358184614842565b905092915050565b60006020820190508181036000830152615056816148ac565b9050919050565b60006020820190508181036000830152615076816148cf565b9050919050565b60006020820190508181036000830152615096816148f2565b9050919050565b600060208201905081810360008301526150b681614915565b9050919050565b600060208201905081810360008301526150d681614938565b9050919050565b600060208201905081810360008301526150f68161495b565b9050919050565b600060208201905081810360008301526151168161497e565b9050919050565b60006020820190508181036000830152615136816149a1565b9050919050565b60006020820190508181036000830152615156816149c4565b9050919050565b6000602082019050818103600083015261517681614a0a565b9050919050565b6000602082019050818103600083015261519681614a2d565b9050919050565b600060208201905081810360008301526151b681614a50565b9050919050565b600060208201905081810360008301526151d681614a73565b9050919050565b600060208201905081810360008301526151f681614a96565b9050919050565b6000602082019050818103600083015261521681614ab9565b9050919050565b6000602082019050818103600083015261523681614b22565b9050919050565b6000602082019050818103600083015261525681614b45565b9050919050565b6000602082019050818103600083015261527681614b68565b9050919050565b6000602082019050818103600083015261529681614bae565b9050919050565b6000610120820190506152b36000830184614bd1565b92915050565b6000610100820190506152cf6000830184614d2a565b81810360c08301526152e0816149e7565b905081810360e08301526152f381614aff565b905092915050565b60006020820190506153106000830184614da5565b92915050565b6000615320615331565b905061532c8282615ab2565b919050565b6000604051905090565b600081519050919050565b600081519050919050565b600081905092915050565b600082825260208201905092915050565b600082825260208201905092915050565b600081905092915050565b600061539482615925565b915061539f83615925565b9250817f7fffffffffffffffffffffffffffffffffffffffffffffffffffffffffffffff038313600083121516156153da576153d9615ae3565b5b817f800000000000000000000000000000000000000000000000000000000000000003831260008312161561541257615411615ae3565b5b828201905092915050565b60006154288261594f565b91506154338361594f565b9250827fffffffffffffffffffffffffffffffffffffffffffffffffffffffffffffffff0382111561546857615467615ae3565b5b828201905092915050565b600061547e82615925565b915061548983615925565b92508261549957615498615b12565b5b600160000383147f8000000000000000000000000000000000000000000000000000000000000000831416156154d2576154d1615ae3565b5b828205905092915050565b6000808291508390505b60018511156155275780860481111561550357615502615ae3565b5b60018516156155125780820291505b808102905061552085615b81565b94506154e7565b94509492505050565b600061553b8261594f565b91506155468361594f565b92506155737fffffffffffffffffffffffffffffffffffffffffffffffffffffffffffffffff848461557b565b905092915050565b60008261558b5760019050615647565b816155995760009050615647565b81600181146155af57600281146155b9576155e8565b6001915050615647565b60ff8411156155cb576155ca615ae3565b5b8360020a9150848211156155e2576155e1615ae3565b5b50615647565b5060208310610133831016604e8410600b841016171561561d5782820a90508381111561561857615617615ae3565b5b615647565b61562a84848460016154dd565b9250905081840481111561564157615640615ae3565b5b81810290505b9392505050565b600061565982615925565b915061566483615925565b9250827f7fffffffffffffffffffffffffffffffffffffffffffffffffffffffffffffff04821160008413600084131616156156a3576156a2615ae3565b5b817f800000000000000000000000000000000000000000000000000000000000000005831260008412600084131616156156e0576156df615ae3565b5b827f8000000000000000000000000000000000000000000000000000000000000000058212600084136000841216161561571d5761571c615ae3565b5b827f7fffffffffffffffffffffffffffffffffffffffffffffffffffffffffffffff058212600084126000841216161561575a57615759615ae3565b5b828202905092915050565b60006157708261594f565b915061577b8361594f565b9250817fffffffffffffffffffffffffffffffffffffffffffffffffffffffffffffffff04831182151516156157b4576157b3615ae3565b5b828202905092915050565b60006157ca82615925565b91506157d583615925565b9250827f8000000000000000000000000000000000000000000000000000000000000000018212600084121516156158105761580f615ae3565b5b827f7fffffffffffffffffffffffffffffffffffffffffffffffffffffffffffffff01821360008412161561584857615847615ae3565b5b828203905092915050565b600061585e8261592f565b9050919050565b60008115159050919050565b6000819050919050565b60007fffffffff0000000000000000000000000000000000000000000000000000000082169050919050565b60006158b282615853565b9050919050565b60006158c482615853565b9050919050565b60006158d682615853565b9050919050565b60006158e882615853565b9050919050565b60006158fa82615853565b9050919050565b600061590c82615853565b9050919050565b600061591e82615853565b9050919050565b6000819050919050565b600073ffffffffffffffffffffffffffffffffffffffff82169050919050565b6000819050919050565b60006159648261596b565b9050919050565b60006159768261592f565b9050919050565b60006159888261598f565b9050919050565b600061599a8261592f565b9050919050565b60006159ac826159b3565b9050919050565b60006159be8261592f565b9050919050565b60006159d0826159d7565b9050919050565b60006159e28261592f565b9050919050565b60006159f4826159fb565b9050919050565b6000615a068261592f565b9050919050565b6000615a1882615a1f565b9050919050565b6000615a2a8261592f565b9050919050565b6000615a3c82615a43565b9050919050565b6000615a4e8261592f565b9050919050565b60005b83811015615a73578082015181840152602081019050615a58565b83811115615a82576000848401525b50505050565b6000615a938261594f565b91506000821415615aa757615aa6615ae3565b5b600182039050919050565b615abb82615b70565b810181811067ffffffffffffffff82111715615ada57615ad9615b41565b5b80604052505050565b7f4e487b7100000000000000000000000000000000000000000000000000000000600052601160045260246000fd5b7f4e487b7100000000000000000000000000000000000000000000000000000000600052601260045260246000fd5b7f4e487b7100000000000000000000000000000000000000000000000000000000600052604160045260246000fd5b6000601f19601f8301169050919050565b60008160011c9050919050565b7f537472696e67733a20686578206c656e67746820696e73756666696369656e74600082015250565b7f544f54414c4c4f4e47535f4c545f300000000000000000000000000000000000600082015250565b7f534c505f4e4f545f435245415445440000000000000000000000000000000000600082015250565b7f5a45524f5f44414f000000000000000000000000000000000000000000000000600082015250565b7f53555348495f524f555445525f4e4f545f415f434f4e54524143540000000000600082015250565b7f416464726573733a20696e73756666696369656e742062616c616e636520666f60008201527f722063616c6c0000000000000000000000000000000000000000000000000000602082015250565b7f544f54414c53484f5254535f4c545f3000000000000000000000000000000000600082015250565b7f52455741524445525f4558495354000000000000000000000000000000000000600082015250565b7f496e697469616c697a61626c653a20636f6e747261637420697320616c72656160008201527f647920696e697469616c697a6564000000000000000000000000000000000000602082015250565b7f534c5020546f6b656e0000000000000000000000000000000000000000000000600082015250565b7f53555350454e4445440000000000000000000000000000000000000000000000600082015250565b7f4e4f5f5354524950535f4552524f520000000000000000000000000000000000600082015250565b7f4c505f544f4b454e5f4558495354000000000000000000000000000000000000600082015250565b7f4e4f54494f4e414c5f4c545f3000000000000000000000000000000000000000600082015250565b7f4241445f414d4f554e5400000000000000000000000000000000000000000000600082015250565b7f416464726573733a2063616c6c20746f206e6f6e2d636f6e7472616374000000600082015250565b7f416363657373436f6e74726f6c3a206163636f756e7420000000000000000000600082015250565b7f534c500000000000000000000000000000000000000000000000000000000000600082015250565b7f5361666545524332303a204552433230206f7065726174696f6e20646964206e60008201527f6f74207375636365656400000000000000000000000000000000000000000000602082015250565b7f5265656e7472616e637947756172643a207265656e7472616e742063616c6c00600082015250565b7f5361666545524332303a20617070726f76652066726f6d206e6f6e2d7a65726f60008201527f20746f206e6f6e2d7a65726f20616c6c6f77616e636500000000000000000000602082015250565b7f206973206d697373696e6720726f6c6520000000000000000000000000000000600082015250565b7f416363657373436f6e74726f6c3a2063616e206f6e6c792072656e6f756e636560008201527f20726f6c657320666f722073656c660000000000000000000000000000000000602082015250565b61600481615853565b811461600f57600080fd5b50565b61601b81615865565b811461602657600080fd5b50565b61603281615871565b811461603d57600080fd5b50565b6160498161587b565b811461605457600080fd5b50565b616060816158a7565b811461606b57600080fd5b50565b616077816158b9565b811461608257600080fd5b50565b61608e816158cb565b811461609957600080fd5b50565b6160a5816158dd565b81146160b057600080fd5b50565b6160bc816158ef565b81146160c757600080fd5b50565b6160d381615901565b81146160de57600080fd5b50565b6160ea81615913565b81146160f557600080fd5b50565b61610181615925565b811461610c57600080fd5b50565b6161188161594f565b811461612357600080fd5b5056fea264697066735822122025c19b22e22553d904fa568aa1dd60eaffdb4bbef78a4eb352d9c4453b6b927464736f6c63430008040033",
  "linkReferences": {
    "contracts/impl/SlpFactoryImpl.sol": {
      "SlpFactoryImpl": [
        {
          "length": 20,
          "start": 2916
        },
        {
          "length": 20,
          "start": 5710
        }
      ]
    },
    "contracts/impl/StakingImpl.sol": {
      "StakingImpl": [
        {
          "length": 20,
          "start": 2516
        },
        {
          "length": 20,
          "start": 3527
        },
        {
          "length": 20,
          "start": 7172
        }
      ]
    }
  },
  "deployedLinkReferences": {
    "contracts/impl/SlpFactoryImpl.sol": {
      "SlpFactoryImpl": [
        {
          "length": 20,
          "start": 2883
        },
        {
          "length": 20,
          "start": 5677
        }
      ]
    },
    "contracts/impl/StakingImpl.sol": {
      "StakingImpl": [
        {
          "length": 20,
          "start": 2483
        },
        {
          "length": 20,
          "start": 3494
        },
        {
          "length": 20,
          "start": 7139
        }
      ]
    }
  }
}