{
  "_format": "hh-sol-artifact-1",
  "contractName": "IrsMarket",
  "sourceName": "contracts/markets/IrsMarket.sol",
  "abi": [
    {
      "anonymous": false,
      "inputs": [
        {
          "indexed": true,
          "internalType": "address",
          "name": "asset",
          "type": "address"
        },
        {
          "indexed": true,
          "internalType": "address",
          "name": "changer",
          "type": "address"
        },
        {
          "indexed": true,
          "internalType": "string",
          "name": "action",
          "type": "string"
        },
        {
          "indexed": false,
          "internalType": "int256",
          "name": "totalLiquidity",
          "type": "int256"
        },
        {
          "indexed": false,
          "internalType": "int256",
          "name": "currentStakedPnl",
          "type": "int256"
        },
        {
          "indexed": false,
          "internalType": "int256",
          "name": "stakerInitialStakedPnl",
          "type": "int256"
        },
        {
          "indexed": false,
          "internalType": "int256",
          "name": "stakerTotalCollateral",
          "type": "int256"
        }
      ],
      "name": "LiquidityChanged",
      "type": "event"
    },
    {
      "anonymous": false,
      "inputs": [
        {
          "indexed": true,
          "internalType": "address",
          "name": "asset",
          "type": "address"
        },
        {
          "indexed": true,
          "internalType": "address",
          "name": "changer",
          "type": "address"
        },
        {
          "indexed": false,
          "internalType": "bool",
          "name": "isStake",
          "type": "bool"
        },
        {
          "indexed": false,
          "internalType": "int256",
          "name": "burnedSlp",
          "type": "int256"
        },
        {
          "indexed": false,
          "internalType": "int256",
          "name": "unstakeLp",
          "type": "int256"
        },
        {
          "indexed": false,
          "internalType": "int256",
          "name": "unstakeUsdc",
          "type": "int256"
        },
        {
          "indexed": false,
          "internalType": "int256",
          "name": "lp_fee",
          "type": "int256"
        },
        {
          "indexed": false,
          "internalType": "int256",
          "name": "usdc_fee",
          "type": "int256"
        }
      ],
      "name": "LogStakeChanged",
      "type": "event"
    },
    {
      "anonymous": false,
      "inputs": [
        {
          "indexed": true,
          "internalType": "address",
          "name": "asset",
          "type": "address"
        },
        {
          "indexed": true,
          "internalType": "address",
          "name": "staker",
          "type": "address"
        },
        {
          "indexed": false,
          "internalType": "int256",
          "name": "slpAmount",
          "type": "int256"
        },
        {
          "indexed": false,
          "internalType": "int256",
          "name": "stakingProfit",
          "type": "int256"
        },
        {
          "indexed": false,
          "internalType": "int256",
          "name": "tradingProfit",
          "type": "int256"
        }
      ],
      "name": "LogUnstake",
      "type": "event"
    },
    {
      "anonymous": false,
      "inputs": [
        {
          "indexed": true,
          "internalType": "bytes32",
          "name": "role",
          "type": "bytes32"
        },
        {
          "indexed": true,
          "internalType": "bytes32",
          "name": "previousAdminRole",
          "type": "bytes32"
        },
        {
          "indexed": true,
          "internalType": "bytes32",
          "name": "newAdminRole",
          "type": "bytes32"
        }
      ],
      "name": "RoleAdminChanged",
      "type": "event"
    },
    {
      "anonymous": false,
      "inputs": [
        {
          "indexed": true,
          "internalType": "bytes32",
          "name": "role",
          "type": "bytes32"
        },
        {
          "indexed": true,
          "internalType": "address",
          "name": "account",
          "type": "address"
        },
        {
          "indexed": true,
          "internalType": "address",
          "name": "sender",
          "type": "address"
        }
      ],
      "name": "RoleGranted",
      "type": "event"
    },
    {
      "anonymous": false,
      "inputs": [
        {
          "indexed": true,
          "internalType": "bytes32",
          "name": "role",
          "type": "bytes32"
        },
        {
          "indexed": true,
          "internalType": "address",
          "name": "account",
          "type": "address"
        },
        {
          "indexed": true,
          "internalType": "address",
          "name": "sender",
          "type": "address"
        }
      ],
      "name": "RoleRevoked",
      "type": "event"
    },
    {
      "anonymous": false,
      "inputs": [
        {
          "indexed": true,
          "internalType": "address",
          "name": "asset",
          "type": "address"
        },
        {
          "indexed": true,
          "internalType": "address",
          "name": "token",
          "type": "address"
        }
      ],
      "name": "TokenAdded",
      "type": "event"
    },
    {
      "inputs": [],
      "name": "DEFAULT_ADMIN_ROLE",
      "outputs": [
        {
          "internalType": "bytes32",
          "name": "",
          "type": "bytes32"
        }
      ],
      "stateMutability": "view",
      "type": "function"
    },
    {
      "inputs": [],
      "name": "OWNER_ROLE",
      "outputs": [
        {
          "internalType": "bytes32",
          "name": "",
          "type": "bytes32"
        }
      ],
      "stateMutability": "view",
      "type": "function"
    },
    {
      "inputs": [],
      "name": "STRIPS_ROLE",
      "outputs": [
        {
          "internalType": "bytes32",
          "name": "",
          "type": "bytes32"
        }
      ],
      "stateMutability": "view",
      "type": "function"
    },
    {
      "inputs": [
        {
          "internalType": "contract IERC20",
          "name": "_token",
          "type": "address"
        },
        {
          "internalType": "int256",
          "name": "_amount",
          "type": "int256"
        }
      ],
      "name": "approveStrips",
      "outputs": [],
      "stateMutability": "nonpayable",
      "type": "function"
    },
    {
      "inputs": [
        {
          "internalType": "address",
          "name": "_newDao",
          "type": "address"
        }
      ],
      "name": "changeDao",
      "outputs": [],
      "stateMutability": "nonpayable",
      "type": "function"
    },
    {
      "inputs": [
        {
          "internalType": "int256",
          "name": "amount",
          "type": "int256"
        }
      ],
      "name": "changeStakingPnl",
      "outputs": [],
      "stateMutability": "nonpayable",
      "type": "function"
    },
    {
      "inputs": [
        {
          "internalType": "address",
          "name": "_router",
          "type": "address"
        }
      ],
      "name": "changeSushiRouter",
      "outputs": [],
      "stateMutability": "nonpayable",
      "type": "function"
    },
    {
      "inputs": [
        {
          "internalType": "int256",
          "name": "amount",
          "type": "int256"
        }
      ],
      "name": "changeTradingPnl",
      "outputs": [],
      "stateMutability": "nonpayable",
      "type": "function"
    },
    {
      "inputs": [
        {
          "internalType": "bool",
          "name": "isLong",
          "type": "bool"
        },
        {
          "internalType": "int256",
          "name": "notional",
          "type": "int256"
        }
      ],
      "name": "closePosition",
      "outputs": [
        {
          "internalType": "int256",
          "name": "",
          "type": "int256"
        }
      ],
      "stateMutability": "nonpayable",
      "type": "function"
    },
    {
      "inputs": [
        {
          "components": [
            {
              "internalType": "uint256",
              "name": "periodLength",
              "type": "uint256"
            },
            {
              "internalType": "uint256",
              "name": "washTime",
              "type": "uint256"
            },
            {
              "internalType": "contract IERC20",
              "name": "slpToken",
              "type": "address"
            },
            {
              "internalType": "contract IERC20",
              "name": "strpToken",
              "type": "address"
            },
            {
              "internalType": "address",
              "name": "stripsProxy",
              "type": "address"
            },
            {
              "internalType": "address",
              "name": "dao",
              "type": "address"
            },
            {
              "internalType": "address",
              "name": "admin",
              "type": "address"
            },
            {
              "internalType": "int256",
              "name": "rewardTotalPerSecTrader",
              "type": "int256"
            },
            {
              "internalType": "int256",
              "name": "rewardTotalPerSecStaker",
              "type": "int256"
            }
          ],
          "internalType": "struct IRewarder.InitParams",
          "name": "_params",
          "type": "tuple"
        }
      ],
      "name": "createRewarder",
      "outputs": [],
      "stateMutability": "nonpayable",
      "type": "function"
    },
    {
      "inputs": [
        {
          "components": [
            {
              "internalType": "address",
              "name": "stripsProxy",
              "type": "address"
            },
            {
              "internalType": "address",
              "name": "pairOracle",
              "type": "address"
            },
            {
              "internalType": "address",
              "name": "tradingToken",
              "type": "address"
            },
            {
              "internalType": "address",
              "name": "stakingToken",
              "type": "address"
            },
            {
              "internalType": "int256",
              "name": "penaltyPeriod",
              "type": "int256"
            },
            {
              "internalType": "int256",
              "name": "penaltyFee",
              "type": "int256"
            }
          ],
          "internalType": "struct IStripsLpToken.TokenParams",
          "name": "_params",
          "type": "tuple"
        }
      ],
      "name": "createSLP",
      "outputs": [],
      "stateMutability": "nonpayable",
      "type": "function"
    },
    {
      "inputs": [],
      "name": "currentOracleIndex",
      "outputs": [
        {
          "internalType": "uint256",
          "name": "",
          "type": "uint256"
        }
      ],
      "stateMutability": "view",
      "type": "function"
    },
    {
      "inputs": [],
      "name": "currentPrice",
      "outputs": [
        {
          "internalType": "int256",
          "name": "",
          "type": "int256"
        }
      ],
      "stateMutability": "view",
      "type": "function"
    },
    {
      "inputs": [
        {
          "internalType": "int256",
          "name": "amount",
          "type": "int256"
        }
      ],
      "name": "ensureFunds",
      "outputs": [],
      "stateMutability": "nonpayable",
      "type": "function"
    },
    {
      "inputs": [],
      "name": "externalLiquidityChanged",
      "outputs": [],
      "stateMutability": "nonpayable",
      "type": "function"
    },
    {
      "inputs": [],
      "name": "getAssetOracle",
      "outputs": [
        {
          "internalType": "address",
          "name": "",
          "type": "address"
        }
      ],
      "stateMutability": "view",
      "type": "function"
    },
    {
      "inputs": [],
      "name": "getLiquidity",
      "outputs": [
        {
          "internalType": "int256",
          "name": "",
          "type": "int256"
        }
      ],
      "stateMutability": "view",
      "type": "function"
    },
    {
      "inputs": [],
      "name": "getLongs",
      "outputs": [
        {
          "internalType": "int256",
          "name": "",
          "type": "int256"
        }
      ],
      "stateMutability": "view",
      "type": "function"
    },
    {
      "inputs": [],
      "name": "getPairOracle",
      "outputs": [
        {
          "internalType": "address",
          "name": "",
          "type": "address"
        }
      ],
      "stateMutability": "view",
      "type": "function"
    },
    {
      "inputs": [],
      "name": "getPartedLiquidity",
      "outputs": [
        {
          "internalType": "int256",
          "name": "tradingLiquidity",
          "type": "int256"
        },
        {
          "internalType": "int256",
          "name": "stakingLiquidity",
          "type": "int256"
        }
      ],
      "stateMutability": "view",
      "type": "function"
    },
    {
      "inputs": [],
      "name": "getPrices",
      "outputs": [
        {
          "internalType": "int256",
          "name": "",
          "type": "int256"
        },
        {
          "internalType": "int256",
          "name": "",
          "type": "int256"
        }
      ],
      "stateMutability": "view",
      "type": "function"
    },
    {
      "inputs": [],
      "name": "getRewarder",
      "outputs": [
        {
          "internalType": "address",
          "name": "",
          "type": "address"
        }
      ],
      "stateMutability": "view",
      "type": "function"
    },
    {
      "inputs": [
        {
          "internalType": "bytes32",
          "name": "role",
          "type": "bytes32"
        }
      ],
      "name": "getRoleAdmin",
      "outputs": [
        {
          "internalType": "bytes32",
          "name": "",
          "type": "bytes32"
        }
      ],
      "stateMutability": "view",
      "type": "function"
    },
    {
      "inputs": [],
      "name": "getShorts",
      "outputs": [
        {
          "internalType": "int256",
          "name": "",
          "type": "int256"
        }
      ],
      "stateMutability": "view",
      "type": "function"
    },
    {
      "inputs": [],
      "name": "getSlpToken",
      "outputs": [
        {
          "internalType": "address",
          "name": "",
          "type": "address"
        }
      ],
      "stateMutability": "view",
      "type": "function"
    },
    {
      "inputs": [],
      "name": "getStakingToken",
      "outputs": [
        {
          "internalType": "address",
          "name": "",
          "type": "address"
        }
      ],
      "stateMutability": "view",
      "type": "function"
    },
    {
      "inputs": [],
      "name": "getStrips",
      "outputs": [
        {
          "internalType": "address",
          "name": "",
          "type": "address"
        }
      ],
      "stateMutability": "view",
      "type": "function"
    },
    {
      "inputs": [],
      "name": "getStrp",
      "outputs": [
        {
          "internalType": "address",
          "name": "",
          "type": "address"
        }
      ],
      "stateMutability": "view",
      "type": "function"
    },
    {
      "inputs": [],
      "name": "getSushiRouter",
      "outputs": [
        {
          "internalType": "address",
          "name": "",
          "type": "address"
        }
      ],
      "stateMutability": "view",
      "type": "function"
    },
    {
      "inputs": [],
      "name": "getTradingToken",
      "outputs": [
        {
          "internalType": "address",
          "name": "",
          "type": "address"
        }
      ],
      "stateMutability": "view",
      "type": "function"
    },
    {
      "inputs": [
        {
          "internalType": "bytes32",
          "name": "role",
          "type": "bytes32"
        },
        {
          "internalType": "address",
          "name": "account",
          "type": "address"
        }
      ],
      "name": "grantRole",
      "outputs": [],
      "stateMutability": "nonpayable",
      "type": "function"
    },
    {
      "inputs": [
        {
          "internalType": "bytes32",
          "name": "role",
          "type": "bytes32"
        },
        {
          "internalType": "address",
          "name": "account",
          "type": "address"
        }
      ],
      "name": "hasRole",
      "outputs": [
        {
          "internalType": "bool",
          "name": "",
          "type": "bool"
        }
      ],
      "stateMutability": "view",
      "type": "function"
    },
    {
      "inputs": [
        {
          "components": [
            {
              "internalType": "contract IStrips",
              "name": "stripsProxy",
              "type": "address"
            },
            {
              "internalType": "contract IAssetOracle",
              "name": "assetOracle",
              "type": "address"
            },
            {
              "internalType": "contract IUniswapLpOracle",
              "name": "pairOracle",
              "type": "address"
            },
            {
              "internalType": "int256",
              "name": "initialPrice",
              "type": "int256"
            },
            {
              "internalType": "int256",
              "name": "burningCoef",
              "type": "int256"
            },
            {
              "internalType": "contract IUniswapV2Pair",
              "name": "stakingToken",
              "type": "address"
            },
            {
              "internalType": "contract IERC20",
              "name": "tradingToken",
              "type": "address"
            },
            {
              "internalType": "contract IERC20",
              "name": "strpToken",
              "type": "address"
            }
          ],
          "internalType": "struct StorageMarketLib.InitParams",
          "name": "_params",
          "type": "tuple"
        },
        {
          "internalType": "address",
          "name": "_sushiRouter",
          "type": "address"
        },
        {
          "internalType": "address",
          "name": "_dao",
          "type": "address"
        }
      ],
      "name": "initialize",
      "outputs": [],
      "stateMutability": "nonpayable",
      "type": "function"
    },
    {
      "inputs": [],
      "name": "isInsurance",
      "outputs": [
        {
          "internalType": "bool",
          "name": "",
          "type": "bool"
        }
      ],
      "stateMutability": "view",
      "type": "function"
    },
    {
      "inputs": [],
      "name": "isRewardable",
      "outputs": [
        {
          "internalType": "bool",
          "name": "",
          "type": "bool"
        }
      ],
      "stateMutability": "view",
      "type": "function"
    },
    {
      "inputs": [],
      "name": "liveTime",
      "outputs": [
        {
          "internalType": "uint256",
          "name": "",
          "type": "uint256"
        }
      ],
      "stateMutability": "view",
      "type": "function"
    },
    {
      "inputs": [],
      "name": "m_state",
      "outputs": [
        {
          "internalType": "address",
          "name": "dao",
          "type": "address"
        },
        {
          "components": [
            {
              "internalType": "contract IStrips",
              "name": "stripsProxy",
              "type": "address"
            },
            {
              "internalType": "contract IAssetOracle",
              "name": "assetOracle",
              "type": "address"
            },
            {
              "internalType": "contract IUniswapLpOracle",
              "name": "pairOracle",
              "type": "address"
            },
            {
              "internalType": "int256",
              "name": "initialPrice",
              "type": "int256"
            },
            {
              "internalType": "int256",
              "name": "burningCoef",
              "type": "int256"
            },
            {
              "internalType": "contract IUniswapV2Pair",
              "name": "stakingToken",
              "type": "address"
            },
            {
              "internalType": "contract IERC20",
              "name": "tradingToken",
              "type": "address"
            },
            {
              "internalType": "contract IERC20",
              "name": "strpToken",
              "type": "address"
            }
          ],
          "internalType": "struct StorageMarketLib.InitParams",
          "name": "params",
          "type": "tuple"
        },
        {
          "internalType": "contract IStripsLpToken",
          "name": "slpToken",
          "type": "address"
        },
        {
          "internalType": "contract IRewarder",
          "name": "rewarder",
          "type": "address"
        },
        {
          "internalType": "int256",
          "name": "totalLongs",
          "type": "int256"
        },
        {
          "internalType": "int256",
          "name": "totalShorts",
          "type": "int256"
        },
        {
          "internalType": "int256",
          "name": "demand",
          "type": "int256"
        },
        {
          "internalType": "int256",
          "name": "supply",
          "type": "int256"
        },
        {
          "internalType": "int256",
          "name": "ratio",
          "type": "int256"
        },
        {
          "internalType": "int256",
          "name": "_prevLiquidity",
          "type": "int256"
        },
        {
          "internalType": "bool",
          "name": "isSuspended",
          "type": "bool"
        },
        {
          "internalType": "address",
          "name": "sushiRouter",
          "type": "address"
        },
        {
          "internalType": "uint256",
          "name": "createdAt",
          "type": "uint256"
        }
      ],
      "stateMutability": "view",
      "type": "function"
    },
    {
      "inputs": [],
      "name": "maxNotional",
      "outputs": [
        {
          "internalType": "int256",
          "name": "",
          "type": "int256"
        }
      ],
      "stateMutability": "view",
      "type": "function"
    },
    {
      "inputs": [
        {
          "internalType": "bool",
          "name": "isLong",
          "type": "bool"
        },
        {
          "internalType": "int256",
          "name": "notional",
          "type": "int256"
        }
      ],
      "name": "openPosition",
      "outputs": [
        {
          "internalType": "int256",
          "name": "",
          "type": "int256"
        }
      ],
      "stateMutability": "nonpayable",
      "type": "function"
    },
    {
      "inputs": [],
      "name": "oraclePrice",
      "outputs": [
        {
          "internalType": "int256",
          "name": "",
          "type": "int256"
        }
      ],
      "stateMutability": "view",
      "type": "function"
    },
    {
      "inputs": [
        {
          "internalType": "int256",
          "name": "notional",
          "type": "int256"
        },
        {
          "internalType": "bool",
          "name": "isLong",
          "type": "bool"
        }
      ],
      "name": "priceChange",
      "outputs": [
        {
          "internalType": "int256",
          "name": "",
          "type": "int256"
        }
      ],
      "stateMutability": "view",
      "type": "function"
    },
    {
      "inputs": [
        {
          "internalType": "bytes32",
          "name": "role",
          "type": "bytes32"
        },
        {
          "internalType": "address",
          "name": "account",
          "type": "address"
        }
      ],
      "name": "renounceRole",
      "outputs": [],
      "stateMutability": "nonpayable",
      "type": "function"
    },
    {
      "inputs": [
        {
          "internalType": "bytes32",
          "name": "role",
          "type": "bytes32"
        },
        {
          "internalType": "address",
          "name": "account",
          "type": "address"
        }
      ],
      "name": "revokeRole",
      "outputs": [],
      "stateMutability": "nonpayable",
      "type": "function"
    },
    {
      "inputs": [
        {
          "internalType": "int256",
          "name": "amount",
          "type": "int256"
        }
      ],
      "name": "stake",
      "outputs": [],
      "stateMutability": "nonpayable",
      "type": "function"
    },
    {
      "inputs": [
        {
          "internalType": "bytes4",
          "name": "interfaceId",
          "type": "bytes4"
        }
      ],
      "name": "supportsInterface",
      "outputs": [
        {
          "internalType": "bool",
          "name": "",
          "type": "bool"
        }
      ],
      "stateMutability": "view",
      "type": "function"
    },
    {
      "inputs": [],
      "name": "totalStaked",
      "outputs": [
        {
          "internalType": "int256",
          "name": "",
          "type": "int256"
        }
      ],
      "stateMutability": "view",
      "type": "function"
    },
    {
      "inputs": [
        {
          "internalType": "int256",
          "name": "amount",
          "type": "int256"
        }
      ],
      "name": "unstake",
      "outputs": [],
      "stateMutability": "nonpayable",
      "type": "function"
    }
  ],
  "bytecode": "0x608060405234801561001057600080fd5b50612fba806100206000396000f3fe608060405234801561001057600080fd5b50600436106102955760003560e01c806379ea9dd411610167578063badf44d9116100ce578063d547741f11610087578063d547741f1461060d578063d8826fec14610620578063dc028c0814610633578063e2b99e6b14610646578063e58378bb1461064e578063e71acffe1461066357600080fd5b8063badf44d9146105bf578063bc49abd8146105d2578063bd9a548b146105da578063c52aa2cf146105f7578063c6be2371146105fe578063ca4fa4951461060557600080fd5b80639015dcc9116101205780639015dcc91461056957806391d148541461057a57806393e106011461058d5780639d1b464a1461059e5780639f9106d1146105a6578063a217fddf146105b757600080fd5b806379ea9dd41461051c5780637a891c191461052d5780637b6fc88314610535578063807354ce14610548578063817b1cd2146105595780638ec812ee1461056157600080fd5b806336284eb01161020b578063668aa824116101c4578063668aa8241461040a5780636f4d80e5146104125780637003075e146104d657806372667cdb146104eb57806377b71df01461050157806378cff5761461051457600080fd5b806336284eb01461039c57806336568abe146103af578063367d13d0146103c25780634dde1fb1146103d3578063538b5aa5146103e45780635690f64d146103f757600080fd5b80631f3623231161025d5780631f36232314610325578063207919fa1461033857806320d7b9971461034b578063248a9ca31461035e5780632f2ff15d146103815780632f8dfa4c1461039457600080fd5b806301ffc9a71461029a5780630910a510146102c25780630a2ce6d7146102d85780630f3bee3d146102ed57806312bffc8814610312575b600080fd5b6102ad6102a8366004612553565b610676565b60405190151581526020015b60405180910390f35b6102ca6106ad565b6040519081526020016102b9565b6102eb6102e636600461250c565b6106be565b005b6003546001600160a01b03165b6040516001600160a01b0390911681526020016102b9565b6102eb610320366004612758565b6107bf565b6102eb61033336600461250c565b6108cd565b6102eb6103463660046124a9565b610a01565b6102ca6103593660046124e1565b610a91565b6102ca61036c36600461250c565b60009081526078602052604090206001015490565b6102eb61038f366004612524565b610c6f565b600b546102ca565b6102ca6103aa3660046124e1565b610c9a565b6102eb6103bd366004612524565b610dc1565b6007546001600160a01b03166102fa565b6002546001600160a01b03166102fa565b6102eb6103f23660046125f0565b610e3f565b6102eb61040536600461257b565b610f4d565b6102ca610f72565b6000546040805161010081810183526001546001600160a01b0390811683526002548116602084015260035481169383019390935260045460608301526005546080830152600654831660a0830152600754831660c0830152600854831660e0830152600954600a54600b54600c54600d54600e54600f546010546011546012546104bd9d8d169c998a169a988a169997989697959694959394929360ff831693909204909116908d565b6040516102b99d9c9b9a9998979695949392919061288f565b6102ca600080516020612f6583398151915281565b60115461010090046001600160a01b03166102fa565b6102eb61050f36600461250c565b610f7e565b6102eb611042565b6008546001600160a01b03166102fa565b600c546102ca565b6102eb61054336600461268b565b61108b565b6009546001600160a01b03166102fa565b6102ca6112fc565b6102ca611308565b600a546001600160a01b03166102fa565b6102ad610588366004612524565b611314565b6001546001600160a01b03166102fa565b6102ca61133f565b6006546001600160a01b03166102fa565b6102ca600081565b6102eb6105cd36600461250c565b61134b565b6102ca6113f4565b6105e2611404565b604080519283526020830191909152016102b9565b60016102ad565b60006102ad565b6105e2611419565b6102eb61061b366004612524565b611438565b6102eb61062e3660046124a9565b61145e565b6102ca6106413660046125cc565b6114ce565b6102ca6114f6565b6102ca600080516020612f4583398151915281565b6102eb61067136600461250c565b611573565b60006001600160e01b03198216637965db0b60e01b14806106a757506301ffc9a760e01b6001600160e01b03198316145b92915050565b60006106b960006115e5565b905090565b600260aa5414156106ea5760405162461bcd60e51b81526004016106e190612a72565b60405180910390fd5b600260aa5560115460ff16156107125760405162461bcd60e51b81526004016106e190612a4f565b6009546001600160a01b031661073a5760405162461bcd60e51b81526004016106e1906129d8565b600954604051632e5e0b6160e01b81526001600160a01b0390911660048201523360248201526044810182905273__$d66304e481bdf2800eccec9f89a098a24a$__90632e5e0b61906064015b60006040518083038186803b15801561079f57600080fd5b505af41580156107b3573d6000803e3d6000fd5b5050600160aa55505050565b600080516020612f458339815191526107d88133611622565b6009546001600160a01b0316156108225760405162461bcd60e51b815260206004820152600e60248201526d131417d513d2d15397d1561254d560921b60448201526064016106e1565b604051630e9f89fb60e41b815273__$c4fda02c71b4354d0125dbaa89864d6861$__9063e9f89fb090610859908590600401612b58565b60206040518083038186803b15801561087157600080fd5b505af4158015610885573d6000803e3d6000fd5b505050506040513d601f19601f820116820180604052508101906108a99190612598565b600980546001600160a01b0319166001600160a01b03929092169190911790555050565b600260aa5414156108f05760405162461bcd60e51b81526004016106e190612a72565b600260aa5560115460ff16156109185760405162461bcd60e51b81526004016106e190612a4f565b6009546001600160a01b03166109405760405162461bcd60e51b81526004016106e1906129d8565b600080516020612f658339815191526109598133611622565b6000826109666000611686565b6109709190612e72565b90506000811261098057506109f8565b600954604051637e1c8e3560e01b81526001600160a01b0390911660048201526024810184905273__$d66304e481bdf2800eccec9f89a098a24a$__90637e1c8e359060440160006040518083038186803b1580156109de57600080fd5b505af41580156109f2573d6000803e3d6000fd5b50505050505b5050600160aa55565b600080516020612f45833981519152610a1a8133611622565b813b610a685760405162461bcd60e51b815260206004820152601b60248201527f53555348495f524f555445525f4e4f545f415f434f4e5452414354000000000060448201526064016106e1565b50601180546001600160a01b0390921661010002610100600160a81b0319909216919091179055565b6000600260aa541415610ab65760405162461bcd60e51b81526004016106e190612a72565b600260aa5560115460ff1615610ade5760405162461bcd60e51b81526004016106e190612a4f565b6009546001600160a01b0316610b065760405162461bcd60e51b81526004016106e1906129d8565b600080516020612f65833981519152610b1f8133611622565b60008313610b5f5760405162461bcd60e51b815260206004820152600d60248201526c04e4f54494f4e414c5f4c545f3609c1b60448201526064016106e1565b8315610be057826000600b016000828254610b7a9190612e72565b9091555050600b5460001315610bc45760405162461bcd60e51b815260206004820152600f60248201526e0544f54414c4c4f4e47535f4c545f3608c1b60448201526064016106e1565b610bdb610bd2846000612e72565b60009081611705565b610c58565b826000600c016000828254610bf59190612e72565b9091555050600c5460001315610c405760405162461bcd60e51b815260206004820152601060248201526f0544f54414c53484f5254535f4c545f360841b60448201526064016106e1565b610c586000610c4f8582612e72565b60009190611705565b610c626000611850565b600160aa55949350505050565b600082815260786020526040902060010154610c8b8133611622565b610c958383611867565b505050565b6000600260aa541415610cbf5760405162461bcd60e51b81526004016106e190612a72565b600260aa5560115460ff1615610ce75760405162461bcd60e51b81526004016106e190612a4f565b6009546001600160a01b0316610d0f5760405162461bcd60e51b81526004016106e1906129d8565b600080516020612f65833981519152610d288133611622565b60008313610d685760405162461bcd60e51b815260206004820152600d60248201526c04e4f54494f4e414c5f4c545f3609c1b60448201526064016106e1565b60018415151415610d9a57826000600b016000828254610d889190612c52565b90915550610bdb905060008481611705565b826000600c016000828254610daf9190612c52565b90915550610c58905060008085611705565b6001600160a01b0381163314610e315760405162461bcd60e51b815260206004820152602f60248201527f416363657373436f6e74726f6c3a2063616e206f6e6c792072656e6f756e636560448201526e103937b632b9903337b91039b2b63360891b60648201526084016106e1565b610e3b82826118ed565b5050565b600080516020612f45833981519152610e588133611622565b600a546001600160a01b031615610ea25760405162461bcd60e51b815260206004820152600e60248201526d149155d05491115497d1561254d560921b60448201526064016106e1565b60405163bdf3bf1960e01b815273__$c4fda02c71b4354d0125dbaa89864d6861$__9063bdf3bf1990610ed9908590600401612aa9565b60206040518083038186803b158015610ef157600080fd5b505af4158015610f05573d6000803e3d6000fd5b505050506040513d601f19601f82011682018060405250810190610f299190612598565b600a80546001600160a01b0319166001600160a01b03929092169190911790555050565b600080516020612f65833981519152610f668133611622565b610c9560008484611954565b60006106b960006119ab565b600260aa541415610fa15760405162461bcd60e51b81526004016106e190612a72565b600260aa5560115460ff1615610fc95760405162461bcd60e51b81526004016106e190612a4f565b6009546001600160a01b0316610ff15760405162461bcd60e51b81526004016106e1906129d8565b60095460405163dfbcd6db60e01b81526001600160a01b0390911660048201523360248201526044810182905273__$d66304e481bdf2800eccec9f89a098a24a$__9063dfbcd6db90606401610787565b600260aa5414156110655760405162461bcd60e51b81526004016106e190612a72565b600260aa55600080516020612f658339815191526110838133611622565b50600160aa55565b601354610100900460ff16806110a4575060135460ff16155b6110c05760405162461bcd60e51b81526004016106e190612a01565b601354610100900460ff161580156110e2576013805461ffff19166101011790555b823b6111305760405162461bcd60e51b815260206004820152601b60248201527f53555348495f524f555445525f4e4f545f415f434f4e5452414354000000000060448201526064016106e1565b83516001600160a01b03166111795760405162461bcd60e51b815260206004820152600f60248201526e2727afa9aa2924a829afa2a92927a960891b60448201526064016106e1565b6001600160a01b0382166111ba5760405162461bcd60e51b81526020600482015260086024820152675a45524f5f44414f60c01b60448201526064016106e1565b6111c26119f2565b6111ca611a76565b600080546001600160a01b03199081166001600160a01b03858116919091179092558551600180548316918416919091179055602086015160028054831691841691909117905560408601516003805483169184169190911790556060860151600455608086015160055560a086015160068054831691841691909117905560c086015160078054831691841691909117905560e08601516008805490921690831617905560118054610100600160a81b0319166101009286169290920291909117905542601255600f546112a5576112a1611ad5565b600f555b6112b0600033611aea565b6112c8600080516020612f4583398151915233611aea565b6112e4600080516020612f658339815191528560000151611aea565b80156112f6576013805461ff00191690555b50505050565b60006106b96000611af4565b60006106b96000611b27565b60009182526078602090815260408084206001600160a01b0393909316845291905290205460ff1690565b60006106b96000611850565b600260aa54141561136e5760405162461bcd60e51b81526004016106e190612a72565b600260aa55600080516020612f6583398151915261138c8133611622565b60095460405163badf44d960e01b8152600481018490526001600160a01b039091169063badf44d9906024015b600060405180830381600087803b1580156113d357600080fd5b505af11580156113e7573d6000803e3d6000fd5b5050600160aa5550505050565b6012546000906106b99042612eb1565b6000806114116000611c30565b915091509091565b6000806114266000611686565b91506114326000611af4565b90509091565b6000828152607860205260409020600101546114548133611622565b610c9583836118ed565b600061146a8133611622565b6001600160a01b0382166114ab5760405162461bcd60e51b81526020600482015260086024820152675a45524f5f44414f60c01b60448201526064016106e1565b50600080546001600160a01b0319166001600160a01b0392909216919091179055565b600081156114e6576114df83611cc5565b90506106a7565b6114ef83611ce3565b9392505050565b60025460408051636da5ebf960e11b815290516000926001600160a01b03169163db4bd7f2916004808301926020929190829003018186803b15801561153b57600080fd5b505afa15801561154f573d6000803e3d6000fd5b505050506040513d601f19601f820116820180604052508101906106b991906125b4565b600260aa5414156115965760405162461bcd60e51b81526004016106e190612a72565b600260aa55600080516020612f658339815191526115b48133611622565b60095460405163738d67ff60e11b8152600481018490526001600160a01b039091169063e71acffe906024016113b9565b6000806115f183611af4565b9050801561160f5761160c61160584611cf1565b8290611d38565b90505b61161883611686565b6114ef9082612c52565b61162c8282611314565b610e3b57611644816001600160a01b03166014611d46565b61164f836020611d46565b60405160200161166092919061281a565b60408051601f198184030181529082905262461bcd60e51b82526106e1916004016129a5565b60078101546040516370a0823160e01b81523060048201526000916001600160a01b0316906370a08231906024015b60206040518083038186803b1580156116cd57600080fd5b505afa1580156116e1573d6000803e3d6000fd5b505050506040513d601f19601f820116820180604052508101906106a791906125b4565b6000611710846115e5565b90508360100154600014156117635761174084600f015461172f611ad5565b6117399190612c52565b8290611f28565b600e8501819055600f8501546117569190611d38565b600d850155601084018190555b60008460100154826117759190612e72565b905061179f61160586600f015461178a611ad5565b6117949190612c52565b600f88015490611f28565b6117a99085612c52565b85600d0160008282546117bc9190612c52565b9091555050600f8501546117d29061172f611ad5565b6117dc9084612c52565b85600e0160008282546117ef9190612c52565b9091555050600d850154600012158061180d5750600085600e015413155b1561182a5760405162461bcd60e51b81526004016106e190612a4f565b600e850154600d86015461183d91611f28565b600f860155506010909301929092555050565b600f81015460048201546000916106a79190611d38565b6118718282611314565b610e3b5760008281526078602090815260408083206001600160a01b03851684529091529020805460ff191660011790556118a93390565b6001600160a01b0316816001600160a01b0316837f2f8788117e7eff1d82e926ec794901d17c78024a50270940304540a733656f0d60405160405180910390a45050565b6118f78282611314565b15610e3b5760008281526078602090815260408083206001600160a01b0385168085529252808320805460ff1916905551339285917ff6391f5c32d9c69d2a47ea670b442974b53935d1edc7fd64eb21e047a839171b9190a45050565b600081136119915760405162461bcd60e51b815260206004820152600a60248201526910905117d05353d5539560b21b60448201526064016106e1565b6001830154610c959083906001600160a01b031683611f46565b600281015460408051634c6afee560e11b815290516000926001600160a01b0316916398d5fdca916004808301926020929190829003018186803b1580156116cd57600080fd5b601354610100900460ff1680611a0b575060135460ff16155b611a275760405162461bcd60e51b81526004016106e190612a01565b601354610100900460ff16158015611a49576013805461ffff19166101011790555b611a5161208c565b611a5961208c565b611a6161208c565b8015611a73576013805461ff00191690555b50565b601354610100900460ff1680611a8f575060135460ff16155b611aab5760405162461bcd60e51b81526004016106e190612a01565b601354610100900460ff16158015611acd576013805461ffff19166101011790555b611a616120f6565b60006106b9670de0b6b3a76400006001612dd0565b610e3b8282611867565b60068101546040516370a0823160e01b81523060048201526000916001600160a01b0316906370a08231906024016116b5565b600080611b33836115e5565b905060008113611b465750600092915050565b600183015460405163192be89360e21b81523060048201526000916001600160a01b0316906364afa24c9060240160206040518083038186803b158015611b8c57600080fd5b505afa158015611ba0573d6000803e3d6000fd5b505050506040513d601f19601f82011682018060405250810190611bc491906125b4565b9050600084600c015485600b0154611bdc9190612e72565b90506000811215611bf657611bf360001982612dd0565b90505b611c27611c01612166565b611c0c90600a612dd0565b82611c178587612c52565b611c219190612e72565b90611d38565b95945050505050565b600080611c3c83611850565b600284015460408051634c6afee560e11b815290519294506001600160a01b03909116916398d5fdca91600480820192602092909190829003018186803b158015611c8657600080fd5b505afa158015611c9a573d6000803e3d6000fd5b505050506040513d601f19601f82011682018060405250810190611cbe91906125b4565b9050915091565b600080611cd381848161217a565b6004549091506114ef9082611d38565b600080611cd381808561217a565b600381015460408051634c6afee560e11b815290516000926001600160a01b0316916398d5fdca916004808301926020929190829003018186803b1580156116cd57600080fd5b60006114ef8383601261226f565b60606000611d55836002612e53565b611d60906002612c93565b67ffffffffffffffff811115611d8657634e487b7160e01b600052604160045260246000fd5b6040519080825280601f01601f191660200182016040528015611db0576020820181803683370190505b509050600360fc1b81600081518110611dd957634e487b7160e01b600052603260045260246000fd5b60200101906001600160f81b031916908160001a905350600f60fb1b81600181518110611e1657634e487b7160e01b600052603260045260246000fd5b60200101906001600160f81b031916908160001a9053506000611e3a846002612e53565b611e45906001612c93565b90505b6001811115611ed9576f181899199a1a9b1b9c1cb0b131b232b360811b85600f1660108110611e8757634e487b7160e01b600052603260045260246000fd5b1a60f81b828281518110611eab57634e487b7160e01b600052603260045260246000fd5b60200101906001600160f81b031916908160001a90535060049490941c93611ed281612ef4565b9050611e48565b5083156114ef5760405162461bcd60e51b815260206004820181905260248201527f537472696e67733a20686578206c656e67746820696e73756666696369656e7460448201526064016106e1565b60008160011415611f3a5750816106a7565b6114ef83836012612296565b801580611fcf5750604051636eb1769f60e11b81523060048201526001600160a01b03838116602483015284169063dd62ed3e9060440160206040518083038186803b158015611f9557600080fd5b505afa158015611fa9573d6000803e3d6000fd5b505050506040513d601f19601f82011682018060405250810190611fcd91906125b4565b155b61203a5760405162461bcd60e51b815260206004820152603660248201527f5361666545524332303a20617070726f76652066726f6d206e6f6e2d7a65726f60448201527520746f206e6f6e2d7a65726f20616c6c6f77616e636560501b60648201526084016106e1565b604080516001600160a01b038416602482015260448082018490528251808303909101815260649091019091526020810180516001600160e01b031663095ea7b360e01b179052610c959084906122ac565b601354610100900460ff16806120a5575060135460ff16155b6120c15760405162461bcd60e51b81526004016106e190612a01565b601354610100900460ff16158015611a61576013805461ffff19166101011790558015611a73576013805461ff001916905550565b601354610100900460ff168061210f575060135460ff16155b61212b5760405162461bcd60e51b81526004016106e190612a01565b601354610100900460ff1615801561214d576013805461ffff19166101011790555b600160aa558015611a73576013805461ff001916905550565b60006106b9662386f26fc100006001612dd0565b600f830154600e840154600d85015460108601546000939291908461219e896115e5565b9050816121c3576121b18561172f611ad5565b93506121bd8486611d38565b92508091505b60006121cf8383612e72565b90506121f1611605876121e0611ad5565b6121ea9190612c52565b8890611f28565b6121fb908a612c52565b6122059085612c52565b93506122138661172f611ad5565b61221d9089612c52565b6122279086612c52565b945060008413158061223a575060008513155b156122575760405162461bcd60e51b81526004016106e190612a4f565b6122618486611f28565b9a9950505050505050505050565b600061227a8261237e565b6122848486612dd0565b61228e9190612cab565b949350505050565b6000826122a28361237e565b6122849086612dd0565b6000612301826040518060400160405280602081526020017f5361666545524332303a206c6f772d6c6576656c2063616c6c206661696c6564815250856001600160a01b031661238e9092919063ffffffff16565b805190915015610c95578080602001905181019061231f91906124c5565b610c955760405162461bcd60e51b815260206004820152602a60248201527f5361666545524332303a204552433230206f7065726174696f6e20646964206e6044820152691bdd081cdd58d8d9595960b21b60648201526084016106e1565b60006106a760ff8316600a612d28565b606061228e848460008585843b6123e75760405162461bcd60e51b815260206004820152601d60248201527f416464726573733a2063616c6c20746f206e6f6e2d636f6e747261637400000060448201526064016106e1565b600080866001600160a01b0316858760405161240391906127fe565b60006040518083038185875af1925050503d8060008114612440576040519150601f19603f3d011682016040523d82523d6000602084013e612445565b606091505b5091509150612455828286612460565b979650505050505050565b6060831561246f5750816114ef565b82511561247f5782518084602001fd5b8160405162461bcd60e51b81526004016106e191906129a5565b80356124a481612f21565b919050565b6000602082840312156124ba578081fd5b81356114ef81612f21565b6000602082840312156124d6578081fd5b81516114ef81612f36565b600080604083850312156124f3578081fd5b82356124fe81612f36565b946020939093013593505050565b60006020828403121561251d578081fd5b5035919050565b60008060408385031215612536578182fd5b82359150602083013561254881612f21565b809150509250929050565b600060208284031215612564578081fd5b81356001600160e01b0319811681146114ef578182fd5b6000806040838503121561258d578182fd5b82356124fe81612f21565b6000602082840312156125a9578081fd5b81516114ef81612f21565b6000602082840312156125c5578081fd5b5051919050565b600080604083850312156125de578182fd5b82359150602083013561254881612f36565b60006101208284031215612602578081fd5b61260a612be8565b823581526020830135602082015261262460408401612499565b604082015261263560608401612499565b606082015261264660808401612499565b608082015261265760a08401612499565b60a082015261266860c08401612499565b60c082015260e08381013590820152610100928301359281019290925250919050565b60008060008385036101408112156126a1578182fd5b610100808212156126b0578283fd5b6126b8612c20565b915085356126c581612f21565b82526126d360208701612499565b60208301526126e460408701612499565b6040830152606086013560608301526080860135608083015261270960a08701612499565b60a083015261271a60c08701612499565b60c083015261272b60e08701612499565b60e083015281945061273e818701612499565b9350505061274f6101208501612499565b90509250925092565b600060c08284031215612769578081fd5b60405160c0810181811067ffffffffffffffff8211171561279857634e487b7160e01b83526041600452602483fd5b60405282356127a681612f21565b815260208301356127b681612f21565b602082015260408301356127c981612f21565b604082015260608301356127dc81612f21565b60608201526080838101359082015260a0928301359281019290925250919050565b60008251612810818460208701612ec8565b9190910192915050565b7f416363657373436f6e74726f6c3a206163636f756e7420000000000000000000815260008351612852816017850160208801612ec8565b7001034b99036b4b9b9b4b733903937b6329607d1b6017918401918201528351612883816028840160208801612ec8565b01602801949350505050565b6001600160a01b038e811682528d5181166020808401919091528e015181166040808401919091528e0151166060808301919091528d01516080808301919091528d015160a0808301919091528d01516102808201906128fa60c08401826001600160a01b03169052565b5060c08e01516001600160a01b03811660e08401525060e08e01516001600160a01b038116610100840152506001600160a01b038d166101208301526001600160a01b038c166101408301528a61016083015289610180830152886101a0830152876101c0830152866101e08301528561020083015261297f61022083018615159052565b6001600160a01b039390931661024082015261026001529b9a5050505050505050505050565b60208152600082518060208401526129c4816040850160208701612ec8565b601f01601f19169190910160400192915050565b6020808252600f908201526e14d31417d393d517d0d49150551151608a1b604082015260600190565b6020808252602e908201527f496e697469616c697a61626c653a20636f6e747261637420697320616c72656160408201526d191e481a5b9a5d1a585b1a5e995960921b606082015260800190565b60208082526009908201526814d554d4115391115160ba1b604082015260600190565b6020808252601f908201527f5265656e7472616e637947756172643a207265656e7472616e742063616c6c00604082015260600190565b81518152602080830151908201526040808301516001600160a01b031690820152606080830151610120830191612aea908401826001600160a01b03169052565b506080830151612b0560808401826001600160a01b03169052565b5060a0830151612b2060a08401826001600160a01b03169052565b5060c0830151612b3b60c08401826001600160a01b03169052565b5060e083015160e083015261010080840151818401525092915050565b600061010060018060a01b03808551168452806020860151166020850152806040860151166040850152806060860151166060850152506080840151608084015260a084015160a08401528060c0840152600981840152506829a628102a37b5b2b760b91b6101208301526101408060e084015261228e81840160038152620534c560ec1b602082015260400190565b604051610120810167ffffffffffffffff81118282101715612c1a57634e487b7160e01b600052604160045260246000fd5b60405290565b604051610100810167ffffffffffffffff81118282101715612c1a57634e487b7160e01b600052604160045260246000fd5b600080821280156001600160ff1b0384900385131615612c7457612c74612f0b565b600160ff1b8390038412811615612c8d57612c8d612f0b565b50500190565b60008219821115612ca657612ca6612f0b565b500190565b600082612cc657634e487b7160e01b81526012600452602481fd5b600160ff1b821460001984141615612ce057612ce0612f0b565b500590565b600181815b80851115612d20578160001904821115612d0657612d06612f0b565b80851615612d1357918102915b93841c9390800290612cea565b509250929050565b60006114ef8383600082612d3e575060016106a7565b81612d4b575060006106a7565b8160018114612d615760028114612d6b57612d87565b60019150506106a7565b60ff841115612d7c57612d7c612f0b565b50506001821b6106a7565b5060208310610133831016604e8410600b8410161715612daa575081810a6106a7565b612db48383612ce5565b8060001904821115612dc857612dc8612f0b565b029392505050565b60006001600160ff1b0381841382841380821686840486111615612df657612df6612f0b565b600160ff1b84871282811687830589121615612e1457612e14612f0b565b858712925087820587128484161615612e2f57612e2f612f0b565b87850587128184161615612e4557612e45612f0b565b505050929093029392505050565b6000816000190483118215151615612e6d57612e6d612f0b565b500290565b60008083128015600160ff1b850184121615612e9057612e90612f0b565b6001600160ff1b0384018313811615612eab57612eab612f0b565b50500390565b600082821015612ec357612ec3612f0b565b500390565b60005b83811015612ee3578181015183820152602001612ecb565b838111156112f65750506000910152565b600081612f0357612f03612f0b565b506000190190565b634e487b7160e01b600052601160045260246000fd5b6001600160a01b0381168114611a7357600080fd5b8015158114611a7357600080fdfeb19546dff01e856fb3f010c267a7b1c60363cf8a4664e21cc89c26224620214edfd026bd2d3fa1c600c8569d94bb4eed03cfafe0c37f74f3ca61c14b05898e31a26469706673582212203a9564f9e7cf257ebf9ec11d63f84bb4c61f93886beabf4785c199b35d832acd64736f6c63430008040033",
  "linkReferences": {
    "contracts/impl/SlpFactoryImpl.sol": {
      "SlpFactoryImpl": [
        {
          "length": 20,
          "start": 2129
        },
        {
          "length": 20,
          "start": 3793
        }
      ]
    },
    "contracts/impl/StakingImpl.sol": {
      "StakingImpl": [
        {
          "length": 20,
          "start": 1929
        },
        {
          "length": 20,
          "start": 2505
        },
        {
          "length": 20,
          "start": 4160
        }
      ]
    }
  },
  "deployedLinkReferences": {
    "contracts/impl/SlpFactoryImpl.sol": {
      "SlpFactoryImpl": [
        {
          "length": 20,
          "start": 2097
        },
        {
          "length": 20,
          "start": 3761
        }
      ]
    },
    "contracts/impl/StakingImpl.sol": {
      "StakingImpl": [
        {
          "length": 20,
          "start": 1897
        },
        {
          "length": 20,
          "start": 2473
        },
        {
          "length": 20,
          "start": 4128
        }
      ]
    }
  }
}