{
  "_format": "hh-sol-artifact-1",
  "contractName": "LiquidationKeeper",
  "sourceName": "contracts/oracle/LiquidationKeeper.sol",
  "abi": [
    {
      "inputs": [
        {
          "internalType": "contract IStrips",
          "name": "_strips",
          "type": "address"
        },
        {
          "internalType": "address",
          "name": "_rewardToken",
          "type": "address"
        },
        {
          "internalType": "uint256",
          "name": "_size",
          "type": "uint256"
        }
      ],
      "stateMutability": "nonpayable",
      "type": "constructor"
    },
    {
      "anonymous": false,
      "inputs": [
        {
          "indexed": true,
          "internalType": "uint256",
          "name": "length",
          "type": "uint256"
        },
        {
          "indexed": true,
          "internalType": "uint256",
          "name": "liquidated",
          "type": "uint256"
        },
        {
          "indexed": true,
          "internalType": "uint256",
          "name": "reverted",
          "type": "uint256"
        },
        {
          "indexed": false,
          "internalType": "uint256",
          "name": "positionIndex",
          "type": "uint256"
        }
      ],
      "name": "LiquidatorDone",
      "type": "event"
    },
    {
      "anonymous": false,
      "inputs": [
        {
          "indexed": true,
          "internalType": "bytes32",
          "name": "role",
          "type": "bytes32"
        },
        {
          "indexed": true,
          "internalType": "bytes32",
          "name": "previousAdminRole",
          "type": "bytes32"
        },
        {
          "indexed": true,
          "internalType": "bytes32",
          "name": "newAdminRole",
          "type": "bytes32"
        }
      ],
      "name": "RoleAdminChanged",
      "type": "event"
    },
    {
      "anonymous": false,
      "inputs": [
        {
          "indexed": true,
          "internalType": "bytes32",
          "name": "role",
          "type": "bytes32"
        },
        {
          "indexed": true,
          "internalType": "address",
          "name": "account",
          "type": "address"
        },
        {
          "indexed": true,
          "internalType": "address",
          "name": "sender",
          "type": "address"
        }
      ],
      "name": "RoleGranted",
      "type": "event"
    },
    {
      "anonymous": false,
      "inputs": [
        {
          "indexed": true,
          "internalType": "bytes32",
          "name": "role",
          "type": "bytes32"
        },
        {
          "indexed": true,
          "internalType": "address",
          "name": "account",
          "type": "address"
        },
        {
          "indexed": true,
          "internalType": "address",
          "name": "sender",
          "type": "address"
        }
      ],
      "name": "RoleRevoked",
      "type": "event"
    },
    {
      "inputs": [],
      "name": "DEFAULT_ADMIN_ROLE",
      "outputs": [
        {
          "internalType": "bytes32",
          "name": "",
          "type": "bytes32"
        }
      ],
      "stateMutability": "view",
      "type": "function"
    },
    {
      "inputs": [
        {
          "internalType": "address",
          "name": "_newToken",
          "type": "address"
        }
      ],
      "name": "changeRewardToken",
      "outputs": [],
      "stateMutability": "nonpayable",
      "type": "function"
    },
    {
      "inputs": [
        {
          "internalType": "bytes",
          "name": "",
          "type": "bytes"
        }
      ],
      "name": "checkUpkeep",
      "outputs": [
        {
          "internalType": "bool",
          "name": "upkeepNeeded",
          "type": "bool"
        },
        {
          "internalType": "bytes",
          "name": "",
          "type": "bytes"
        }
      ],
      "stateMutability": "view",
      "type": "function"
    },
    {
      "inputs": [
        {
          "internalType": "bytes32",
          "name": "role",
          "type": "bytes32"
        }
      ],
      "name": "getRoleAdmin",
      "outputs": [
        {
          "internalType": "bytes32",
          "name": "",
          "type": "bytes32"
        }
      ],
      "stateMutability": "view",
      "type": "function"
    },
    {
      "inputs": [
        {
          "internalType": "bytes32",
          "name": "role",
          "type": "bytes32"
        },
        {
          "internalType": "address",
          "name": "account",
          "type": "address"
        }
      ],
      "name": "grantRole",
      "outputs": [],
      "stateMutability": "nonpayable",
      "type": "function"
    },
    {
      "inputs": [
        {
          "internalType": "bytes32",
          "name": "role",
          "type": "bytes32"
        },
        {
          "internalType": "address",
          "name": "account",
          "type": "address"
        }
      ],
      "name": "hasRole",
      "outputs": [
        {
          "internalType": "bool",
          "name": "",
          "type": "bool"
        }
      ],
      "stateMutability": "view",
      "type": "function"
    },
    {
      "inputs": [
        {
          "internalType": "bytes",
          "name": "",
          "type": "bytes"
        }
      ],
      "name": "performUpkeep",
      "outputs": [],
      "stateMutability": "nonpayable",
      "type": "function"
    },
    {
      "inputs": [],
      "name": "positionIndex",
      "outputs": [
        {
          "internalType": "uint256",
          "name": "",
          "type": "uint256"
        }
      ],
      "stateMutability": "view",
      "type": "function"
    },
    {
      "inputs": [
        {
          "internalType": "bytes32",
          "name": "role",
          "type": "bytes32"
        },
        {
          "internalType": "address",
          "name": "account",
          "type": "address"
        }
      ],
      "name": "renounceRole",
      "outputs": [],
      "stateMutability": "nonpayable",
      "type": "function"
    },
    {
      "inputs": [
        {
          "internalType": "bytes32",
          "name": "role",
          "type": "bytes32"
        },
        {
          "internalType": "address",
          "name": "account",
          "type": "address"
        }
      ],
      "name": "revokeRole",
      "outputs": [],
      "stateMutability": "nonpayable",
      "type": "function"
    },
    {
      "inputs": [],
      "name": "rewardToken",
      "outputs": [
        {
          "internalType": "address",
          "name": "",
          "type": "address"
        }
      ],
      "stateMutability": "view",
      "type": "function"
    },
    {
      "inputs": [
        {
          "internalType": "uint256",
          "name": "_positionIndex",
          "type": "uint256"
        }
      ],
      "name": "setPositionIndex",
      "outputs": [],
      "stateMutability": "nonpayable",
      "type": "function"
    },
    {
      "inputs": [
        {
          "internalType": "uint256",
          "name": "_size",
          "type": "uint256"
        }
      ],
      "name": "setSize",
      "outputs": [],
      "stateMutability": "nonpayable",
      "type": "function"
    },
    {
      "inputs": [
        {
          "internalType": "contract IStrips",
          "name": "_strips",
          "type": "address"
        }
      ],
      "name": "setStrips",
      "outputs": [],
      "stateMutability": "nonpayable",
      "type": "function"
    },
    {
      "inputs": [],
      "name": "size",
      "outputs": [
        {
          "internalType": "uint256",
          "name": "",
          "type": "uint256"
        }
      ],
      "stateMutability": "view",
      "type": "function"
    },
    {
      "inputs": [],
      "name": "strips",
      "outputs": [
        {
          "internalType": "contract IStrips",
          "name": "",
          "type": "address"
        }
      ],
      "stateMutability": "view",
      "type": "function"
    },
    {
      "inputs": [
        {
          "internalType": "bytes4",
          "name": "interfaceId",
          "type": "bytes4"
        }
      ],
      "name": "supportsInterface",
      "outputs": [
        {
          "internalType": "bool",
          "name": "",
          "type": "bool"
        }
      ],
      "stateMutability": "view",
      "type": "function"
    },
    {
      "inputs": [
        {
          "internalType": "address",
          "name": "_to",
          "type": "address"
        }
      ],
      "name": "withdrawRewards",
      "outputs": [],
      "stateMutability": "nonpayable",
      "type": "function"
    }
  ],
  "bytecode": "0x60806040523480156200001157600080fd5b50604051620014c6380380620014c683398101604081905262000034916200012f565b600280546001600160a01b038086166001600160a01b03199283161790925560048390556001805492851692909116919091179055620000766000336200007f565b5050506200018f565b6200008b82826200008f565b5050565b6000828152602081815260408083206001600160a01b038516845290915290205460ff166200008b576000828152602081815260408083206001600160a01b03851684529091529020805460ff19166001179055620000eb3390565b6001600160a01b0316816001600160a01b0316837f2f8788117e7eff1d82e926ec794901d17c78024a50270940304540a733656f0d60405160405180910390a45050565b60008060006060848603121562000144578283fd5b8351620001518162000176565b6020850151909350620001648162000176565b80925050604084015190509250925092565b6001600160a01b03811681146200018c57600080fd5b50565b611327806200019f6000396000f3fe608060405234801561001057600080fd5b50600436106101165760003560e01c806354de463e116100a2578063949d225d11610071578063949d225d14610268578063a217fddf14610271578063cbb7052a14610279578063d547741f1461028c578063f7c618c11461029f57600080fd5b806354de463e1461021357806357921ea3146102265780636e04ff0d1461022f57806391d148541461025557600080fd5b80632f2ff15d116100e95780632f2ff15d1461019c57806336568abe146101af57806342d86693146101c25780634585e33b146101d55780634cff4494146101e857600080fd5b806301ffc9a71461011b578063088ab8ce14610143578063170ab40514610158578063248a9ca31461016b575b600080fd5b61012e610129366004611022565b6102b2565b60405190151581526020015b60405180910390f35b610156610151366004610eae565b6102e9565b005b610156610166366004610fdb565b610318565b61018e610179366004610fdb565b60009081526020819052604090206001015490565b60405190815260200161013a565b6101566101aa366004610ff3565b61032a565b6101566101bd366004610ff3565b610355565b6101566101d0366004610eae565b6103d8565b6101566101e336600461104a565b610483565b6002546101fb906001600160a01b031681565b6040516001600160a01b03909116815260200161013a565b610156610221366004610eae565b610837565b61018e60035481565b61024761023d36600461104a565b5060019160609150565b60405161013a92919061118c565b61012e610263366004610ff3565b610866565b61018e60045481565b61018e600081565b610156610287366004610fdb565b61088f565b61015661029a366004610ff3565b6108a1565b6001546101fb906001600160a01b031681565b60006001600160e01b03198216637965db0b60e01b14806102e357506301ffc9a760e01b6001600160e01b03198316145b92915050565b60006102f581336108c7565b50600180546001600160a01b0319166001600160a01b0392909216919091179055565b600061032481336108c7565b50600455565b60008281526020819052604090206001015461034681336108c7565b610350838361092b565b505050565b6001600160a01b03811633146103ca5760405162461bcd60e51b815260206004820152602f60248201527f416363657373436f6e74726f6c3a2063616e206f6e6c792072656e6f756e636560448201526e103937b632b9903337b91039b2b63360891b60648201526084015b60405180910390fd5b6103d482826109af565b5050565b60006103e481336108c7565b6001546040516370a0823160e01b81523060048201526000916001600160a01b0316906370a082319060240160206040518083038186803b15801561042857600080fd5b505afa15801561043c573d6000803e3d6000fd5b505050506040513d601f19601f8201168201806040525081019061046091906110b7565b90508061046c57505050565b600154610350906001600160a01b03168483610a14565b600254600354600480546040516305b1a01d60e51b81526000948594859485946001600160a01b039093169363b63403a0936104cb9392909101918252602082015260400190565b60006040518083038186803b1580156104e357600080fd5b505afa1580156104f7573d6000803e3d6000fd5b505050506040513d6000823e601f3d908101601f1916820160405261051f9190810190610eca565b905060005b81518110156106c15781818151811061054d57634e487b7160e01b600052603260045260246000fd5b602002602001015160000151156106af5760025482516001945060009182916001600160a01b0390911690829063586e848f60e01b908790879081106105a357634e487b7160e01b600052603260045260246000fd5b6020026020010151604001518787815181106105cf57634e487b7160e01b600052603260045260246000fd5b6020026020010151602001516040516024016106019291906001600160a01b0392831681529116602082015260400190565b60408051601f198184030181529181526020820180516001600160e01b03166001600160e01b031990941693909317909252905161063f91906110fb565b60006040518083038185875af1925050503d806000811461067c576040519150601f19603f3d011682016040523d82523d6000602084013e610681565b606091505b5091509150811561069e57610697600188611214565b96506106ac565b6106a9600187611214565b95505b50505b806106b981611292565b915050610524565b50600260009054906101000a90046001600160a01b03166001600160a01b0316631ca3b0cb6040518163ffffffff1660e01b815260040160206040518083038186803b15801561071057600080fd5b505afa158015610724573d6000803e3d6000fd5b505050506040513d601f19601f8201168201806040525081019061074891906110b7565b6004546003546107589190611214565b10610767576000600355610781565b6004546003600082825461077b9190611214565b90915550505b81156107c757828482517ff01b82476460afac2527a12fa3ba37b3f5b61c50c8bee2a3147420af5217c8fe6003546040516107be91815260200190565b60405180910390a45b600260009054906101000a90046001600160a01b03166001600160a01b0316635c36b1866040518163ffffffff1660e01b8152600401600060405180830381600087803b15801561081757600080fd5b505af115801561082b573d6000803e3d6000fd5b50505050505050505050565b600061084381336108c7565b50600280546001600160a01b0319166001600160a01b0392909216919091179055565b6000918252602082815260408084206001600160a01b0393909316845291905290205460ff1690565b600061089b81336108c7565b50600355565b6000828152602081905260409020600101546108bd81336108c7565b61035083836109af565b6108d18282610866565b6103d4576108e9816001600160a01b03166014610a66565b6108f4836020610a66565b604051602001610905929190611117565b60408051601f198184030181529082905262461bcd60e51b82526103c1916004016111a7565b6109358282610866565b6103d4576000828152602081815260408083206001600160a01b03851684529091529020805460ff1916600117905561096b3390565b6001600160a01b0316816001600160a01b0316837f2f8788117e7eff1d82e926ec794901d17c78024a50270940304540a733656f0d60405160405180910390a45050565b6109b98282610866565b156103d4576000828152602081815260408083206001600160a01b0385168085529252808320805460ff1916905551339285917ff6391f5c32d9c69d2a47ea670b442974b53935d1edc7fd64eb21e047a839171b9190a45050565b604080516001600160a01b038416602482015260448082018490528251808303909101815260649091019091526020810180516001600160e01b031663a9059cbb60e01b179052610350908490610c4f565b60606000610a7583600261122c565b610a80906002611214565b67ffffffffffffffff811115610aa657634e487b7160e01b600052604160045260246000fd5b6040519080825280601f01601f191660200182016040528015610ad0576020820181803683370190505b509050600360fc1b81600081518110610af957634e487b7160e01b600052603260045260246000fd5b60200101906001600160f81b031916908160001a905350600f60fb1b81600181518110610b3657634e487b7160e01b600052603260045260246000fd5b60200101906001600160f81b031916908160001a9053506000610b5a84600261122c565b610b65906001611214565b90505b6001811115610bf9576f181899199a1a9b1b9c1cb0b131b232b360811b85600f1660108110610ba757634e487b7160e01b600052603260045260246000fd5b1a60f81b828281518110610bcb57634e487b7160e01b600052603260045260246000fd5b60200101906001600160f81b031916908160001a90535060049490941c93610bf28161127b565b9050610b68565b508315610c485760405162461bcd60e51b815260206004820181905260248201527f537472696e67733a20686578206c656e67746820696e73756666696369656e7460448201526064016103c1565b9392505050565b6000610ca4826040518060400160405280602081526020017f5361666545524332303a206c6f772d6c6576656c2063616c6c206661696c6564815250856001600160a01b0316610d219092919063ffffffff16565b8051909150156103505780806020019051810190610cc29190610fc1565b6103505760405162461bcd60e51b815260206004820152602a60248201527f5361666545524332303a204552433230206f7065726174696f6e20646964206e6044820152691bdd081cdd58d8d9595960b21b60648201526084016103c1565b6060610d308484600085610d38565b949350505050565b606082471015610d995760405162461bcd60e51b815260206004820152602660248201527f416464726573733a20696e73756666696369656e742062616c616e636520666f6044820152651c8818d85b1b60d21b60648201526084016103c1565b843b610de75760405162461bcd60e51b815260206004820152601d60248201527f416464726573733a2063616c6c20746f206e6f6e2d636f6e747261637400000060448201526064016103c1565b600080866001600160a01b03168587604051610e0391906110fb565b60006040518083038185875af1925050503d8060008114610e40576040519150601f19603f3d011682016040523d82523d6000602084013e610e45565b606091505b5091509150610e55828286610e60565b979650505050505050565b60608315610e6f575081610c48565b825115610e7f5782518084602001fd5b8160405162461bcd60e51b81526004016103c191906111a7565b80518015158114610ea957600080fd5b919050565b600060208284031215610ebf578081fd5b8135610c48816112d9565b60006020808385031215610edc578182fd5b825167ffffffffffffffff80821115610ef3578384fd5b818501915085601f830112610f06578384fd5b815181811115610f1857610f186112c3565b610f26848260051b016111e3565b8181528481019250838501600783901b85018601891015610f45578687fd5b8694505b82851015610fb557608080828b031215610f61578788fd5b610f696111ba565b610f7283610e99565b815287830151610f81816112d9565b81890152604083810151610f94816112d9565b90820152606083810151908201528552600195909501949386019301610f49565b50979650505050505050565b600060208284031215610fd2578081fd5b610c4882610e99565b600060208284031215610fec578081fd5b5035919050565b60008060408385031215611005578081fd5b823591506020830135611017816112d9565b809150509250929050565b600060208284031215611033578081fd5b81356001600160e01b031981168114610c48578182fd5b6000806020838503121561105c578182fd5b823567ffffffffffffffff80821115611073578384fd5b818501915085601f830112611086578384fd5b813581811115611094578485fd5b8660208285010111156110a5578485fd5b60209290920196919550909350505050565b6000602082840312156110c8578081fd5b5051919050565b600081518084526110e781602086016020860161124b565b601f01601f19169290920160200192915050565b6000825161110d81846020870161124b565b9190910192915050565b7f416363657373436f6e74726f6c3a206163636f756e742000000000000000000081526000835161114f81601785016020880161124b565b7001034b99036b4b9b9b4b733903937b6329607d1b601791840191820152835161118081602884016020880161124b565b01602801949350505050565b8215158152604060208201526000610d3060408301846110cf565b602081526000610c4860208301846110cf565b6040516080810167ffffffffffffffff811182821017156111dd576111dd6112c3565b60405290565b604051601f8201601f1916810167ffffffffffffffff8111828210171561120c5761120c6112c3565b604052919050565b60008219821115611227576112276112ad565b500190565b6000816000190483118215151615611246576112466112ad565b500290565b60005b8381101561126657818101518382015260200161124e565b83811115611275576000848401525b50505050565b60008161128a5761128a6112ad565b506000190190565b60006000198214156112a6576112a66112ad565b5060010190565b634e487b7160e01b600052601160045260246000fd5b634e487b7160e01b600052604160045260246000fd5b6001600160a01b03811681146112ee57600080fd5b5056fea264697066735822122011be3eca340fecf65e38030ec5ab96a6d77ec34dd70d75978d6ee55fb43c851a64736f6c63430008040033",
  "linkReferences": {},
  "deployedLinkReferences": {}
}