{
  "_format": "hh-sol-artifact-1",
  "contractName": "Rewarder",
  "sourceName": "contracts/reward/Rewarder.sol",
  "abi": [
    {
      "inputs": [
        {
          "components": [
            {
              "internalType": "uint256",
              "name": "periodLength",
              "type": "uint256"
            },
            {
              "internalType": "uint256",
              "name": "washTime",
              "type": "uint256"
            },
            {
              "internalType": "contract IERC20",
              "name": "slpToken",
              "type": "address"
            },
            {
              "internalType": "contract IERC20",
              "name": "strpToken",
              "type": "address"
            },
            {
              "internalType": "address",
              "name": "stripsProxy",
              "type": "address"
            },
            {
              "internalType": "address",
              "name": "dao",
              "type": "address"
            },
            {
              "internalType": "address",
              "name": "admin",
              "type": "address"
            },
            {
              "internalType": "int256",
              "name": "rewardTotalPerSecTrader",
              "type": "int256"
            },
            {
              "internalType": "int256",
              "name": "rewardTotalPerSecStaker",
              "type": "int256"
            }
          ],
          "internalType": "struct IRewarder.InitParams",
          "name": "_params",
          "type": "tuple"
        }
      ],
      "stateMutability": "nonpayable",
      "type": "constructor"
    },
    {
      "anonymous": false,
      "inputs": [
        {
          "indexed": true,
          "internalType": "address",
          "name": "user",
          "type": "address"
        },
        {
          "indexed": false,
          "internalType": "int256",
          "name": "amount",
          "type": "int256"
        }
      ],
      "name": "StakingRewardClaimed",
      "type": "event"
    },
    {
      "anonymous": false,
      "inputs": [
        {
          "indexed": true,
          "internalType": "address",
          "name": "user",
          "type": "address"
        },
        {
          "indexed": false,
          "internalType": "int256",
          "name": "amount",
          "type": "int256"
        }
      ],
      "name": "TradingRewardClaimed",
      "type": "event"
    },
    {
      "inputs": [
        {
          "internalType": "uint256",
          "name": "",
          "type": "uint256"
        }
      ],
      "name": "accPerPeriod",
      "outputs": [
        {
          "internalType": "int256",
          "name": "",
          "type": "int256"
        }
      ],
      "stateMutability": "view",
      "type": "function"
    },
    {
      "inputs": [],
      "name": "accStakeTotal",
      "outputs": [
        {
          "internalType": "int256",
          "name": "",
          "type": "int256"
        }
      ],
      "stateMutability": "view",
      "type": "function"
    },
    {
      "inputs": [],
      "name": "accTradeTotal",
      "outputs": [
        {
          "internalType": "int256",
          "name": "",
          "type": "int256"
        }
      ],
      "stateMutability": "view",
      "type": "function"
    },
    {
      "inputs": [
        {
          "internalType": "address",
          "name": "_newAdmin",
          "type": "address"
        }
      ],
      "name": "changeAdmin",
      "outputs": [],
      "stateMutability": "nonpayable",
      "type": "function"
    },
    {
      "inputs": [
        {
          "internalType": "address",
          "name": "_newDao",
          "type": "address"
        }
      ],
      "name": "changeDao",
      "outputs": [],
      "stateMutability": "nonpayable",
      "type": "function"
    },
    {
      "inputs": [
        {
          "internalType": "address",
          "name": "_newOwner",
          "type": "address"
        }
      ],
      "name": "changeOwner",
      "outputs": [],
      "stateMutability": "nonpayable",
      "type": "function"
    },
    {
      "inputs": [
        {
          "internalType": "int256",
          "name": "_newRewardPerSec",
          "type": "int256"
        }
      ],
      "name": "changeStakingReward",
      "outputs": [],
      "stateMutability": "nonpayable",
      "type": "function"
    },
    {
      "inputs": [
        {
          "internalType": "int256",
          "name": "_newRewardPerSec",
          "type": "int256"
        }
      ],
      "name": "changeTradingReward",
      "outputs": [],
      "stateMutability": "nonpayable",
      "type": "function"
    },
    {
      "inputs": [
        {
          "internalType": "address",
          "name": "_staker",
          "type": "address"
        }
      ],
      "name": "claimStakingReward",
      "outputs": [],
      "stateMutability": "nonpayable",
      "type": "function"
    },
    {
      "inputs": [
        {
          "internalType": "address",
          "name": "_trader",
          "type": "address"
        }
      ],
      "name": "claimTradingReward",
      "outputs": [],
      "stateMutability": "nonpayable",
      "type": "function"
    },
    {
      "inputs": [],
      "name": "currentPeriod",
      "outputs": [
        {
          "internalType": "uint256",
          "name": "",
          "type": "uint256"
        }
      ],
      "stateMutability": "view",
      "type": "function"
    },
    {
      "inputs": [],
      "name": "currentStakingReward",
      "outputs": [
        {
          "internalType": "int256",
          "name": "",
          "type": "int256"
        }
      ],
      "stateMutability": "view",
      "type": "function"
    },
    {
      "inputs": [],
      "name": "currentTradingReward",
      "outputs": [
        {
          "internalType": "int256",
          "name": "",
          "type": "int256"
        }
      ],
      "stateMutability": "view",
      "type": "function"
    },
    {
      "inputs": [],
      "name": "lastStakeTime",
      "outputs": [
        {
          "internalType": "uint256",
          "name": "",
          "type": "uint256"
        }
      ],
      "stateMutability": "view",
      "type": "function"
    },
    {
      "inputs": [],
      "name": "lastTradeTime",
      "outputs": [
        {
          "internalType": "uint256",
          "name": "",
          "type": "uint256"
        }
      ],
      "stateMutability": "view",
      "type": "function"
    },
    {
      "inputs": [],
      "name": "owner",
      "outputs": [
        {
          "internalType": "address",
          "name": "",
          "type": "address"
        }
      ],
      "stateMutability": "view",
      "type": "function"
    },
    {
      "inputs": [],
      "name": "params",
      "outputs": [
        {
          "internalType": "uint256",
          "name": "periodLength",
          "type": "uint256"
        },
        {
          "internalType": "uint256",
          "name": "washTime",
          "type": "uint256"
        },
        {
          "internalType": "contract IERC20",
          "name": "slpToken",
          "type": "address"
        },
        {
          "internalType": "contract IERC20",
          "name": "strpToken",
          "type": "address"
        },
        {
          "internalType": "address",
          "name": "stripsProxy",
          "type": "address"
        },
        {
          "internalType": "address",
          "name": "dao",
          "type": "address"
        },
        {
          "internalType": "address",
          "name": "admin",
          "type": "address"
        },
        {
          "internalType": "int256",
          "name": "rewardTotalPerSecTrader",
          "type": "int256"
        },
        {
          "internalType": "int256",
          "name": "rewardTotalPerSecStaker",
          "type": "int256"
        }
      ],
      "stateMutability": "view",
      "type": "function"
    },
    {
      "inputs": [
        {
          "internalType": "address",
          "name": "_staker",
          "type": "address"
        }
      ],
      "name": "rewardStaker",
      "outputs": [],
      "stateMutability": "nonpayable",
      "type": "function"
    },
    {
      "inputs": [
        {
          "internalType": "address",
          "name": "_trader",
          "type": "address"
        },
        {
          "internalType": "int256",
          "name": "_notional",
          "type": "int256"
        }
      ],
      "name": "rewardTrader",
      "outputs": [],
      "stateMutability": "nonpayable",
      "type": "function"
    },
    {
      "inputs": [
        {
          "internalType": "address",
          "name": "",
          "type": "address"
        }
      ],
      "name": "stakers",
      "outputs": [
        {
          "internalType": "uint256",
          "name": "timeInitial",
          "type": "uint256"
        },
        {
          "internalType": "int256",
          "name": "accInitial",
          "type": "int256"
        },
        {
          "internalType": "int256",
          "name": "slp",
          "type": "int256"
        },
        {
          "internalType": "int256",
          "name": "reward",
          "type": "int256"
        }
      ],
      "stateMutability": "view",
      "type": "function"
    },
    {
      "inputs": [],
      "name": "startTime",
      "outputs": [
        {
          "internalType": "uint256",
          "name": "",
          "type": "uint256"
        }
      ],
      "stateMutability": "view",
      "type": "function"
    },
    {
      "inputs": [],
      "name": "supplyStakeTotal",
      "outputs": [
        {
          "internalType": "int256",
          "name": "",
          "type": "int256"
        }
      ],
      "stateMutability": "view",
      "type": "function"
    },
    {
      "inputs": [
        {
          "internalType": "address",
          "name": "_staker",
          "type": "address"
        }
      ],
      "name": "totalStakerReward",
      "outputs": [
        {
          "internalType": "int256",
          "name": "reward",
          "type": "int256"
        }
      ],
      "stateMutability": "view",
      "type": "function"
    },
    {
      "inputs": [],
      "name": "totalStakingRewardsClaimed",
      "outputs": [
        {
          "internalType": "int256",
          "name": "",
          "type": "int256"
        }
      ],
      "stateMutability": "view",
      "type": "function"
    },
    {
      "inputs": [
        {
          "internalType": "address",
          "name": "_trader",
          "type": "address"
        }
      ],
      "name": "totalTradeReward",
      "outputs": [
        {
          "internalType": "int256",
          "name": "reward",
          "type": "int256"
        }
      ],
      "stateMutability": "view",
      "type": "function"
    },
    {
      "inputs": [],
      "name": "totalTradingRewardsClaimed",
      "outputs": [
        {
          "internalType": "int256",
          "name": "",
          "type": "int256"
        }
      ],
      "stateMutability": "view",
      "type": "function"
    },
    {
      "inputs": [
        {
          "internalType": "address",
          "name": "",
          "type": "address"
        }
      ],
      "name": "traders",
      "outputs": [
        {
          "internalType": "bool",
          "name": "isClaimed",
          "type": "bool"
        },
        {
          "internalType": "uint256",
          "name": "lastTradeTime",
          "type": "uint256"
        },
        {
          "internalType": "uint256",
          "name": "lastPeriod",
          "type": "uint256"
        },
        {
          "internalType": "int256",
          "name": "accInitial",
          "type": "int256"
        },
        {
          "internalType": "int256",
          "name": "periodTradingVolume",
          "type": "int256"
        },
        {
          "internalType": "int256",
          "name": "reward",
          "type": "int256"
        }
      ],
      "stateMutability": "view",
      "type": "function"
    },
    {
      "inputs": [],
      "name": "tradingVolumeTotal",
      "outputs": [
        {
          "internalType": "int256",
          "name": "",
          "type": "int256"
        }
      ],
      "stateMutability": "view",
      "type": "function"
    }
  ],
  "bytecode": "0x60806040523480156200001157600080fd5b5060405162001e3f38038062001e3f833981016040819052620000349162000110565b805160015560208101516002556040810151600380546001600160a01b03199081166001600160a01b03938416179091556060830151600480548316918416919091179055608083015160058054831691841691909117905560a083015160068054831691841691909117905560c083015160078054909216921691909117905560e08101516008556101009081015160095560008054610100600160a81b03191633909202919091178155600d819055600a819055600b55620001f0565b80516001600160a01b03811681146200010b57600080fd5b919050565b6000610120828403121562000123578081fd5b6200012d620001b8565b82518152602083015160208201526200014960408401620000f3565b60408201526200015c60608401620000f3565b60608201526200016f60808401620000f3565b60808201526200018260a08401620000f3565b60a08201526200019560c08401620000f3565b60c082015260e08381015190820152610100928301519281019290925250919050565b60405161012081016001600160401b0381118282101715620001ea57634e487b7160e01b600052604160045260246000fd5b60405290565b611c3f80620002006000396000f3fe608060405234801561001057600080fd5b50600436106101c45760003560e01c806399005781116100f9578063cff0ab9611610097578063e5647b0111610071578063e5647b0114610497578063ed89bfcd146104a0578063f4506163146104a9578063fb748f47146104bc57600080fd5b8063cff0ab96146103eb578063d5eee8b61461047b578063d8826fec1461048457600080fd5b8063aa786607116100d3578063aa786607146103bd578063aaa94ee9146103c6578063be8b8ec3146103cf578063cdf775f8146103d857600080fd5b80639900578114610399578063a631fa7e146103a1578063a6f9dae1146103aa57600080fd5b806378e97925116101665780638f283970116101405780638f283970146102a85780639168ae72146102bb57806392a88fa21461031057806393e8bfeb1461038657600080fd5b806378e979251461024f5780637cd6d757146102585780638da5cb5b1461027857600080fd5b806350aee08d116101a257806350aee08d1461020d5780635446d77a1461022057806364d4db101461023357806375791c5d1461023c57600080fd5b806306040618146101c957806309ac11a6146101e557806347ff3147146101f8575b600080fd5b6101d2600c5481565b6040519081526020015b60405180910390f35b6101d26101f336600461184e565b6104c4565b61020b61020636600461184e565b610724565b005b61020b61021b36600461184e565b6108cb565b61020b61022e366004611868565b610a23565b6101d2600e5481565b61020b61024a3660046118b1565b610c8e565b6101d2600d5481565b6101d26102663660046118b1565b60146020526000908152604090205481565b6000546102909061010090046001600160a01b031681565b6040516001600160a01b0390911681526020016101dc565b61020b6102b636600461184e565b610d02565b6102f06102c936600461184e565b60166020526000908152604090208054600182015460028301546003909301549192909184565b6040805194855260208501939093529183015260608201526080016101dc565b61035761031e36600461184e565b60156020526000908152604090208054600182015460028301546003840154600485015460059095015460ff9094169492939192909186565b6040805196151587526020870195909552938501929092526060840152608083015260a082015260c0016101dc565b61020b61039436600461184e565b610d91565b6008546101d2565b6101d260135481565b61020b6103b836600461184e565b61101d565b6101d2600a5481565b6101d2600f5481565b6101d260105481565b6101d26103e636600461184e565b6110b2565b6001546002546003546004546005546006546007546008546009546104279897966001600160a01b039081169681169581169481169316919089565b60408051998a5260208a01989098526001600160a01b039687169789019790975293851660608801529184166080870152831660a086015290911660c084015260e0830152610100820152610120016101dc565b6101d260115481565b61020b61049236600461184e565b6111b6565b6101d260125481565b6101d2600b5481565b61020b6104b73660046118b1565b611243565b6009546101d2565b6001600160a01b0381166000908152601560205260408120600101548015806104ed5750601154155b156104fb5750600092915050565b600154600d546000919061050f9042611b86565b61051991906119c5565b6001600160a01b0385166000908152601560205260408120600201549192508183111561066a5750600081815260146020526040902054806105e957600060125413610585575050506001600160a01b0390921660009081526015602052604090206005015492915050565b600154600d546011546000929161059b91611b86565b6105a59190611bc9565b6001546105b29190611b86565b90506105d86012546105d26001600701546105cc856112dc565b906112f6565b9061130b565b6013546105e59190611956565b9150505b6001600160a01b038616600090815260156020526040812060030154610635906106139084611b47565b6001600160a01b038916600090815260156020526040902060040154906112f6565b6001600160a01b03881660009081526015602052604090206005015490915061065f908290611956565b979650505050505050565b60006012541361069a575050506001600160a01b0390921660009081526015602052604090206005015492915050565b6000601154426106aa9190611b86565b90506106c46012546105d26001600701546105cc856112dc565b6013546106d19190611956565b6001600160a01b0388166000908152601560205260409020600301549092506106fe906106139084611b47565b6001600160a01b03881660009081526015602052604090206005015461065f9190611956565b61072d816104c4565b6001600160a01b0382166000908152601560205260408120600501829055126107535750565b600061075f6000611329565b90508015610784576001600160a01b0382166000908152601560205260408120600401555b601354601254600012156107ca576000601154426107a29190611b86565b90506107bc6012546105d26001600701546105cc856112dc565b6107c69083611956565b9150505b6004546006546001600160a01b038581166000908152601560205260409020600501546107ff9382169290911690869061146f565b6001600160a01b0383166000818152601560209081526040918290206005015491519182527fdddb394edd2ea6e057a431accbd95b8e49e302e87340157f9e4200b98c5d638d910160405180910390a26001600160a01b038316600090815260156020526040812060050154600a80549192909161087e908490611956565b90915550506001600160a01b039092166000908152601560205260408120600381019390935542600180850191909155835460ff1916178355600c54600284015560059092019190915550565b6108d4816110b2565b6001600160a01b0382166000908152601660205260408120600301829055126108fa5750565b601054600f5460001215610940576000600e54426109189190611b86565b9050610932600f546105d26001600801546105cc856112dc565b61093c9083611956565b9150505b6004546006546001600160a01b038481166000908152601660205260409020600301546109759382169290911690859061146f565b6001600160a01b0382166000818152601660209081526040918290206003015491519182527fb3668e1a9f9a14105b3274ee9ec84ea1a75a2195afd659394bacea671e93f057910160405180910390a26001600160a01b038216600090815260166020526040812060030154600b8054919290916109f4908490611956565b90915550506001600160a01b039091166000908152601660205260408120600381019190915542815560010155565b60005460ff1615610a7b5760405162461bcd60e51b815260206004820152601f60248201527f5265656e7472616e637947756172643a207265656e7472616e742063616c6c0060448201526064015b60405180910390fd5b60008054600160ff19909116179081905561010090046001600160a01b0316331480610ab157506005546001600160a01b031633145b610af65760405162461bcd60e51b81526020600482015260166024820152754e4f545f414e5f4f574e45525f4f525f53545249505360501b6044820152606401610a72565b600d54610b075742600d556000600c555b6000610b1c610b15846114cf565b83906112f6565b6002546001600160a01b03851660009081526015602052604090206001015491925090610b499042611b86565b108015610b6f57506001600160a01b03831660009081526015602052604090205460ff16155b15610b8857610b7d81611329565b505042601155610c80565b610b91836104c4565b6001600160a01b038416600090815260156020526040812060050191909155610bb982611329565b6001600160a01b038516600090815260156020526040902060020154600c5491925014610be4575060015b8015610c0d576001600160a01b0384166000908152601560205260409020600401829055610c3e565b6001600160a01b03841660009081526015602052604081206004018054849290610c38908490611956565b90915550505b50506001600160a01b03821660009081526015602052604090204260018201819055815460ff19168255600c5460028301556013546003909201919091556011555b50506000805460ff19169055565b6007546001600160a01b03163314610cb85760405162461bcd60e51b8152600401610a7290611930565b6000600e5442610cc89190611b86565b9050610ce2600f546105d26001600801546105cc856112dc565b60106000828254610cf39190611956565b90915550505060095542600e55565b6007546001600160a01b03163314610d2c5760405162461bcd60e51b8152600401610a7290611930565b6001600160a01b038116610d6f5760405162461bcd60e51b815260206004820152600a6024820152692d22a927afa0a226a4a760b11b6044820152606401610a72565b600780546001600160a01b0319166001600160a01b0392909216919091179055565b60005460ff1615610de45760405162461bcd60e51b815260206004820152601f60248201527f5265656e7472616e637947756172643a207265656e7472616e742063616c6c006044820152606401610a72565b60008054600160ff19909116179081905561010090046001600160a01b0316331480610e1a57506005546001600160a01b031633145b610e5f5760405162461bcd60e51b81526020600482015260166024820152754e4f545f414e5f4f574e45525f4f525f53545249505360501b6044820152606401610a72565b610e68816110b2565b6001600160a01b038216600090815260166020526040812060030191909155600f541315610ed2576000600e5442610ea09190611b86565b9050610eba600f546105d26001600801546105cc856112dc565b60106000828254610ecb9190611956565b9091555050505b42600e55600354604080516318160ddd60e01b815290516001600160a01b03909216916318160ddd91600480820192602092909190829003018186803b158015610f1b57600080fd5b505afa158015610f2f573d6000803e3d6000fd5b505050506040513d601f19601f82011682018060405250810190610f5391906118c9565b600f556010546001600160a01b03828116600081815260166020526040908190206001019390935560035492516370a0823160e01b815260048101919091529116906370a082319060240160206040518083038186803b158015610fb657600080fd5b505afa158015610fca573d6000803e3d6000fd5b505050506040513d601f19601f82011682018060405250810190610fee91906118c9565b6001600160a01b039091166000908152601660205260408120600281019290925542909155805460ff19169055565b6007546001600160a01b031633146110475760405162461bcd60e51b8152600401610a7290611930565b6001600160a01b03811661108a5760405162461bcd60e51b815260206004820152600a6024820152692d22a927afa7aba722a960b11b6044820152606401610a72565b600080546001600160a01b0390921661010002610100600160a81b0319909216919091179055565b6001600160a01b0381166000908152601660205260408120546110d757506000919050565b6000600f541361110057506001600160a01b031660009081526016602052604090206003015490565b6000600e54426111109190611b86565b9050600061112c600f546105d26001600801546105cc866112dc565b6010546111399190611956565b6001600160a01b038516600090815260166020526040902060010154909150611188906111669083611b47565b6001600160a01b038616600090815260166020526040902060020154906112f6565b6001600160a01b0385166000908152601660205260409020600301546111ae9190611956565b949350505050565b6007546001600160a01b031633146111e05760405162461bcd60e51b8152600401610a7290611930565b6001600160a01b0381166112215760405162461bcd60e51b81526020600482015260086024820152675a45524f5f44414f60c01b6044820152606401610a72565b600680546001600160a01b0319166001600160a01b0392909216919091179055565b6007546001600160a01b0316331461126d5760405162461bcd60e51b8152600401610a7290611930565b60006112796000611329565b90508015801561128b57506000601254135b156112d2576000601154426112a09190611b86565b90506112ba6012546105d26001600701546105cc856112dc565b601360008282546112cb9190611956565b9091555050505b5060085542601155565b60006112f0670de0b6b3a764000083611ac4565b92915050565b600061130483836012611601565b9392505050565b6000816001141561131d5750816112f0565b61130483836012611620565b600154600d54600091829161133e9042611b86565b61134891906119c5565b9050600c548111156113d957601154156113cf57600154600d546011546000929161137291611b86565b61137c9190611bc9565b6001546113899190611b86565b90506113a36012546105d26001600701546105cc856112dc565b6013546113b09190611956565b600c546000908152601460205260408120919091556012819055601355505b600c819055600191505b6000831315611469576000601154426113f29190611b86565b905060115460001415801561140957506000601254135b156114505760006011544261141e9190611b86565b90506114386012546105d26001600701546105cc856112dc565b601360008282546114499190611956565b9091555050505b83601260008282546114629190611956565b9091555050505b50919050565b604080516001600160a01b0385811660248301528416604482015260648082018490528251808303909101815260849091019091526020810180516001600160e01b03166323b872dd60e01b1790526114c9908590611636565b50505050565b600080600160020160009054906101000a90046001600160a01b03166001600160a01b03166318160ddd6040518163ffffffff1660e01b815260040160206040518083038186803b15801561152357600080fd5b505afa158015611537573d6000803e3d6000fd5b505050506040513d601f19601f8201168201806040525081019061155b91906118c9565b90506000811361156d5761130461170d565b6003546040516370a0823160e01b81526001600160a01b0385811660048301526115ef9284929116906370a082319060240160206040518083038186803b1580156115b757600080fd5b505afa1580156115cb573d6000803e3d6000fd5b505050506040513d601f19601f820116820180604052508101906105d291906118c9565b6115f761170d565b6113049190611956565b600061160c82611727565b6116168486611ac4565b6111ae9190611997565b60008261162c83611727565b6116169086611ac4565b600061168b826040518060400160405280602081526020017f5361666545524332303a206c6f772d6c6576656c2063616c6c206661696c6564815250856001600160a01b03166117379092919063ffffffff16565b80519091501561170857808060200190518101906116a99190611891565b6117085760405162461bcd60e51b815260206004820152602a60248201527f5361666545524332303a204552433230206f7065726174696f6e20646964206e6044820152691bdd081cdd58d8d9595960b21b6064820152608401610a72565b505050565b6000611722670de0b6b3a76400006001611ac4565b905090565b60006112f060ff8316600a611a1c565b60606111ae848460008585843b6117905760405162461bcd60e51b815260206004820152601d60248201527f416464726573733a2063616c6c20746f206e6f6e2d636f6e74726163740000006044820152606401610a72565b600080866001600160a01b031685876040516117ac91906118e1565b60006040518083038185875af1925050503d80600081146117e9576040519150601f19603f3d011682016040523d82523d6000602084013e6117ee565b606091505b509150915061065f82828660608315611808575081611304565b8251156118185782518084602001fd5b8160405162461bcd60e51b8152600401610a7291906118fd565b80356001600160a01b038116811461184957600080fd5b919050565b60006020828403121561185f578081fd5b61130482611832565b6000806040838503121561187a578081fd5b61188383611832565b946020939093013593505050565b6000602082840312156118a2578081fd5b81518015158114611304578182fd5b6000602082840312156118c2578081fd5b5035919050565b6000602082840312156118da578081fd5b5051919050565b600082516118f3818460208701611b9d565b9190910192915050565b602081526000825180602084015261191c816040850160208701611b9d565b601f01601f19169190910160400192915050565b6020808252600c908201526b2727aa2fa0a72fa0a226a4a760a11b604082015260600190565b600080821280156001600160ff1b038490038513161561197857611978611bdd565b600160ff1b839003841281161561199157611991611bdd565b50500190565b6000826119a6576119a6611bf3565b600160ff1b8214600019841416156119c0576119c0611bdd565b500590565b6000826119d4576119d4611bf3565b500490565b600181815b80851115611a145781600019048211156119fa576119fa611bdd565b80851615611a0757918102915b93841c93908002906119de565b509250929050565b60006113048383600082611a32575060016112f0565b81611a3f575060006112f0565b8160018114611a555760028114611a5f57611a7b565b60019150506112f0565b60ff841115611a7057611a70611bdd565b50506001821b6112f0565b5060208310610133831016604e8410600b8410161715611a9e575081810a6112f0565b611aa883836119d9565b8060001904821115611abc57611abc611bdd565b029392505050565b60006001600160ff1b0381841382841380821686840486111615611aea57611aea611bdd565b600160ff1b84871282811687830589121615611b0857611b08611bdd565b858712925087820587128484161615611b2357611b23611bdd565b87850587128184161615611b3957611b39611bdd565b505050929093029392505050565b60008083128015600160ff1b850184121615611b6557611b65611bdd565b6001600160ff1b0384018313811615611b8057611b80611bdd565b50500390565b600082821015611b9857611b98611bdd565b500390565b60005b83811015611bb8578181015183820152602001611ba0565b838111156114c95750506000910152565b600082611bd857611bd8611bf3565b500690565b634e487b7160e01b600052601160045260246000fd5b634e487b7160e01b600052601260045260246000fdfea26469706673582212202d0f4aea296b327d89fb11f489c42ef89b4b994078a30f60bfbe7f4e03873a5164736f6c63430008040033",
  "linkReferences": {},
  "deployedLinkReferences": {}
}