{
  "_format": "hh-sol-artifact-1",
  "contractName": "Rewarder",
  "sourceName": "contracts/reward/Rewarder.sol",
  "abi": [
    {
      "inputs": [
        {
          "components": [
            {
              "internalType": "uint256",
              "name": "periodLength",
              "type": "uint256"
            },
            {
              "internalType": "uint256",
              "name": "washTime",
              "type": "uint256"
            },
            {
              "internalType": "contract IERC20",
              "name": "slpToken",
              "type": "address"
            },
            {
              "internalType": "contract IERC20",
              "name": "strpToken",
              "type": "address"
            },
            {
              "internalType": "address",
              "name": "stripsProxy",
              "type": "address"
            },
            {
              "internalType": "address",
              "name": "dao",
              "type": "address"
            },
            {
              "internalType": "address",
              "name": "admin",
              "type": "address"
            },
            {
              "internalType": "int256",
              "name": "rewardTotalPerSecTrader",
              "type": "int256"
            },
            {
              "internalType": "int256",
              "name": "rewardTotalPerSecStaker",
              "type": "int256"
            }
          ],
          "internalType": "struct IRewarder.InitParams",
          "name": "_params",
          "type": "tuple"
        }
      ],
      "stateMutability": "nonpayable",
      "type": "constructor"
    },
    {
      "anonymous": false,
      "inputs": [
        {
          "indexed": true,
          "internalType": "address",
          "name": "user",
          "type": "address"
        },
        {
          "indexed": false,
          "internalType": "int256",
          "name": "amount",
          "type": "int256"
        }
      ],
      "name": "StakingRewardClaimed",
      "type": "event"
    },
    {
      "anonymous": false,
      "inputs": [
        {
          "indexed": true,
          "internalType": "address",
          "name": "user",
          "type": "address"
        },
        {
          "indexed": false,
          "internalType": "int256",
          "name": "amount",
          "type": "int256"
        }
      ],
      "name": "TradingRewardClaimed",
      "type": "event"
    },
    {
      "inputs": [
        {
          "internalType": "uint256",
          "name": "",
          "type": "uint256"
        }
      ],
      "name": "accPerPeriod",
      "outputs": [
        {
          "internalType": "int256",
          "name": "",
          "type": "int256"
        }
      ],
      "stateMutability": "view",
      "type": "function"
    },
    {
      "inputs": [],
      "name": "accStakeTotal",
      "outputs": [
        {
          "internalType": "int256",
          "name": "",
          "type": "int256"
        }
      ],
      "stateMutability": "view",
      "type": "function"
    },
    {
      "inputs": [],
      "name": "accTradeTotal",
      "outputs": [
        {
          "internalType": "int256",
          "name": "",
          "type": "int256"
        }
      ],
      "stateMutability": "view",
      "type": "function"
    },
    {
      "inputs": [
        {
          "internalType": "address",
          "name": "_newAdmin",
          "type": "address"
        }
      ],
      "name": "changeAdmin",
      "outputs": [],
      "stateMutability": "nonpayable",
      "type": "function"
    },
    {
      "inputs": [
        {
          "internalType": "address",
          "name": "_newDao",
          "type": "address"
        }
      ],
      "name": "changeDao",
      "outputs": [],
      "stateMutability": "nonpayable",
      "type": "function"
    },
    {
      "inputs": [
        {
          "internalType": "address",
          "name": "_newOwner",
          "type": "address"
        }
      ],
      "name": "changeOwner",
      "outputs": [],
      "stateMutability": "nonpayable",
      "type": "function"
    },
    {
      "inputs": [
        {
          "internalType": "int256",
          "name": "_newRewardPerSec",
          "type": "int256"
        }
      ],
      "name": "changeStakingReward",
      "outputs": [],
      "stateMutability": "nonpayable",
      "type": "function"
    },
    {
      "inputs": [
        {
          "internalType": "int256",
          "name": "_newRewardPerSec",
          "type": "int256"
        }
      ],
      "name": "changeTradingReward",
      "outputs": [],
      "stateMutability": "nonpayable",
      "type": "function"
    },
    {
      "inputs": [
        {
          "internalType": "address",
          "name": "_staker",
          "type": "address"
        }
      ],
      "name": "claimStakingReward",
      "outputs": [],
      "stateMutability": "nonpayable",
      "type": "function"
    },
    {
      "inputs": [
        {
          "internalType": "address",
          "name": "_trader",
          "type": "address"
        }
      ],
      "name": "claimTradingReward",
      "outputs": [],
      "stateMutability": "nonpayable",
      "type": "function"
    },
    {
      "inputs": [],
      "name": "currentPeriod",
      "outputs": [
        {
          "internalType": "uint256",
          "name": "",
          "type": "uint256"
        }
      ],
      "stateMutability": "view",
      "type": "function"
    },
    {
      "inputs": [],
      "name": "currentStakingReward",
      "outputs": [
        {
          "internalType": "int256",
          "name": "",
          "type": "int256"
        }
      ],
      "stateMutability": "view",
      "type": "function"
    },
    {
      "inputs": [],
      "name": "currentTradingReward",
      "outputs": [
        {
          "internalType": "int256",
          "name": "",
          "type": "int256"
        }
      ],
      "stateMutability": "view",
      "type": "function"
    },
    {
      "inputs": [],
      "name": "lastStakeTime",
      "outputs": [
        {
          "internalType": "uint256",
          "name": "",
          "type": "uint256"
        }
      ],
      "stateMutability": "view",
      "type": "function"
    },
    {
      "inputs": [],
      "name": "lastTradeTime",
      "outputs": [
        {
          "internalType": "uint256",
          "name": "",
          "type": "uint256"
        }
      ],
      "stateMutability": "view",
      "type": "function"
    },
    {
      "inputs": [],
      "name": "owner",
      "outputs": [
        {
          "internalType": "address",
          "name": "",
          "type": "address"
        }
      ],
      "stateMutability": "view",
      "type": "function"
    },
    {
      "inputs": [],
      "name": "params",
      "outputs": [
        {
          "internalType": "uint256",
          "name": "periodLength",
          "type": "uint256"
        },
        {
          "internalType": "uint256",
          "name": "washTime",
          "type": "uint256"
        },
        {
          "internalType": "contract IERC20",
          "name": "slpToken",
          "type": "address"
        },
        {
          "internalType": "contract IERC20",
          "name": "strpToken",
          "type": "address"
        },
        {
          "internalType": "address",
          "name": "stripsProxy",
          "type": "address"
        },
        {
          "internalType": "address",
          "name": "dao",
          "type": "address"
        },
        {
          "internalType": "address",
          "name": "admin",
          "type": "address"
        },
        {
          "internalType": "int256",
          "name": "rewardTotalPerSecTrader",
          "type": "int256"
        },
        {
          "internalType": "int256",
          "name": "rewardTotalPerSecStaker",
          "type": "int256"
        }
      ],
      "stateMutability": "view",
      "type": "function"
    },
    {
      "inputs": [
        {
          "internalType": "address",
          "name": "_staker",
          "type": "address"
        }
      ],
      "name": "rewardStaker",
      "outputs": [],
      "stateMutability": "nonpayable",
      "type": "function"
    },
    {
      "inputs": [
        {
          "internalType": "address",
          "name": "_trader",
          "type": "address"
        },
        {
          "internalType": "int256",
          "name": "_notional",
          "type": "int256"
        }
      ],
      "name": "rewardTrader",
      "outputs": [],
      "stateMutability": "nonpayable",
      "type": "function"
    },
    {
      "inputs": [
        {
          "internalType": "address",
          "name": "",
          "type": "address"
        }
      ],
      "name": "stakers",
      "outputs": [
        {
          "internalType": "uint256",
          "name": "timeInitial",
          "type": "uint256"
        },
        {
          "internalType": "int256",
          "name": "accInitial",
          "type": "int256"
        },
        {
          "internalType": "int256",
          "name": "slp",
          "type": "int256"
        },
        {
          "internalType": "int256",
          "name": "reward",
          "type": "int256"
        }
      ],
      "stateMutability": "view",
      "type": "function"
    },
    {
      "inputs": [],
      "name": "startTime",
      "outputs": [
        {
          "internalType": "uint256",
          "name": "",
          "type": "uint256"
        }
      ],
      "stateMutability": "view",
      "type": "function"
    },
    {
      "inputs": [],
      "name": "supplyStakeTotal",
      "outputs": [
        {
          "internalType": "int256",
          "name": "",
          "type": "int256"
        }
      ],
      "stateMutability": "view",
      "type": "function"
    },
    {
      "inputs": [
        {
          "internalType": "address",
          "name": "_staker",
          "type": "address"
        }
      ],
      "name": "totalStakerReward",
      "outputs": [
        {
          "internalType": "int256",
          "name": "reward",
          "type": "int256"
        }
      ],
      "stateMutability": "view",
      "type": "function"
    },
    {
      "inputs": [],
      "name": "totalStakingRewardsClaimed",
      "outputs": [
        {
          "internalType": "int256",
          "name": "",
          "type": "int256"
        }
      ],
      "stateMutability": "view",
      "type": "function"
    },
    {
      "inputs": [
        {
          "internalType": "address",
          "name": "_trader",
          "type": "address"
        }
      ],
      "name": "totalTradeReward",
      "outputs": [
        {
          "internalType": "int256",
          "name": "reward",
          "type": "int256"
        }
      ],
      "stateMutability": "view",
      "type": "function"
    },
    {
      "inputs": [],
      "name": "totalTradingRewardsClaimed",
      "outputs": [
        {
          "internalType": "int256",
          "name": "",
          "type": "int256"
        }
      ],
      "stateMutability": "view",
      "type": "function"
    },
    {
      "inputs": [
        {
          "internalType": "address",
          "name": "",
          "type": "address"
        }
      ],
      "name": "traders",
      "outputs": [
        {
          "internalType": "bool",
          "name": "isClaimed",
          "type": "bool"
        },
        {
          "internalType": "uint256",
          "name": "lastTradeTime",
          "type": "uint256"
        },
        {
          "internalType": "uint256",
          "name": "lastPeriod",
          "type": "uint256"
        },
        {
          "internalType": "int256",
          "name": "accInitial",
          "type": "int256"
        },
        {
          "internalType": "int256",
          "name": "periodTradingVolume",
          "type": "int256"
        },
        {
          "internalType": "int256",
          "name": "reward",
          "type": "int256"
        }
      ],
      "stateMutability": "view",
      "type": "function"
    },
    {
      "inputs": [],
      "name": "tradingVolumeTotal",
      "outputs": [
        {
          "internalType": "int256",
          "name": "",
          "type": "int256"
        }
      ],
      "stateMutability": "view",
      "type": "function"
    }
  ],
  "bytecode": "0x60806040523480156200001157600080fd5b5060405162003e2b38038062003e2b833981810160405281019062000037919062000376565b806001600082015181600001556020820151816001015560408201518160020160006101000a81548173ffffffffffffffffffffffffffffffffffffffff021916908373ffffffffffffffffffffffffffffffffffffffff16021790555060608201518160030160006101000a81548173ffffffffffffffffffffffffffffffffffffffff021916908373ffffffffffffffffffffffffffffffffffffffff16021790555060808201518160040160006101000a81548173ffffffffffffffffffffffffffffffffffffffff021916908373ffffffffffffffffffffffffffffffffffffffff16021790555060a08201518160050160006101000a81548173ffffffffffffffffffffffffffffffffffffffff021916908373ffffffffffffffffffffffffffffffffffffffff16021790555060c08201518160060160006101000a81548173ffffffffffffffffffffffffffffffffffffffff021916908373ffffffffffffffffffffffffffffffffffffffff16021790555060e08201518160070155610100820151816008015590505033600060016101000a81548173ffffffffffffffffffffffffffffffffffffffff021916908373ffffffffffffffffffffffffffffffffffffffff1602179055506000600d819055506000600a819055506000600b819055505062000506565b6000815190506200023a816200049e565b92915050565b6000815190506200025181620004b8565b92915050565b6000815190506200026881620004d2565b92915050565b600061012082840312156200028257600080fd5b6200028f610120620003a3565b90506000620002a1848285016200035f565b6000830152506020620002b7848285016200035f565b6020830152506040620002cd8482850162000240565b6040830152506060620002e38482850162000240565b6060830152506080620002f98482850162000229565b60808301525060a06200030f8482850162000229565b60a08301525060c0620003258482850162000229565b60c08301525060e06200033b8482850162000257565b60e083015250610100620003528482850162000257565b6101008301525092915050565b6000815190506200037081620004ec565b92915050565b600061012082840312156200038a57600080fd5b60006200039a848285016200026e565b91505092915050565b6000620003af620003c2565b9050620003bd828262000428565b919050565b6000604051905090565b6000620003d982620003fe565b9050919050565b6000620003ed82620003cc565b9050919050565b6000819050919050565b600073ffffffffffffffffffffffffffffffffffffffff82169050919050565b6000819050919050565b62000433826200048d565b810181811067ffffffffffffffff821117156200045557620004546200045e565b5b80604052505050565b7f4e487b7100000000000000000000000000000000000000000000000000000000600052604160045260246000fd5b6000601f19601f8301169050919050565b620004a981620003cc565b8114620004b557600080fd5b50565b620004c381620003e0565b8114620004cf57600080fd5b50565b620004dd81620003f4565b8114620004e957600080fd5b50565b620004f7816200041e565b81146200050357600080fd5b50565b61391580620005166000396000f3fe608060405234801561001057600080fd5b50600436106101c45760003560e01c806399005781116100f9578063cff0ab9611610097578063e5647b0111610071578063e5647b01146104f3578063ed89bfcd14610511578063f45061631461052f578063fb748f471461054b576101c4565b8063cff0ab9614610493578063d5eee8b6146104b9578063d8826fec146104d7576101c4565b8063aa786607116100d3578063aa78660714610409578063aaa94ee914610427578063be8b8ec314610445578063cdf775f814610463576101c4565b806399005781146103b1578063a631fa7e146103cf578063a6f9dae1146103ed576101c4565b806378e97925116101665780638f283970116101405780638f283970146103115780639168ae721461032d57806392a88fa21461036057806393e8bfeb14610395576101c4565b806378e97925146102a55780637cd6d757146102c35780638da5cb5b146102f3576101c4565b806350aee08d116101a257806350aee08d146102335780635446d77a1461024f57806364d4db101461026b57806375791c5d14610289576101c4565b806306040618146101c957806309ac11a6146101e757806347ff314714610217575b600080fd5b6101d1610569565b6040516101de9190612fd2565b60405180910390f35b61020160048036038101906101fc9190612ab2565b61056f565b60405161020e9190612e75565b60405180910390f35b610231600480360381019061022c9190612ab2565b61095d565b005b61024d60048036038101906102489190612ab2565b610dc2565b005b61026960048036038101906102649190612adb565b611125565b005b61027361163b565b6040516102809190612fd2565b60405180910390f35b6102a3600480360381019061029e9190612b40565b611641565b005b6102ad6116e1565b6040516102ba9190612fd2565b60405180910390f35b6102dd60048036038101906102d89190612b69565b6116e7565b6040516102ea9190612e75565b60405180910390f35b6102fb6116ff565b6040516103089190612dc2565b60405180910390f35b61032b60048036038101906103269190612ab2565b611725565b005b61034760048036038101906103429190612ab2565b61186f565b6040516103579493929190612fed565b60405180910390f35b61037a60048036038101906103759190612ab2565b61189f565b60405161038c96959493929190612e14565b60405180910390f35b6103af60048036038101906103aa9190612ab2565b6118e8565b005b6103b9611d35565b6040516103c69190612e75565b60405180910390f35b6103d7611d42565b6040516103e49190612e75565b60405180910390f35b61040760048036038101906104029190612ab2565b611d48565b005b610411611e8f565b60405161041e9190612e75565b60405180910390f35b61042f611e95565b60405161043c9190612e75565b60405180910390f35b61044d611e9b565b60405161045a9190612e75565b60405180910390f35b61047d60048036038101906104789190612ab2565b611ea1565b60405161048a9190612e75565b60405180910390f35b61049b612083565b6040516104b099989796959493929190613032565b60405180910390f35b6104c161215f565b6040516104ce9190612fd2565b60405180910390f35b6104f160048036038101906104ec9190612ab2565b612165565b005b6104fb6122af565b6040516105089190612e75565b60405180910390f35b6105196122b5565b6040516105269190612e75565b60405180910390f35b61054960048036038101906105449190612b40565b6122bb565b005b61055361235b565b6040516105609190612e75565b60405180910390f35b600c5481565b600080601560008473ffffffffffffffffffffffffffffffffffffffff1673ffffffffffffffffffffffffffffffffffffffff16815260200190815260200160002060010154905060008114806105c857506000601154145b156105d7576000915050610958565b6000600160000154600d54426105ed919061353c565b6105f791906131ef565b90506000601560008673ffffffffffffffffffffffffffffffffffffffff1673ffffffffffffffffffffffffffffffffffffffff1681526020019081526020016000206002015490506000818311156107cb576014600083815260200190815260200160002054905060008114156106cb576000600160000154600d54601154610681919061353c565b61068b9190613619565b60016000015461069b919061353c565b90506106ba6012546106ac83612368565b61238590919063ffffffff16565b6013546106c791906130f1565b9150505b600061076f601560008973ffffffffffffffffffffffffffffffffffffffff1673ffffffffffffffffffffffffffffffffffffffff168152602001908152602001600020600301548361071e91906134a8565b601560008a73ffffffffffffffffffffffffffffffffffffffff1673ffffffffffffffffffffffffffffffffffffffff168152602001908152602001600020600401546123ad90919063ffffffff16565b905080601560008973ffffffffffffffffffffffffffffffffffffffff1673ffffffffffffffffffffffffffffffffffffffff168152602001908152602001600020600501546107bf91906130f1565b95505050505050610958565b60006012541361082357601560008773ffffffffffffffffffffffffffffffffffffffff1673ffffffffffffffffffffffffffffffffffffffff16815260200190815260200160002060050154945050505050610958565b600060115442610833919061353c565b905061085260125461084483612368565b61238590919063ffffffff16565b60135461085f91906130f1565b9150610903601560008973ffffffffffffffffffffffffffffffffffffffff1673ffffffffffffffffffffffffffffffffffffffff16815260200190815260200160002060030154836108b291906134a8565b601560008a73ffffffffffffffffffffffffffffffffffffffff1673ffffffffffffffffffffffffffffffffffffffff168152602001908152602001600020600401546123ad90919063ffffffff16565b601560008973ffffffffffffffffffffffffffffffffffffffff1673ffffffffffffffffffffffffffffffffffffffff1681526020019081526020016000206005015461095091906130f1565b955050505050505b919050565b61097d60016007015461096f8361056f565b6123ad90919063ffffffff16565b601560008373ffffffffffffffffffffffffffffffffffffffff1673ffffffffffffffffffffffffffffffffffffffff168152602001908152602001600020600501819055506000601560008373ffffffffffffffffffffffffffffffffffffffff1673ffffffffffffffffffffffffffffffffffffffff1681526020019081526020016000206005015413610a1257610dbf565b6000610a1e60006123c3565b90508015610a6f576000601560008473ffffffffffffffffffffffffffffffffffffffff1673ffffffffffffffffffffffffffffffffffffffff168152602001908152602001600020600401819055505b6000601354905060006012541315610abf57600060115442610a91919061353c565b9050610ab0601254610aa283612368565b61238590919063ffffffff16565b82610abb91906130f1565b9150505b610b57600160030160009054906101000a900473ffffffffffffffffffffffffffffffffffffffff16600160050160009054906101000a900473ffffffffffffffffffffffffffffffffffffffff1685601560008873ffffffffffffffffffffffffffffffffffffffff1673ffffffffffffffffffffffffffffffffffffffff1681526020019081526020016000206005015461252f565b8273ffffffffffffffffffffffffffffffffffffffff167fdddb394edd2ea6e057a431accbd95b8e49e302e87340157f9e4200b98c5d638d601560008673ffffffffffffffffffffffffffffffffffffffff1673ffffffffffffffffffffffffffffffffffffffff16815260200190815260200160002060050154604051610bdf9190612e75565b60405180910390a2601560008473ffffffffffffffffffffffffffffffffffffffff1673ffffffffffffffffffffffffffffffffffffffff16815260200190815260200160002060050154600a6000828254610c3b91906130f1565b9250508190555080601560008573ffffffffffffffffffffffffffffffffffffffff1673ffffffffffffffffffffffffffffffffffffffff1681526020019081526020016000206003018190555042601560008573ffffffffffffffffffffffffffffffffffffffff1673ffffffffffffffffffffffffffffffffffffffff168152602001908152602001600020600101819055506001601560008573ffffffffffffffffffffffffffffffffffffffff1673ffffffffffffffffffffffffffffffffffffffff16815260200190815260200160002060000160006101000a81548160ff021916908315150217905550600c54601560008573ffffffffffffffffffffffffffffffffffffffff1673ffffffffffffffffffffffffffffffffffffffff168152602001908152602001600020600201819055506000601560008573ffffffffffffffffffffffffffffffffffffffff1673ffffffffffffffffffffffffffffffffffffffff1681526020019081526020016000206005018190555050505b50565b610de2600160080154610dd483611ea1565b6123ad90919063ffffffff16565b601660008373ffffffffffffffffffffffffffffffffffffffff1673ffffffffffffffffffffffffffffffffffffffff168152602001908152602001600020600301819055506000601660008373ffffffffffffffffffffffffffffffffffffffff1673ffffffffffffffffffffffffffffffffffffffff1681526020019081526020016000206003015413610e7757611122565b600060105490506000600f541315610ec7576000600e5442610e99919061353c565b9050610eb8600f54610eaa83612368565b61238590919063ffffffff16565b82610ec391906130f1565b9150505b610f5f600160030160009054906101000a900473ffffffffffffffffffffffffffffffffffffffff16600160050160009054906101000a900473ffffffffffffffffffffffffffffffffffffffff1684601660008773ffffffffffffffffffffffffffffffffffffffff1673ffffffffffffffffffffffffffffffffffffffff1681526020019081526020016000206003015461252f565b8173ffffffffffffffffffffffffffffffffffffffff167fb3668e1a9f9a14105b3274ee9ec84ea1a75a2195afd659394bacea671e93f057601660008573ffffffffffffffffffffffffffffffffffffffff1673ffffffffffffffffffffffffffffffffffffffff16815260200190815260200160002060030154604051610fe79190612e75565b60405180910390a2601660008373ffffffffffffffffffffffffffffffffffffffff1673ffffffffffffffffffffffffffffffffffffffff16815260200190815260200160002060030154600b600082825461104391906130f1565b925050819055506000601660008473ffffffffffffffffffffffffffffffffffffffff1673ffffffffffffffffffffffffffffffffffffffff1681526020019081526020016000206003018190555042601660008473ffffffffffffffffffffffffffffffffffffffff1673ffffffffffffffffffffffffffffffffffffffff1681526020019081526020016000206000018190555080601660008473ffffffffffffffffffffffffffffffffffffffff1673ffffffffffffffffffffffffffffffffffffffff16815260200190815260200160002060010181905550505b50565b6000151560008054906101000a900460ff16151514611179576040517f08c379a000000000000000000000000000000000000000000000000000000000815260040161117090612fb2565b60405180910390fd5b60016000806101000a81548160ff021916908315150217905550600060019054906101000a900473ffffffffffffffffffffffffffffffffffffffff1673ffffffffffffffffffffffffffffffffffffffff163373ffffffffffffffffffffffffffffffffffffffff16148061123f5750600160040160009054906101000a900473ffffffffffffffffffffffffffffffffffffffff1673ffffffffffffffffffffffffffffffffffffffff163373ffffffffffffffffffffffffffffffffffffffff16145b61127e576040517f08c379a000000000000000000000000000000000000000000000000000000000815260040161127590612f12565b60405180910390fd5b6000600d5414156112995742600d819055506000600c819055505b60006112b66112a7846125b8565b836123ad90919063ffffffff16565b90506001800154601560008573ffffffffffffffffffffffffffffffffffffffff1673ffffffffffffffffffffffffffffffffffffffff168152602001908152602001600020600101544261130b919061353c565b10801561136b575060001515601560008573ffffffffffffffffffffffffffffffffffffffff1673ffffffffffffffffffffffffffffffffffffffff16815260200190815260200160002060000160009054906101000a900460ff161515145b1561138757611379816123c3565b50426011819055505061161d565b6113908361056f565b601560008573ffffffffffffffffffffffffffffffffffffffff1673ffffffffffffffffffffffffffffffffffffffff1681526020019081526020016000206005018190555060006113e1826123c3565b9050601560008573ffffffffffffffffffffffffffffffffffffffff1673ffffffffffffffffffffffffffffffffffffffff16815260200190815260200160002060020154600c541461143357600190505b80156114855781601560008673ffffffffffffffffffffffffffffffffffffffff1673ffffffffffffffffffffffffffffffffffffffff168152602001908152602001600020600401819055506114df565b81601560008673ffffffffffffffffffffffffffffffffffffffff1673ffffffffffffffffffffffffffffffffffffffff16815260200190815260200160002060040160008282546114d791906130f1565b925050819055505b42601560008673ffffffffffffffffffffffffffffffffffffffff1673ffffffffffffffffffffffffffffffffffffffff168152602001908152602001600020600101819055506000601560008673ffffffffffffffffffffffffffffffffffffffff1673ffffffffffffffffffffffffffffffffffffffff16815260200190815260200160002060000160006101000a81548160ff021916908315150217905550600c54601560008673ffffffffffffffffffffffffffffffffffffffff1673ffffffffffffffffffffffffffffffffffffffff16815260200190815260200160002060020181905550601354601560008673ffffffffffffffffffffffffffffffffffffffff1673ffffffffffffffffffffffffffffffffffffffff168152602001908152602001600020600301819055504260118190555050505b60008060006101000a81548160ff0219169083151502179055505050565b600e5481565b600160060160009054906101000a900473ffffffffffffffffffffffffffffffffffffffff1673ffffffffffffffffffffffffffffffffffffffff163373ffffffffffffffffffffffffffffffffffffffff16146116d4576040517f08c379a00000000000000000000000000000000000000000000000000000000081526004016116cb90612f92565b60405180910390fd5b8060016008018190555050565b600d5481565b60146020528060005260406000206000915090505481565b600060019054906101000a900473ffffffffffffffffffffffffffffffffffffffff1681565b600160060160009054906101000a900473ffffffffffffffffffffffffffffffffffffffff1673ffffffffffffffffffffffffffffffffffffffff163373ffffffffffffffffffffffffffffffffffffffff16146117b8576040517f08c379a00000000000000000000000000000000000000000000000000000000081526004016117af90612f92565b60405180910390fd5b600073ffffffffffffffffffffffffffffffffffffffff168173ffffffffffffffffffffffffffffffffffffffff161415611828576040517f08c379a000000000000000000000000000000000000000000000000000000000815260040161181f90612ed2565b60405180910390fd5b80600160060160006101000a81548173ffffffffffffffffffffffffffffffffffffffff021916908373ffffffffffffffffffffffffffffffffffffffff16021790555050565b60166020528060005260406000206000915090508060000154908060010154908060020154908060030154905084565b60156020528060005260406000206000915090508060000160009054906101000a900460ff16908060010154908060020154908060030154908060040154908060050154905086565b6000151560008054906101000a900460ff1615151461193c576040517f08c379a000000000000000000000000000000000000000000000000000000000815260040161193390612fb2565b60405180910390fd5b60016000806101000a81548160ff021916908315150217905550600060019054906101000a900473ffffffffffffffffffffffffffffffffffffffff1673ffffffffffffffffffffffffffffffffffffffff163373ffffffffffffffffffffffffffffffffffffffff161480611a025750600160040160009054906101000a900473ffffffffffffffffffffffffffffffffffffffff1673ffffffffffffffffffffffffffffffffffffffff163373ffffffffffffffffffffffffffffffffffffffff16145b611a41576040517f08c379a0000000000000000000000000000000000000000000000000000000008152600401611a3890612f12565b60405180910390fd5b611a4a81611ea1565b601660008373ffffffffffffffffffffffffffffffffffffffff1673ffffffffffffffffffffffffffffffffffffffff168152602001908152602001600020600301819055506000600f541315611ae4576000600e5442611aab919061353c565b9050611aca600f54611abc83612368565b61238590919063ffffffff16565b60106000828254611adb91906130f1565b92505081905550505b42600e81905550600160020160009054906101000a900473ffffffffffffffffffffffffffffffffffffffff1673ffffffffffffffffffffffffffffffffffffffff166318160ddd6040518163ffffffff1660e01b815260040160206040518083038186803b158015611b5657600080fd5b505afa158015611b6a573d6000803e3d6000fd5b505050506040513d601f19601f82011682018060405250810190611b8e9190612b92565b600f81905550601054601660008373ffffffffffffffffffffffffffffffffffffffff1673ffffffffffffffffffffffffffffffffffffffff16815260200190815260200160002060010181905550600160020160009054906101000a900473ffffffffffffffffffffffffffffffffffffffff1673ffffffffffffffffffffffffffffffffffffffff166370a08231826040518263ffffffff1660e01b8152600401611c3b9190612dc2565b60206040518083038186803b158015611c5357600080fd5b505afa158015611c67573d6000803e3d6000fd5b505050506040513d601f19601f82011682018060405250810190611c8b9190612b92565b601660008373ffffffffffffffffffffffffffffffffffffffff1673ffffffffffffffffffffffffffffffffffffffff1681526020019081526020016000206002018190555042601660008373ffffffffffffffffffffffffffffffffffffffff1673ffffffffffffffffffffffffffffffffffffffff1681526020019081526020016000206000018190555060008060006101000a81548160ff02191690831515021790555050565b6000600160070154905090565b60135481565b600160060160009054906101000a900473ffffffffffffffffffffffffffffffffffffffff1673ffffffffffffffffffffffffffffffffffffffff163373ffffffffffffffffffffffffffffffffffffffff1614611ddb576040517f08c379a0000000000000000000000000000000000000000000000000000000008152600401611dd290612f92565b60405180910390fd5b600073ffffffffffffffffffffffffffffffffffffffff168173ffffffffffffffffffffffffffffffffffffffff161415611e4b576040517f08c379a0000000000000000000000000000000000000000000000000000000008152600401611e4290612f32565b60405180910390fd5b80600060016101000a81548173ffffffffffffffffffffffffffffffffffffffff021916908373ffffffffffffffffffffffffffffffffffffffff16021790555050565b600a5481565b600f5481565b60105481565b600080601660008473ffffffffffffffffffffffffffffffffffffffff1673ffffffffffffffffffffffffffffffffffffffff168152602001908152602001600020600001541415611ef6576000905061207e565b6000600f5413611f4a57601660008373ffffffffffffffffffffffffffffffffffffffff1673ffffffffffffffffffffffffffffffffffffffff16815260200190815260200160002060030154905061207e565b6000600e5442611f5a919061353c565b90506000611f7b600f54611f6d84612368565b61238590919063ffffffff16565b601054611f8891906130f1565b905061202c601660008673ffffffffffffffffffffffffffffffffffffffff1673ffffffffffffffffffffffffffffffffffffffff1681526020019081526020016000206001015482611fdb91906134a8565b601660008773ffffffffffffffffffffffffffffffffffffffff1673ffffffffffffffffffffffffffffffffffffffff168152602001908152602001600020600201546123ad90919063ffffffff16565b601660008673ffffffffffffffffffffffffffffffffffffffff1673ffffffffffffffffffffffffffffffffffffffff1681526020019081526020016000206003015461207991906130f1565b925050505b919050565b60018060000154908060010154908060020160009054906101000a900473ffffffffffffffffffffffffffffffffffffffff16908060030160009054906101000a900473ffffffffffffffffffffffffffffffffffffffff16908060040160009054906101000a900473ffffffffffffffffffffffffffffffffffffffff16908060050160009054906101000a900473ffffffffffffffffffffffffffffffffffffffff16908060060160009054906101000a900473ffffffffffffffffffffffffffffffffffffffff16908060070154908060080154905089565b60115481565b600160060160009054906101000a900473ffffffffffffffffffffffffffffffffffffffff1673ffffffffffffffffffffffffffffffffffffffff163373ffffffffffffffffffffffffffffffffffffffff16146121f8576040517f08c379a00000000000000000000000000000000000000000000000000000000081526004016121ef90612f92565b60405180910390fd5b600073ffffffffffffffffffffffffffffffffffffffff168173ffffffffffffffffffffffffffffffffffffffff161415612268576040517f08c379a000000000000000000000000000000000000000000000000000000000815260040161225f90612eb2565b60405180910390fd5b80600160050160006101000a81548173ffffffffffffffffffffffffffffffffffffffff021916908373ffffffffffffffffffffffffffffffffffffffff16021790555050565b60125481565b600b5481565b600160060160009054906101000a900473ffffffffffffffffffffffffffffffffffffffff1673ffffffffffffffffffffffffffffffffffffffff163373ffffffffffffffffffffffffffffffffffffffff161461234e576040517f08c379a000000000000000000000000000000000000000000000000000000000815260040161234590612f92565b60405180910390fd5b8060016007018190555050565b6000600160080154905090565b6000670de0b6b3a76400008261237e9190613391565b9050919050565b60006001821415612398578290506123a7565b6123a483836012612753565b90505b92915050565b60006123bb8383601261277d565b905092915050565b600080600160000154600d54426123da919061353c565b6123e491906131ef565b9050600c5481111561248f57600060115414612483576000600160000154600d54601154612412919061353c565b61241c9190613619565b60016000015461242c919061353c565b905061244b60125461243d83612368565b61238590919063ffffffff16565b60135461245891906130f1565b60146000600c5481526020019081526020016000208190555060006012819055506000601381905550505b6001915080600c819055505b6000831315612529576000601154426124a8919061353c565b90506000601154141580156124c05750600060125414155b1561250e576000601154426124d5919061353c565b90506124f46012546124e683612368565b61238590919063ffffffff16565b6013600082825461250591906130f1565b92505081905550505b836012600082825461252091906130f1565b92505081905550505b50919050565b6125b2846323b872dd60e01b85858560405160240161255093929190612ddd565b604051602081830303815290604052907bffffffffffffffffffffffffffffffffffffffffffffffffffffffff19166020820180517bffffffffffffffffffffffffffffffffffffffffffffffffffffffff83818316178352505050506127a7565b50505050565b600080600160020160009054906101000a900473ffffffffffffffffffffffffffffffffffffffff1673ffffffffffffffffffffffffffffffffffffffff166318160ddd6040518163ffffffff1660e01b815260040160206040518083038186803b15801561262657600080fd5b505afa15801561263a573d6000803e3d6000fd5b505050506040513d601f19601f8201168201806040525081019061265e9190612b92565b9050600081136126785761267061286e565b91505061274e565b61273881600160020160009054906101000a900473ffffffffffffffffffffffffffffffffffffffff1673ffffffffffffffffffffffffffffffffffffffff166370a08231866040518263ffffffff1660e01b81526004016126da9190612dc2565b60206040518083038186803b1580156126f257600080fd5b505afa158015612706573d6000803e3d6000fd5b505050506040513d601f19601f8201168201806040525081019061272a9190612b92565b61238590919063ffffffff16565b61274061286e565b61274a91906130f1565b9150505b919050565b60008261275f8361288a565b8561276a9190613391565b6127749190613185565b90509392505050565b60006127888261288a565b83856127949190613391565b61279e9190613185565b90509392505050565b6000612809826040518060400160405280602081526020017f5361666545524332303a206c6f772d6c6576656c2063616c6c206661696c65648152508573ffffffffffffffffffffffffffffffffffffffff166128a39092919063ffffffff16565b905060008151111561286957808060200190518101906128299190612b17565b612868576040517f08c379a000000000000000000000000000000000000000000000000000000000815260040161285f90612f72565b60405180910390fd5b5b505050565b6000670de0b6b3a764000060016128859190613391565b905090565b60008160ff16600a61289c9190613273565b9050919050565b60606128b284846000856128bb565b90509392505050565b606082471015612900576040517f08c379a00000000000000000000000000000000000000000000000000000000081526004016128f790612ef2565b60405180910390fd5b612909856129cf565b612948576040517f08c379a000000000000000000000000000000000000000000000000000000000815260040161293f90612f52565b60405180910390fd5b6000808673ffffffffffffffffffffffffffffffffffffffff1685876040516129719190612dab565b60006040518083038185875af1925050503d80600081146129ae576040519150601f19603f3d011682016040523d82523d6000602084013e6129b3565b606091505b50915091506129c38282866129e2565b92505050949350505050565b600080823b905060008111915050919050565b606083156129f257829050612a42565b600083511115612a055782518084602001fd5b816040517f08c379a0000000000000000000000000000000000000000000000000000000008152600401612a399190612e90565b60405180910390fd5b9392505050565b600081359050612a5881613883565b92915050565b600081519050612a6d8161389a565b92915050565b600081359050612a82816138b1565b92915050565b600081359050612a97816138c8565b92915050565b600081519050612aac816138c8565b92915050565b600060208284031215612ac457600080fd5b6000612ad284828501612a49565b91505092915050565b60008060408385031215612aee57600080fd5b6000612afc85828601612a49565b9250506020612b0d85828601612a73565b9150509250929050565b600060208284031215612b2957600080fd5b6000612b3784828501612a5e565b91505092915050565b600060208284031215612b5257600080fd5b6000612b6084828501612a73565b91505092915050565b600060208284031215612b7b57600080fd5b6000612b8984828501612a88565b91505092915050565b600060208284031215612ba457600080fd5b6000612bb284828501612a9d565b91505092915050565b612bc481613570565b82525050565b612bd381613582565b82525050565b6000612be4826130bf565b612bee81856130d5565b9350612bfe8185602086016135e6565b80840191505092915050565b612c13816135c2565b82525050565b612c228161358e565b82525050565b6000612c33826130ca565b612c3d81856130e0565b9350612c4d8185602086016135e6565b612c56816136a8565b840191505092915050565b6000612c6e6008836130e0565b9150612c79826136c6565b602082019050919050565b6000612c91600a836130e0565b9150612c9c826136ef565b602082019050919050565b6000612cb46026836130e0565b9150612cbf82613718565b604082019050919050565b6000612cd76016836130e0565b9150612ce282613767565b602082019050919050565b6000612cfa600a836130e0565b9150612d0582613790565b602082019050919050565b6000612d1d601d836130e0565b9150612d28826137b9565b602082019050919050565b6000612d40602a836130e0565b9150612d4b826137e2565b604082019050919050565b6000612d63600c836130e0565b9150612d6e82613831565b602082019050919050565b6000612d86601f836130e0565b9150612d918261385a565b602082019050919050565b612da5816135b8565b82525050565b6000612db78284612bd9565b915081905092915050565b6000602082019050612dd76000830184612bbb565b92915050565b6000606082019050612df26000830186612bbb565b612dff6020830185612bbb565b612e0c6040830184612d9c565b949350505050565b600060c082019050612e296000830189612bca565b612e366020830188612d9c565b612e436040830187612d9c565b612e506060830186612c19565b612e5d6080830185612c19565b612e6a60a0830184612c19565b979650505050505050565b6000602082019050612e8a6000830184612c19565b92915050565b60006020820190508181036000830152612eaa8184612c28565b905092915050565b60006020820190508181036000830152612ecb81612c61565b9050919050565b60006020820190508181036000830152612eeb81612c84565b9050919050565b60006020820190508181036000830152612f0b81612ca7565b9050919050565b60006020820190508181036000830152612f2b81612cca565b9050919050565b60006020820190508181036000830152612f4b81612ced565b9050919050565b60006020820190508181036000830152612f6b81612d10565b9050919050565b60006020820190508181036000830152612f8b81612d33565b9050919050565b60006020820190508181036000830152612fab81612d56565b9050919050565b60006020820190508181036000830152612fcb81612d79565b9050919050565b6000602082019050612fe76000830184612d9c565b92915050565b60006080820190506130026000830187612d9c565b61300f6020830186612c19565b61301c6040830185612c19565b6130296060830184612c19565b95945050505050565b600061012082019050613048600083018c612d9c565b613055602083018b612d9c565b613062604083018a612c0a565b61306f6060830189612c0a565b61307c6080830188612bbb565b61308960a0830187612bbb565b61309660c0830186612bbb565b6130a360e0830185612c19565b6130b1610100830184612c19565b9a9950505050505050505050565b600081519050919050565b600081519050919050565b600081905092915050565b600082825260208201905092915050565b60006130fc8261358e565b91506131078361358e565b9250817f7fffffffffffffffffffffffffffffffffffffffffffffffffffffffffffffff038313600083121516156131425761314161364a565b5b817f800000000000000000000000000000000000000000000000000000000000000003831260008312161561317a5761317961364a565b5b828201905092915050565b60006131908261358e565b915061319b8361358e565b9250826131ab576131aa613679565b5b600160000383147f8000000000000000000000000000000000000000000000000000000000000000831416156131e4576131e361364a565b5b828205905092915050565b60006131fa826135b8565b9150613205836135b8565b92508261321557613214613679565b5b828204905092915050565b6000808291508390505b600185111561326a578086048111156132465761324561364a565b5b60018516156132555780820291505b8081029050613263856136b9565b945061322a565b94509492505050565b600061327e826135b8565b9150613289836135b8565b92506132b67fffffffffffffffffffffffffffffffffffffffffffffffffffffffffffffffff84846132be565b905092915050565b6000826132ce576001905061338a565b816132dc576000905061338a565b81600181146132f257600281146132fc5761332b565b600191505061338a565b60ff84111561330e5761330d61364a565b5b8360020a9150848211156133255761332461364a565b5b5061338a565b5060208310610133831016604e8410600b84101617156133605782820a90508381111561335b5761335a61364a565b5b61338a565b61336d8484846001613220565b925090508184048111156133845761338361364a565b5b81810290505b9392505050565b600061339c8261358e565b91506133a78361358e565b9250827f7fffffffffffffffffffffffffffffffffffffffffffffffffffffffffffffff04821160008413600084131616156133e6576133e561364a565b5b817f800000000000000000000000000000000000000000000000000000000000000005831260008412600084131616156134235761342261364a565b5b827f800000000000000000000000000000000000000000000000000000000000000005821260008413600084121616156134605761345f61364a565b5b827f7fffffffffffffffffffffffffffffffffffffffffffffffffffffffffffffff058212600084126000841216161561349d5761349c61364a565b5b828202905092915050565b60006134b38261358e565b91506134be8361358e565b9250827f8000000000000000000000000000000000000000000000000000000000000000018212600084121516156134f9576134f861364a565b5b827f7fffffffffffffffffffffffffffffffffffffffffffffffffffffffffffffff0182136000841216156135315761353061364a565b5b828203905092915050565b6000613547826135b8565b9150613552836135b8565b9250828210156135655761356461364a565b5b828203905092915050565b600061357b82613598565b9050919050565b60008115159050919050565b6000819050919050565b600073ffffffffffffffffffffffffffffffffffffffff82169050919050565b6000819050919050565b60006135cd826135d4565b9050919050565b60006135df82613598565b9050919050565b60005b838110156136045780820151818401526020810190506135e9565b83811115613613576000848401525b50505050565b6000613624826135b8565b915061362f836135b8565b92508261363f5761363e613679565b5b828206905092915050565b7f4e487b7100000000000000000000000000000000000000000000000000000000600052601160045260246000fd5b7f4e487b7100000000000000000000000000000000000000000000000000000000600052601260045260246000fd5b6000601f19601f8301169050919050565b60008160011c9050919050565b7f5a45524f5f44414f000000000000000000000000000000000000000000000000600082015250565b7f5a45524f5f41444d494e00000000000000000000000000000000000000000000600082015250565b7f416464726573733a20696e73756666696369656e742062616c616e636520666f60008201527f722063616c6c0000000000000000000000000000000000000000000000000000602082015250565b7f4e4f545f414e5f4f574e45525f4f525f53545249505300000000000000000000600082015250565b7f5a45524f5f4f574e455200000000000000000000000000000000000000000000600082015250565b7f416464726573733a2063616c6c20746f206e6f6e2d636f6e7472616374000000600082015250565b7f5361666545524332303a204552433230206f7065726174696f6e20646964206e60008201527f6f74207375636365656400000000000000000000000000000000000000000000602082015250565b7f4e4f545f414e5f41444d494e0000000000000000000000000000000000000000600082015250565b7f5265656e7472616e637947756172643a207265656e7472616e742063616c6c00600082015250565b61388c81613570565b811461389757600080fd5b50565b6138a381613582565b81146138ae57600080fd5b50565b6138ba8161358e565b81146138c557600080fd5b50565b6138d1816135b8565b81146138dc57600080fd5b5056fea26469706673582212202c4f28628350d89e682136da8ee3e35de08cb6683203a8896ca203dd84a75a4964736f6c63430008040033",
  "linkReferences": {},
  "deployedLinkReferences": {}
}