{
  "_format": "hh-sol-artifact-1",
  "contractName": "SLPToken",
  "sourceName": "contracts/token/SLPToken.sol",
  "abi": [
    {
      "inputs": [
        {
          "components": [
            {
              "internalType": "address",
              "name": "stripsProxy",
              "type": "address"
            },
            {
              "internalType": "address",
              "name": "pairOracle",
              "type": "address"
            },
            {
              "internalType": "address",
              "name": "tradingToken",
              "type": "address"
            },
            {
              "internalType": "address",
              "name": "stakingToken",
              "type": "address"
            },
            {
              "internalType": "int256",
              "name": "penaltyPeriod",
              "type": "int256"
            },
            {
              "internalType": "int256",
              "name": "penaltyFee",
              "type": "int256"
            }
          ],
          "internalType": "struct IStripsLpToken.TokenParams",
          "name": "_params",
          "type": "tuple"
        },
        {
          "internalType": "string",
          "name": "_name",
          "type": "string"
        },
        {
          "internalType": "string",
          "name": "_symbol",
          "type": "string"
        }
      ],
      "stateMutability": "nonpayable",
      "type": "constructor"
    },
    {
      "anonymous": false,
      "inputs": [
        {
          "indexed": true,
          "internalType": "address",
          "name": "owner",
          "type": "address"
        },
        {
          "indexed": true,
          "internalType": "address",
          "name": "spender",
          "type": "address"
        },
        {
          "indexed": false,
          "internalType": "uint256",
          "name": "value",
          "type": "uint256"
        }
      ],
      "name": "Approval",
      "type": "event"
    },
    {
      "anonymous": false,
      "inputs": [
        {
          "indexed": true,
          "internalType": "address",
          "name": "previousOwner",
          "type": "address"
        },
        {
          "indexed": true,
          "internalType": "address",
          "name": "newOwner",
          "type": "address"
        }
      ],
      "name": "OwnershipTransferred",
      "type": "event"
    },
    {
      "anonymous": false,
      "inputs": [
        {
          "indexed": true,
          "internalType": "address",
          "name": "from",
          "type": "address"
        },
        {
          "indexed": true,
          "internalType": "address",
          "name": "to",
          "type": "address"
        },
        {
          "indexed": false,
          "internalType": "uint256",
          "name": "value",
          "type": "uint256"
        }
      ],
      "name": "Transfer",
      "type": "event"
    },
    {
      "inputs": [],
      "name": "accumulatePnl",
      "outputs": [],
      "stateMutability": "nonpayable",
      "type": "function"
    },
    {
      "inputs": [
        {
          "internalType": "address",
          "name": "owner",
          "type": "address"
        },
        {
          "internalType": "address",
          "name": "spender",
          "type": "address"
        }
      ],
      "name": "allowance",
      "outputs": [
        {
          "internalType": "uint256",
          "name": "",
          "type": "uint256"
        }
      ],
      "stateMutability": "view",
      "type": "function"
    },
    {
      "inputs": [
        {
          "internalType": "address",
          "name": "spender",
          "type": "address"
        },
        {
          "internalType": "uint256",
          "name": "amount",
          "type": "uint256"
        }
      ],
      "name": "approve",
      "outputs": [
        {
          "internalType": "bool",
          "name": "",
          "type": "bool"
        }
      ],
      "stateMutability": "nonpayable",
      "type": "function"
    },
    {
      "inputs": [
        {
          "internalType": "address",
          "name": "account",
          "type": "address"
        }
      ],
      "name": "balanceOf",
      "outputs": [
        {
          "internalType": "uint256",
          "name": "",
          "type": "uint256"
        }
      ],
      "stateMutability": "view",
      "type": "function"
    },
    {
      "inputs": [
        {
          "internalType": "address",
          "name": "staker",
          "type": "address"
        },
        {
          "internalType": "uint256",
          "name": "amount",
          "type": "uint256"
        }
      ],
      "name": "burn",
      "outputs": [],
      "stateMutability": "nonpayable",
      "type": "function"
    },
    {
      "inputs": [
        {
          "internalType": "address",
          "name": "staker",
          "type": "address"
        }
      ],
      "name": "calcFeeLeft",
      "outputs": [
        {
          "internalType": "int256",
          "name": "feeShare",
          "type": "int256"
        },
        {
          "internalType": "int256",
          "name": "periodLeft",
          "type": "int256"
        }
      ],
      "stateMutability": "view",
      "type": "function"
    },
    {
      "inputs": [
        {
          "internalType": "address",
          "name": "staker",
          "type": "address"
        },
        {
          "internalType": "uint256",
          "name": "amount",
          "type": "uint256"
        }
      ],
      "name": "calcProfit",
      "outputs": [
        {
          "components": [
            {
              "internalType": "int256",
              "name": "unstakeAmountLP",
              "type": "int256"
            },
            {
              "internalType": "int256",
              "name": "unstakeAmountERC20",
              "type": "int256"
            },
            {
              "internalType": "int256",
              "name": "stakingProfit",
              "type": "int256"
            },
            {
              "internalType": "int256",
              "name": "stakingFee",
              "type": "int256"
            },
            {
              "internalType": "int256",
              "name": "penaltyLeft",
              "type": "int256"
            },
            {
              "internalType": "uint256",
              "name": "totalStaked",
              "type": "uint256"
            },
            {
              "internalType": "int256",
              "name": "lpPrice",
              "type": "int256"
            },
            {
              "internalType": "int256",
              "name": "lpProfit",
              "type": "int256"
            },
            {
              "internalType": "int256",
              "name": "usdcLoss",
              "type": "int256"
            }
          ],
          "internalType": "struct IStripsLpToken.ProfitParams",
          "name": "profit",
          "type": "tuple"
        }
      ],
      "stateMutability": "view",
      "type": "function"
    },
    {
      "inputs": [
        {
          "internalType": "address",
          "name": "staker",
          "type": "address"
        },
        {
          "internalType": "uint256",
          "name": "amount",
          "type": "uint256"
        }
      ],
      "name": "canUnstake",
      "outputs": [],
      "stateMutability": "view",
      "type": "function"
    },
    {
      "inputs": [
        {
          "internalType": "int256",
          "name": "amount",
          "type": "int256"
        }
      ],
      "name": "changeStakingPnl",
      "outputs": [],
      "stateMutability": "nonpayable",
      "type": "function"
    },
    {
      "inputs": [
        {
          "internalType": "int256",
          "name": "amount",
          "type": "int256"
        }
      ],
      "name": "changeTradingPnl",
      "outputs": [],
      "stateMutability": "nonpayable",
      "type": "function"
    },
    {
      "inputs": [],
      "name": "checkOwnership",
      "outputs": [
        {
          "internalType": "address",
          "name": "",
          "type": "address"
        }
      ],
      "stateMutability": "view",
      "type": "function"
    },
    {
      "inputs": [
        {
          "internalType": "address",
          "name": "staker",
          "type": "address"
        },
        {
          "internalType": "uint256",
          "name": "amount",
          "type": "uint256"
        }
      ],
      "name": "claimProfit",
      "outputs": [
        {
          "internalType": "int256",
          "name": "stakingProfit",
          "type": "int256"
        },
        {
          "internalType": "int256",
          "name": "tradingProfit",
          "type": "int256"
        }
      ],
      "stateMutability": "nonpayable",
      "type": "function"
    },
    {
      "inputs": [],
      "name": "cumStakingPNL",
      "outputs": [
        {
          "internalType": "int256",
          "name": "",
          "type": "int256"
        }
      ],
      "stateMutability": "view",
      "type": "function"
    },
    {
      "inputs": [],
      "name": "cumTradingPNL",
      "outputs": [
        {
          "internalType": "int256",
          "name": "",
          "type": "int256"
        }
      ],
      "stateMutability": "view",
      "type": "function"
    },
    {
      "inputs": [],
      "name": "cummulativeStakingPnl",
      "outputs": [
        {
          "internalType": "int256",
          "name": "",
          "type": "int256"
        }
      ],
      "stateMutability": "view",
      "type": "function"
    },
    {
      "inputs": [],
      "name": "cummulativeTradingPnl",
      "outputs": [
        {
          "internalType": "int256",
          "name": "",
          "type": "int256"
        }
      ],
      "stateMutability": "view",
      "type": "function"
    },
    {
      "inputs": [],
      "name": "decimals",
      "outputs": [
        {
          "internalType": "uint8",
          "name": "",
          "type": "uint8"
        }
      ],
      "stateMutability": "view",
      "type": "function"
    },
    {
      "inputs": [
        {
          "internalType": "address",
          "name": "spender",
          "type": "address"
        },
        {
          "internalType": "uint256",
          "name": "subtractedValue",
          "type": "uint256"
        }
      ],
      "name": "decreaseAllowance",
      "outputs": [
        {
          "internalType": "bool",
          "name": "",
          "type": "bool"
        }
      ],
      "stateMutability": "nonpayable",
      "type": "function"
    },
    {
      "inputs": [],
      "name": "getBurnableToken",
      "outputs": [
        {
          "internalType": "address",
          "name": "",
          "type": "address"
        }
      ],
      "stateMutability": "view",
      "type": "function"
    },
    {
      "inputs": [],
      "name": "getPairPrice",
      "outputs": [
        {
          "internalType": "int256",
          "name": "",
          "type": "int256"
        }
      ],
      "stateMutability": "view",
      "type": "function"
    },
    {
      "inputs": [],
      "name": "getParams",
      "outputs": [
        {
          "components": [
            {
              "internalType": "address",
              "name": "stripsProxy",
              "type": "address"
            },
            {
              "internalType": "address",
              "name": "pairOracle",
              "type": "address"
            },
            {
              "internalType": "address",
              "name": "tradingToken",
              "type": "address"
            },
            {
              "internalType": "address",
              "name": "stakingToken",
              "type": "address"
            },
            {
              "internalType": "int256",
              "name": "penaltyPeriod",
              "type": "int256"
            },
            {
              "internalType": "int256",
              "name": "penaltyFee",
              "type": "int256"
            }
          ],
          "internalType": "struct IStripsLpToken.TokenParams",
          "name": "",
          "type": "tuple"
        }
      ],
      "stateMutability": "view",
      "type": "function"
    },
    {
      "inputs": [
        {
          "internalType": "address",
          "name": "spender",
          "type": "address"
        },
        {
          "internalType": "uint256",
          "name": "addedValue",
          "type": "uint256"
        }
      ],
      "name": "increaseAllowance",
      "outputs": [
        {
          "internalType": "bool",
          "name": "",
          "type": "bool"
        }
      ],
      "stateMutability": "nonpayable",
      "type": "function"
    },
    {
      "inputs": [
        {
          "internalType": "address",
          "name": "staker",
          "type": "address"
        },
        {
          "internalType": "uint256",
          "name": "amount",
          "type": "uint256"
        }
      ],
      "name": "mint",
      "outputs": [],
      "stateMutability": "nonpayable",
      "type": "function"
    },
    {
      "inputs": [],
      "name": "name",
      "outputs": [
        {
          "internalType": "string",
          "name": "",
          "type": "string"
        }
      ],
      "stateMutability": "view",
      "type": "function"
    },
    {
      "inputs": [],
      "name": "owner",
      "outputs": [
        {
          "internalType": "address",
          "name": "",
          "type": "address"
        }
      ],
      "stateMutability": "view",
      "type": "function"
    },
    {
      "inputs": [],
      "name": "prevStakingPnl",
      "outputs": [
        {
          "internalType": "int256",
          "name": "",
          "type": "int256"
        }
      ],
      "stateMutability": "view",
      "type": "function"
    },
    {
      "inputs": [],
      "name": "prevTradingPnl",
      "outputs": [
        {
          "internalType": "int256",
          "name": "",
          "type": "int256"
        }
      ],
      "stateMutability": "view",
      "type": "function"
    },
    {
      "inputs": [],
      "name": "renounceOwnership",
      "outputs": [],
      "stateMutability": "nonpayable",
      "type": "function"
    },
    {
      "inputs": [
        {
          "internalType": "address",
          "name": "staker",
          "type": "address"
        }
      ],
      "name": "saveProfit",
      "outputs": [],
      "stateMutability": "nonpayable",
      "type": "function"
    },
    {
      "inputs": [
        {
          "components": [
            {
              "internalType": "address",
              "name": "stripsProxy",
              "type": "address"
            },
            {
              "internalType": "address",
              "name": "pairOracle",
              "type": "address"
            },
            {
              "internalType": "address",
              "name": "tradingToken",
              "type": "address"
            },
            {
              "internalType": "address",
              "name": "stakingToken",
              "type": "address"
            },
            {
              "internalType": "int256",
              "name": "penaltyPeriod",
              "type": "int256"
            },
            {
              "internalType": "int256",
              "name": "penaltyFee",
              "type": "int256"
            }
          ],
          "internalType": "struct IStripsLpToken.TokenParams",
          "name": "_params",
          "type": "tuple"
        }
      ],
      "name": "setParams",
      "outputs": [],
      "stateMutability": "nonpayable",
      "type": "function"
    },
    {
      "inputs": [
        {
          "internalType": "int256",
          "name": "_fee",
          "type": "int256"
        }
      ],
      "name": "setPenaltyFee",
      "outputs": [],
      "stateMutability": "nonpayable",
      "type": "function"
    },
    {
      "inputs": [
        {
          "internalType": "address",
          "name": "",
          "type": "address"
        }
      ],
      "name": "stakers",
      "outputs": [
        {
          "internalType": "bool",
          "name": "exist",
          "type": "bool"
        },
        {
          "internalType": "int256",
          "name": "initialStakingPnl",
          "type": "int256"
        },
        {
          "internalType": "int256",
          "name": "initialTradingPnl",
          "type": "int256"
        },
        {
          "internalType": "uint256",
          "name": "initialBlockNum",
          "type": "uint256"
        },
        {
          "internalType": "uint256",
          "name": "initialTimeStamp",
          "type": "uint256"
        },
        {
          "internalType": "int256",
          "name": "unrealizedStakingProfit",
          "type": "int256"
        },
        {
          "internalType": "int256",
          "name": "unrealizedTradingProfit",
          "type": "int256"
        }
      ],
      "stateMutability": "view",
      "type": "function"
    },
    {
      "inputs": [],
      "name": "stakingPnl",
      "outputs": [
        {
          "internalType": "int256",
          "name": "current",
          "type": "int256"
        },
        {
          "internalType": "int256",
          "name": "cummulative",
          "type": "int256"
        }
      ],
      "stateMutability": "view",
      "type": "function"
    },
    {
      "inputs": [],
      "name": "symbol",
      "outputs": [
        {
          "internalType": "string",
          "name": "",
          "type": "string"
        }
      ],
      "stateMutability": "view",
      "type": "function"
    },
    {
      "inputs": [],
      "name": "totalPnl",
      "outputs": [
        {
          "internalType": "int256",
          "name": "usdcTotal",
          "type": "int256"
        },
        {
          "internalType": "int256",
          "name": "lpTotal",
          "type": "int256"
        }
      ],
      "stateMutability": "view",
      "type": "function"
    },
    {
      "inputs": [],
      "name": "totalSupply",
      "outputs": [
        {
          "internalType": "uint256",
          "name": "",
          "type": "uint256"
        }
      ],
      "stateMutability": "view",
      "type": "function"
    },
    {
      "inputs": [],
      "name": "tradingPnl",
      "outputs": [
        {
          "internalType": "int256",
          "name": "current",
          "type": "int256"
        },
        {
          "internalType": "int256",
          "name": "cummulative",
          "type": "int256"
        }
      ],
      "stateMutability": "view",
      "type": "function"
    },
    {
      "inputs": [
        {
          "internalType": "address",
          "name": "recipient",
          "type": "address"
        },
        {
          "internalType": "uint256",
          "name": "amount",
          "type": "uint256"
        }
      ],
      "name": "transfer",
      "outputs": [
        {
          "internalType": "bool",
          "name": "",
          "type": "bool"
        }
      ],
      "stateMutability": "nonpayable",
      "type": "function"
    },
    {
      "inputs": [
        {
          "internalType": "address",
          "name": "sender",
          "type": "address"
        },
        {
          "internalType": "address",
          "name": "recipient",
          "type": "address"
        },
        {
          "internalType": "uint256",
          "name": "amount",
          "type": "uint256"
        }
      ],
      "name": "transferFrom",
      "outputs": [
        {
          "internalType": "bool",
          "name": "",
          "type": "bool"
        }
      ],
      "stateMutability": "nonpayable",
      "type": "function"
    },
    {
      "inputs": [
        {
          "internalType": "address",
          "name": "newOwner",
          "type": "address"
        }
      ],
      "name": "transferOwnership",
      "outputs": [],
      "stateMutability": "nonpayable",
      "type": "function"
    }
  ],
  "bytecode": "0x60806040523480156200001157600080fd5b506040516200298838038062002988833981016040819052620000349162000290565b8151829082906200004d9060039060208501906200013c565b508051620000639060049060208401906200013c565b50506001600555506200007633620000ea565b50508051600d80546001600160a01b039283166001600160a01b0319918216179091556020830151600e80549184169183169190911790556040830151600f8054918416918316919091179055606083015160108054919093169116179055608081015160115560a0015160125562000425565b600680546001600160a01b038381166001600160a01b0319831681179093556040519116919082907f8be0079c531659141344cd1fd0a4f28419497f9722a3daafe3b4186f6b6457e090600090a35050565b8280546200014a90620003d2565b90600052602060002090601f0160209004810192826200016e5760008555620001b9565b82601f106200018957805160ff1916838001178555620001b9565b82800160010185558215620001b9579182015b82811115620001b95782518255916020019190600101906200019c565b50620001c7929150620001cb565b5090565b5b80821115620001c75760008155600101620001cc565b80516001600160a01b0381168114620001fa57600080fd5b919050565b600082601f83011262000210578081fd5b81516001600160401b038111156200022c576200022c6200040f565b602062000242601f8301601f191682016200039f565b828152858284870101111562000256578384fd5b835b838110156200027557858101830151828201840152820162000258565b838111156200028657848385840101525b5095945050505050565b6000806000838503610100811215620002a7578384fd5b60c0811215620002b5578384fd5b50620002c062000374565b620002cb85620001e2565b8152620002db60208601620001e2565b6020820152620002ee60408601620001e2565b60408201526200030160608601620001e2565b60608201526080858101519082015260a0808601519082015260c08501519093506001600160401b038082111562000337578384fd5b6200034587838801620001ff565b935060e08601519150808211156200035b578283fd5b506200036a86828701620001ff565b9150509250925092565b60405160c081016001600160401b03811182821017156200039957620003996200040f565b60405290565b604051601f8201601f191681016001600160401b0381118282101715620003ca57620003ca6200040f565b604052919050565b600181811c90821680620003e757607f821691505b602082108114156200040957634e487b7160e01b600052602260045260246000fd5b50919050565b634e487b7160e01b600052604160045260246000fd5b61255380620004356000396000f3fe608060405234801561001057600080fd5b50600436106102485760003560e01c80638da5cb5b1161013b578063c89a8c54116100b8578063ef69819e1161007c578063ef69819e14610688578063f0588acc14610690578063f23ae99614610698578063f2fde38b146106a0578063fa9405bd146106b357600080fd5b8063c89a8c5414610617578063ce44ec7014610620578063dd62ed3e14610629578063e71acffe14610662578063ed45f39d1461067557600080fd5b8063a097fffd116100ff578063a097fffd146105ba578063a09ec42d146105cd578063a457c2d7146105de578063a9059cbb146105f1578063badf44d91461060457600080fd5b80638da5cb5b146104ff5780638e8ed341146105105780639168ae721461051957806395d89b411461059f5780639dc29fac146105a757600080fd5b806339509351116101c95780635e615a6b1161018d5780635e615a6b146103d75780636a40acf2146104b45780636e94857d146104c757806370a08231146104e4578063715018a6146104f757600080fd5b8063395093511461038157806340c10f191461039457806342ac3379146103a9578063534ca4b7146103b15780635e598d12146103c457600080fd5b806318160ddd1161021057806318160ddd1461032e578063219a1d771461033657806323b872dd146103565780632583a78714610369578063313ce5671461037257600080fd5b8063018812e01461024d578063018e15c8146102d657806306fdde03146102ed578063095ea7b3146103025780630d52435614610325575b600080fd5b61026061025b3660046120d7565b6106c6565b6040516102cd9190600061012082019050825182526020830151602083015260408301516040830152606083015160608301526080830151608083015260a083015160a083015260c083015160c083015260e083015160e083015261010080840151818401525092915050565b60405180910390f35b6102df60095481565b6040519081526020016102cd565b6102f56109f4565b6040516102cd91906121cf565b6103156103103660046120d7565b610a86565b60405190151581526020016102cd565b6102df60075481565b6002546102df565b61033e610a9d565b6040516001600160a01b0390911681526020016102cd565b61031561036436600461209c565b610adf565b6102df600b5481565b604051601281526020016102cd565b61031561038f3660046120d7565b610aff565b6103a76103a23660046120d7565b610b3b565b005b6102df610c15565b6103a76103bf366004612100565b610c92565b6103a76103d23660046120d7565b610cfe565b61045b6040805160c081018252600080825260208201819052918101829052606081018290526080810182905260a0810191909152506040805160c081018252600d546001600160a01b039081168252600e5481166020830152600f548116928201929092526010549091166060820152601154608082015260125460a082015290565b6040516102cd919081516001600160a01b039081168252602080840151821690830152604080840151821690830152606080840151909116908201526080808301519082015260a0918201519181019190915260c00190565b6103a76104c2366004612050565b610e11565b6104cf610f10565b604080519283526020830191909152016102cd565b6102df6104f2366004612050565b611012565b6103a761102d565b6006546001600160a01b031661033e565b6102df600a5481565b610568610527366004612050565b601360205260009081526040902080546001820154600283015460038401546004850154600586015460069096015460ff9095169593949293919290919087565b6040805197151588526020880196909652948601939093526060850191909152608084015260a083015260c082015260e0016102cd565b6102f5611063565b6103a76105b53660046120d7565b611072565b6103a76105c8366004612130565b6111c5565b6010546001600160a01b031661033e565b6103156105ec3660046120d7565b61125d565b6103156105ff3660046120d7565b6112f6565b6103a7610612366004612100565b611314565b6102df60085481565b6102df600c5481565b6102df61063736600461206a565b6001600160a01b03918216600090815260016020908152604080832093909416825291909152205490565b6103a7610670366004612100565b611358565b6104cf6106833660046120d7565b611394565b6103a7611454565b6104cf6114a5565b6104cf611562565b6103a76106ae366004612050565b6115cf565b6104cf6106c1366004612050565b61166a565b6107156040518061012001604052806000815260200160008152602001600081526020016000815260200160008152602001600081526020016000815260200160008152602001600081525090565b61071e83611012565b60a0820152811580159061073657508060a001518211155b6107765760405162461bcd60e51b815260206004820152600c60248201526b15d493d391d7d05353d5539560a21b60448201526064015b60405180910390fd5b6107be60405180610100016040528060008152602001600081526020016000815260200160008152602001600081526020016000815260200160008152602001600081525090565b8281526107c9611562565b608083015260608201526107db610f10565b60a080840191909152604083019190915282015181516107fa916116f8565b60c082019081526001600160a01b038516600090815260136020526040902060050154905161082891611716565b6001600160a01b038516600090815260136020526040902060010154608083015161085e9161085691612460565b835190611716565b6108689190612257565b6040808401919091526001600160a01b03851660009081526013602052206006015460c082015161089891611716565b6001600160a01b03851660009081526013602052604090206002015460a08301516108c69161085691612460565b6108d09190612257565b60208301526108de8461166a565b608084015260e0820181905281516108f591611716565b606083018190526040830151825161090d9190612257565b6109179190612460565b8252600e5460408051634c6afee560e11b815290516001600160a01b03909216916398d5fdca91600480820192602092909190829003018186803b15801561095e57600080fd5b505afa158015610972573d6000803e3d6000fd5b505050506040513d601f19601f820116820180604052508101906109969190612118565b60c08301526020820151600013156109ed576020820151610100830181905260c08301516109c491906116f8565b6109d0906000196123dd565b60e0830181905282516109e39190612460565b8252600060208301525b5092915050565b606060038054610a03906124b6565b80601f0160208091040260200160405190810160405280929190818152602001828054610a2f906124b6565b8015610a7c5780601f10610a5157610100808354040283529160200191610a7c565b820191906000526020600020905b815481529060010190602001808311610a5f57829003601f168201915b5050505050905090565b6000610a93338484611724565b5060015b92915050565b6006546000906001600160a01b03163314610aca5760405162461bcd60e51b815260040161076d90612222565b506006546001600160a01b031690565b905090565b6000610aec848484611848565b610af7848484611ad6565b949350505050565b3360008181526001602090815260408083206001600160a01b03871684529091528120549091610a93918590610b36908690612298565b611724565b6006546001600160a01b03163314610b655760405162461bcd60e51b815260040161076d90612222565b6040805160e08101825260018082526009546020808401918252600a54848601908152436060860190815242608087019081526001600160a01b038a166000818152601380875299812060058101805460a08c0190815260068301805460c08e01908152959094529b9097529851895460ff191690151517895595519688019690965591516002870155516003860155516004909401939093559251909155519055610c118282611b80565b5050565b600e5460408051634c6afee560e11b815290516000926001600160a01b0316916398d5fdca916004808301926020929190829003018186803b158015610c5a57600080fd5b505afa158015610c6e573d6000803e3d6000fd5b505050506040513d601f19601f82011682018060405250810190610ada9190612118565b6006546001600160a01b03163314610cbc5760405162461bcd60e51b815260040161076d90612222565b6000811215610cf95760405162461bcd60e51b815260206004820152600960248201526857524f4e475f46454560b81b604482015260640161076d565b601255565b6001600160a01b03821660009081526013602052604090205460ff16610d575760405162461bcd60e51b815260206004820152600e60248201526d2727afa9aaa1a42fa9aa20a5a2a960911b604482015260640161076d565b6001600160a01b0382166000908152601360205260409020600301544311610db65760405162461bcd60e51b8152602060048201526012602482015271554e5354414b455f53414d455f424c4f434b60701b604482015260640161076d565b600081118015610dce575080610dcb83611012565b10155b610c115760405162461bcd60e51b815260206004820152601460248201527315d493d391d7d55394d51052d157d05353d5539560621b604482015260640161076d565b6006546001600160a01b03163314610e3b5760405162461bcd60e51b815260040161076d90612222565b6000610e4682611012565b6001600160a01b038316600090815260136020526040902060010154600954919250610e7d918391610e7791612460565b90611716565b6001600160a01b03831660009081526013602052604081206005018054909190610ea8908490612257565b90915550506001600160a01b038216600090815260136020526040902060020154600a54610edc918391610e779190612460565b6001600160a01b03831660009081526013602052604081206006018054909190610f07908490612257565b90915550505050565b6000806000610f276006546001600160a01b031690565b90506000610f3460025490565b600d5460405163192be89360e21b81526001600160a01b038581166004830152929350600092909116906364afa24c9060240160206040518083038186803b158015610f7f57600080fd5b505afa158015610f93573d6000803e3d6000fd5b505050506040513d601f19601f82011682018060405250810190610fb79190612118565b9050600b5481610fc79190612257565b945081610fe35784600a54610fdc9190612257565b935061100b565b610ffb8260085487610ff59190612460565b906116f8565b600a546110089190612257565b93505b5050509091565b6001600160a01b031660009081526020819052604090205490565b6006546001600160a01b031633146110575760405162461bcd60e51b815260040161076d90612222565b6110616000611c5f565b565b606060048054610a03906124b6565b6006546001600160a01b0316331461109c5760405162461bcd60e51b815260040161076d90612222565b60006110b16110aa84611012565b83906116f8565b6001600160a01b0384166000908152601360205260409020600501549091506110da9082611716565b6001600160a01b03841660009081526013602052604081206005018054909190611105908490612460565b90915550506001600160a01b0383166000908152601360205260409020600601546111309082611716565b6001600160a01b0384166000908152601360205260408120600601805490919061115b908490612460565b9091555061116b90508383611cb1565b61117483611012565b6111c0576001600160a01b0383166000908152601360205260408120805460ff191681556001810182905560028101829055600381018290556004810182905560058101829055600601555b505050565b6006546001600160a01b031633146111ef5760405162461bcd60e51b815260040161076d90612222565b8051600d80546001600160a01b039283166001600160a01b0319918216179091556020830151600e80549184169183169190911790556040830151600f8054918416918316919091179055606083015160108054919093169116179055608081015160115560a00151601255565b3360009081526001602090815260408083206001600160a01b0386168452909152812054828110156112df5760405162461bcd60e51b815260206004820152602560248201527f45524332303a2064656372656173656420616c6c6f77616e63652062656c6f77604482015264207a65726f60d81b606482015260840161076d565b6112ec3385858403611724565b5060019392505050565b6000611303338484611848565b61130d8383611dff565b9392505050565b6006546001600160a01b0316331461133e5760405162461bcd60e51b815260040161076d90612222565b80600c60008282546113509190612257565b909155505050565b6006546001600160a01b031633146113825760405162461bcd60e51b815260040161076d90612222565b80600b60008282546113509190612257565b600080336001600160a01b03166113b36006546001600160a01b031690565b6001600160a01b0316146113d95760405162461bcd60e51b815260040161076d90612222565b60006113e585856106c6565b9050600081606001511315611401576114018160600151611314565b60008160e00151131561141b5761141b8160e00151611314565b6000816101000151121561143757611437816101000151611358565b6114418585611072565b8051602090910151909590945092505050565b6006546001600160a01b0316331461147e5760405162461bcd60e51b815260040161076d90612222565b600080611489611562565b6009556007819055915061149b610f10565b600a556008555050565b600d54600090819081906001600160a01b03166364afa24c6114cf6006546001600160a01b031690565b6040516001600160e01b031960e084901b1681526001600160a01b03909116600482015260240160206040518083038186803b15801561150e57600080fd5b505afa158015611522573d6000803e3d6000fd5b505050506040513d601f19601f820116820180604052508101906115469190612118565b9050600b54816115569190612257565b9250600c549150509091565b60008060006115796006546001600160a01b031690565b9050600061158660025490565b600c5494509050806115a757836009546115a09190612257565b92506115c9565b6115b98160075486610ff59190612460565b6009546115c69190612257565b92505b50509091565b6006546001600160a01b031633146115f95760405162461bcd60e51b815260040161076d90612222565b6001600160a01b03811661165e5760405162461bcd60e51b815260206004820152602660248201527f4f776e61626c653a206e6577206f776e657220697320746865207a65726f206160448201526564647265737360d01b606482015260840161076d565b61166781611c5f565b50565b6001600160a01b03811660009081526013602052604081206004015481908190611694904261249f565b60115490915081126116ac5750600093849350915050565b6116d26116b882611e0c565b610e776116c9600d60040154611e0c565b601254906116f8565b6012546116df9190612460565b6011549093506116f0908290612460565b915050915091565b6000816001141561170a575081610a97565b61130d83836012611e20565b600061130d83836012611e40565b6001600160a01b0383166117865760405162461bcd60e51b8152602060048201526024808201527f45524332303a20617070726f76652066726f6d20746865207a65726f206164646044820152637265737360e01b606482015260840161076d565b6001600160a01b0382166117e75760405162461bcd60e51b815260206004820152602260248201527f45524332303a20617070726f766520746f20746865207a65726f206164647265604482015261737360f01b606482015260840161076d565b6001600160a01b0383811660008181526001602090815260408083209487168084529482529182902085905590518481527f8c5be1e5ebec7d5bd14f71427d1e84f3dd0314c0f7b2291e5b200ac8c7c3b925910160405180910390a3505050565b6001600160a01b03831660009081526013602052604090205460ff166118a35760405162461bcd60e51b815260206004820152601060248201526f14d51052d15497d393d517d193d5539160821b604482015260640161076d565b6001600160a01b03821660009081526013602052604090205460ff16156119015760405162461bcd60e51b81526020600482015260126024820152714d455247455f4e4f545f504f535349424c4560701b604482015260640161076d565b600061190c84611012565b61191690836122de565b6001600160a01b03858116600081815260136020526040808220938816825281208354815460ff191660ff909116151517815560018085015490820155600280850154908201556003808501549082015560048085015490820155600580850180549183019190915560069485015494909101939093559081529054919250906119a090836123dd565b6001600160a01b038616600090815260136020526040812060060154919250906119ca90846123dd565b90508115611a21576001600160a01b038616600090815260136020526040812060050180548492906119fd908490612460565b90915550506001600160a01b03851660009081526013602052604090206005018290555b8015611a76576001600160a01b03861660009081526013602052604081206006018054839290611a52908490612460565b90915550506001600160a01b03851660009081526013602052604090206006018190555b611a7f86611012565b841415611ace576001600160a01b0386166000908152601360205260408120805460ff191681556001810182905560028101829055600381018290556004810182905560058101829055600601555b505050505050565b6000611ae3848484611e55565b6001600160a01b038416600090815260016020908152604080832033845290915290205482811015611b685760405162461bcd60e51b815260206004820152602860248201527f45524332303a207472616e7366657220616d6f756e74206578636565647320616044820152676c6c6f77616e636560c01b606482015260840161076d565b611b758533858403611724565b506001949350505050565b6001600160a01b038216611bd65760405162461bcd60e51b815260206004820152601f60248201527f45524332303a206d696e7420746f20746865207a65726f206164647265737300604482015260640161076d565b8060026000828254611be89190612298565b90915550506001600160a01b03821660009081526020819052604081208054839290611c15908490612298565b90915550506040518181526001600160a01b038316906000907fddf252ad1be2c89b69c2b068fc378daa952ba7f163c4a11628f55a4df523b3ef9060200160405180910390a35050565b600680546001600160a01b038381166001600160a01b0319831681179093556040519116919082907f8be0079c531659141344cd1fd0a4f28419497f9722a3daafe3b4186f6b6457e090600090a35050565b6001600160a01b038216611d115760405162461bcd60e51b815260206004820152602160248201527f45524332303a206275726e2066726f6d20746865207a65726f206164647265736044820152607360f81b606482015260840161076d565b6001600160a01b03821660009081526020819052604090205481811015611d855760405162461bcd60e51b815260206004820152602260248201527f45524332303a206275726e20616d6f756e7420657863656564732062616c616e604482015261636560f01b606482015260840161076d565b6001600160a01b0383166000908152602081905260408120838303905560028054849290611db490849061249f565b90915550506040518281526000906001600160a01b038516907fddf252ad1be2c89b69c2b068fc378daa952ba7f163c4a11628f55a4df523b3ef9060200160405180910390a3505050565b6000610a93338484611e55565b6000610a97670de0b6b3a7640000836123dd565b600082611e2c83612024565b611e3690866123dd565b610af791906122b0565b6000611e4b82612024565b611e3684866123dd565b6001600160a01b038316611eb95760405162461bcd60e51b815260206004820152602560248201527f45524332303a207472616e736665722066726f6d20746865207a65726f206164604482015264647265737360d81b606482015260840161076d565b6001600160a01b038216611f1b5760405162461bcd60e51b815260206004820152602360248201527f45524332303a207472616e7366657220746f20746865207a65726f206164647260448201526265737360e81b606482015260840161076d565b6001600160a01b03831660009081526020819052604090205481811015611f935760405162461bcd60e51b815260206004820152602660248201527f45524332303a207472616e7366657220616d6f756e7420657863656564732062604482015265616c616e636560d01b606482015260840161076d565b6001600160a01b03808516600090815260208190526040808220858503905591851681529081208054849290611fca908490612298565b92505081905550826001600160a01b0316846001600160a01b03167fddf252ad1be2c89b69c2b068fc378daa952ba7f163c4a11628f55a4df523b3ef8460405161201691815260200190565b60405180910390a350505050565b6000610a9760ff8316600a612335565b80356001600160a01b038116811461204b57600080fd5b919050565b600060208284031215612061578081fd5b61130d82612034565b6000806040838503121561207c578081fd5b61208583612034565b915061209360208401612034565b90509250929050565b6000806000606084860312156120b0578081fd5b6120b984612034565b92506120c760208501612034565b9150604084013590509250925092565b600080604083850312156120e9578182fd5b6120f283612034565b946020939093013593505050565b600060208284031215612111578081fd5b5035919050565b600060208284031215612129578081fd5b5051919050565b600060c08284031215612141578081fd5b60405160c0810181811067ffffffffffffffff8211171561217057634e487b7160e01b83526041600452602483fd5b60405261217c83612034565b815261218a60208401612034565b602082015261219b60408401612034565b60408201526121ac60608401612034565b60608201526080830135608082015260a083013560a08201528091505092915050565b6000602080835283518082850152825b818110156121fb578581018301518582016040015282016121df565b8181111561220c5783604083870101525b50601f01601f1916929092016040019392505050565b6020808252818101527f4f776e61626c653a2063616c6c6572206973206e6f7420746865206f776e6572604082015260600190565b600080821280156001600160ff1b0384900385131615612279576122796124f1565b600160ff1b8390038412811615612292576122926124f1565b50500190565b600082198211156122ab576122ab6124f1565b500190565b6000826122bf576122bf612507565b600160ff1b8214600019841416156122d9576122d96124f1565b500590565b6000826122ed576122ed612507565b500490565b600181815b8085111561232d578160001904821115612313576123136124f1565b8085161561232057918102915b93841c93908002906122f7565b509250929050565b600061130d838360008261234b57506001610a97565b8161235857506000610a97565b816001811461236e576002811461237857612394565b6001915050610a97565b60ff841115612389576123896124f1565b50506001821b610a97565b5060208310610133831016604e8410600b84101617156123b7575081810a610a97565b6123c183836122f2565b80600019048211156123d5576123d56124f1565b029392505050565b60006001600160ff1b0381841382841380821686840486111615612403576124036124f1565b600160ff1b84871282811687830589121615612421576124216124f1565b85871292508782058712848416161561243c5761243c6124f1565b87850587128184161615612452576124526124f1565b505050929093029392505050565b60008083128015600160ff1b85018412161561247e5761247e6124f1565b6001600160ff1b0384018313811615612499576124996124f1565b50500390565b6000828210156124b1576124b16124f1565b500390565b600181811c908216806124ca57607f821691505b602082108114156124eb57634e487b7160e01b600052602260045260246000fd5b50919050565b634e487b7160e01b600052601160045260246000fd5b634e487b7160e01b600052601260045260246000fdfea264697066735822122034751ba4ed2a1b27eae072609296d30208c597a0959fd8e197db09a5a9ebfab264736f6c63430008040033",
  "linkReferences": {},
  "deployedLinkReferences": {}
}