{
  "_format": "hh-sol-artifact-1",
  "contractName": "Strips",
  "sourceName": "contracts/strips/Strips.sol",
  "abi": [
    {
      "anonymous": false,
      "inputs": [
        {
          "indexed": true,
          "internalType": "address",
          "name": "account",
          "type": "address"
        },
        {
          "indexed": true,
          "internalType": "address",
          "name": "market",
          "type": "address"
        },
        {
          "components": [
            {
              "internalType": "int256",
              "name": "marketPrice",
              "type": "int256"
            },
            {
              "internalType": "int256",
              "name": "oraclePrice",
              "type": "int256"
            },
            {
              "internalType": "int256",
              "name": "tradersTotalPnl",
              "type": "int256"
            },
            {
              "internalType": "int256",
              "name": "uniLpPrice",
              "type": "int256"
            },
            {
              "internalType": "bool",
              "name": "ammIsLong",
              "type": "bool"
            },
            {
              "internalType": "int256",
              "name": "ammTradingPnl",
              "type": "int256"
            },
            {
              "internalType": "int256",
              "name": "ammFundingPnl",
              "type": "int256"
            },
            {
              "internalType": "int256",
              "name": "ammTotalPnl",
              "type": "int256"
            },
            {
              "internalType": "int256",
              "name": "ammNotional",
              "type": "int256"
            },
            {
              "internalType": "int256",
              "name": "ammInitialPrice",
              "type": "int256"
            },
            {
              "internalType": "int256",
              "name": "ammEntryPrice",
              "type": "int256"
            },
            {
              "internalType": "int256",
              "name": "ammTradingLiquidity",
              "type": "int256"
            },
            {
              "internalType": "int256",
              "name": "ammStakingLiquidity",
              "type": "int256"
            },
            {
              "internalType": "int256",
              "name": "ammTotalLiquidity",
              "type": "int256"
            },
            {
              "internalType": "bool",
              "name": "isLong",
              "type": "bool"
            },
            {
              "internalType": "int256",
              "name": "tradingPnl",
              "type": "int256"
            },
            {
              "internalType": "int256",
              "name": "fundingPnl",
              "type": "int256"
            },
            {
              "internalType": "int256",
              "name": "totalPnl",
              "type": "int256"
            },
            {
              "internalType": "int256",
              "name": "marginRatio",
              "type": "int256"
            },
            {
              "internalType": "int256",
              "name": "collateral",
              "type": "int256"
            },
            {
              "internalType": "int256",
              "name": "notional",
              "type": "int256"
            },
            {
              "internalType": "int256",
              "name": "initialPrice",
              "type": "int256"
            },
            {
              "internalType": "int256",
              "name": "entryPrice",
              "type": "int256"
            },
            {
              "internalType": "int256",
              "name": "slpTradingPnl",
              "type": "int256"
            },
            {
              "internalType": "int256",
              "name": "slpStakingPnl",
              "type": "int256"
            },
            {
              "internalType": "int256",
              "name": "slpTradingCummulativePnl",
              "type": "int256"
            },
            {
              "internalType": "int256",
              "name": "slpStakingCummulativePnl",
              "type": "int256"
            },
            {
              "internalType": "int256",
              "name": "slpTradingPnlGrowth",
              "type": "int256"
            },
            {
              "internalType": "int256",
              "name": "slpStakingPnlGrowth",
              "type": "int256"
            },
            {
              "internalType": "int256",
              "name": "slpTotalSupply",
              "type": "int256"
            },
            {
              "internalType": "int256",
              "name": "stakerInitialStakingPnl",
              "type": "int256"
            },
            {
              "internalType": "int256",
              "name": "stakerInitialTradingPnl",
              "type": "int256"
            },
            {
              "internalType": "uint256",
              "name": "stakerInitialBlockNum",
              "type": "uint256"
            },
            {
              "internalType": "int256",
              "name": "stakerUnrealizedStakingProfit",
              "type": "int256"
            },
            {
              "internalType": "int256",
              "name": "stakerUnrealizedTradingProfit",
              "type": "int256"
            },
            {
              "internalType": "int256",
              "name": "tradingRewardsTotal",
              "type": "int256"
            },
            {
              "internalType": "int256",
              "name": "stakingRewardsTotal",
              "type": "int256"
            }
          ],
          "indexed": false,
          "internalType": "struct IStripsEvents.CheckParams",
          "name": "params",
          "type": "tuple"
        }
      ],
      "name": "LogCheckData",
      "type": "event"
    },
    {
      "anonymous": false,
      "inputs": [
        {
          "indexed": true,
          "internalType": "address",
          "name": "insurance",
          "type": "address"
        },
        {
          "components": [
            {
              "internalType": "int256",
              "name": "lpLiquidity",
              "type": "int256"
            },
            {
              "internalType": "int256",
              "name": "usdcLiquidity",
              "type": "int256"
            },
            {
              "internalType": "uint256",
              "name": "sipTotalSupply",
              "type": "uint256"
            }
          ],
          "indexed": false,
          "internalType": "struct IStripsEvents.CheckInsuranceParams",
          "name": "params",
          "type": "tuple"
        }
      ],
      "name": "LogCheckInsuranceData",
      "type": "event"
    },
    {
      "anonymous": false,
      "inputs": [
        {
          "indexed": true,
          "internalType": "address",
          "name": "market",
          "type": "address"
        }
      ],
      "name": "LogNewMarket",
      "type": "event"
    },
    {
      "anonymous": false,
      "inputs": [
        {
          "indexed": true,
          "internalType": "address",
          "name": "account",
          "type": "address"
        },
        {
          "indexed": true,
          "internalType": "contract IMarket",
          "name": "market",
          "type": "address"
        },
        {
          "components": [
            {
              "internalType": "bool",
              "name": "isLong",
              "type": "bool"
            },
            {
              "internalType": "bool",
              "name": "isActive",
              "type": "bool"
            },
            {
              "internalType": "bool",
              "name": "isLiquidated",
              "type": "bool"
            },
            {
              "internalType": "int256",
              "name": "notional",
              "type": "int256"
            },
            {
              "internalType": "int256",
              "name": "collateral",
              "type": "int256"
            },
            {
              "internalType": "int256",
              "name": "initialPrice",
              "type": "int256"
            }
          ],
          "indexed": false,
          "internalType": "struct IStrips.PositionParams",
          "name": "params",
          "type": "tuple"
        }
      ],
      "name": "LogPositionUpdate",
      "type": "event"
    },
    {
      "anonymous": false,
      "inputs": [
        {
          "indexed": true,
          "internalType": "address",
          "name": "previousOwner",
          "type": "address"
        },
        {
          "indexed": true,
          "internalType": "address",
          "name": "newOwner",
          "type": "address"
        }
      ],
      "name": "OwnershipTransferred",
      "type": "event"
    },
    {
      "inputs": [
        {
          "components": [
            {
              "internalType": "enum IStrips.AdminActionType",
              "name": "actionType",
              "type": "uint8"
            },
            {
              "internalType": "bytes",
              "name": "data",
              "type": "bytes"
            }
          ],
          "internalType": "struct IStrips.AdminActionArgs",
          "name": "args",
          "type": "tuple"
        }
      ],
      "name": "adminDispatcher",
      "outputs": [],
      "stateMutability": "nonpayable",
      "type": "function"
    },
    {
      "inputs": [
        {
          "internalType": "address",
          "name": "_asset",
          "type": "address"
        }
      ],
      "name": "assetPnl",
      "outputs": [
        {
          "internalType": "int256",
          "name": "",
          "type": "int256"
        }
      ],
      "stateMutability": "view",
      "type": "function"
    },
    {
      "inputs": [
        {
          "internalType": "contract IMarket",
          "name": "_market",
          "type": "address"
        },
        {
          "internalType": "int256",
          "name": "collateral",
          "type": "int256"
        },
        {
          "internalType": "bool",
          "name": "isAdd",
          "type": "bool"
        }
      ],
      "name": "changeCollateral",
      "outputs": [],
      "stateMutability": "nonpayable",
      "type": "function"
    },
    {
      "inputs": [
        {
          "internalType": "address",
          "name": "_newDao",
          "type": "address"
        }
      ],
      "name": "changeDao",
      "outputs": [],
      "stateMutability": "nonpayable",
      "type": "function"
    },
    {
      "inputs": [
        {
          "internalType": "address",
          "name": "_newPinger",
          "type": "address"
        }
      ],
      "name": "changePinger",
      "outputs": [],
      "stateMutability": "nonpayable",
      "type": "function"
    },
    {
      "inputs": [],
      "name": "check_insurance",
      "outputs": [],
      "stateMutability": "nonpayable",
      "type": "function"
    },
    {
      "inputs": [
        {
          "internalType": "address",
          "name": "account",
          "type": "address"
        },
        {
          "internalType": "address",
          "name": "market",
          "type": "address"
        }
      ],
      "name": "check_trader",
      "outputs": [],
      "stateMutability": "nonpayable",
      "type": "function"
    },
    {
      "inputs": [
        {
          "internalType": "contract IMarket",
          "name": "_market",
          "type": "address"
        },
        {
          "internalType": "int256",
          "name": "_closeRatio",
          "type": "int256"
        },
        {
          "internalType": "int256",
          "name": "_slippage",
          "type": "int256"
        }
      ],
      "name": "close",
      "outputs": [],
      "stateMutability": "nonpayable",
      "type": "function"
    },
    {
      "inputs": [],
      "name": "g_state",
      "outputs": [
        {
          "internalType": "address",
          "name": "dao",
          "type": "address"
        },
        {
          "internalType": "bool",
          "name": "isSuspended",
          "type": "bool"
        },
        {
          "components": [
            {
              "internalType": "int256",
              "name": "fundFeeRatio",
              "type": "int256"
            },
            {
              "internalType": "int256",
              "name": "daoFeeRatio",
              "type": "int256"
            },
            {
              "internalType": "int256",
              "name": "liquidatorFeeRatio",
              "type": "int256"
            },
            {
              "internalType": "int256",
              "name": "marketFeeRatio",
              "type": "int256"
            },
            {
              "internalType": "int256",
              "name": "insuranceProfitOnPositionClosed",
              "type": "int256"
            },
            {
              "internalType": "int256",
              "name": "liquidationMarginRatio",
              "type": "int256"
            },
            {
              "internalType": "int256",
              "name": "minimumPricePossible",
              "type": "int256"
            }
          ],
          "internalType": "struct StorageStripsLib.RiskParams",
          "name": "riskParams",
          "type": "tuple"
        },
        {
          "internalType": "contract IInsuranceFund",
          "name": "insuranceFund",
          "type": "address"
        },
        {
          "internalType": "contract IERC20",
          "name": "tradingToken",
          "type": "address"
        },
        {
          "internalType": "uint256",
          "name": "lastAlive",
          "type": "uint256"
        },
        {
          "internalType": "uint256",
          "name": "keepAliveInterval",
          "type": "uint256"
        }
      ],
      "stateMutability": "view",
      "type": "function"
    },
    {
      "inputs": [
        {
          "internalType": "address",
          "name": "_account",
          "type": "address"
        }
      ],
      "name": "getStakingInfo",
      "outputs": [
        {
          "components": [
            {
              "components": [
                {
                  "internalType": "bool",
                  "name": "isInsurance",
                  "type": "bool"
                },
                {
                  "internalType": "address",
                  "name": "asset",
                  "type": "address"
                },
                {
                  "internalType": "address",
                  "name": "slpToken",
                  "type": "address"
                },
                {
                  "internalType": "int256",
                  "name": "marketPrice",
                  "type": "int256"
                },
                {
                  "internalType": "int256",
                  "name": "oraclePrice",
                  "type": "int256"
                },
                {
                  "internalType": "int256",
                  "name": "maxNotional",
                  "type": "int256"
                },
                {
                  "internalType": "int256",
                  "name": "tvl",
                  "type": "int256"
                },
                {
                  "internalType": "int256",
                  "name": "apy",
                  "type": "int256"
                }
              ],
              "internalType": "struct IStrips.AssetData[]",
              "name": "assetData",
              "type": "tuple[]"
            },
            {
              "components": [
                {
                  "internalType": "address",
                  "name": "asset",
                  "type": "address"
                },
                {
                  "internalType": "uint256",
                  "name": "totalStaked",
                  "type": "uint256"
                }
              ],
              "internalType": "struct IStrips.StakingData[]",
              "name": "stakingData",
              "type": "tuple[]"
            }
          ],
          "internalType": "struct IStrips.StakingInfo",
          "name": "stakingInfo",
          "type": "tuple"
        }
      ],
      "stateMutability": "view",
      "type": "function"
    },
    {
      "inputs": [
        {
          "internalType": "address",
          "name": "_account",
          "type": "address"
        }
      ],
      "name": "getTradingInfo",
      "outputs": [
        {
          "components": [
            {
              "components": [
                {
                  "internalType": "bool",
                  "name": "isInsurance",
                  "type": "bool"
                },
                {
                  "internalType": "address",
                  "name": "asset",
                  "type": "address"
                },
                {
                  "internalType": "address",
                  "name": "slpToken",
                  "type": "address"
                },
                {
                  "internalType": "int256",
                  "name": "marketPrice",
                  "type": "int256"
                },
                {
                  "internalType": "int256",
                  "name": "oraclePrice",
                  "type": "int256"
                },
                {
                  "internalType": "int256",
                  "name": "maxNotional",
                  "type": "int256"
                },
                {
                  "internalType": "int256",
                  "name": "tvl",
                  "type": "int256"
                },
                {
                  "internalType": "int256",
                  "name": "apy",
                  "type": "int256"
                }
              ],
              "internalType": "struct IStrips.AssetData[]",
              "name": "assetData",
              "type": "tuple[]"
            },
            {
              "components": [
                {
                  "internalType": "contract IMarket",
                  "name": "market",
                  "type": "address"
                },
                {
                  "internalType": "int256",
                  "name": "pnl",
                  "type": "int256"
                },
                {
                  "internalType": "int256",
                  "name": "marginRatio",
                  "type": "int256"
                },
                {
                  "components": [
                    {
                      "internalType": "bool",
                      "name": "isLong",
                      "type": "bool"
                    },
                    {
                      "internalType": "bool",
                      "name": "isActive",
                      "type": "bool"
                    },
                    {
                      "internalType": "bool",
                      "name": "isLiquidated",
                      "type": "bool"
                    },
                    {
                      "internalType": "int256",
                      "name": "notional",
                      "type": "int256"
                    },
                    {
                      "internalType": "int256",
                      "name": "collateral",
                      "type": "int256"
                    },
                    {
                      "internalType": "int256",
                      "name": "initialPrice",
                      "type": "int256"
                    }
                  ],
                  "internalType": "struct IStrips.PositionParams",
                  "name": "positionParams",
                  "type": "tuple"
                }
              ],
              "internalType": "struct IStrips.PositionData[]",
              "name": "positionData",
              "type": "tuple[]"
            }
          ],
          "internalType": "struct IStrips.TradingInfo",
          "name": "tradingInfo",
          "type": "tuple"
        }
      ],
      "stateMutability": "view",
      "type": "function"
    },
    {
      "inputs": [
        {
          "components": [
            {
              "internalType": "int256",
              "name": "fundFeeRatio",
              "type": "int256"
            },
            {
              "internalType": "int256",
              "name": "daoFeeRatio",
              "type": "int256"
            },
            {
              "internalType": "int256",
              "name": "liquidatorFeeRatio",
              "type": "int256"
            },
            {
              "internalType": "int256",
              "name": "marketFeeRatio",
              "type": "int256"
            },
            {
              "internalType": "int256",
              "name": "insuranceProfitOnPositionClosed",
              "type": "int256"
            },
            {
              "internalType": "int256",
              "name": "liquidationMarginRatio",
              "type": "int256"
            },
            {
              "internalType": "int256",
              "name": "minimumPricePossible",
              "type": "int256"
            }
          ],
          "internalType": "struct StorageStripsLib.RiskParams",
          "name": "_riskParams",
          "type": "tuple"
        },
        {
          "internalType": "contract IERC20",
          "name": "_tradingToken",
          "type": "address"
        },
        {
          "internalType": "uint256",
          "name": "_keepAliveInterval",
          "type": "uint256"
        },
        {
          "internalType": "address",
          "name": "_dao",
          "type": "address"
        }
      ],
      "name": "initialize",
      "outputs": [],
      "stateMutability": "nonpayable",
      "type": "function"
    },
    {
      "inputs": [
        {
          "internalType": "contract IMarket",
          "name": "_market",
          "type": "address"
        },
        {
          "internalType": "address",
          "name": "account",
          "type": "address"
        }
      ],
      "name": "liquidatePosition",
      "outputs": [],
      "stateMutability": "nonpayable",
      "type": "function"
    },
    {
      "inputs": [
        {
          "internalType": "contract IMarket",
          "name": "_market",
          "type": "address"
        },
        {
          "internalType": "bool",
          "name": "isLong",
          "type": "bool"
        },
        {
          "internalType": "int256",
          "name": "collateral",
          "type": "int256"
        },
        {
          "internalType": "int256",
          "name": "leverage",
          "type": "int256"
        },
        {
          "internalType": "int256",
          "name": "slippage",
          "type": "int256"
        }
      ],
      "name": "open",
      "outputs": [],
      "stateMutability": "nonpayable",
      "type": "function"
    },
    {
      "inputs": [],
      "name": "owner",
      "outputs": [
        {
          "internalType": "address",
          "name": "",
          "type": "address"
        }
      ],
      "stateMutability": "view",
      "type": "function"
    },
    {
      "inputs": [
        {
          "internalType": "address",
          "name": "keeper",
          "type": "address"
        }
      ],
      "name": "payKeeperReward",
      "outputs": [],
      "stateMutability": "nonpayable",
      "type": "function"
    },
    {
      "inputs": [],
      "name": "ping",
      "outputs": [],
      "stateMutability": "nonpayable",
      "type": "function"
    },
    {
      "inputs": [],
      "name": "pinger",
      "outputs": [
        {
          "internalType": "address",
          "name": "",
          "type": "address"
        }
      ],
      "stateMutability": "view",
      "type": "function"
    },
    {
      "inputs": [],
      "name": "renounceOwnership",
      "outputs": [],
      "stateMutability": "nonpayable",
      "type": "function"
    },
    {
      "inputs": [
        {
          "components": [
            {
              "internalType": "enum IStrips.StateActionType",
              "name": "actionType",
              "type": "uint8"
            },
            {
              "internalType": "bytes",
              "name": "data",
              "type": "bytes"
            }
          ],
          "internalType": "struct IStrips.StateActionArgs",
          "name": "args",
          "type": "tuple"
        }
      ],
      "name": "stateDispatcher",
      "outputs": [],
      "stateMutability": "nonpayable",
      "type": "function"
    },
    {
      "inputs": [
        {
          "internalType": "bool",
          "name": "_suspend",
          "type": "bool"
        }
      ],
      "name": "suspendChange",
      "outputs": [],
      "stateMutability": "nonpayable",
      "type": "function"
    },
    {
      "inputs": [
        {
          "internalType": "address",
          "name": "newOwner",
          "type": "address"
        }
      ],
      "name": "transferOwnership",
      "outputs": [],
      "stateMutability": "nonpayable",
      "type": "function"
    },
    {
      "inputs": [
        {
          "components": [
            {
              "internalType": "enum IStrips.ViewActionType",
              "name": "actionType",
              "type": "uint8"
            },
            {
              "internalType": "bytes",
              "name": "data",
              "type": "bytes"
            }
          ],
          "internalType": "struct IStrips.ViewActionArgs",
          "name": "args",
          "type": "tuple"
        }
      ],
      "name": "viewDispatcher",
      "outputs": [
        {
          "internalType": "bytes",
          "name": "",
          "type": "bytes"
        }
      ],
      "stateMutability": "view",
      "type": "function"
    }
  ],
  "bytecode": "0x608060405234801561001057600080fd5b50615a9580620000216000396000f3fe608060405234801561001057600080fd5b506004361061014d5760003560e01c80638be7febc116100c3578063d66d8b9b1161007c578063d66d8b9b14610366578063d8826fec14610382578063e5f4a5d41461039e578063e82eefe3146103ba578063ef6d4f3c146103c4578063f2fde38b146103e05761014d565b80638be7febc146102a65780638da5cb5b146102c25780639d90e4c8146102e0578063aa4704f3146102fc578063b42ce2fe1461032c578063b97399f5146103485761014d565b80635c36b186116101155780635c36b186146101f257806364afa24c146101fc5780636758092d1461022c578063715018a6146102485780637dfcd9e51461025257806381ac79c9146102765761014d565b80630860f3b0146101525780630d6e62371461016e5780630e947bd81461018a57806347e1c082146101ba578063586e848f146101d6575b600080fd5b61016c600480360381019061016791906138fb565b6103fc565b005b61018860048036038101906101839190613b1e565b61052b565b005b6101a4600480360381019061019f91906138fb565b610773565b6040516101b19190614d16565b60405180910390f35b6101d460048036038101906101cf919061394d565b610811565b005b6101f060048036038101906101eb9190613a1c565b610881565b005b6101fa610ac6565b005b610216600480360381019061021191906138fb565b610b60565b60405161022391906148a3565b60405180910390f35b61024660048036038101906102419190613bd7565b610bb8565b005b610250610e9f565b005b61025a610f27565b60405161026d97969594939291906147e4565b60405180910390f35b610290600480360381019061028b9190613d00565b611014565b60405161029d9190614881565b60405180910390f35b6102c060048036038101906102bb9190613c7e565b6110ac565b005b6102ca611119565b6040516102d79190614792565b60405180910390f35b6102fa60048036038101906102f59190613b96565b611143565b005b610316600480360381019061031191906138fb565b61122c565b6040516103239190614b44565b60405180910390f35b61034660048036038101906103419190613a58565b6112ca565b005b61035061156a565b60405161035d9190614792565b60405180910390f35b610380600480360381019061037b9190613acf565b61158e565b005b61039c600480360381019061039791906138fb565b61178c565b005b6103b860048036038101906103b39190613989565b6118bf565b005b6103c261195b565b005b6103de60048036038101906103d991906138fb565b6119c5565b005b6103fa60048036038101906103f591906138fb565b611a32565b005b610404611b2a565b73ffffffffffffffffffffffffffffffffffffffff16610422611119565b73ffffffffffffffffffffffffffffffffffffffff1614610478576040517f08c379a000000000000000000000000000000000000000000000000000000000815260040161046f906149e9565b60405180910390fd5b600073ffffffffffffffffffffffffffffffffffffffff168173ffffffffffffffffffffffffffffffffffffffff1614156104e8576040517f08c379a00000000000000000000000000000000000000000000000000000000081526004016104df90614a69565b60405180910390fd5b806000806101000a81548173ffffffffffffffffffffffffffffffffffffffff021916908373ffffffffffffffffffffffffffffffffffffffff16021790555050565b60001515600060149054906101000a900460ff16151514610581576040517f08c379a000000000000000000000000000000000000000000000000000000000815260040161057890614ac9565b60405180910390fd5b6001600060146101000a81548160ff02191690831515021790555060001515600160000160149054906101000a900460ff161515146105f5576040517f08c379a00000000000000000000000000000000000000000000000000000000081526004016105ec906149c9565b60405180910390fd5b73__$924e03e9d2232415021c9b9496309e98d4$__633c6f723460018585856040518563ffffffff1660e01b81526004016106339493929190614c18565b60006040518083038186803b15801561064b57600080fd5b505af415801561065f573d6000803e3d6000fd5b50505050600061067b84336001611b329092919063ffffffff16565b90508373ffffffffffffffffffffffffffffffffffffffff163373ffffffffffffffffffffffffffffffffffffffff167fe29f470cb2cfa2003bdd9a73777e5597f1c2f6b9f9f30eabb327ac3376f4a7106040518060c0016040528085600d0160009054906101000a900460ff161515815260200185600d0160019054906101000a900460ff161515815260200185600d0160029054906101000a900460ff16151581526020018560060154815260200185600501548152602001856002015481525060405161074b9190614b29565b60405180910390a35060008060146101000a81548160ff021916908315150217905550505050565b61077b612fe3565b73__$641225a8c774088aad0a98e8e797efbbe7$__63309efe796001846040518363ffffffff1660e01b81526004016107b5929190614b81565b60006040518083038186803b1580156107cd57600080fd5b505af41580156107e1573d6000803e3d6000fd5b505050506040513d6000823e3d601f19601f8201168201806040525081019061080a9190613cbf565b9050919050565b73__$a12c01fbd8122b4f229501571668af9cd9$__63ae73baba600184846040518463ffffffff1660e01b815260040161084d93929190614baa565b60006040518083038186803b15801561086557600080fd5b505af4158015610879573d6000803e3d6000fd5b505050505050565b60001515600060149054906101000a900460ff161515146108d7576040517f08c379a00000000000000000000000000000000000000000000000000000000081526004016108ce90614ac9565b60405180910390fd5b6001600060146101000a81548160ff02191690831515021790555060001515600160000160149054906101000a900460ff1615151461094b576040517f08c379a0000000000000000000000000000000000000000000000000000000008152600401610942906149c9565b60405180910390fd5b73__$924e03e9d2232415021c9b9496309e98d4$__63dc33a4c9600184846040518463ffffffff1660e01b815260040161098793929190614be1565b60006040518083038186803b15801561099f57600080fd5b505af41580156109b3573d6000803e3d6000fd5b5050505060006109cf83836001611b329092919063ffffffff16565b90508273ffffffffffffffffffffffffffffffffffffffff168273ffffffffffffffffffffffffffffffffffffffff167fe29f470cb2cfa2003bdd9a73777e5597f1c2f6b9f9f30eabb327ac3376f4a7106040518060c0016040528085600d0160009054906101000a900460ff161515815260200185600d0160019054906101000a900460ff161515815260200185600d0160029054906101000a900460ff161515815260200185600601548152602001856005015481526020018560020154815250604051610a9f9190614b29565b60405180910390a35060008060146101000a81548160ff0219169083151502179055505050565b60008054906101000a900473ffffffffffffffffffffffffffffffffffffffff1673ffffffffffffffffffffffffffffffffffffffff163373ffffffffffffffffffffffffffffffffffffffff1614610b54576040517f08c379a0000000000000000000000000000000000000000000000000000000008152600401610b4b90614b09565b60405180910390fd5b42600160110181905550565b600080610b7983846001611b329092919063ffffffff16565b90506000151581600d0160019054906101000a900460ff1615151415610ba3576000915050610bb3565b610baf60018483611bbb565b9150505b919050565b601460019054906101000a900460ff1680610be05750601460009054906101000a900460ff16155b610c1f576040517f08c379a0000000000000000000000000000000000000000000000000000000008152600401610c16906149a9565b60405180910390fd5b6000601460019054906101000a900460ff161590508015610c71576001601460016101000a81548160ff0219169083151502179055506001601460006101000a81548160ff0219169083151502179055505b600073ffffffffffffffffffffffffffffffffffffffff168273ffffffffffffffffffffffffffffffffffffffff161415610ce1576040517f08c379a0000000000000000000000000000000000000000000000000000000008152600401610cd890614909565b60405180910390fd5b610cea84611bdf565b610d29576040517f08c379a0000000000000000000000000000000000000000000000000000000008152600401610d2090614aa9565b60405180910390fd5b610d31611bf2565b60008060146101000a81548160ff021916908315150217905550846001600801600082015181600001556020820151816001015560408201518160020155606082015181600301556080820151816004015560a0820151816005015560c0820151816006015590505083600160100160006101000a81548173ffffffffffffffffffffffffffffffffffffffff021916908373ffffffffffffffffffffffffffffffffffffffff160217905550426001601101819055508260016012018190555081600160000160006101000a81548173ffffffffffffffffffffffffffffffffffffffff021916908373ffffffffffffffffffffffffffffffffffffffff160217905550336000806101000a81548173ffffffffffffffffffffffffffffffffffffffff021916908373ffffffffffffffffffffffffffffffffffffffff1602179055508015610e98576000601460016101000a81548160ff0219169083151502179055505b5050505050565b610ea7611b2a565b73ffffffffffffffffffffffffffffffffffffffff16610ec5611119565b73ffffffffffffffffffffffffffffffffffffffff1614610f1b576040517f08c379a0000000000000000000000000000000000000000000000000000000008152600401610f12906149e9565b60405180910390fd5b610f256000611ce0565b565b60018060000160009054906101000a900473ffffffffffffffffffffffffffffffffffffffff16908060000160149054906101000a900460ff1690806008016040518060e00160405290816000820154815260200160018201548152602001600282015481526020016003820154815260200160048201548152602001600582015481526020016006820154815250509080600f0160009054906101000a900473ffffffffffffffffffffffffffffffffffffffff16908060100160009054906101000a900473ffffffffffffffffffffffffffffffffffffffff16908060110154908060120154905087565b606073__$641225a8c774088aad0a98e8e797efbbe7$__63ed3a07d76001846040518363ffffffff1660e01b8152600401611050929190614ce6565b60006040518083038186803b15801561106857600080fd5b505af415801561107c573d6000803e3d6000fd5b505050506040513d6000823e3d601f19601f820116820180604052508101906110a591906139db565b9050919050565b73__$a12c01fbd8122b4f229501571668af9cd9$__6310db51c76001836040518363ffffffff1660e01b81526004016110e6929190614cb6565b60006040518083038186803b1580156110fe57600080fd5b505af4158015611112573d6000803e3d6000fd5b5050505050565b6000604760009054906101000a900473ffffffffffffffffffffffffffffffffffffffff16905090565b61114b611b2a565b73ffffffffffffffffffffffffffffffffffffffff16611169611119565b73ffffffffffffffffffffffffffffffffffffffff16146111bf576040517f08c379a00000000000000000000000000000000000000000000000000000000081526004016111b6906149e9565b60405180910390fd5b73__$47118f28351ca40d93672e0807da6df852$__6362fe65176001836040518363ffffffff1660e01b81526004016111f9929190614c5d565b60006040518083038186803b15801561121157600080fd5b505af4158015611225573d6000803e3d6000fd5b5050505050565b611234612ffd565b73__$641225a8c774088aad0a98e8e797efbbe7$__63bae54d2d6001846040518363ffffffff1660e01b815260040161126e929190614b81565b60006040518083038186803b15801561128657600080fd5b505af415801561129a573d6000803e3d6000fd5b505050506040513d6000823e3d601f19601f820116820180604052508101906112c39190613c3d565b9050919050565b60001515600060149054906101000a900460ff16151514611320576040517f08c379a000000000000000000000000000000000000000000000000000000000815260040161131790614ac9565b60405180910390fd5b6001600060146101000a81548160ff02191690831515021790555060001515600160000160149054906101000a900460ff16151514611394576040517f08c379a000000000000000000000000000000000000000000000000000000000815260040161138b906149c9565b60405180910390fd5b73__$924e03e9d2232415021c9b9496309e98d4$__63b8e73dd260016040518060c001604052808973ffffffffffffffffffffffffffffffffffffffff1681526020013373ffffffffffffffffffffffffffffffffffffffff1681526020018781526020018681526020018815158152602001858152506040518363ffffffff1660e01b8152600401611428929190614c8d565b60006040518083038186803b15801561144057600080fd5b505af4158015611454573d6000803e3d6000fd5b50505050600061147086336001611b329092919063ffffffff16565b90508573ffffffffffffffffffffffffffffffffffffffff163373ffffffffffffffffffffffffffffffffffffffff167fe29f470cb2cfa2003bdd9a73777e5597f1c2f6b9f9f30eabb327ac3376f4a7106040518060c0016040528085600d0160009054906101000a900460ff161515815260200185600d0160019054906101000a900460ff161515815260200185600d0160029054906101000a900460ff1615158152602001856006015481526020018560050154815260200185600201548152506040516115409190614b29565b60405180910390a35060008060146101000a81548160ff0219169083151502179055505050505050565b60008054906101000a900473ffffffffffffffffffffffffffffffffffffffff1681565b60001515600060149054906101000a900460ff161515146115e4576040517f08c379a00000000000000000000000000000000000000000000000000000000081526004016115db90614ac9565b60405180910390fd5b6001600060146101000a81548160ff02191690831515021790555060001515600160000160149054906101000a900460ff16151514611658576040517f08c379a000000000000000000000000000000000000000000000000000000000815260040161164f906149c9565b60405180910390fd5b801561166f5761166a60018484611da6565b61167c565b61167b60018484611e3c565b5b600061169484336001611b329092919063ffffffff16565b90508373ffffffffffffffffffffffffffffffffffffffff163373ffffffffffffffffffffffffffffffffffffffff167fe29f470cb2cfa2003bdd9a73777e5597f1c2f6b9f9f30eabb327ac3376f4a7106040518060c0016040528085600d0160009054906101000a900460ff161515815260200185600d0160019054906101000a900460ff161515815260200185600d0160029054906101000a900460ff1615158152602001856006015481526020018560050154815260200185600201548152506040516117649190614b29565b60405180910390a35060008060146101000a81548160ff021916908315150217905550505050565b611794611b2a565b73ffffffffffffffffffffffffffffffffffffffff166117b2611119565b73ffffffffffffffffffffffffffffffffffffffff1614611808576040517f08c379a00000000000000000000000000000000000000000000000000000000081526004016117ff906149e9565b60405180910390fd5b600073ffffffffffffffffffffffffffffffffffffffff168173ffffffffffffffffffffffffffffffffffffffff161415611878576040517f08c379a000000000000000000000000000000000000000000000000000000000815260040161186f90614909565b60405180910390fd5b80600160000160006101000a81548173ffffffffffffffffffffffffffffffffffffffff021916908373ffffffffffffffffffffffffffffffffffffffff16021790555050565b6118c7611b2a565b73ffffffffffffffffffffffffffffffffffffffff166118e5611119565b73ffffffffffffffffffffffffffffffffffffffff161461193b576040517f08c379a0000000000000000000000000000000000000000000000000000000008152600401611932906149e9565b60405180910390fd5b80600160000160146101000a81548160ff02191690831515021790555050565b73__$a12c01fbd8122b4f229501571668af9cd9$__63fdd8e4a060016040518263ffffffff1660e01b81526004016119939190614b66565b60006040518083038186803b1580156119ab57600080fd5b505af41580156119bf573d6000803e3d6000fd5b50505050565b73__$a12c01fbd8122b4f229501571668af9cd9$__6372bea8276001836040518363ffffffff1660e01b81526004016119ff929190614b81565b60006040518083038186803b158015611a1757600080fd5b505af4158015611a2b573d6000803e3d6000fd5b5050505050565b611a3a611b2a565b73ffffffffffffffffffffffffffffffffffffffff16611a58611119565b73ffffffffffffffffffffffffffffffffffffffff1614611aae576040517f08c379a0000000000000000000000000000000000000000000000000000000008152600401611aa5906149e9565b60405180910390fd5b600073ffffffffffffffffffffffffffffffffffffffff168173ffffffffffffffffffffffffffffffffffffffff161415611b1e576040517f08c379a0000000000000000000000000000000000000000000000000000000008152600401611b1590614929565b60405180910390fd5b611b2781611ce0565b50565b600033905090565b60008360050160008373ffffffffffffffffffffffffffffffffffffffff1673ffffffffffffffffffffffffffffffffffffffff16815260200190815260200160002060008473ffffffffffffffffffffffffffffffffffffffff1673ffffffffffffffffffffffffffffffffffffffff16815260200190815260200160002090509392505050565b600080600080611bcc878787611f18565b9250925092508093505050509392505050565b600080823b905060008111915050919050565b601460019054906101000a900460ff1680611c1a5750601460009054906101000a900460ff16155b611c59576040517f08c379a0000000000000000000000000000000000000000000000000000000008152600401611c50906149a9565b60405180910390fd5b6000601460019054906101000a900460ff161590508015611cab576001601460016101000a81548160ff0219169083151502179055506001601460006101000a81548160ff0219169083151502179055505b611cb3612211565b611cbb6122ef565b8015611cdd576000601460016101000a81548160ff0219169083151502179055505b50565b6000604760009054906101000a900473ffffffffffffffffffffffffffffffffffffffff16905081604760006101000a81548173ffffffffffffffffffffffffffffffffffffffff021916908373ffffffffffffffffffffffffffffffffffffffff1602179055508173ffffffffffffffffffffffffffffffffffffffff168173ffffffffffffffffffffffffffffffffffffffff167f8be0079c531659141344cd1fd0a4f28419497f9722a3daafe3b4186f6b6457e060405160405180910390a35050565b60008113611de9576040517f08c379a0000000000000000000000000000000000000000000000000000000008152600401611de090614a09565b60405180910390fd5b6000611e008333866123dd9092919063ffffffff16565b9050611e0d8433846124be565b50611e238183866124f79092919063ffffffff16565b611e36848285611e31612517565b612533565b50505050565b60008113611e7f576040517f08c379a0000000000000000000000000000000000000000000000000000000008152600401611e7690614a09565b60405180910390fd5b6000611e968333866123dd9092919063ffffffff16565b905080600501548212611ede576040517f08c379a0000000000000000000000000000000000000000000000000000000008152600401611ed590614949565b60405180910390fd5b611ef38183866125579092919063ffffffff16565b611efe8433846125bf565b50611f12848285611f0d612517565b612533565b50505050565b6000806000808573ffffffffffffffffffffffffffffffffffffffff16639d1b464a6040518163ffffffff1660e01b815260040160206040518083038186803b158015611f6457600080fd5b505afa158015611f78573d6000803e3d6000fd5b505050506040513d601f19601f82011682018060405250810190611f9c9190613b6d565b9050611fd681611fc8876002015484611fb591906152b2565b88600601546125f790919063ffffffff16565b61260d90919063ffffffff16565b9250600085600601541415611fed5784600e015492505b6000604051806060016040528087601001548152602001876011015481526020018760120160009054906101000a900460ff161515815250905043866009015414612070578560060154816000018181525050856002015481602001818152505085600d0160009054906101000a900460ff168160400190151590811515815250505b60008660070154426120829190615346565b905060008082131561218557600061209e8a8a60080154612635565b905060006120c96120b26301e13380612745565b6120bb86612745565b61260d90919063ffffffff16565b90506120f86120e58287602001516125f790919063ffffffff16565b86600001516125f790919063ffffffff16565b61212961211661210787612745565b856125f790919063ffffffff16565b87600001516125f790919063ffffffff16565b61213391906152b2565b9250600015158a60120160009054906101000a900460ff1615151415612182577fffffffffffffffffffffffffffffffffffffffffffffffffffffffffffffffff8361217f919061519b565b92505b50505b87600c0154816121959190614f2c565b96506000886006015414156121b75785876121b09190614f2c565b9450612204565b6001151588600d0160009054906101000a900460ff16151514156121e85785876121e19190614f2c565b9450612203565b868660006121f691906152b2565b6122009190614f2c565b94505b5b5050505093509350939050565b601460019054906101000a900460ff16806122395750601460009054906101000a900460ff16155b612278576040517f08c379a000000000000000000000000000000000000000000000000000000000815260040161226f906149a9565b60405180910390fd5b6000601460019054906101000a900460ff1615905080156122ca576001601460016101000a81548160ff0219169083151502179055506001601460006101000a81548160ff0219169083151502179055505b80156122ec576000601460016101000a81548160ff0219169083151502179055505b50565b601460019054906101000a900460ff16806123175750601460009054906101000a900460ff16155b612356576040517f08c379a000000000000000000000000000000000000000000000000000000000815260040161234d906149a9565b60405180910390fd5b6000601460019054906101000a900460ff1615905080156123a8576001601460016101000a81548160ff0219169083151502179055506001601460006101000a81548160ff0219169083151502179055505b6123b86123b3611b2a565b611ce0565b80156123da576000601460016101000a81548160ff0219169083151502179055505b50565b60008360050160008373ffffffffffffffffffffffffffffffffffffffff1673ffffffffffffffffffffffffffffffffffffffff16815260200190815260200160002060008473ffffffffffffffffffffffffffffffffffffffff1673ffffffffffffffffffffffffffffffffffffffff16815260200190815260200160002090506001151581600d0160019054906101000a900460ff161515146124b7576040517f08c379a00000000000000000000000000000000000000000000000000000000081526004016124ae90614a29565b60405180910390fd5b9392505050565b60006124f08460100160009054906101000a900473ffffffffffffffffffffffffffffffffffffffff16843085612762565b9392505050565b8082600501600082825461250b9190614f2c565b92505081905550505050565b6000670de0b6b3a7640000600161252e919061519b565b905090565b60006125438584868560006127eb565b91505061255085826128d8565b5050505050565b8082600501600082825461256b91906152b2565b925050819055506000826005015412156125ba576040517f08c379a00000000000000000000000000000000000000000000000000000000081526004016125b190614ae9565b60405180910390fd5b505050565b60006125f08460100160009054906101000a900473ffffffffffffffffffffffffffffffffffffffff168484612927565b9392505050565b6000612605838360126129ad565b905092915050565b600060018214156126205782905061262f565b61262c838360126129d7565b90505b92915050565b60008273ffffffffffffffffffffffffffffffffffffffff16634dde1fb16040518163ffffffff1660e01b815260040160206040518083038186803b15801561267d57600080fd5b505afa158015612691573d6000803e3d6000fd5b505050506040513d601f19601f820116820180604052508101906126b59190613924565b73ffffffffffffffffffffffffffffffffffffffff1663796ba96c836040518263ffffffff1660e01b81526004016126ed9190614d38565b60206040518083038186803b15801561270557600080fd5b505afa158015612719573d6000803e3d6000fd5b505050506040513d601f19601f8201168201806040525081019061273d9190613b6d565b905092915050565b6000670de0b6b3a76400008261275b919061519b565b9050919050565b6127e5846323b872dd60e01b858585604051602401612783939291906147ad565b604051602081830303815290604052907bffffffffffffffffffffffffffffffffffffffffffffffffffffffff19166020820180517bffffffffffffffffffffffffffffffffffffffffffffffffffffffff8381831617835250505050612a01565b50505050565b6000806127fb8787878787612ac8565b9150612805612517565b8414156128395761283285600601548387600501546128249190614f2c565b61260d90919063ffffffff16565b90506128ce565b600061284f888888612849612517565b88612ac8565b90506128ca61287d86612860612517565b61286a91906152b2565b88600601546125f790919063ffffffff16565b84836128a88961288b612517565b61289591906152b2565b8b600501546125f790919063ffffffff16565b6128b29190614f2c565b6128bc91906152b2565b61260d90919063ffffffff16565b9150505b9550959350505050565b6128e182612af0565b811215612923576040517f08c379a000000000000000000000000000000000000000000000000000000000815260040161291a90614969565b60405180910390fd5b5050565b6129a88363a9059cbb60e01b8484604051602401612946929190614858565b604051602081830303815290604052907bffffffffffffffffffffffffffffffffffffffffffffffffffffffff19166020820180517bffffffffffffffffffffffffffffffffffffffffffffffffffffffff8381831617835250505050612a01565b505050565b60006129b882612b01565b83856129c4919061519b565b6129ce9190614fc0565b90509392505050565b6000826129e383612b01565b856129ee919061519b565b6129f89190614fc0565b90509392505050565b6000612a63826040518060400160405280602081526020017f5361666545524332303a206c6f772d6c6576656c2063616c6c206661696c65648152508573ffffffffffffffffffffffffffffffffffffffff16612b1a9092919063ffffffff16565b9050600081511115612ac35780806020019051810190612a8391906139b2565b612ac2576040517f08c379a0000000000000000000000000000000000000000000000000000000008152600401612ab990614a89565b60405180910390fd5b5b505050565b600080600080612adb8989898989612b32565b92509250925080935050505095945050505050565b600081600801600501549050919050565b60008160ff16600a612b13919061507d565b9050919050565b6060612b298484600085612e68565b90509392505050565b6000806000612b3f613017565b86600d0160009054906101000a900460ff168160000190151590811515815250508660020154816020018181525050866006015481606001818152505086600c0154816080018181525050612b92612517565b8614612bd957612baf8682606001516125f790919063ffffffff16565b816060018181525050612bcf8682608001516125f790919063ffffffff16565b8160800181815250505b6000600115158615151415612c6d578873ffffffffffffffffffffffffffffffffffffffff16639d1b464a6040518163ffffffff1660e01b815260040160206040518083038186803b158015612c2e57600080fd5b505afa158015612c42573d6000803e3d6000fd5b505050506040513d601f19601f82011682018060405250810190612c669190613b6d565b9050612d0f565b8873ffffffffffffffffffffffffffffffffffffffff1663dc028c0883606001516000612c9a91906152b2565b84600001516040518363ffffffff1660e01b8152600401612cbc9291906148be565b60206040518083038186803b158015612cd457600080fd5b505afa158015612ce8573d6000803e3d6000fd5b505050506040513d601f19601f82011682018060405250810190612d0c9190613b6d565b90505b612d4781612d39846020015184612d2691906152b2565b85606001516125f790919063ffffffff16565b61260d90919063ffffffff16565b93506000886007015442612d5b9190615346565b90506000811315612e10576000612d768b8b60080154612635565b90506000612da1612d8a6301e13380612745565b612d9385612745565b61260d90919063ffffffff16565b9050612dd0612dbd8287602001516125f790919063ffffffff16565b86606001516125f790919063ffffffff16565b612e01612dee612ddf86612745565b856125f790919063ffffffff16565b87606001516125f790919063ffffffff16565b612e0b91906152b2565b975050505b826080015186612e209190614f2c565b9550826000015115612e3f578486612e389190614f2c565b9350612e5a565b85856000612e4d91906152b2565b612e5791906152b2565b93505b505050955095509592505050565b606082471015612ead576040517f08c379a0000000000000000000000000000000000000000000000000000000008152600401612ea490614989565b60405180910390fd5b612eb685611bdf565b612ef5576040517f08c379a0000000000000000000000000000000000000000000000000000000008152600401612eec90614a49565b60405180910390fd5b6000808673ffffffffffffffffffffffffffffffffffffffff168587604051612f1e919061477b565b60006040518083038185875af1925050503d8060008114612f5b576040519150601f19603f3d011682016040523d82523d6000602084013e612f60565b606091505b5091509150612f70828286612f7c565b92505050949350505050565b60608315612f8c57829050612fdc565b600083511115612f9f5782518084602001fd5b816040517f08c379a0000000000000000000000000000000000000000000000000000000008152600401612fd391906148e7565b60405180910390fd5b9392505050565b604051806040016040528060608152602001606081525090565b604051806040016040528060608152602001606081525090565b6040518060a00160405280600015158152602001600081526020016000815260200160008152602001600081525090565b600061305b61305684614d78565b614d53565b905080838252602082019050828561010086028201111561307b57600080fd5b60005b858110156130ac5781613091888261343e565b8452602084019350610100830192505060018101905061307e565b5050509392505050565b60006130c96130c484614da4565b614d53565b90508083825260208201905082856101208602820111156130e957600080fd5b60005b8581101561311a57816130ff8882613504565b845260208401935061012083019250506001810190506130ec565b5050509392505050565b600061313761313284614dd0565b614d53565b9050808382526020820190508285604086028201111561315657600080fd5b60005b85811015613186578161316c88826136c5565b845260208401935060408301925050600181019050613159565b5050509392505050565b60006131a361319e84614dfc565b614d53565b9050828152602081018484840111156131bb57600080fd5b6131c68482856154cb565b509392505050565b60006131e16131dc84614dfc565b614d53565b9050828152602081018484840111156131f957600080fd5b6132048482856154da565b509392505050565b60008135905061321b816159a5565b92915050565b600081519050613230816159a5565b92915050565b600082601f83011261324757600080fd5b8151613257848260208601613048565b91505092915050565b600082601f83011261327157600080fd5b81516132818482602086016130b6565b91505092915050565b600082601f83011261329b57600080fd5b81516132ab848260208601613124565b91505092915050565b6000813590506132c3816159bc565b92915050565b6000815190506132d8816159bc565b92915050565b600082601f8301126132ef57600080fd5b81356132ff848260208601613190565b91505092915050565b600082601f83011261331957600080fd5b81516133298482602086016131ce565b91505092915050565b600081359050613341816159d3565b92915050565b600081359050613356816159ea565b92915050565b60008151905061336b816159ea565b92915050565b60008135905061338081615a01565b92915050565b60008135905061339581615a11565b92915050565b6000813590506133aa81615a21565b92915050565b6000813590506133bf81615a31565b92915050565b6000815190506133d481615a31565b92915050565b6000604082840312156133ec57600080fd5b6133f66040614d53565b9050600061340684828501613371565b600083015250602082013567ffffffffffffffff81111561342657600080fd5b613432848285016132de565b60208301525092915050565b6000610100828403121561345157600080fd5b61345c610100614d53565b9050600061346c848285016132c9565b600083015250602061348084828501613221565b602083015250604061349484828501613221565b60408301525060606134a8848285016133c5565b60608301525060806134bc848285016133c5565b60808301525060a06134d0848285016133c5565b60a08301525060c06134e4848285016133c5565b60c08301525060e06134f8848285016133c5565b60e08301525092915050565b6000610120828403121561351757600080fd5b6135216080614d53565b905060006135318482850161335c565b6000830152506020613545848285016133c5565b6020830152506040613559848285016133c5565b604083015250606061356d84828501613579565b60608301525092915050565b600060c0828403121561358b57600080fd5b61359560c0614d53565b905060006135a5848285016132c9565b60008301525060206135b9848285016132c9565b60208301525060406135cd848285016132c9565b60408301525060606135e1848285016133c5565b60608301525060806135f5848285016133c5565b60808301525060a0613609848285016133c5565b60a08301525092915050565b600060e0828403121561362757600080fd5b61363160e0614d53565b90506000613641848285016133b0565b6000830152506020613655848285016133b0565b6020830152506040613669848285016133b0565b604083015250606061367d848285016133b0565b6060830152506080613691848285016133b0565b60808301525060a06136a5848285016133b0565b60a08301525060c06136b9848285016133b0565b60c08301525092915050565b6000604082840312156136d757600080fd5b6136e16040614d53565b905060006136f184828501613221565b6000830152506020613705848285016138e6565b60208301525092915050565b60006040828403121561372357600080fd5b61372d6040614d53565b9050600082015167ffffffffffffffff81111561374957600080fd5b61375584828501613236565b600083015250602082015167ffffffffffffffff81111561377557600080fd5b6137818482850161328a565b60208301525092915050565b60006040828403121561379f57600080fd5b6137a96040614d53565b905060006137b984828501613386565b600083015250602082013567ffffffffffffffff8111156137d957600080fd5b6137e5848285016132de565b60208301525092915050565b60006040828403121561380357600080fd5b61380d6040614d53565b9050600082015167ffffffffffffffff81111561382957600080fd5b61383584828501613236565b600083015250602082015167ffffffffffffffff81111561385557600080fd5b61386184828501613260565b60208301525092915050565b60006040828403121561387f57600080fd5b6138896040614d53565b905060006138998482850161339b565b600083015250602082013567ffffffffffffffff8111156138b957600080fd5b6138c5848285016132de565b60208301525092915050565b6000813590506138e081615a48565b92915050565b6000815190506138f581615a48565b92915050565b60006020828403121561390d57600080fd5b600061391b8482850161320c565b91505092915050565b60006020828403121561393657600080fd5b600061394484828501613221565b91505092915050565b6000806040838503121561396057600080fd5b600061396e8582860161320c565b925050602061397f8582860161320c565b9150509250929050565b60006020828403121561399b57600080fd5b60006139a9848285016132b4565b91505092915050565b6000602082840312156139c457600080fd5b60006139d2848285016132c9565b91505092915050565b6000602082840312156139ed57600080fd5b600082015167ffffffffffffffff811115613a0757600080fd5b613a1384828501613308565b91505092915050565b60008060408385031215613a2f57600080fd5b6000613a3d85828601613347565b9250506020613a4e8582860161320c565b9150509250929050565b600080600080600060a08688031215613a7057600080fd5b6000613a7e88828901613347565b9550506020613a8f888289016132b4565b9450506040613aa0888289016133b0565b9350506060613ab1888289016133b0565b9250506080613ac2888289016133b0565b9150509295509295909350565b600080600060608486031215613ae457600080fd5b6000613af286828701613347565b9350506020613b03868287016133b0565b9250506040613b14868287016132b4565b9150509250925092565b600080600060608486031215613b3357600080fd5b6000613b4186828701613347565b9350506020613b52868287016133b0565b9250506040613b63868287016133b0565b9150509250925092565b600060208284031215613b7f57600080fd5b6000613b8d848285016133c5565b91505092915050565b600060208284031215613ba857600080fd5b600082013567ffffffffffffffff811115613bc257600080fd5b613bce848285016133da565b91505092915050565b6000806000806101408587031215613bee57600080fd5b6000613bfc87828801613615565b94505060e0613c0d87828801613332565b935050610100613c1f878288016138d1565b925050610120613c318782880161320c565b91505092959194509250565b600060208284031215613c4f57600080fd5b600082015167ffffffffffffffff811115613c6957600080fd5b613c7584828501613711565b91505092915050565b600060208284031215613c9057600080fd5b600082013567ffffffffffffffff811115613caa57600080fd5b613cb68482850161378d565b91505092915050565b600060208284031215613cd157600080fd5b600082015167ffffffffffffffff811115613ceb57600080fd5b613cf7848285016137f1565b91505092915050565b600060208284031215613d1257600080fd5b600082013567ffffffffffffffff811115613d2c57600080fd5b613d388482850161386d565b91505092915050565b6000613d4d838361432e565b6101008301905092915050565b6000613d6683836143d0565b6101208301905092915050565b6000613d7f8383614625565b60408301905092915050565b613d948161537a565b82525050565b613da38161537a565b82525050565b613db28161537a565b82525050565b613dc18161537a565b82525050565b6000613dd282614e5d565b613ddc8185614ebb565b9350613de783614e2d565b8060005b83811015613e18578151613dff8882613d41565b9750613e0a83614e94565b925050600181019050613deb565b5085935050505092915050565b6000613e3082614e68565b613e3a8185614ecc565b9350613e4583614e3d565b8060005b83811015613e76578151613e5d8882613d5a565b9750613e6883614ea1565b925050600181019050613e49565b5085935050505092915050565b6000613e8e82614e73565b613e988185614edd565b9350613ea383614e4d565b8060005b83811015613ed4578151613ebb8882613d73565b9750613ec683614eae565b925050600181019050613ea7565b5085935050505092915050565b613eea8161538c565b82525050565b613ef98161538c565b82525050565b613f088161538c565b82525050565b6000613f1982614e7e565b613f238185614eee565b9350613f338185602086016154da565b613f3c816155fa565b840191505092915050565b6000613f5282614e7e565b613f5c8185614eff565b9350613f6c8185602086016154da565b613f75816155fa565b840191505092915050565b6000613f8b82614e7e565b613f958185614f10565b9350613fa58185602086016154da565b80840191505092915050565b613fba81615429565b82525050565b613fc98161544d565b82525050565b613fd881615471565b82525050565b613fe781615471565b82525050565b613ff681615471565b82525050565b61400581615495565b82525050565b614014816154a7565b82525050565b614023816154b9565b82525050565b614032816153f5565b82525050565b614041816153f5565b82525050565b614050816153f5565b82525050565b61405f816153f5565b82525050565b600061407082614e89565b61407a8185614f1b565b935061408a8185602086016154da565b614093816155fa565b840191505092915050565b60006140ab600883614f1b565b91506140b682615618565b602082019050919050565b60006140ce602683614f1b565b91506140d982615641565b604082019050919050565b60006140f1600f83614f1b565b91506140fc82615690565b602082019050919050565b6000614114601183614f1b565b915061411f826156b9565b602082019050919050565b6000614137602683614f1b565b9150614142826156e2565b604082019050919050565b600061415a602e83614f1b565b915061416582615731565b604082019050919050565b600061417d600983614f1b565b915061418882615780565b602082019050919050565b60006141a0602083614f1b565b91506141ab826157a9565b602082019050919050565b60006141c3600f83614f1b565b91506141ce826157d2565b602082019050919050565b60006141e6600b83614f1b565b91506141f1826157fb565b602082019050919050565b6000614209601d83614f1b565b915061421482615824565b602082019050919050565b600061422c600b83614f1b565b91506142378261584d565b602082019050919050565b600061424f602a83614f1b565b915061425a82615876565b604082019050919050565b6000614272601c83614f1b565b915061427d826158c5565b602082019050919050565b6000614295601f83614f1b565b91506142a0826158ee565b602082019050919050565b60006142b8601283614f1b565b91506142c382615917565b602082019050919050565b60006142db600c83614f1b565b91506142e682615940565b602082019050919050565b60006040830160008301516143096000860182613ffc565b50602083015184820360208601526143218282613f47565b9150508091505092915050565b610100820160008201516143456000850182613ee1565b5060208201516143586020850182613d8b565b50604082015161436b6040850182613d8b565b50606082015161437e6060850182614029565b5060808201516143916080850182614029565b5060a08201516143a460a0850182614029565b5060c08201516143b760c0850182614029565b5060e08201516143ca60e0850182614029565b50505050565b610120820160008201516143e76000850182613fcf565b5060208201516143fa6020850182614029565b50604082015161440d6040850182614029565b5060608201516144206060850182614426565b50505050565b60c08201600082015161443c6000850182613ee1565b50602082015161444f6020850182613ee1565b5060408201516144626040850182613ee1565b5060608201516144756060850182614029565b5060808201516144886080850182614029565b5060a082015161449b60a0850182614029565b50505050565b60c0820160008201516144b76000850182613ee1565b5060208201516144ca6020850182613ee1565b5060408201516144dd6040850182613ee1565b5060608201516144f06060850182614029565b5060808201516145036080850182614029565b5060a082015161451660a0850182614029565b50505050565b60c0820160008201516145326000850182613fed565b5060208201516145456020850182613db8565b5060408201516145586040850182614056565b50606082015161456b6060850182614056565b50608082015161457e6080850182613eff565b5060a082015161459160a0850182614056565b50505050565b60e0820160008201516145ad6000850182614029565b5060208201516145c06020850182614029565b5060408201516145d36040850182614029565b5060608201516145e66060850182614029565b5060808201516145f96080850182614029565b5060a082015161460c60a0850182614029565b5060c082015161461f60c0850182614029565b50505050565b60408201600082015161463b6000850182613d8b565b50602082015161464e602085018261475d565b50505050565b600060408301600083015184820360008601526146718282613dc7565b9150506020830151848203602086015261468b8282613e83565b9150508091505092915050565b60006040830160008301516146b0600086018261400b565b50602083015184820360208601526146c88282613f47565b9150508091505092915050565b8082525050565b600060408301600083015184820360008601526146f98282613dc7565b915050602083015184820360208601526147138282613e25565b9150508091505092915050565b6000604083016000830151614738600086018261401a565b50602083015184820360208601526147508282613f47565b9150508091505092915050565b6147668161541f565b82525050565b6147758161541f565b82525050565b60006147878284613f80565b915081905092915050565b60006020820190506147a76000830184613d9a565b92915050565b60006060820190506147c26000830186613d9a565b6147cf6020830185613d9a565b6147dc604083018461476c565b949350505050565b60006101a0820190506147fa600083018a613d9a565b6148076020830189613ef0565b6148146040830188614597565b614822610120830187613fc0565b614830610140830186613fb1565b61483e61016083018561476c565b61484c61018083018461476c565b98975050505050505050565b600060408201905061486d6000830185613d9a565b61487a602083018461476c565b9392505050565b6000602082019050818103600083015261489b8184613f0e565b905092915050565b60006020820190506148b86000830184614038565b92915050565b60006040820190506148d36000830185614038565b6148e06020830184613ef0565b9392505050565b600060208201905081810360008301526149018184614065565b905092915050565b600060208201905081810360008301526149228161409e565b9050919050565b60006020820190508181036000830152614942816140c1565b9050919050565b60006020820190508181036000830152614962816140e4565b9050919050565b6000602082019050818103600083015261498281614107565b9050919050565b600060208201905081810360008301526149a28161412a565b9050919050565b600060208201905081810360008301526149c28161414d565b9050919050565b600060208201905081810360008301526149e281614170565b9050919050565b60006020820190508181036000830152614a0281614193565b9050919050565b60006020820190508181036000830152614a22816141b6565b9050919050565b60006020820190508181036000830152614a42816141d9565b9050919050565b60006020820190508181036000830152614a62816141fc565b9050919050565b60006020820190508181036000830152614a828161421f565b9050919050565b60006020820190508181036000830152614aa281614242565b9050919050565b60006020820190508181036000830152614ac281614265565b9050919050565b60006020820190508181036000830152614ae281614288565b9050919050565b60006020820190508181036000830152614b02816142ab565b9050919050565b60006020820190508181036000830152614b22816142ce565b9050919050565b600060c082019050614b3e60008301846144a1565b92915050565b60006020820190508181036000830152614b5e8184614654565b905092915050565b6000602082019050614b7b60008301846146d5565b92915050565b6000604082019050614b9660008301856146d5565b614ba36020830184613da9565b9392505050565b6000606082019050614bbf60008301866146d5565b614bcc6020830185613da9565b614bd96040830184613fde565b949350505050565b6000606082019050614bf660008301866146d5565b614c036020830185613fde565b614c106040830184613da9565b949350505050565b6000608082019050614c2d60008301876146d5565b614c3a6020830186613fde565b614c476040830185614047565b614c546060830184614047565b95945050505050565b6000604082019050614c7260008301856146d5565b8181036020830152614c8481846142f1565b90509392505050565b600060e082019050614ca260008301856146d5565b614caf602083018461451c565b9392505050565b6000604082019050614ccb60008301856146d5565b8181036020830152614cdd8184614698565b90509392505050565b6000604082019050614cfb60008301856146d5565b8181036020830152614d0d8184614720565b90509392505050565b60006020820190508181036000830152614d3081846146dc565b905092915050565b6000602082019050614d4d600083018461476c565b92915050565b6000614d5d614d6e565b9050614d69828261550d565b919050565b6000604051905090565b600067ffffffffffffffff821115614d9357614d926155cb565b5b602082029050602081019050919050565b600067ffffffffffffffff821115614dbf57614dbe6155cb565b5b602082029050602081019050919050565b600067ffffffffffffffff821115614deb57614dea6155cb565b5b602082029050602081019050919050565b600067ffffffffffffffff821115614e1757614e166155cb565b5b614e20826155fa565b9050602081019050919050565b6000819050602082019050919050565b6000819050602082019050919050565b6000819050602082019050919050565b600081519050919050565b600081519050919050565b600081519050919050565b600081519050919050565b600081519050919050565b6000602082019050919050565b6000602082019050919050565b6000602082019050919050565b600082825260208201905092915050565b600082825260208201905092915050565b600082825260208201905092915050565b600082825260208201905092915050565b600082825260208201905092915050565b600081905092915050565b600082825260208201905092915050565b6000614f37826153f5565b9150614f42836153f5565b9250817f7fffffffffffffffffffffffffffffffffffffffffffffffffffffffffffffff03831360008312151615614f7d57614f7c61553e565b5b817f8000000000000000000000000000000000000000000000000000000000000000038312600083121615614fb557614fb461553e565b5b828201905092915050565b6000614fcb826153f5565b9150614fd6836153f5565b925082614fe657614fe561556d565b5b600160000383147f80000000000000000000000000000000000000000000000000000000000000008314161561501f5761501e61553e565b5b828205905092915050565b6000808291508390505b6001851115615074578086048111156150505761504f61553e565b5b600185161561505f5780820291505b808102905061506d8561560b565b9450615034565b94509492505050565b60006150888261541f565b91506150938361541f565b92506150c07fffffffffffffffffffffffffffffffffffffffffffffffffffffffffffffffff84846150c8565b905092915050565b6000826150d85760019050615194565b816150e65760009050615194565b81600181146150fc576002811461510657615135565b6001915050615194565b60ff8411156151185761511761553e565b5b8360020a91508482111561512f5761512e61553e565b5b50615194565b5060208310610133831016604e8410600b841016171561516a5782820a9050838111156151655761516461553e565b5b615194565b615177848484600161502a565b9250905081840481111561518e5761518d61553e565b5b81810290505b9392505050565b60006151a6826153f5565b91506151b1836153f5565b9250827f7fffffffffffffffffffffffffffffffffffffffffffffffffffffffffffffff04821160008413600084131616156151f0576151ef61553e565b5b817f8000000000000000000000000000000000000000000000000000000000000000058312600084126000841316161561522d5761522c61553e565b5b827f8000000000000000000000000000000000000000000000000000000000000000058212600084136000841216161561526a5761526961553e565b5b827f7fffffffffffffffffffffffffffffffffffffffffffffffffffffffffffffff05821260008412600084121616156152a7576152a661553e565b5b828202905092915050565b60006152bd826153f5565b91506152c8836153f5565b9250827f8000000000000000000000000000000000000000000000000000000000000000018212600084121516156153035761530261553e565b5b827f7fffffffffffffffffffffffffffffffffffffffffffffffffffffffffffffff01821360008412161561533b5761533a61553e565b5b828203905092915050565b60006153518261541f565b915061535c8361541f565b92508282101561536f5761536e61553e565b5b828203905092915050565b6000615385826153ff565b9050919050565b60008115159050919050565b60006153a38261537a565b9050919050565b60006153b58261537a565b9050919050565b60008190506153ca82615969565b919050565b60008190506153dd8261597d565b919050565b60008190506153f082615991565b919050565b6000819050919050565b600073ffffffffffffffffffffffffffffffffffffffff82169050919050565b6000819050919050565b60006154348261543b565b9050919050565b6000615446826153ff565b9050919050565b60006154588261545f565b9050919050565b600061546a826153ff565b9050919050565b600061547c82615483565b9050919050565b600061548e826153ff565b9050919050565b60006154a0826153bc565b9050919050565b60006154b2826153cf565b9050919050565b60006154c4826153e2565b9050919050565b82818337600083830152505050565b60005b838110156154f85780820151818401526020810190506154dd565b83811115615507576000848401525b50505050565b615516826155fa565b810181811067ffffffffffffffff82111715615535576155346155cb565b5b80604052505050565b7f4e487b7100000000000000000000000000000000000000000000000000000000600052601160045260246000fd5b7f4e487b7100000000000000000000000000000000000000000000000000000000600052601260045260246000fd5b7f4e487b7100000000000000000000000000000000000000000000000000000000600052602160045260246000fd5b7f4e487b7100000000000000000000000000000000000000000000000000000000600052604160045260246000fd5b6000601f19601f8301169050919050565b60008160011c9050919050565b7f5a45524f5f44414f000000000000000000000000000000000000000000000000600082015250565b7f4f776e61626c653a206e6577206f776e657220697320746865207a65726f206160008201527f6464726573730000000000000000000000000000000000000000000000000000602082015250565b7f43414e545f52454d4f56455f414c4c0000000000000000000000000000000000600082015250565b7f4e4f545f454e4f5547485f4d415247494e000000000000000000000000000000600082015250565b7f416464726573733a20696e73756666696369656e742062616c616e636520666f60008201527f722063616c6c0000000000000000000000000000000000000000000000000000602082015250565b7f496e697469616c697a61626c653a20636f6e747261637420697320616c72656160008201527f647920696e697469616c697a6564000000000000000000000000000000000000602082015250565b7f53555350454e4445440000000000000000000000000000000000000000000000600082015250565b7f4f776e61626c653a2063616c6c6572206973206e6f7420746865206f776e6572600082015250565b7f434f4c4c41544552414c5f4c545f300000000000000000000000000000000000600082015250565b7f4e4f5f504f534954494f4e000000000000000000000000000000000000000000600082015250565b7f416464726573733a2063616c6c20746f206e6f6e2d636f6e7472616374000000600082015250565b7f5a45524f5f50494e474552000000000000000000000000000000000000000000600082015250565b7f5361666545524332303a204552433230206f7065726174696f6e20646964206e60008201527f6f74207375636365656400000000000000000000000000000000000000000000602082015250565b7f54524144494e475f544f4b454e5f4e4f545f415f434f4e545241435400000000600082015250565b7f5265656e7472616e637947756172643a207265656e7472616e742063616c6c00600082015250565b7f434f4c4c41544552414c5f544f4f5f4249470000000000000000000000000000600082015250565b7f4e4f545f415f50494e4745520000000000000000000000000000000000000000600082015250565b6006811061597a5761597961559c565b5b50565b6001811061598e5761598d61559c565b5b50565b600681106159a2576159a161559c565b5b50565b6159ae8161537a565b81146159b957600080fd5b50565b6159c58161538c565b81146159d057600080fd5b50565b6159dc81615398565b81146159e757600080fd5b50565b6159f3816153aa565b81146159fe57600080fd5b50565b60068110615a0e57600080fd5b50565b60018110615a1e57600080fd5b50565b60068110615a2e57600080fd5b50565b615a3a816153f5565b8114615a4557600080fd5b50565b615a518161541f565b8114615a5c57600080fd5b5056fea26469706673582212208189f5ed086fca10550da912d61e509e02e46f5fd2be7b65b6f26d0ff8e4dabd64736f6c63430008040033",
  "linkReferences": {
    "contracts/impl/StripsAdminImpl.sol": {
      "StripsAdminImpl": [
        {
          "length": 20,
          "start": 4578
        }
      ]
    },
    "contracts/impl/StripsStateImpl.sol": {
      "StripsStateImpl": [
        {
          "length": 20,
          "start": 2100
        },
        {
          "length": 20,
          "start": 4303
        },
        {
          "length": 20,
          "start": 6526
        },
        {
          "length": 20,
          "start": 6632
        }
      ]
    },
    "contracts/impl/StripsViewImpl.sol": {
      "StripsViewImpl": [
        {
          "length": 20,
          "start": 1950
        },
        {
          "length": 20,
          "start": 4153
        },
        {
          "length": 20,
          "start": 4695
        }
      ]
    },
    "contracts/impl/TradeImpl.sol": {
      "TradeImpl": [
        {
          "length": 20,
          "start": 1560
        },
        {
          "length": 20,
          "start": 2414
        },
        {
          "length": 20,
          "start": 5047
        }
      ]
    }
  },
  "deployedLinkReferences": {
    "contracts/impl/StripsAdminImpl.sol": {
      "StripsAdminImpl": [
        {
          "length": 20,
          "start": 4545
        }
      ]
    },
    "contracts/impl/StripsStateImpl.sol": {
      "StripsStateImpl": [
        {
          "length": 20,
          "start": 2067
        },
        {
          "length": 20,
          "start": 4270
        },
        {
          "length": 20,
          "start": 6493
        },
        {
          "length": 20,
          "start": 6599
        }
      ]
    },
    "contracts/impl/StripsViewImpl.sol": {
      "StripsViewImpl": [
        {
          "length": 20,
          "start": 1917
        },
        {
          "length": 20,
          "start": 4120
        },
        {
          "length": 20,
          "start": 4662
        }
      ]
    },
    "contracts/impl/TradeImpl.sol": {
      "TradeImpl": [
        {
          "length": 20,
          "start": 1527
        },
        {
          "length": 20,
          "start": 2381
        },
        {
          "length": 20,
          "start": 5014
        }
      ]
    }
  }
}