{
  "_format": "hh-sol-artifact-1",
  "contractName": "Strips",
  "sourceName": "contracts/strips/Strips.sol",
  "abi": [
    {
      "anonymous": false,
      "inputs": [
        {
          "indexed": true,
          "internalType": "address",
          "name": "account",
          "type": "address"
        },
        {
          "indexed": true,
          "internalType": "address",
          "name": "market",
          "type": "address"
        },
        {
          "components": [
            {
              "internalType": "int256",
              "name": "marketPrice",
              "type": "int256"
            },
            {
              "internalType": "int256",
              "name": "oraclePrice",
              "type": "int256"
            },
            {
              "internalType": "int256",
              "name": "tradersTotalPnl",
              "type": "int256"
            },
            {
              "internalType": "int256",
              "name": "uniLpPrice",
              "type": "int256"
            },
            {
              "internalType": "bool",
              "name": "ammIsLong",
              "type": "bool"
            },
            {
              "internalType": "int256",
              "name": "ammTradingPnl",
              "type": "int256"
            },
            {
              "internalType": "int256",
              "name": "ammFundingPnl",
              "type": "int256"
            },
            {
              "internalType": "int256",
              "name": "ammTotalPnl",
              "type": "int256"
            },
            {
              "internalType": "int256",
              "name": "ammNotional",
              "type": "int256"
            },
            {
              "internalType": "int256",
              "name": "ammInitialPrice",
              "type": "int256"
            },
            {
              "internalType": "int256",
              "name": "ammEntryPrice",
              "type": "int256"
            },
            {
              "internalType": "int256",
              "name": "ammTradingLiquidity",
              "type": "int256"
            },
            {
              "internalType": "int256",
              "name": "ammStakingLiquidity",
              "type": "int256"
            },
            {
              "internalType": "int256",
              "name": "ammTotalLiquidity",
              "type": "int256"
            },
            {
              "internalType": "bool",
              "name": "isLong",
              "type": "bool"
            },
            {
              "internalType": "int256",
              "name": "tradingPnl",
              "type": "int256"
            },
            {
              "internalType": "int256",
              "name": "fundingPnl",
              "type": "int256"
            },
            {
              "internalType": "int256",
              "name": "totalPnl",
              "type": "int256"
            },
            {
              "internalType": "int256",
              "name": "marginRatio",
              "type": "int256"
            },
            {
              "internalType": "int256",
              "name": "collateral",
              "type": "int256"
            },
            {
              "internalType": "int256",
              "name": "notional",
              "type": "int256"
            },
            {
              "internalType": "int256",
              "name": "initialPrice",
              "type": "int256"
            },
            {
              "internalType": "int256",
              "name": "entryPrice",
              "type": "int256"
            },
            {
              "internalType": "int256",
              "name": "slpTradingPnl",
              "type": "int256"
            },
            {
              "internalType": "int256",
              "name": "slpStakingPnl",
              "type": "int256"
            },
            {
              "internalType": "int256",
              "name": "slpTradingCummulativePnl",
              "type": "int256"
            },
            {
              "internalType": "int256",
              "name": "slpStakingCummulativePnl",
              "type": "int256"
            },
            {
              "internalType": "int256",
              "name": "slpTradingPnlGrowth",
              "type": "int256"
            },
            {
              "internalType": "int256",
              "name": "slpStakingPnlGrowth",
              "type": "int256"
            },
            {
              "internalType": "int256",
              "name": "slpTotalSupply",
              "type": "int256"
            },
            {
              "internalType": "int256",
              "name": "stakerInitialStakingPnl",
              "type": "int256"
            },
            {
              "internalType": "int256",
              "name": "stakerInitialTradingPnl",
              "type": "int256"
            },
            {
              "internalType": "uint256",
              "name": "stakerInitialBlockNum",
              "type": "uint256"
            },
            {
              "internalType": "int256",
              "name": "stakerUnrealizedStakingProfit",
              "type": "int256"
            },
            {
              "internalType": "int256",
              "name": "stakerUnrealizedTradingProfit",
              "type": "int256"
            },
            {
              "internalType": "int256",
              "name": "tradingRewardsTotal",
              "type": "int256"
            },
            {
              "internalType": "int256",
              "name": "stakingRewardsTotal",
              "type": "int256"
            }
          ],
          "indexed": false,
          "internalType": "struct IStripsEvents.CheckParams",
          "name": "params",
          "type": "tuple"
        }
      ],
      "name": "LogCheckData",
      "type": "event"
    },
    {
      "anonymous": false,
      "inputs": [
        {
          "indexed": true,
          "internalType": "address",
          "name": "insurance",
          "type": "address"
        },
        {
          "components": [
            {
              "internalType": "int256",
              "name": "lpLiquidity",
              "type": "int256"
            },
            {
              "internalType": "int256",
              "name": "usdcLiquidity",
              "type": "int256"
            },
            {
              "internalType": "uint256",
              "name": "sipTotalSupply",
              "type": "uint256"
            }
          ],
          "indexed": false,
          "internalType": "struct IStripsEvents.CheckInsuranceParams",
          "name": "params",
          "type": "tuple"
        }
      ],
      "name": "LogCheckInsuranceData",
      "type": "event"
    },
    {
      "anonymous": false,
      "inputs": [
        {
          "indexed": true,
          "internalType": "address",
          "name": "market",
          "type": "address"
        }
      ],
      "name": "LogNewMarket",
      "type": "event"
    },
    {
      "anonymous": false,
      "inputs": [
        {
          "indexed": true,
          "internalType": "address",
          "name": "account",
          "type": "address"
        },
        {
          "indexed": true,
          "internalType": "contract IMarket",
          "name": "market",
          "type": "address"
        },
        {
          "components": [
            {
              "internalType": "bool",
              "name": "isLong",
              "type": "bool"
            },
            {
              "internalType": "bool",
              "name": "isActive",
              "type": "bool"
            },
            {
              "internalType": "bool",
              "name": "isLiquidated",
              "type": "bool"
            },
            {
              "internalType": "int256",
              "name": "notional",
              "type": "int256"
            },
            {
              "internalType": "int256",
              "name": "collateral",
              "type": "int256"
            },
            {
              "internalType": "int256",
              "name": "initialPrice",
              "type": "int256"
            }
          ],
          "indexed": false,
          "internalType": "struct IStrips.PositionParams",
          "name": "params",
          "type": "tuple"
        }
      ],
      "name": "LogPositionUpdate",
      "type": "event"
    },
    {
      "anonymous": false,
      "inputs": [
        {
          "indexed": true,
          "internalType": "address",
          "name": "previousOwner",
          "type": "address"
        },
        {
          "indexed": true,
          "internalType": "address",
          "name": "newOwner",
          "type": "address"
        }
      ],
      "name": "OwnershipTransferred",
      "type": "event"
    },
    {
      "anonymous": false,
      "inputs": [
        {
          "indexed": true,
          "internalType": "uint256",
          "name": "current",
          "type": "uint256"
        },
        {
          "indexed": true,
          "internalType": "uint256",
          "name": "next",
          "type": "uint256"
        }
      ],
      "name": "PingDone",
      "type": "event"
    },
    {
      "inputs": [
        {
          "components": [
            {
              "internalType": "enum IStrips.AdminActionType",
              "name": "actionType",
              "type": "uint8"
            },
            {
              "internalType": "bytes",
              "name": "data",
              "type": "bytes"
            }
          ],
          "internalType": "struct IStrips.AdminActionArgs",
          "name": "args",
          "type": "tuple"
        }
      ],
      "name": "adminDispatcher",
      "outputs": [],
      "stateMutability": "nonpayable",
      "type": "function"
    },
    {
      "inputs": [
        {
          "internalType": "address",
          "name": "_asset",
          "type": "address"
        }
      ],
      "name": "assetPnl",
      "outputs": [
        {
          "internalType": "int256",
          "name": "",
          "type": "int256"
        }
      ],
      "stateMutability": "view",
      "type": "function"
    },
    {
      "inputs": [
        {
          "internalType": "contract IMarket",
          "name": "_market",
          "type": "address"
        },
        {
          "internalType": "int256",
          "name": "collateral",
          "type": "int256"
        },
        {
          "internalType": "bool",
          "name": "isAdd",
          "type": "bool"
        }
      ],
      "name": "changeCollateral",
      "outputs": [],
      "stateMutability": "nonpayable",
      "type": "function"
    },
    {
      "inputs": [
        {
          "internalType": "address",
          "name": "_newDao",
          "type": "address"
        }
      ],
      "name": "changeDao",
      "outputs": [],
      "stateMutability": "nonpayable",
      "type": "function"
    },
    {
      "inputs": [
        {
          "internalType": "address",
          "name": "_newPinger",
          "type": "address"
        }
      ],
      "name": "changePinger",
      "outputs": [],
      "stateMutability": "nonpayable",
      "type": "function"
    },
    {
      "inputs": [],
      "name": "check_insurance",
      "outputs": [],
      "stateMutability": "nonpayable",
      "type": "function"
    },
    {
      "inputs": [
        {
          "internalType": "address",
          "name": "account",
          "type": "address"
        },
        {
          "internalType": "address",
          "name": "market",
          "type": "address"
        }
      ],
      "name": "check_trader",
      "outputs": [],
      "stateMutability": "nonpayable",
      "type": "function"
    },
    {
      "inputs": [
        {
          "internalType": "contract IMarket",
          "name": "_market",
          "type": "address"
        },
        {
          "internalType": "int256",
          "name": "_closeRatio",
          "type": "int256"
        },
        {
          "internalType": "int256",
          "name": "_slippage",
          "type": "int256"
        }
      ],
      "name": "close",
      "outputs": [],
      "stateMutability": "nonpayable",
      "type": "function"
    },
    {
      "inputs": [],
      "name": "g_state",
      "outputs": [
        {
          "internalType": "address",
          "name": "dao",
          "type": "address"
        },
        {
          "internalType": "bool",
          "name": "isSuspended",
          "type": "bool"
        },
        {
          "internalType": "uint256",
          "name": "currentPositionIndex",
          "type": "uint256"
        },
        {
          "components": [
            {
              "internalType": "int256",
              "name": "fundFeeRatio",
              "type": "int256"
            },
            {
              "internalType": "int256",
              "name": "daoFeeRatio",
              "type": "int256"
            },
            {
              "internalType": "int256",
              "name": "liquidatorFeeRatio",
              "type": "int256"
            },
            {
              "internalType": "int256",
              "name": "marketFeeRatio",
              "type": "int256"
            },
            {
              "internalType": "int256",
              "name": "insuranceProfitOnPositionClosed",
              "type": "int256"
            },
            {
              "internalType": "int256",
              "name": "liquidationMarginRatio",
              "type": "int256"
            },
            {
              "internalType": "int256",
              "name": "minimumPricePossible",
              "type": "int256"
            }
          ],
          "internalType": "struct StorageStripsLib.RiskParams",
          "name": "riskParams",
          "type": "tuple"
        },
        {
          "internalType": "contract IInsuranceFund",
          "name": "insuranceFund",
          "type": "address"
        },
        {
          "internalType": "contract IERC20",
          "name": "tradingToken",
          "type": "address"
        },
        {
          "internalType": "uint256",
          "name": "lastAlive",
          "type": "uint256"
        },
        {
          "internalType": "uint256",
          "name": "keepAliveInterval",
          "type": "uint256"
        },
        {
          "internalType": "address",
          "name": "lpOracle",
          "type": "address"
        }
      ],
      "stateMutability": "view",
      "type": "function"
    },
    {
      "inputs": [],
      "name": "getLpOracle",
      "outputs": [
        {
          "internalType": "address",
          "name": "",
          "type": "address"
        }
      ],
      "stateMutability": "view",
      "type": "function"
    },
    {
      "inputs": [],
      "name": "getPositionsCount",
      "outputs": [
        {
          "internalType": "uint256",
          "name": "",
          "type": "uint256"
        }
      ],
      "stateMutability": "view",
      "type": "function"
    },
    {
      "inputs": [
        {
          "internalType": "uint256",
          "name": "_start",
          "type": "uint256"
        },
        {
          "internalType": "uint256",
          "name": "_length",
          "type": "uint256"
        }
      ],
      "name": "getPositionsForLiquidation",
      "outputs": [
        {
          "components": [
            {
              "internalType": "bool",
              "name": "isActive",
              "type": "bool"
            },
            {
              "internalType": "address",
              "name": "_account",
              "type": "address"
            },
            {
              "internalType": "contract IMarket",
              "name": "_market",
              "type": "address"
            },
            {
              "internalType": "uint256",
              "name": "_posIndex",
              "type": "uint256"
            }
          ],
          "internalType": "struct StorageStripsLib.PositionMeta[]",
          "name": "",
          "type": "tuple[]"
        }
      ],
      "stateMutability": "view",
      "type": "function"
    },
    {
      "inputs": [
        {
          "internalType": "address",
          "name": "_account",
          "type": "address"
        }
      ],
      "name": "getStakingInfo",
      "outputs": [
        {
          "components": [
            {
              "components": [
                {
                  "internalType": "bool",
                  "name": "isInsurance",
                  "type": "bool"
                },
                {
                  "internalType": "address",
                  "name": "asset",
                  "type": "address"
                },
                {
                  "internalType": "address",
                  "name": "slpToken",
                  "type": "address"
                },
                {
                  "internalType": "int256",
                  "name": "marketPrice",
                  "type": "int256"
                },
                {
                  "internalType": "int256",
                  "name": "oraclePrice",
                  "type": "int256"
                },
                {
                  "internalType": "int256",
                  "name": "maxNotional",
                  "type": "int256"
                },
                {
                  "internalType": "int256",
                  "name": "tvl",
                  "type": "int256"
                },
                {
                  "internalType": "int256",
                  "name": "apy",
                  "type": "int256"
                },
                {
                  "internalType": "int256",
                  "name": "minimumMargin",
                  "type": "int256"
                }
              ],
              "internalType": "struct IStrips.AssetData[]",
              "name": "assetData",
              "type": "tuple[]"
            },
            {
              "components": [
                {
                  "internalType": "address",
                  "name": "asset",
                  "type": "address"
                },
                {
                  "internalType": "uint256",
                  "name": "totalStaked",
                  "type": "uint256"
                }
              ],
              "internalType": "struct IStrips.StakingData[]",
              "name": "stakingData",
              "type": "tuple[]"
            }
          ],
          "internalType": "struct IStrips.StakingInfo",
          "name": "stakingInfo",
          "type": "tuple"
        }
      ],
      "stateMutability": "view",
      "type": "function"
    },
    {
      "inputs": [
        {
          "internalType": "address",
          "name": "_account",
          "type": "address"
        }
      ],
      "name": "getTradingInfo",
      "outputs": [
        {
          "components": [
            {
              "components": [
                {
                  "internalType": "bool",
                  "name": "isInsurance",
                  "type": "bool"
                },
                {
                  "internalType": "address",
                  "name": "asset",
                  "type": "address"
                },
                {
                  "internalType": "address",
                  "name": "slpToken",
                  "type": "address"
                },
                {
                  "internalType": "int256",
                  "name": "marketPrice",
                  "type": "int256"
                },
                {
                  "internalType": "int256",
                  "name": "oraclePrice",
                  "type": "int256"
                },
                {
                  "internalType": "int256",
                  "name": "maxNotional",
                  "type": "int256"
                },
                {
                  "internalType": "int256",
                  "name": "tvl",
                  "type": "int256"
                },
                {
                  "internalType": "int256",
                  "name": "apy",
                  "type": "int256"
                },
                {
                  "internalType": "int256",
                  "name": "minimumMargin",
                  "type": "int256"
                }
              ],
              "internalType": "struct IStrips.AssetData[]",
              "name": "assetData",
              "type": "tuple[]"
            },
            {
              "components": [
                {
                  "internalType": "contract IMarket",
                  "name": "market",
                  "type": "address"
                },
                {
                  "internalType": "int256",
                  "name": "pnl",
                  "type": "int256"
                },
                {
                  "internalType": "int256",
                  "name": "pnlWhatIf",
                  "type": "int256"
                },
                {
                  "internalType": "int256",
                  "name": "marginRatio",
                  "type": "int256"
                },
                {
                  "components": [
                    {
                      "internalType": "bool",
                      "name": "isLong",
                      "type": "bool"
                    },
                    {
                      "internalType": "bool",
                      "name": "isActive",
                      "type": "bool"
                    },
                    {
                      "internalType": "bool",
                      "name": "isLiquidated",
                      "type": "bool"
                    },
                    {
                      "internalType": "int256",
                      "name": "notional",
                      "type": "int256"
                    },
                    {
                      "internalType": "int256",
                      "name": "collateral",
                      "type": "int256"
                    },
                    {
                      "internalType": "int256",
                      "name": "initialPrice",
                      "type": "int256"
                    }
                  ],
                  "internalType": "struct IStrips.PositionParams",
                  "name": "positionParams",
                  "type": "tuple"
                }
              ],
              "internalType": "struct IStrips.PositionData[]",
              "name": "positionData",
              "type": "tuple[]"
            }
          ],
          "internalType": "struct IStrips.TradingInfo",
          "name": "tradingInfo",
          "type": "tuple"
        }
      ],
      "stateMutability": "view",
      "type": "function"
    },
    {
      "inputs": [
        {
          "components": [
            {
              "internalType": "int256",
              "name": "fundFeeRatio",
              "type": "int256"
            },
            {
              "internalType": "int256",
              "name": "daoFeeRatio",
              "type": "int256"
            },
            {
              "internalType": "int256",
              "name": "liquidatorFeeRatio",
              "type": "int256"
            },
            {
              "internalType": "int256",
              "name": "marketFeeRatio",
              "type": "int256"
            },
            {
              "internalType": "int256",
              "name": "insuranceProfitOnPositionClosed",
              "type": "int256"
            },
            {
              "internalType": "int256",
              "name": "liquidationMarginRatio",
              "type": "int256"
            },
            {
              "internalType": "int256",
              "name": "minimumPricePossible",
              "type": "int256"
            }
          ],
          "internalType": "struct StorageStripsLib.RiskParams",
          "name": "_riskParams",
          "type": "tuple"
        },
        {
          "internalType": "contract IERC20",
          "name": "_tradingToken",
          "type": "address"
        },
        {
          "internalType": "uint256",
          "name": "_keepAliveInterval",
          "type": "uint256"
        },
        {
          "internalType": "address",
          "name": "_dao",
          "type": "address"
        },
        {
          "internalType": "address",
          "name": "_lpOracle",
          "type": "address"
        }
      ],
      "name": "initialize",
      "outputs": [],
      "stateMutability": "nonpayable",
      "type": "function"
    },
    {
      "inputs": [
        {
          "internalType": "contract IMarket",
          "name": "_market",
          "type": "address"
        },
        {
          "internalType": "address",
          "name": "account",
          "type": "address"
        }
      ],
      "name": "liquidatePosition",
      "outputs": [],
      "stateMutability": "nonpayable",
      "type": "function"
    },
    {
      "inputs": [
        {
          "internalType": "contract IMarket",
          "name": "_market",
          "type": "address"
        },
        {
          "internalType": "bool",
          "name": "isLong",
          "type": "bool"
        },
        {
          "internalType": "int256",
          "name": "collateral",
          "type": "int256"
        },
        {
          "internalType": "int256",
          "name": "leverage",
          "type": "int256"
        },
        {
          "internalType": "int256",
          "name": "slippage",
          "type": "int256"
        }
      ],
      "name": "open",
      "outputs": [],
      "stateMutability": "nonpayable",
      "type": "function"
    },
    {
      "inputs": [],
      "name": "owner",
      "outputs": [
        {
          "internalType": "address",
          "name": "",
          "type": "address"
        }
      ],
      "stateMutability": "view",
      "type": "function"
    },
    {
      "inputs": [
        {
          "internalType": "address",
          "name": "keeper",
          "type": "address"
        }
      ],
      "name": "payKeeperReward",
      "outputs": [],
      "stateMutability": "nonpayable",
      "type": "function"
    },
    {
      "inputs": [],
      "name": "ping",
      "outputs": [],
      "stateMutability": "nonpayable",
      "type": "function"
    },
    {
      "inputs": [],
      "name": "pinger",
      "outputs": [
        {
          "internalType": "address",
          "name": "",
          "type": "address"
        }
      ],
      "stateMutability": "view",
      "type": "function"
    },
    {
      "inputs": [],
      "name": "renounceOwnership",
      "outputs": [],
      "stateMutability": "nonpayable",
      "type": "function"
    },
    {
      "inputs": [
        {
          "components": [
            {
              "internalType": "enum IStrips.StateActionType",
              "name": "actionType",
              "type": "uint8"
            },
            {
              "internalType": "bytes",
              "name": "data",
              "type": "bytes"
            }
          ],
          "internalType": "struct IStrips.StateActionArgs",
          "name": "args",
          "type": "tuple"
        }
      ],
      "name": "stateDispatcher",
      "outputs": [],
      "stateMutability": "nonpayable",
      "type": "function"
    },
    {
      "inputs": [
        {
          "internalType": "bool",
          "name": "_suspend",
          "type": "bool"
        }
      ],
      "name": "suspendChange",
      "outputs": [],
      "stateMutability": "nonpayable",
      "type": "function"
    },
    {
      "inputs": [
        {
          "internalType": "address",
          "name": "newOwner",
          "type": "address"
        }
      ],
      "name": "transferOwnership",
      "outputs": [],
      "stateMutability": "nonpayable",
      "type": "function"
    },
    {
      "inputs": [
        {
          "components": [
            {
              "internalType": "enum IStrips.ViewActionType",
              "name": "actionType",
              "type": "uint8"
            },
            {
              "internalType": "bytes",
              "name": "data",
              "type": "bytes"
            }
          ],
          "internalType": "struct IStrips.ViewActionArgs",
          "name": "args",
          "type": "tuple"
        }
      ],
      "name": "viewDispatcher",
      "outputs": [
        {
          "internalType": "bytes",
          "name": "",
          "type": "bytes"
        }
      ],
      "stateMutability": "view",
      "type": "function"
    }
  ],
  "bytecode": "0x608060405234801561001057600080fd5b506135cd806100206000396000f3fe608060405234801561001057600080fd5b506004361061018e5760003560e01c80639d90e4c8116100de578063d66d8b9b11610097578063e5f4a5d411610071578063e5f4a5d4146103f3578063e82eefe314610406578063ef6d4f3c1461040e578063f2fde38b1461042157600080fd5b8063d66d8b9b146103bc578063d8826fec146103cf578063df3f1ecc146103e257600080fd5b80639d90e4c814610330578063aa4704f314610343578063b02624b214610363578063b42ce2fe14610376578063b63403a014610389578063b97399f5146103a957600080fd5b80635c36b1861161014b5780637dfcd9e5116101255780637dfcd9e51461023f57806381ac79c9146102d85780638be7febc146102f85780638da5cb5b1461030b57600080fd5b80635c36b1861461021c57806364afa24c14610224578063715018a61461023757600080fd5b80630860f3b0146101935780630d6e6237146101a85780630e947bd8146101bb5780631ca3b0cb146101e457806347e1c082146101f6578063586e848f14610209575b600080fd5b6101a66101a13660046125ca565b610434565b005b6101a66101b6366004612787565b6104cd565b6101ce6101c93660046125ca565b61069c565b6040516101db9190613076565b60405180910390f35b6007545b6040519081526020016101db565b6101a6610204366004612602565b61074a565b6101a66102173660046126e4565b6107c8565b6101a6610993565b6101e86102323660046125ca565b610a1c565b6101a6610a5b565b6001546009546040805160e081018252600c548152600d546020820152600e5491810191909152600f546060820152601054608082015260115460a082015260125460c08201526013546014546015546016546017546102c3976001600160a01b0380821698600160a01b90920460ff169791969195918116949181169391921689565b6040516101db99989796959493929190612d15565b6102eb6102e63660046127d3565b610a91565b6040516101db9190612e46565b6101a6610306366004612a12565b610b22565b604b546001600160a01b03165b6040516001600160a01b0390911681526020016101db565b6101a661033e3660046127d3565b610b8f565b6103566103513660046125ca565b610bf3565b6040516101db9190612fa7565b6101a661037136600461284e565b610c9b565b6101a66103843660046126f6565b610e2f565b61039c610397366004612c01565b61104e565b6040516101db9190612dd4565b600054610318906001600160a01b031681565b6101a66103ca366004612746565b6112ee565b6101a66103dd3660046125ca565b6113b2565b6017546001600160a01b0316610318565b6101a661040136600461263a565b61143f565b6101a6611487565b6101a661041c3660046125ca565b6114ec565b6101a661042f3660046125ca565b611533565b604b546001600160a01b031633146104675760405162461bcd60e51b815260040161045e90612eca565b60405180910390fd5b6001600160a01b0381166104ab5760405162461bcd60e51b815260206004820152600b60248201526a2d22a927afa824a723a2a960a91b604482015260640161045e565b600080546001600160a01b0319166001600160a01b0392909216919091179055565b600054600160a01b900460ff16156104f75760405162461bcd60e51b815260040161045e90612eff565b6000805460ff60a01b1916600160a01b9081179091556001540460ff16156105315760405162461bcd60e51b815260040161045e90612ea7565b60165460155461054191906132b8565b4211156105605760405162461bcd60e51b815260040161045e90612f36565b604051630f1bdc8d60e21b8152600160048201526001600160a01b0384166024820152604481018390526064810182905273__$924e03e9d2232415021c9b9496309e98d4$__90633c6f72349060840160006040518083038186803b1580156105c857600080fd5b505af41580156105dc573d6000803e3d6000fd5b50600092506105f191506001905085336115ce565b6040805160c081018252600d83015460ff80821615158352610100820481161515602084015262010000909104161515818301526006830154606082015260058301546080820152600283015460a082015290519192506001600160a01b0386169133917fe29f470cb2cfa2003bdd9a73777e5597f1c2f6b9f9f30eabb327ac3376f4a710916106819190612f5e565b60405180910390a350506000805460ff60a01b191690555050565b60408051808201825260608082526020820152905163309efe7960e01b8152600160048201526001600160a01b038316602482015273__$641225a8c774088aad0a98e8e797efbbe7$__9063309efe799060440160006040518083038186803b15801561070857600080fd5b505af415801561071c573d6000803e3d6000fd5b505050506040513d6000823e601f3d908101601f191682016040526107449190810190612a62565b92915050565b604051635739dd5d60e11b8152600160048201526001600160a01b0380841660248301528216604482015273__$a12c01fbd8122b4f229501571668af9cd9$__9063ae73baba9060640160006040518083038186803b1580156107ac57600080fd5b505af41580156107c0573d6000803e3d6000fd5b505050505050565b600054600160a01b900460ff16156107f25760405162461bcd60e51b815260040161045e90612eff565b6000805460ff60a01b1916600160a01b9081179091556001540460ff161561082c5760405162461bcd60e51b815260040161045e90612ea7565b60165460155461083c91906132b8565b42111561085b5760405162461bcd60e51b815260040161045e90612f36565b60405163dc33a4c960e01b8152600160048201526001600160a01b0380841660248301528216604482015273__$924e03e9d2232415021c9b9496309e98d4$__9063dc33a4c99060640160006040518083038186803b1580156108bd57600080fd5b505af41580156108d1573d6000803e3d6000fd5b50600092506108e691506001905084846115ce565b6040805160c081018252600d83015460ff80821615158352610100820481161515602084015262010000909104161515818301526006830154606082015260058301546080820152600283015460a082015290519192506001600160a01b0380861692908516917fe29f470cb2cfa2003bdd9a73777e5597f1c2f6b9f9f30eabb327ac3376f4a710916109799190612f5e565b60405180910390a350506000805460ff60a01b1916905550565b6000546001600160a01b031633146109dc5760405162461bcd60e51b815260206004820152600c60248201526b2727aa2fa0afa824a723a2a960a11b604482015260640161045e565b4260158190556016546109ee916132b8565b6015546040517f715bb9087ad9ed85ef65540b33e3d95a7ed34710b4e2c8ca7083c5bc3a3df9a790600090a3565b600080610a2b600184806115ce565b600d810154909150610100900460ff16610a485750600092915050565b610a54600184836115fc565b9392505050565b604b546001600160a01b03163314610a855760405162461bcd60e51b815260040161045e90612eca565b610a8f600061161a565b565b60405163ed3a07d760e01b815260609073__$641225a8c774088aad0a98e8e797efbbe7$__9063ed3a07d790610ace906001908690600401613021565b60006040518083038186803b158015610ae657600080fd5b505af4158015610afa573d6000803e3d6000fd5b505050506040513d6000823e601f3d908101601f191682016040526107449190810190612672565b6040516310db51c760e01b815273__$a12c01fbd8122b4f229501571668af9cd9$__906310db51c790610b5c906001908590600401613058565b60006040518083038186803b158015610b7457600080fd5b505af4158015610b88573d6000803e3d6000fd5b5050505050565b604b546001600160a01b03163314610bb95760405162461bcd60e51b815260040161045e90612eca565b6040516362fe651760e01b815273__$47118f28351ca40d93672e0807da6df852$__906362fe651790610b5c906001908590600401613021565b60408051808201825260608082526020820152905163bae54d2d60e01b8152600160048201526001600160a01b038316602482015273__$641225a8c774088aad0a98e8e797efbbe7$__9063bae54d2d9060440160006040518083038186803b158015610c5f57600080fd5b505af4158015610c73573d6000803e3d6000fd5b505050506040513d6000823e601f3d908101601f1916820160405261074491908101906128ff565b601854610100900460ff1680610cb4575060185460ff16155b610cd05760405162461bcd60e51b815260040161045e90612e59565b601854610100900460ff16158015610cf2576018805461ffff19166101011790555b6001600160a01b038316610d335760405162461bcd60e51b81526020600482015260086024820152675a45524f5f44414f60c01b604482015260640161045e565b843b610d815760405162461bcd60e51b815260206004820152601c60248201527f54524144494e475f544f4b454e5f4e4f545f415f434f4e545241435400000000604482015260640161045e565b610d8961166c565b600080548751600c556020880151600d556040880151600e556060880151600f55608088015160105560a088015160115560c0880151601255601480546001600160a01b03808a166001600160a01b0319928316179092554260155560168890556001805488841690831617905560178054928716929091169190911790556001600160a81b0319163317905580156107c0576018805461ff0019169055505050505050565b600054600160a01b900460ff1615610e595760405162461bcd60e51b815260040161045e90612eff565b6000805460ff60a01b1916600160a01b9081179091556001540460ff1615610e935760405162461bcd60e51b815260040161045e90612ea7565b601654601554610ea391906132b8565b421115610ec25760405162461bcd60e51b815260040161045e90612f36565b6040805160c0810182526001600160a01b0387811682523360208301908152828401878152606084018781528915156080860190815260a086018881529651635c739ee960e11b815260016004820152955185166024870152925190931660448501525160648401529051608483015251151560a4820152905160c482015273__$924e03e9d2232415021c9b9496309e98d4$__9063b8e73dd29060e40160006040518083038186803b158015610f7857600080fd5b505af4158015610f8c573d6000803e3d6000fd5b5060009250610fa191506001905087336115ce565b6040805160c081018252600d83015460ff80821615158352610100820481161515602084015262010000909104161515818301526006830154606082015260058301546080820152600283015460a082015290519192506001600160a01b0388169133917fe29f470cb2cfa2003bdd9a73777e5597f1c2f6b9f9f30eabb327ac3376f4a710916110319190612f5e565b60405180910390a350506000805460ff60a01b1916905550505050565b6007546060906110ac57604080516001808252818301909252600091816020015b60408051608081018252600080825260208083018290529282018190526060820152825260001990920191018161106f5790505091506107449050565b6007546000906110bc84866132b8565b11156110d8576007546110d1906001906134b7565b90506110f1565b60016110e484866132b8565b6110ee91906134b7565b90505b60006110fd85836134b7565b6111089060016132b8565b9050600080826001600160401b0381111561113357634e487b7160e01b600052604160045260246000fd5b60405190808252806020026020018201604052801561118557816020015b6040805160808101825260008082526020808301829052928201819052606082015282526000199092019101816111515790505b509050865b8481116112e3576000600160060182815481106111b757634e487b7160e01b600052603260045260246000fd5b6000918252602080832090910154808352600890915260409091205490915060ff16156112d057600081815260086020526040812060018181015491546001600160a01b03928316939261121492918591610100909104166115ce565b9050600061122e600184846112276116e7565b6000611701565b601154909250905081136112cc576000848152600860209081526040918290208251608081018452815460ff8116151582526001600160a01b03610100909104811693820193909352600182015490921692820192909252600290910154606082015286518790899081106112b357634e487b7160e01b600052603260045260246000fd5b60209081029190910101526112c96001886132b8565b96505b5050505b50806112db816134fa565b91505061118a565b509695505050505050565b600054600160a01b900460ff16156113185760405162461bcd60e51b815260040161045e90612eff565b6000805460ff60a01b1916600160a01b9081179091556001540460ff16156113525760405162461bcd60e51b815260040161045e90612ea7565b60165460155461136291906132b8565b4211156113815760405162461bcd60e51b815260040161045e90612f36565b801561139857611393600184846117c8565b6113a4565b6113a460018484611843565b60006105f1600185336115ce565b604b546001600160a01b031633146113dc5760405162461bcd60e51b815260040161045e90612eca565b6001600160a01b03811661141d5760405162461bcd60e51b81526020600482015260086024820152675a45524f5f44414f60c01b604482015260640161045e565b600180546001600160a01b0319166001600160a01b0392909216919091179055565b604b546001600160a01b031633146114695760405162461bcd60e51b815260040161045e90612eca565b60018054911515600160a01b0260ff60a01b19909216919091179055565b6040516307eec72560e51b81526001600482015273__$a12c01fbd8122b4f229501571668af9cd9$__9063fdd8e4a09060240160006040518083038186803b1580156114d257600080fd5b505af41580156114e6573d6000803e3d6000fd5b50505050565b6040516372bea82760e01b8152600160048201526001600160a01b038216602482015273__$a12c01fbd8122b4f229501571668af9cd9$__906372bea82790604401610b5c565b604b546001600160a01b0316331461155d5760405162461bcd60e51b815260040161045e90612eca565b6001600160a01b0381166115c25760405162461bcd60e51b815260206004820152602660248201527f4f776e61626c653a206e6577206f776e657220697320746865207a65726f206160448201526564647265737360d01b606482015260840161045e565b6115cb8161161a565b50565b6001600160a01b03808216600090815260058501602090815260408083209386168352929052209392505050565b60008060008061160d8787876118fe565b9998505050505050505050565b604b80546001600160a01b038381166001600160a01b0319831681179093556040519116919082907f8be0079c531659141344cd1fd0a4f28419497f9722a3daafe3b4186f6b6457e090600090a35050565b601854610100900460ff1680611685575060185460ff16155b6116a15760405162461bcd60e51b815260040161045e90612e59565b601854610100900460ff161580156116c3576018805461ffff19166101011790555b6116cb611b26565b6116d3611b90565b80156115cb576018805461ff001916905550565b60006116fc670de0b6b3a764000060016133f5565b905090565b6000806117118787878787611bf0565b915061171b6116e7565b84141561174757611740856006015483876005015461173a9190613277565b90611c12565b90506117be565b600061175d8888886117576116e7565b88611bf0565b90506117ba6117838661176e6116e7565b6117789190613478565b600689015490611c30565b84836117a6896117916116e7565b61179b9190613478565b60058c015490611c30565b6117b09190613277565b61173a9190613478565b9150505b9550959350505050565b6000811361180a5760405162461bcd60e51b815260206004820152600f60248201526e0434f4c4c41544552414c5f4c545f3608c1b604482015260640161045e565b6000611817848433611c3e565b9050611824843384611cb2565b50611830848284611ccf565b6114e684828561183e6116e7565b611ced565b600081136118855760405162461bcd60e51b815260206004820152600f60248201526e0434f4c4c41544552414c5f4c545f3608c1b604482015260640161045e565b6000611892848433611c3e565b9050806005015482126118d95760405162461bcd60e51b815260206004820152600f60248201526e10d0539517d4915353d59157d05313608a1b604482015260640161045e565b6118e4848284611d0a565b6118ef843384611d72565b506114e684828561183e6116e7565b600080600080856001600160a01b0316639d1b464a6040518163ffffffff1660e01b815260040160206040518083038186803b15801561193d57600080fd5b505afa158015611951573d6000803e3d6000fd5b505050506040513d601f19601f8201168201806040525081019061197591906127bb565b905061198e8161173a8760020154846117789190613478565b92508460060154600014156119a55784600e015492505b604080516060810182526010870154815260118701546020820152601287015460ff16151591810191909152600986015443146119fd576006860154815260028601546020820152600d86015460ff16151560408201525b6000866007015442611a0f91906134b7565b9050600080821315611ab5576000611a2b8a8a60080154611d8e565b90506000611a48611a3f6301e13380611e7e565b61173a86611e7e565b9050611a6c611a64828760200151611c3090919063ffffffff16565b865190611c30565b611a8a611a82611a7b87611e7e565b8590611c30565b875190611c30565b611a949190613478565b60128b015490935060ff16611ab257611aaf600019846133f5565b92505b50505b600c880154611ac49082613277565b9650876006015460001415611ae457611add8688613277565b9450611b19565b600d88015460ff16151560011415611b0057611add8688613277565b86611b0c876000613478565b611b169190613277565b94505b5050505093509350939050565b601854610100900460ff1680611b3f575060185460ff16155b611b5b5760405162461bcd60e51b815260040161045e90612e59565b601854610100900460ff161580156116d3576018805461ffff191661010117905580156115cb576018805461ff001916905550565b601854610100900460ff1680611ba9575060185460ff16155b611bc55760405162461bcd60e51b815260040161045e90612e59565b601854610100900460ff16158015611be7576018805461ffff19166101011790555b6116d33361161a565b600080600080611c038989898989611e92565b9b9a5050505050505050505050565b60008160011415611c24575081610744565b610a548383601261215b565b6000610a5483836012612183565b6001600160a01b0380821660009081526005850160209081526040808320938616835292905220600d81015460ff610100909104161515600114610a545760405162461bcd60e51b815260206004820152600b60248201526a2727afa827a9a4aa24a7a760a91b604482015260640161045e565b6013830154600090610a54906001600160a01b0316843085612198565b80826005016000828254611ce39190613277565b9091555050505050565b6000611cfd858486856000611701565b915050610b888582612203565b80826005016000828254611d1e9190613478565b9091555050600582015460001315611d6d5760405162461bcd60e51b8152602060048201526012602482015271434f4c4c41544552414c5f544f4f5f42494760701b604482015260640161045e565b505050565b6013830154600090610a54906001600160a01b0316848461224f565b6000826001600160a01b0316634dde1fb16040518163ffffffff1660e01b815260040160206040518083038186803b158015611dc957600080fd5b505afa158015611ddd573d6000803e3d6000fd5b505050506040513d601f19601f82011682018060405250810190611e0191906125e6565b6001600160a01b031663796ba96c836040518263ffffffff1660e01b8152600401611e2e91815260200190565b60206040518083038186803b158015611e4657600080fd5b505afa158015611e5a573d6000803e3d6000fd5b505050506040513d601f19601f82011682018060405250810190610a5491906127bb565b6000610744670de0b6b3a7640000836133f5565b6000806000611ecb6040518060a00160405280600015158152602001600081526020016000815260200160008152602001600081525090565b600d87015460ff16151581526002870154602082015260068701546060820152600c8701546080820152611efd6116e7565b8614611f2c576060810151611f129087611c30565b60608201526080810151611f269087611c30565b60808201525b600060018615151415611fb157886001600160a01b0316639d1b464a6040518163ffffffff1660e01b815260040160206040518083038186803b158015611f7257600080fd5b505afa158015611f86573d6000803e3d6000fd5b505050506040513d601f19601f82011682018060405250810190611faa91906127bb565b905061204c565b886001600160a01b031663dc028c0883606001516000611fd19190613478565b845160405160e084901b6001600160e01b031916815260048101929092521515602482015260440160206040518083038186803b15801561201157600080fd5b505afa158015612025573d6000803e3d6000fd5b505050506040513d601f19601f8201168201806040525081019061204991906127bb565b90505b61206e8161173a8460200151846120639190613478565b606086015190611c30565b9350600088600701544261208291906134b7565b9050600081131561210a57600061209d8b8b60080154611d8e565b905060006120ba6120b16301e13380611e7e565b61173a85611e7e565b90506120e16120d6828760200151611c3090919063ffffffff16565b606087015190611c30565b6120fb6120f0611a7b86611e7e565b606088015190611c30565b6121059190613478565b975050505b60808301516121199087613277565b8351909650156121345761212d8587613277565b935061214d565b85612140866000613478565b61214a9190613478565b93505b505050955095509592505050565b6000826121678361227f565b61217190866133f5565b61217b91906132d0565b949350505050565b600061218e8261227f565b61217184866133f5565b6040516001600160a01b03808516602483015283166044820152606481018290526114e69085906323b872dd60e01b906084015b60408051601f198184030181529190526020810180516001600160e01b03166001600160e01b03199093169290921790915261228f565b601082015481121561224b5760405162461bcd60e51b81526020600482015260116024820152702727aa2fa2a727aaa3a42fa6a0a923a4a760791b604482015260640161045e565b5050565b6040516001600160a01b038316602482015260448101829052611d6d90849063a9059cbb60e01b906064016121cc565b600061074460ff8316600a61334d565b60006122e4826040518060400160405280602081526020017f5361666545524332303a206c6f772d6c6576656c2063616c6c206661696c6564815250856001600160a01b03166123619092919063ffffffff16565b805190915015611d6d57808060200190518101906123029190612656565b611d6d5760405162461bcd60e51b815260206004820152602a60248201527f5361666545524332303a204552433230206f7065726174696f6e20646964206e6044820152691bdd081cdd58d8d9595960b21b606482015260840161045e565b606061217b848460008585843b6123ba5760405162461bcd60e51b815260206004820152601d60248201527f416464726573733a2063616c6c20746f206e6f6e2d636f6e7472616374000000604482015260640161045e565b600080866001600160a01b031685876040516123d69190612cf9565b60006040518083038185875af1925050503d8060008114612413576040519150601f19603f3d011682016040523d82523d6000602084013e612418565b606091505b5091509150612428828286612433565b979650505050505050565b60608315612442575081610a54565b8251156124525782518084602001fd5b8160405162461bcd60e51b815260040161045e9190612e46565b803561247781613567565b919050565b805161247781613567565b600082601f830112612497578081fd5b815160206124ac6124a78361322d565b6131fd565b82815281810190858301610120808602880185018910156124cb578687fd5b865b868110156125655781838b0312156124e3578788fd5b6124eb61314c565b6124f484612573565b815261250187850161247c565b87820152604061251281860161247c565b90820152606084810151908201526080808501519082015260a0808501519082015260c0808501519082015260e080850151908201526101008085015190820152855293850193918101916001016124cd565b509198975050505050505050565b80516124778161357c565b600082601f83011261258e578081fd5b813561259c6124a782613250565b8181528460208386010111156125b0578283fd5b816020850160208301379081016020019190915292915050565b6000602082840312156125db578081fd5b8135610a5481613567565b6000602082840312156125f7578081fd5b8151610a5481613567565b60008060408385031215612614578081fd5b823561261f81613567565b9150602083013561262f81613567565b809150509250929050565b60006020828403121561264b578081fd5b8135610a548161357c565b600060208284031215612667578081fd5b8151610a548161357c565b600060208284031215612683578081fd5b81516001600160401b03811115612698578182fd5b8201601f810184136126a8578182fd5b80516126b66124a782613250565b8181528560208385010111156126ca578384fd5b6126db8260208301602086016134ce565b95945050505050565b60008060408385031215612614578182fd5b600080600080600060a0868803121561270d578081fd5b853561271881613567565b945060208601356127288161357c565b94979496505050506040830135926060810135926080909101359150565b60008060006060848603121561275a578081fd5b833561276581613567565b925060208401359150604084013561277c8161357c565b809150509250925092565b60008060006060848603121561279b578081fd5b83356127a681613567565b95602085013595506040909401359392505050565b6000602082840312156127cc578081fd5b5051919050565b6000602082840312156127e4578081fd5b81356001600160401b03808211156127fa578283fd5b908301906040828603121561280d578283fd5b612815613175565b82356128208161358a565b8152602083013582811115612833578485fd5b61283f8782860161257e565b60208301525095945050505050565b6000806000806000858703610160811215612867578384fd5b60e0811215612874578384fd5b5061287d613197565b863581526020870135602082015260408701356040820152606087013560608201526080870135608082015260a087013560a082015260c087013560c0820152809550506128cd60e0870161246c565b935061010086013592506128e4610120870161246c565b91506128f3610140870161246c565b90509295509295909350565b60006020808385031215612911578182fd5b82516001600160401b0380821115612927578384fd5b8185019150604080838803121561293c578485fd5b612944613175565b835183811115612952578687fd5b61295e89828701612487565b8252508484015183811115612971578687fd5b80850194505087601f850112612985578586fd5b835192506129956124a78461322d565b8084825286820191508686018a888760061b89010111156129b4578889fd5b8896505b858710156129ff5784818c0312156129ce578889fd5b6129d6613175565b81516129e181613567565b815281890151898201528352600196909601959187019184016129b8565b5095820195909552979650505050505050565b600060208284031215612a23578081fd5b81356001600160401b0380821115612a39578283fd5b9083019060408286031215612a4c578283fd5b612a54613175565b823560018110612820578485fd5b60006020808385031215612a74578182fd5b82516001600160401b0380821115612a8a578384fd5b81850191506040808388031215612a9f578485fd5b612aa7613175565b835183811115612ab5578687fd5b612ac189828701612487565b8252508484015183811115612ad4578687fd5b80850194505087601f850112612ae8578586fd5b83519250612af86124a78461322d565b83815285810190858701610140808702880189018c1015612b1757898afd5b8997505b86881015612bed57818c0381811215612b32578a8bfd5b612b3a6131b9565b8351612b4581613567565b8152838b01518b820152878401518882015260608085015181830152608060c0607f198501811315612b75578e8ffd5b612b7d6131db565b945081870151612b8c8161357c565b855260a0870151612b9c8161357c565b858f0152860151612bac8161357c565b848b015260e0860151918401919091526101008501518184015261012085015160a08401528101919091528452600197909701969288019290810190612b1b565b505095820195909552979650505050505050565b60008060408385031215612c13578182fd5b50508035926020909101359150565b6000815180845260208085019450808401835b83811015612cc2578151805115158852838101516001600160a01b031684890152604080820151612c70828b01826001600160a01b03169052565b5050606081810151908901526080808201519089015260a0808201519089015260c0808201519089015260e0808201519089015261010090810151908801526101209096019590820190600101612c35565b509495945050505050565b60008151808452612ce58160208601602086016134ce565b601f01601f19169290920160200192915050565b60008251612d0b8184602087016134ce565b9190910192915050565b60006101e08201905060018060a01b038b16825289151560208301528860408301528751606083015260208801516080830152604088015160a0830152606088015160c0830152608088015160e083015260a088015161010083015260c0880151610120830152612d926101408301886001600160a01b03169052565b6001600160a01b03861661016083015284610180830152836101a0830152612dc66101c08301846001600160a01b03169052565b9a9950505050505050505050565b602080825282518282018190526000919060409081850190868401855b82811015612e39578151805115158552868101516001600160a01b03908116888701528682015116868601526060908101519085015260809093019290850190600101612df1565b5091979650505050505050565b602081526000610a546020830184612ccd565b6020808252602e908201527f496e697469616c697a61626c653a20636f6e747261637420697320616c72656160408201526d191e481a5b9a5d1a585b1a5e995960921b606082015260800190565b60208082526009908201526814d554d4115391115160ba1b604082015260600190565b6020808252818101527f4f776e61626c653a2063616c6c6572206973206e6f7420746865206f776e6572604082015260600190565b6020808252601f908201527f5265656e7472616e637947756172643a207265656e7472616e742063616c6c00604082015260600190565b6020808252600e908201526d14125391d7d393d517d193d5539160921b604082015260600190565b60c081016107448284805115158252602081015115156020830152604081015115156040830152606081015160608301526080810151608083015260a081015160a08301525050565b60006020808352835160408083860152612fc46060860183612c22565b86840151868203601f1901838801528051808352908501935085918501905b8083101561301557845180516001600160a01b0316835286015186830152938501936001929092019190830190612fe3565b50979650505050505050565b828152604060208201526000825161303881613557565b806040840152506020830151604060608401526126db6080840182612ccd565b8281526040602082015260008251600181106130385761303861352b565b60006020808352606084516040808487015261309483870183612c22565b87850151878203601f1901838901528051808352908601935086918601905b8083101561313f57845180516001600160a01b0316835287810151888401528481015185840152868101518784015260809081015180511515828501526020810151151560a0808601919091526040820151151560c0860152606082015160e08601529181015161010085015201516101208301529386019360019290920191610140909101906130b3565b5098975050505050505050565b60405161012081016001600160401b038111828210171561316f5761316f613541565b60405290565b604080519081016001600160401b038111828210171561316f5761316f613541565b60405160e081016001600160401b038111828210171561316f5761316f613541565b60405160a081016001600160401b038111828210171561316f5761316f613541565b60405160c081016001600160401b038111828210171561316f5761316f613541565b604051601f8201601f191681016001600160401b038111828210171561322557613225613541565b604052919050565b60006001600160401b0382111561324657613246613541565b5060051b60200190565b60006001600160401b0382111561326957613269613541565b50601f01601f191660200190565b600080821280156001600160ff1b038490038513161561329957613299613515565b600160ff1b83900384128116156132b2576132b2613515565b50500190565b600082198211156132cb576132cb613515565b500190565b6000826132eb57634e487b7160e01b81526012600452602481fd5b600160ff1b82146000198414161561330557613305613515565b500590565b600181815b8085111561334557816000190482111561332b5761332b613515565b8085161561333857918102915b93841c939080029061330f565b509250929050565b6000610a54838360008261336357506001610744565b8161337057506000610744565b81600181146133865760028114613390576133ac565b6001915050610744565b60ff8411156133a1576133a1613515565b50506001821b610744565b5060208310610133831016604e8410600b84101617156133cf575081810a610744565b6133d9838361330a565b80600019048211156133ed576133ed613515565b029392505050565b60006001600160ff1b038184138284138082168684048611161561341b5761341b613515565b600160ff1b8487128281168783058912161561343957613439613515565b85871292508782058712848416161561345457613454613515565b8785058712818416161561346a5761346a613515565b505050929093029392505050565b60008083128015600160ff1b85018412161561349657613496613515565b6001600160ff1b03840183138116156134b1576134b1613515565b50500390565b6000828210156134c9576134c9613515565b500390565b60005b838110156134e95781810151838201526020016134d1565b838111156114e65750506000910152565b600060001982141561350e5761350e613515565b5060010190565b634e487b7160e01b600052601160045260246000fd5b634e487b7160e01b600052602160045260246000fd5b634e487b7160e01b600052604160045260246000fd5b600681106115cb576115cb61352b565b6001600160a01b03811681146115cb57600080fd5b80151581146115cb57600080fd5b600681106115cb57600080fdfea2646970667358221220910f36b0e419175d25ad1a285cd844af320da03b62db499d1513ae871d32be0264736f6c63430008040033",
  "linkReferences": {
    "contracts/impl/StripsAdminImpl.sol": {
      "StripsAdminImpl": [
        {
          "length": 20,
          "start": 3048
        }
      ]
    },
    "contracts/impl/StripsStateImpl.sol": {
      "StripsStateImpl": [
        {
          "length": 20,
          "start": 1943
        },
        {
          "length": 20,
          "start": 2897
        },
        {
          "length": 20,
          "start": 5309
        },
        {
          "length": 20,
          "start": 5425
        }
      ]
    },
    "contracts/impl/StripsViewImpl.sol": {
      "StripsViewImpl": [
        {
          "length": 20,
          "start": 1779
        },
        {
          "length": 20,
          "start": 2755
        },
        {
          "length": 20,
          "start": 3146
        }
      ]
    },
    "contracts/impl/TradeImpl.sol": {
      "TradeImpl": [
        {
          "length": 20,
          "start": 1459
        },
        {
          "length": 20,
          "start": 2216
        },
        {
          "length": 20,
          "start": 3939
        }
      ]
    }
  },
  "deployedLinkReferences": {
    "contracts/impl/StripsAdminImpl.sol": {
      "StripsAdminImpl": [
        {
          "length": 20,
          "start": 3016
        }
      ]
    },
    "contracts/impl/StripsStateImpl.sol": {
      "StripsStateImpl": [
        {
          "length": 20,
          "start": 1911
        },
        {
          "length": 20,
          "start": 2865
        },
        {
          "length": 20,
          "start": 5277
        },
        {
          "length": 20,
          "start": 5393
        }
      ]
    },
    "contracts/impl/StripsViewImpl.sol": {
      "StripsViewImpl": [
        {
          "length": 20,
          "start": 1747
        },
        {
          "length": 20,
          "start": 2723
        },
        {
          "length": 20,
          "start": 3114
        }
      ]
    },
    "contracts/impl/TradeImpl.sol": {
      "TradeImpl": [
        {
          "length": 20,
          "start": 1427
        },
        {
          "length": 20,
          "start": 2184
        },
        {
          "length": 20,
          "start": 3907
        }
      ]
    }
  }
}