{
  "_format": "hh-sol-artifact-1",
  "contractName": "SUSD",
  "sourceName": "contracts/token/SUSD.sol",
  "abi": [
    {
      "inputs": [],
      "stateMutability": "nonpayable",
      "type": "constructor"
    },
    {
      "anonymous": false,
      "inputs": [
        {
          "indexed": true,
          "internalType": "address",
          "name": "owner",
          "type": "address"
        },
        {
          "indexed": true,
          "internalType": "address",
          "name": "spender",
          "type": "address"
        },
        {
          "indexed": false,
          "internalType": "uint256",
          "name": "value",
          "type": "uint256"
        }
      ],
      "name": "Approval",
      "type": "event"
    },
    {
      "anonymous": false,
      "inputs": [
        {
          "indexed": true,
          "internalType": "address",
          "name": "previousOwner",
          "type": "address"
        },
        {
          "indexed": true,
          "internalType": "address",
          "name": "newOwner",
          "type": "address"
        }
      ],
      "name": "OwnershipTransferred",
      "type": "event"
    },
    {
      "anonymous": false,
      "inputs": [
        {
          "indexed": true,
          "internalType": "address",
          "name": "from",
          "type": "address"
        },
        {
          "indexed": true,
          "internalType": "address",
          "name": "to",
          "type": "address"
        },
        {
          "indexed": false,
          "internalType": "uint256",
          "name": "value",
          "type": "uint256"
        }
      ],
      "name": "Transfer",
      "type": "event"
    },
    {
      "inputs": [],
      "name": "MAXPERUSER",
      "outputs": [
        {
          "internalType": "uint256",
          "name": "",
          "type": "uint256"
        }
      ],
      "stateMutability": "view",
      "type": "function"
    },
    {
      "inputs": [
        {
          "internalType": "address",
          "name": "owner",
          "type": "address"
        },
        {
          "internalType": "address",
          "name": "spender",
          "type": "address"
        }
      ],
      "name": "allowance",
      "outputs": [
        {
          "internalType": "uint256",
          "name": "",
          "type": "uint256"
        }
      ],
      "stateMutability": "view",
      "type": "function"
    },
    {
      "inputs": [
        {
          "internalType": "address",
          "name": "spender",
          "type": "address"
        },
        {
          "internalType": "uint256",
          "name": "amount",
          "type": "uint256"
        }
      ],
      "name": "approve",
      "outputs": [
        {
          "internalType": "bool",
          "name": "",
          "type": "bool"
        }
      ],
      "stateMutability": "nonpayable",
      "type": "function"
    },
    {
      "inputs": [
        {
          "internalType": "address",
          "name": "account",
          "type": "address"
        }
      ],
      "name": "balanceOf",
      "outputs": [
        {
          "internalType": "uint256",
          "name": "",
          "type": "uint256"
        }
      ],
      "stateMutability": "view",
      "type": "function"
    },
    {
      "inputs": [
        {
          "internalType": "address",
          "name": "from",
          "type": "address"
        },
        {
          "internalType": "uint256",
          "name": "amount",
          "type": "uint256"
        }
      ],
      "name": "burn",
      "outputs": [],
      "stateMutability": "nonpayable",
      "type": "function"
    },
    {
      "inputs": [],
      "name": "decimals",
      "outputs": [
        {
          "internalType": "uint8",
          "name": "",
          "type": "uint8"
        }
      ],
      "stateMutability": "view",
      "type": "function"
    },
    {
      "inputs": [
        {
          "internalType": "address",
          "name": "spender",
          "type": "address"
        },
        {
          "internalType": "uint256",
          "name": "subtractedValue",
          "type": "uint256"
        }
      ],
      "name": "decreaseAllowance",
      "outputs": [
        {
          "internalType": "bool",
          "name": "",
          "type": "bool"
        }
      ],
      "stateMutability": "nonpayable",
      "type": "function"
    },
    {
      "inputs": [
        {
          "internalType": "address",
          "name": "spender",
          "type": "address"
        },
        {
          "internalType": "uint256",
          "name": "addedValue",
          "type": "uint256"
        }
      ],
      "name": "increaseAllowance",
      "outputs": [
        {
          "internalType": "bool",
          "name": "",
          "type": "bool"
        }
      ],
      "stateMutability": "nonpayable",
      "type": "function"
    },
    {
      "inputs": [
        {
          "internalType": "address",
          "name": "to",
          "type": "address"
        },
        {
          "internalType": "uint256",
          "name": "amount",
          "type": "uint256"
        }
      ],
      "name": "mint",
      "outputs": [],
      "stateMutability": "nonpayable",
      "type": "function"
    },
    {
      "inputs": [],
      "name": "name",
      "outputs": [
        {
          "internalType": "string",
          "name": "",
          "type": "string"
        }
      ],
      "stateMutability": "view",
      "type": "function"
    },
    {
      "inputs": [],
      "name": "owner",
      "outputs": [
        {
          "internalType": "address",
          "name": "",
          "type": "address"
        }
      ],
      "stateMutability": "view",
      "type": "function"
    },
    {
      "inputs": [],
      "name": "receiveSUSD",
      "outputs": [],
      "stateMutability": "nonpayable",
      "type": "function"
    },
    {
      "inputs": [],
      "name": "renounceOwnership",
      "outputs": [],
      "stateMutability": "nonpayable",
      "type": "function"
    },
    {
      "inputs": [],
      "name": "symbol",
      "outputs": [
        {
          "internalType": "string",
          "name": "",
          "type": "string"
        }
      ],
      "stateMutability": "view",
      "type": "function"
    },
    {
      "inputs": [],
      "name": "totalSupply",
      "outputs": [
        {
          "internalType": "uint256",
          "name": "",
          "type": "uint256"
        }
      ],
      "stateMutability": "view",
      "type": "function"
    },
    {
      "inputs": [
        {
          "internalType": "address",
          "name": "recipient",
          "type": "address"
        },
        {
          "internalType": "uint256",
          "name": "amount",
          "type": "uint256"
        }
      ],
      "name": "transfer",
      "outputs": [
        {
          "internalType": "bool",
          "name": "",
          "type": "bool"
        }
      ],
      "stateMutability": "nonpayable",
      "type": "function"
    },
    {
      "inputs": [
        {
          "internalType": "address",
          "name": "sender",
          "type": "address"
        },
        {
          "internalType": "address",
          "name": "recipient",
          "type": "address"
        },
        {
          "internalType": "uint256",
          "name": "amount",
          "type": "uint256"
        }
      ],
      "name": "transferFrom",
      "outputs": [
        {
          "internalType": "bool",
          "name": "",
          "type": "bool"
        }
      ],
      "stateMutability": "nonpayable",
      "type": "function"
    },
    {
      "inputs": [
        {
          "internalType": "address",
          "name": "newOwner",
          "type": "address"
        }
      ],
      "name": "transferOwnership",
      "outputs": [],
      "stateMutability": "nonpayable",
      "type": "function"
    },
    {
      "inputs": [
        {
          "internalType": "address",
          "name": "",
          "type": "address"
        }
      ],
      "name": "users",
      "outputs": [
        {
          "internalType": "bool",
          "name": "",
          "type": "bool"
        }
      ],
      "stateMutability": "view",
      "type": "function"
    }
  ],
  "bytecode": "0x60806040523480156200001157600080fd5b50604080518082018252600a81526914dd1c9a5c1cc81554d160b21b60208083019182528351808501909452600484526314d554d160e21b908401528151919291620000609160039162000122565b5080516200007690600490602084019062000122565b505050620000936200008d620000cc60201b60201c565b620000d0565b60016006556008805460ff19166012908117909155620000b590600a62000211565b620000c3906103e8620002df565b60095562000354565b3390565b600580546001600160a01b038381166001600160a01b0319831681179093556040519116919082907f8be0079c531659141344cd1fd0a4f28419497f9722a3daafe3b4186f6b6457e090600090a35050565b828054620001309062000301565b90600052602060002090601f0160209004810192826200015457600085556200019f565b82601f106200016f57805160ff19168380011785556200019f565b828001600101855582156200019f579182015b828111156200019f57825182559160200191906001019062000182565b50620001ad929150620001b1565b5090565b5b80821115620001ad5760008155600101620001b2565b600181815b8085111562000209578160001904821115620001ed57620001ed6200033e565b80851615620001fb57918102915b93841c9390800290620001cd565b509250929050565b60006200022260ff84168362000229565b9392505050565b6000826200023a57506001620002d9565b816200024957506000620002d9565b81600181146200026257600281146200026d576200028d565b6001915050620002d9565b60ff8411156200028157620002816200033e565b50506001821b620002d9565b5060208310610133831016604e8410600b8410161715620002b2575081810a620002d9565b620002be8383620001c8565b8060001904821115620002d557620002d56200033e565b0290505b92915050565b6000816000190483118215151615620002fc57620002fc6200033e565b500290565b600181811c908216806200031657607f821691505b602082108114156200033857634e487b7160e01b600052602260045260246000fd5b50919050565b634e487b7160e01b600052601160045260246000fd5b610f2a80620003646000396000f3fe608060405234801561001057600080fd5b50600436106101215760003560e01c806370a08231116100ad578063a457c2d711610071578063a457c2d714610241578063a87430ba14610254578063a9059cbb14610277578063dd62ed3e1461028a578063f2fde38b146102c357600080fd5b806370a08231146101da578063715018a6146102035780638da5cb5b1461020b57806395d89b41146102265780639dc29fac1461022e57600080fd5b806322d58250116100f457806322d582501461018357806323b872dd1461018c578063313ce5671461019f57806339509351146101b457806340c10f19146101c757600080fd5b806306fdde0314610126578063095ea7b31461014457806314d90c581461016757806318160ddd14610171575b600080fd5b61012e6102d6565b60405161013b9190610dec565b60405180910390f35b610157610152366004610dc3565b610368565b604051901515815260200161013b565b61016f61037e565b005b6002545b60405190815260200161013b565b61017560095481565b61015761019a366004610d88565b610458565b60085460405160ff909116815260200161013b565b6101576101c2366004610dc3565b610502565b61016f6101d5366004610dc3565b61053e565b6101756101e8366004610d35565b6001600160a01b031660009081526020819052604090205490565b61016f6105b5565b6005546040516001600160a01b03909116815260200161013b565b61012e6105eb565b61016f61023c366004610dc3565b6105fa565b61015761024f366004610dc3565b61066d565b610157610262366004610d35565b60076020526000908152604090205460ff1681565b610157610285366004610dc3565b610706565b610175610298366004610d56565b6001600160a01b03918216600090815260016020908152604080832093909416825291909152205490565b61016f6102d1366004610d35565b610713565b6060600380546102e590610ea3565b80601f016020809104026020016040519081016040528092919081815260200182805461031190610ea3565b801561035e5780601f106103335761010080835404028352916020019161035e565b820191906000526020600020905b81548152906001019060200180831161034157829003601f168201915b5050505050905090565b60006103753384846107ae565b50600192915050565b600260065414156103d65760405162461bcd60e51b815260206004820152601f60248201527f5265656e7472616e637947756172643a207265656e7472616e742063616c6c0060448201526064015b60405180910390fd5b60026006553360009081526007602052604090205460ff161561042a5760405162461bcd60e51b815260206004820152600c60248201526b13505617d49150d15255915160a21b60448201526064016103cd565b610436336009546108d3565b336000908152600760205260409020805460ff19166001908117909155600655565b60006104658484846109b2565b6001600160a01b0384166000908152600160209081526040808320338452909152902054828110156104ea5760405162461bcd60e51b815260206004820152602860248201527f45524332303a207472616e7366657220616d6f756e74206578636565647320616044820152676c6c6f77616e636560c01b60648201526084016103cd565b6104f785338584036107ae565b506001949350505050565b3360008181526001602090815260408083206001600160a01b03871684529091528120549091610375918590610539908690610e74565b6107ae565b6005546001600160a01b031633146105685760405162461bcd60e51b81526004016103cd90610e3f565b600081116105a75760405162461bcd60e51b815260206004820152600c60248201526b15dc9bdb99c8185b5bdd5b9d60a21b60448201526064016103cd565b6105b182826108d3565b5050565b6005546001600160a01b031633146105df5760405162461bcd60e51b81526004016103cd90610e3f565b6105e96000610b81565b565b6060600480546102e590610ea3565b6005546001600160a01b031633146106245760405162461bcd60e51b81526004016103cd90610e3f565b600081116106635760405162461bcd60e51b815260206004820152600c60248201526b15dc9bdb99c8185b5bdd5b9d60a21b60448201526064016103cd565b6105b18282610bd3565b3360009081526001602090815260408083206001600160a01b0386168452909152812054828110156106ef5760405162461bcd60e51b815260206004820152602560248201527f45524332303a2064656372656173656420616c6c6f77616e63652062656c6f77604482015264207a65726f60d81b60648201526084016103cd565b6106fc33858584036107ae565b5060019392505050565b60006103753384846109b2565b6005546001600160a01b0316331461073d5760405162461bcd60e51b81526004016103cd90610e3f565b6001600160a01b0381166107a25760405162461bcd60e51b815260206004820152602660248201527f4f776e61626c653a206e6577206f776e657220697320746865207a65726f206160448201526564647265737360d01b60648201526084016103cd565b6107ab81610b81565b50565b6001600160a01b0383166108105760405162461bcd60e51b8152602060048201526024808201527f45524332303a20617070726f76652066726f6d20746865207a65726f206164646044820152637265737360e01b60648201526084016103cd565b6001600160a01b0382166108715760405162461bcd60e51b815260206004820152602260248201527f45524332303a20617070726f766520746f20746865207a65726f206164647265604482015261737360f01b60648201526084016103cd565b6001600160a01b0383811660008181526001602090815260408083209487168084529482529182902085905590518481527f8c5be1e5ebec7d5bd14f71427d1e84f3dd0314c0f7b2291e5b200ac8c7c3b92591015b60405180910390a3505050565b6001600160a01b0382166109295760405162461bcd60e51b815260206004820152601f60248201527f45524332303a206d696e7420746f20746865207a65726f20616464726573730060448201526064016103cd565b806002600082825461093b9190610e74565b90915550506001600160a01b03821660009081526020819052604081208054839290610968908490610e74565b90915550506040518181526001600160a01b038316906000907fddf252ad1be2c89b69c2b068fc378daa952ba7f163c4a11628f55a4df523b3ef9060200160405180910390a35050565b6001600160a01b038316610a165760405162461bcd60e51b815260206004820152602560248201527f45524332303a207472616e736665722066726f6d20746865207a65726f206164604482015264647265737360d81b60648201526084016103cd565b6001600160a01b038216610a785760405162461bcd60e51b815260206004820152602360248201527f45524332303a207472616e7366657220746f20746865207a65726f206164647260448201526265737360e81b60648201526084016103cd565b6001600160a01b03831660009081526020819052604090205481811015610af05760405162461bcd60e51b815260206004820152602660248201527f45524332303a207472616e7366657220616d6f756e7420657863656564732062604482015265616c616e636560d01b60648201526084016103cd565b6001600160a01b03808516600090815260208190526040808220858503905591851681529081208054849290610b27908490610e74565b92505081905550826001600160a01b0316846001600160a01b03167fddf252ad1be2c89b69c2b068fc378daa952ba7f163c4a11628f55a4df523b3ef84604051610b7391815260200190565b60405180910390a350505050565b600580546001600160a01b038381166001600160a01b0319831681179093556040519116919082907f8be0079c531659141344cd1fd0a4f28419497f9722a3daafe3b4186f6b6457e090600090a35050565b6001600160a01b038216610c335760405162461bcd60e51b815260206004820152602160248201527f45524332303a206275726e2066726f6d20746865207a65726f206164647265736044820152607360f81b60648201526084016103cd565b6001600160a01b03821660009081526020819052604090205481811015610ca75760405162461bcd60e51b815260206004820152602260248201527f45524332303a206275726e20616d6f756e7420657863656564732062616c616e604482015261636560f01b60648201526084016103cd565b6001600160a01b0383166000908152602081905260408120838303905560028054849290610cd6908490610e8c565b90915550506040518281526000906001600160a01b038516907fddf252ad1be2c89b69c2b068fc378daa952ba7f163c4a11628f55a4df523b3ef906020016108c6565b80356001600160a01b0381168114610d3057600080fd5b919050565b600060208284031215610d46578081fd5b610d4f82610d19565b9392505050565b60008060408385031215610d68578081fd5b610d7183610d19565b9150610d7f60208401610d19565b90509250929050565b600080600060608486031215610d9c578081fd5b610da584610d19565b9250610db360208501610d19565b9150604084013590509250925092565b60008060408385031215610dd5578182fd5b610dde83610d19565b946020939093013593505050565b6000602080835283518082850152825b81811015610e1857858101830151858201604001528201610dfc565b81811115610e295783604083870101525b50601f01601f1916929092016040019392505050565b6020808252818101527f4f776e61626c653a2063616c6c6572206973206e6f7420746865206f776e6572604082015260600190565b60008219821115610e8757610e87610ede565b500190565b600082821015610e9e57610e9e610ede565b500390565b600181811c90821680610eb757607f821691505b60208210811415610ed857634e487b7160e01b600052602260045260246000fd5b50919050565b634e487b7160e01b600052601160045260246000fdfea264697066735822122075a37052e0d5bebc5606524dc17bff75e0f10ad2901be7d0e68d3d63760e4afc64736f6c63430008040033",
  "linkReferences": {},
  "deployedLinkReferences": {}
}