{
  "_format": "hh-sol-artifact-1",
  "contractName": "UniswapLpOracle",
  "sourceName": "contracts/oracle/UniswapLpOracle.sol",
  "abi": [
    {
      "inputs": [
        {
          "internalType": "address",
          "name": "_stripsProxy",
          "type": "address"
        },
        {
          "internalType": "address",
          "name": "_pair",
          "type": "address"
        },
        {
          "internalType": "uint256",
          "name": "_avgPeriod",
          "type": "uint256"
        },
        {
          "internalType": "uint256",
          "name": "_avgInterval",
          "type": "uint256"
        }
      ],
      "stateMutability": "nonpayable",
      "type": "constructor"
    },
    {
      "inputs": [],
      "name": "avgInterval",
      "outputs": [
        {
          "internalType": "uint256",
          "name": "",
          "type": "uint256"
        }
      ],
      "stateMutability": "view",
      "type": "function"
    },
    {
      "inputs": [],
      "name": "avgPairPrice",
      "outputs": [
        {
          "internalType": "int256",
          "name": "",
          "type": "int256"
        }
      ],
      "stateMutability": "view",
      "type": "function"
    },
    {
      "inputs": [],
      "name": "avgPeriod",
      "outputs": [
        {
          "internalType": "uint256",
          "name": "",
          "type": "uint256"
        }
      ],
      "stateMutability": "view",
      "type": "function"
    },
    {
      "inputs": [
        {
          "internalType": "bytes",
          "name": "",
          "type": "bytes"
        }
      ],
      "name": "checkUpkeep",
      "outputs": [
        {
          "internalType": "bool",
          "name": "upkeepNeeded",
          "type": "bool"
        },
        {
          "internalType": "bytes",
          "name": "",
          "type": "bytes"
        }
      ],
      "stateMutability": "view",
      "type": "function"
    },
    {
      "inputs": [],
      "name": "getPrice",
      "outputs": [
        {
          "internalType": "int256",
          "name": "",
          "type": "int256"
        }
      ],
      "stateMutability": "view",
      "type": "function"
    },
    {
      "inputs": [],
      "name": "isActive",
      "outputs": [
        {
          "internalType": "bool",
          "name": "",
          "type": "bool"
        }
      ],
      "stateMutability": "view",
      "type": "function"
    },
    {
      "inputs": [],
      "name": "lastTimeStamp",
      "outputs": [
        {
          "internalType": "uint256",
          "name": "",
          "type": "uint256"
        }
      ],
      "stateMutability": "view",
      "type": "function"
    },
    {
      "inputs": [],
      "name": "pair",
      "outputs": [
        {
          "internalType": "address",
          "name": "",
          "type": "address"
        }
      ],
      "stateMutability": "view",
      "type": "function"
    },
    {
      "inputs": [
        {
          "internalType": "bytes",
          "name": "_data",
          "type": "bytes"
        }
      ],
      "name": "performUpkeep",
      "outputs": [],
      "stateMutability": "nonpayable",
      "type": "function"
    },
    {
      "inputs": [],
      "name": "stripsProxy",
      "outputs": [
        {
          "internalType": "address",
          "name": "",
          "type": "address"
        }
      ],
      "stateMutability": "view",
      "type": "function"
    }
  ],
  "bytecode": "0x608060405234801561001057600080fd5b5060405161097a38038061097a83398181016040528101906100329190610138565b80821015610075576040517f08c379a000000000000000000000000000000000000000000000000000000000815260040161006c906101be565b60405180910390fd5b83600060016101000a81548173ffffffffffffffffffffffffffffffffffffffff021916908373ffffffffffffffffffffffffffffffffffffffff160217905550816002819055508060038190555082600160006101000a81548173ffffffffffffffffffffffffffffffffffffffff021916908373ffffffffffffffffffffffffffffffffffffffff16021790555050505050610282565b60008151905061011d81610254565b92915050565b6000815190506101328161026b565b92915050565b6000806000806080858703121561014e57600080fd5b600061015c8782880161010e565b945050602061016d8782880161010e565b935050604061017e87828801610123565b925050606061018f87828801610123565b91505092959194509250565b60006101a86019836101de565b91506101b38261022b565b602082019050919050565b600060208201905081810360008301526101d78161019b565b9050919050565b600082825260208201905092915050565b60006101fa82610201565b9050919050565b600073ffffffffffffffffffffffffffffffffffffffff82169050919050565b6000819050919050565b7f504552494f445f4c4553535f5448414e5f494e54455256414c00000000000000600082015250565b61025d816101ef565b811461026857600080fd5b50565b61027481610221565b811461027f57600080fd5b50565b6106e9806102916000396000f3fe608060405234801561001057600080fd5b506004361061009e5760003560e01c80636e04ff0d116100665780636e04ff0d146101375780638aac5c3d1461016857806398d5fdca14610186578063a637c4f5146101a4578063a8aa1b31146101c25761009e565b806322f3e2d4146100a3578063379eef49146100c15780633f3b3b27146100df5780634585e33b146100fd5780634766e06e14610119575b600080fd5b6100ab6101e0565b6040516100b8919061048a565b60405180910390f35b6100c96101f1565b6040516100d69190610510565b60405180910390f35b6100e76101f7565b6040516100f49190610510565b60405180910390f35b61011760048036038101906101129190610369565b6101fd565b005b610121610230565b60405161012e9190610510565b60405180910390f35b610151600480360381019061014c9190610369565b610236565b60405161015f9291906104a5565b60405180910390f35b610170610260565b60405161017d91906104d5565b60405180910390f35b61018e610266565b60405161019b91906104d5565b60405180910390f35b6101ac6102be565b6040516101b9919061046f565b60405180910390f35b6101ca6102e4565b6040516101d7919061046f565b60405180910390f35b60008054906101000a900460ff1681565b60035481565b60045481565b818181019061020c91906103ae565b60058190555060016000806101000a81548160ff0219169083151502179055505050565b60025481565b6000606060035460045461024a9190610558565b421061025557600191505b600091509250929050565b60055481565b60008060009054906101000a900460ff166102b6576040517f08c379a00000000000000000000000000000000000000000000000000000000081526004016102ad906104f0565b60405180910390fd5b600554905090565b600060019054906101000a900473ffffffffffffffffffffffffffffffffffffffff1681565b600160009054906101000a900473ffffffffffffffffffffffffffffffffffffffff1681565b60008083601f84011261031c57600080fd5b8235905067ffffffffffffffff81111561033557600080fd5b60208301915083600182028301111561034d57600080fd5b9250929050565b6000813590506103638161069c565b92915050565b6000806020838503121561037c57600080fd5b600083013567ffffffffffffffff81111561039657600080fd5b6103a28582860161030a565b92509250509250929050565b6000602082840312156103c057600080fd5b60006103ce84828501610354565b91505092915050565b6103e0816105ae565b82525050565b6103ef816105c0565b82525050565b60006104008261052b565b61040a8185610536565b935061041a818560208601610600565b61042381610662565b840191505092915050565b610437816105cc565b82525050565b600061044a600a83610547565b915061045582610673565b602082019050919050565b610469816105f6565b82525050565b600060208201905061048460008301846103d7565b92915050565b600060208201905061049f60008301846103e6565b92915050565b60006040820190506104ba60008301856103e6565b81810360208301526104cc81846103f5565b90509392505050565b60006020820190506104ea600083018461042e565b92915050565b600060208201905081810360008301526105098161043d565b9050919050565b60006020820190506105256000830184610460565b92915050565b600081519050919050565b600082825260208201905092915050565b600082825260208201905092915050565b6000610563826105f6565b915061056e836105f6565b9250827fffffffffffffffffffffffffffffffffffffffffffffffffffffffffffffffff038211156105a3576105a2610633565b5b828201905092915050565b60006105b9826105d6565b9050919050565b60008115159050919050565b6000819050919050565b600073ffffffffffffffffffffffffffffffffffffffff82169050919050565b6000819050919050565b60005b8381101561061e578082015181840152602081019050610603565b8381111561062d576000848401525b50505050565b7f4e487b7100000000000000000000000000000000000000000000000000000000600052601160045260246000fd5b6000601f19601f8301169050919050565b7f4e4f545f41435449564500000000000000000000000000000000000000000000600082015250565b6106a5816105cc565b81146106b057600080fd5b5056fea2646970667358221220fd6d3b68e45e879437138fa0a2476dedc9297d1311efff15b7b0af176e42a24364736f6c63430008040033",
  "linkReferences": {},
  "deployedLinkReferences": {}
}